{
  "address": "0x3BE7b2d96baA0a02991f263eE792Bf40BE59ce74",
  "abi": [
    {
      "inputs": [
        {
          "internalType": "address",
          "name": "initializer",
          "type": "address"
        },
        {
          "internalType": "bytes4",
          "name": "initializerSelector",
          "type": "bytes4"
        },
        {
          "internalType": "string",
          "name": "_distributionName",
          "type": "string"
        },
        {
          "components": [
            {
              "internalType": "uint64",
              "name": "major",
              "type": "uint64"
            },
            {
              "internalType": "uint64",
              "name": "minor",
              "type": "uint64"
            },
            {
              "internalType": "uint128",
              "name": "patch",
              "type": "uint128"
            }
          ],
          "internalType": "struct LibSemver.Version",
          "name": "version",
          "type": "tuple"
        },
        {
          "components": [
            {
              "internalType": "address",
              "name": "loupeFacet",
              "type": "address"
            },
            {
              "internalType": "address",
              "name": "inspectorFacet",
              "type": "address"
            },
            {
              "internalType": "address",
              "name": "RankifyMainFacet",
              "type": "address"
            },
            {
              "internalType": "address",
              "name": "RankifyReqsFacet",
              "type": "address"
            },
            {
              "internalType": "address",
              "name": "RankifyGMFacet",
              "type": "address"
            },
            {
              "internalType": "address",
              "name": "OwnershipFacet",
              "type": "address"
            }
          ],
          "internalType": "struct ArguableVotingTournament.ArguableTournamentAddresses",
          "name": "addresses",
          "type": "tuple"
        }
      ],
      "stateMutability": "nonpayable",
      "type": "constructor"
    },
    {
      "inputs": [
        {
          "internalType": "bytes32",
          "name": "codeId",
          "type": "bytes32"
        }
      ],
      "name": "CodeNotFoundInIndex",
      "type": "error"
    },
    {
      "inputs": [],
      "name": "FailedDeployment",
      "type": "error"
    },
    {
      "inputs": [
        {
          "internalType": "uint256",
          "name": "balance",
          "type": "uint256"
        },
        {
          "internalType": "uint256",
          "name": "needed",
          "type": "uint256"
        }
      ],
      "name": "InsufficientBalance",
      "type": "error"
    },
    {
      "inputs": [
        {
          "internalType": "string",
          "name": "str",
          "type": "string"
        }
      ],
      "name": "StringTooLong",
      "type": "error"
    },
    {
      "anonymous": false,
      "inputs": [
        {
          "indexed": true,
          "internalType": "address",
          "name": "distributor",
          "type": "address"
        },
        {
          "indexed": false,
          "internalType": "address[]",
          "name": "instances",
          "type": "address[]"
        }
      ],
      "name": "Distributed",
      "type": "event"
    },
    {
      "inputs": [],
      "name": "contractURI",
      "outputs": [
        {
          "internalType": "string",
          "name": "",
          "type": "string"
        }
      ],
      "stateMutability": "pure",
      "type": "function"
    },
    {
      "inputs": [],
      "name": "get",
      "outputs": [
        {
          "internalType": "address[]",
          "name": "",
          "type": "address[]"
        },
        {
          "internalType": "bytes32",
          "name": "name",
          "type": "bytes32"
        },
        {
          "internalType": "uint256",
          "name": "version",
          "type": "uint256"
        }
      ],
      "stateMutability": "view",
      "type": "function"
    },
    {
      "inputs": [
        {
          "internalType": "bytes",
          "name": "ownerEncoded",
          "type": "bytes"
        }
      ],
      "name": "instantiate",
      "outputs": [
        {
          "internalType": "address[]",
          "name": "instances",
          "type": "address[]"
        },
        {
          "internalType": "bytes32",
          "name": "",
          "type": "bytes32"
        },
        {
          "internalType": "uint256",
          "name": "",
          "type": "uint256"
        }
      ],
      "stateMutability": "nonpayable",
      "type": "function"
    }
  ],
  "transactionHash": "0xb6425e9b1e7c18a5c35fdfb4518d13fa3ee33c7bac8f2cd11713f0e320fe8542",
  "args": [
    "0x5061A1F6Ae20C0413515727Bd7BAa1c8e1C5E8d3",
    "0x00000000",
    "RANKIFY_INSTANCE_NAME",
    {
      "major": "0",
      "minor": "0",
      "patch": "1"
    },
    {
      "loupeFacet": "0x140eD70018A54ca87e1a0D3D78878af71ba6A608",
      "inspectorFacet": "0xfDacD54ae0dF0Db550D38a170375623E53fd66f6",
      "RankifyMainFacet": "0x8E417fbC5eCd28c639F5b400210E7376dc561C50",
      "RankifyReqsFacet": "0x87b457D89A753c9F2Dc115c0A5DD7c793CdA42B1",
      "RankifyGMFacet": "0xae0C2C9E5a091856Aca2764e41656b89b8B52f29",
      "OwnershipFacet": "0x392082295EEfda24FA57e4150A8A1f3d0A9Af852"
    }
  ],
  "numDeployments": 5,
  "solcInputHash": "c39df3bfaa5303562487d7f6f4698f7c",
  "bytecode": "0x610200806040523461041457615ace803803809161001d8285610443565b833981018181039161018083126104145761003781610466565b91602082015163ffffffff60e01b811681036104145760408301516001600160401b0381116104145783019082601f83011215610414578151916001600160401b03831161042d5760405192610097601f8201601f191660200185610443565b808452602084019460208284010111610414578460206100b7930161047a565b6060605f198701126104145760405193606085016001600160401b0381118682101761042d576040526100ec6060820161049d565b85526100fa6080820161049d565b6020860190815260a0820151979096906001600160801b03891689036104145760c09060408801998a5260bf1901126104145760405160c081016001600160401b0381118282101761042d5760405261015560c08401610466565b815261016360e08401610466565b602082019081526101776101008501610466565b916040810192835261018c6101208601610466565b93606082019485526101b56101606101a76101408901610466565b976080850198895201610466565b60a0830190815260405190979061151a8082016001600160401b0381118382101761042d578291611cac833903906000f0801561042157604051906129088083016001600160401b0381118482101761042d5760409284926131c684393082526001600160a01b031660208201520301906000f08015610421576001600160a01b031660805260405163023aa9ab60e61b81526000600482015260208160248173c0de1d2f7662c63796e544b2647b2a94ee658e075afa908115610421576000916103e2575b5060a05260c0526101a052516001600160a01b0390811660e0529051811661010052905181166101205290518116610140529051811661016052905116610180528051601f106103a45751905160208210610393575b176101c05251905191516001600160801b031660809290921b600160801b600160c01b031660c09190911b6001600160c01b03191617176101e0526040516117fa90816104b2823960805181611766015260a05181818161104701526114bc015260c05181505060e051816103ae0152610100518161047d01526101205181610ba701526101405181610cc401526101605181610e0d01526101805181610ed301526101a05181610f7301526101c051816111c601526101e051816111eb0152f35b6000198260200360031b1b166102d1565b6044906103d49260405193849263305a27a960e01b8452602060048501525180928160248601528585019061047a565b601f01601f19168101030190fd5b90506020813d602011610419575b816103fd60209383610443565b810103126104145761040e90610466565b3861027b565b600080fd5b3d91506103f0565b6040513d6000823e3d90fd5b634e487b7160e01b600052604160045260246000fd5b601f909101601f19168101906001600160401b0382119082101761042d57604052565b51906001600160a01b038216820361041457565b60005b83811061048d5750506000910152565b818101518382015260200161047d565b51906001600160401b03821682036104145756fe6080604052600436101561001257600080fd5b6000803560e01c80636d4ce63c1461144a5780639ca33c9e1461017c5763e8a3d4851461003e57600080fd5b346101795780600319360112610179576100e19060209060405161006283826115c5565b5261015c601982604051600182820190610174575b7f3b0000000000000000000000000000000000000000000000000000000000000081527f496e697469616c697a65644469616d6f6e64446973747269627574696f6e00006021830152601f82526100cf603f836115c5565b604051968792518092858501906115e8565b81017f3b00000000000000000000000000000000000000000000000000000000000000838201527f4172677561626c65566f74696e67546f75726e616d656e740000000000000000602182015203017ffffffffffffffffffffffffffffffffffffffffffffffffffffffffffffffff98101855201836115c5565b61017060405192828493845283019061160b565b0390f35b610077565b80fd5b50346101795760206003193601126101795760043567ffffffffffffffff8111611432573660238201121561143257806004013567ffffffffffffffff8111611436576040516101d6601f8301601f1916602001826115c5565b81815283602082019336602485830101116114325783602094602486930187378301015280518101031261143257516001600160a01b0381168091036114325761021e611731565b5050805161022b81611630565b9161023960405193846115c5565b818352601f1961024883611630565b01366020850137845b828110611378575050506102a76001600160a01b0391604051602081527fe3cc25159981d843f19d5a7611997a66ca6e772edd134fb611c7b29aded7bb8a33918061029f6020820186611556565b0390a2611648565b51604051939116601f196101006102be81876115c5565b6007865201825b81811061134e575050604051936102dd60a0866115c5565b60048552608094853660208301377f7a0ed6270000000000000000000000000000000000000000000000000000000061031582611648565b527fadfca15e000000000000000000000000000000000000000000000000000000006103408261166b565b527f52ef6b2c0000000000000000000000000000000000000000000000000000000061036b8261167b565b527fcdffacc6000000000000000000000000000000000000000000000000000000006103968261168b565b52604051906103a482611593565b6001600160a01b037f000000000000000000000000000000000000000000000000000000000000000016825284602083015260408201526103e482611648565b526103ee81611648565b506040516060956103ff87836115c5565b60028252601f19870191823660208301377fd3a8018d0000000000000000000000000000000000000000000000000000000061043a82611648565b527f6cbadbfa000000000000000000000000000000000000000000000000000000006104658261166b565b526040519061047382611593565b6001600160a01b037f000000000000000000000000000000000000000000000000000000000000000016825286602083015260408201526104b38461166b565b526104bd8361166b565b50604051601f196104a06104d181846115c5565b60248352013660208301377f69958ab90000000000000000000000000000000000000000000000000000000061050682611648565b527faee5f34a000000000000000000000000000000000000000000000000000000006105318261166b565b527ff9d531f30000000000000000000000000000000000000000000000000000000061055c8261167b565b527f3feef58a000000000000000000000000000000000000000000000000000000006105878261168b565b527f38abc5a2000000000000000000000000000000000000000000000000000000006105b28261169b565b527fcca84a0c000000000000000000000000000000000000000000000000000000006105dd826116ab565b527fe5ed1d5900000000000000000000000000000000000000000000000000000000610608826116bb565b527fbc197c8100000000000000000000000000000000000000000000000000000000610633826116cb565b5280516008101561133a577ff23a6e610000000000000000000000000000000000000000000000000000000061012082015280516009101561133a577f150b7a02000000000000000000000000000000000000000000000000000000006101408201528051600a101561133a577f7f4e4849000000000000000000000000000000000000000000000000000000006101608201528051600b101561133a577fb55991c0000000000000000000000000000000000000000000000000000000006101808201528051600c101561133a577ff72ea467000000000000000000000000000000000000000000000000000000006101a08201528051600d101561133a577f04527d90000000000000000000000000000000000000000000000000000000006101c08201528051600e101561133a577f9637460e000000000000000000000000000000000000000000000000000000006101e08201528051600f101561133a577f8eed01f80000000000000000000000000000000000000000000000000000000061020082015280516010101561133a577f4a7246880000000000000000000000000000000000000000000000000000000061022082015280516011101561133a577fb881cffe0000000000000000000000000000000000000000000000000000000061024082015280516012101561133a577f4024ba750000000000000000000000000000000000000000000000000000000061026082015280516013101561133a577f9a214b1e0000000000000000000000000000000000000000000000000000000061028082015280516014101561133a577f460e2049000000000000000000000000000000000000000000000000000000006102a082015280516015101561133a577f392b749c000000000000000000000000000000000000000000000000000000006102c082015280516016101561133a577f376a6130000000000000000000000000000000000000000000000000000000006102e082015280516017101561133a577f8d3b80b30000000000000000000000000000000000000000000000000000000061030082015280516018101561133a577fde8380480000000000000000000000000000000000000000000000000000000061032082015280516019101561133a577f3528dff7000000000000000000000000000000000000000000000000000000006103408201528051601a101561133a577f37eb5109000000000000000000000000000000000000000000000000000000006103608201528051601b101561133a577fbab0ac03000000000000000000000000000000000000000000000000000000006103808201528051601c101561133a577fb0e8bc35000000000000000000000000000000000000000000000000000000006103a08201528051601d101561133a577f04791309000000000000000000000000000000000000000000000000000000006103c08201528051601e101561133a577f0d3b404f000000000000000000000000000000000000000000000000000000006103e08201528051601f101561133a577fd96957330000000000000000000000000000000000000000000000000000000061040082015280516020101561133a577fbbb294f80000000000000000000000000000000000000000000000000000000061042082015280516021101561133a577f4f7a0a2b0000000000000000000000000000000000000000000000000000000061044082015280516022101561133a577f6d2e19770000000000000000000000000000000000000000000000000000000061046082015280516023101561133a577faf39e6ab0000000000000000000000000000000000000000000000000000000061048082015260405190610b9d82611593565b6001600160a01b037f00000000000000000000000000000000000000000000000000000000000000001682528660208301526040820152610bdd8461167b565b52610be78361167b565b5060405190610bf760a0836115c5565b600482523660208301377fbf0f2d7e00000000000000000000000000000000000000000000000000000000610c2b82611648565b527f8f298b2a00000000000000000000000000000000000000000000000000000000610c568261166b565b527fffde0c7400000000000000000000000000000000000000000000000000000000610c818261167b565b527f0270032600000000000000000000000000000000000000000000000000000000610cac8261168b565b5260405190610cba82611593565b6001600160a01b037f00000000000000000000000000000000000000000000000000000000000000001682528560208301526040820152610cfa8361168b565b52610d048261168b565b50604051610d1360c0826115c5565b6005815260a03660208301377f3fcdad4100000000000000000000000000000000000000000000000000000000610d4982611648565b527f73f1fe6c00000000000000000000000000000000000000000000000000000000610d748261166b565b527f4fd042bf00000000000000000000000000000000000000000000000000000000610d9f8261167b565b527f11a615e000000000000000000000000000000000000000000000000000000000610dca8261168b565b527fd385fc9b00000000000000000000000000000000000000000000000000000000610df58261169b565b5260405190610e0382611593565b6001600160a01b037f00000000000000000000000000000000000000000000000000000000000000001682528560208301526040820152610e438361169b565b52610e4d8261169b565b5060405190610e5c87836115c5565b600282523660208301377ff2fde38b00000000000000000000000000000000000000000000000000000000610e9082611648565b527f8da5cb5b00000000000000000000000000000000000000000000000000000000610ebb8261166b565b5260405190610ec982611593565b6001600160a01b037f00000000000000000000000000000000000000000000000000000000000000001682528460208301526040820152610f09826116ab565b52610f13816116ab565b506040918251610f2384826115c5565b60018152601f1984013660208301377f5f741df600000000000000000000000000000000000000000000000000000000610f5c82611648565b52835190610f6982611593565b6001600160a01b037f000000000000000000000000000000000000000000000000000000000000000016825285602083015284820152610fa8836116bb565b52610fb2826116bb565b50602093808451610fc387826115c5565b5250825194610fd285876115c5565b600095868152823b156113365786855180927f1f931c1c00000000000000000000000000000000000000000000000000000000825260648201908b600484015287518092526084830160848360051b850101928b8a019186905b8282106112565750505050829161107d916001600160a01b037f000000000000000000000000000000000000000000000000000000000000000016602485015260031984830301604485015261160b565b038183875af1801561124c57611238575b506001600160a01b0361115261012094601f198751966110ae81896115c5565b60088852013689880137846110c287611648565b52826110cd82611648565b5151166110d98761166b565b52826110e48261166b565b5151166110f08761167b565b52826110fb8261167b565b5151166111078761168b565b52826111128261168b565b51511661111e8761169b565b52826111298261169b565b515116611135876116ab565b5282611140826116ab565b51511661114c876116bb565b526116bb565b51511661115e846116cb565b52813b156112285760009160248392865194859384927ff2fde38b00000000000000000000000000000000000000000000000000000000845260048401525af1801561122d57908591611212575b50506111c390825195869550808652850190611556565b917f0000000000000000000000000000000000000000000000000000000000000000908401527f0000000000000000000000000000000000000000000000000000000000000000908301520390f35b600061121d916115c5565b6112285783386111ac565b600080fd5b83513d6000823e3d90fd5b86611245919792976115c5565b943861108e565b85513d89823e3d90fd5b92965092947fffffffffffffffffffffffffffffffffffffffffffffffffffffffffffffff7c908592950301825285516001600160a01b0381511682528c8101516003811015611322578f8f918f948f949083866080938995868501520151968201528551809482015201930191905b8082106112e7575050509080600192970192019201928c959387959361102c565b919380600192947fffffffff00000000000000000000000000000000000000000000000000000000875116815201940192018e9392916112c6565b60248f634e487b7160e01b81526021600452fd5b8680fd5b602486634e487b7160e01b81526032600452fd5b60209060405161135d81611593565b858152858382015260606040820152828289010152016102c5565b6e5af43d82803e903d91602b57fd5bf37fffffffffffffffffffffffffffffffffff0000000000000000000000000000006113b383856116dc565b51763d602d80600a3d3981f3363d3d373d3d3d363d7300000062ffffff8260881c1617895260781b16176020526001600160a01b036037600988f016801561140a579060019161140382876116dc565b5201610251565b6004877fb06ebf3d000000000000000000000000000000000000000000000000000000008152fd5b5080fd5b602483634e487b7160e01b81526041600452fd5b5034610179578060031936011261017957611463611731565b50506040516114736060826115c5565b600281526040366020830137600182510361154257916114b2611533936001600160a01b036114a185611648565b51166114ac82611648565b5261166b565b6001600160a01b037f000000000000000000000000000000000000000000000000000000000000000016905261151e6040517f496e697469616c697a65644469616d6f6e64446973747269627574696f6e00006020820152601e8152611519603e826115c5565b6116f0565b90604051938493606085526060850190611556565b91602084015260408301520390f35b602483634e487b7160e01b81526001600452fd5b906020808351928381520192019060005b8181106115745750505090565b82516001600160a01b0316845260209384019390920191600101611567565b6060810190811067ffffffffffffffff8211176115af57604052565b634e487b7160e01b600052604160045260246000fd5b90601f601f19910116810190811067ffffffffffffffff8211176115af57604052565b60005b8381106115fb5750506000910152565b81810151838201526020016115eb565b90601f19601f602093611629815180928187528780880191016115e8565b0116010190565b67ffffffffffffffff81116115af5760051b60200190565b8051156116555760200190565b634e487b7160e01b600052603260045260246000fd5b8051600110156116555760400190565b8051600210156116555760600190565b8051600310156116555760800190565b8051600410156116555760a00190565b8051600510156116555760c00190565b8051600610156116555760e00190565b805160071015611655576101000190565b80518210156116555760209160051b010190565b602081519101519060208110611704575090565b7fffffffffffffffffffffffffffffffffffffffffffffffffffffffffffffffff9060200360031b1b1690565b6040906117be82519261174481856115c5565b60018452601f19810136602086013761175c84611648565b6001600160a01b037f0000000000000000000000000000000000000000000000000000000000000000169052517f4469616d6f6e64446973747269627574696f6e000000000000000000000000006020820152601381526115196033826115c5565b9060009056fea264697066735822122067dd89f83262b7822b9426a5c032c8380b2cfd7ee11c385a6cfd9b352f8cf91364736f6c634300081c0033608080604052346015576114ff908161001b8239f35b600080fdfe6080604052600436101561001257600080fd5b60003560e01c631f931c1c1461002757600080fd5b34610b335760607ffffffffffffffffffffffffffffffffffffffffffffffffffffffffffffffffc360112610b335760043567ffffffffffffffff8111610b335736602382011215610b3357806004013567ffffffffffffffff8111610b335760248160051b83010190368211610b33576024356001600160a01b03811693848203610b33576044359167ffffffffffffffff8311610b335736602384011215610b33578260040135926100e26100dd85610b74565b610b38565b9380855260208501913660248383010111610b3357816000926024602093018537860101526001600160a01b037fc8fcad8db84d3cc18b4c41d551ea0ee66dd599cde068d998e57d5e09332c132054163303610ac95786929560206101496100dd88610b90565b8097815201809160009860248101905b82821061096f575050505086955b87815188101561067f5750602061017e8883610ba8565b510151600381101561066b578061033057506001600160a01b036101a28883610ba8565b515116958860406101b38a85610ba8565b510151956101c387511515610c13565b6101ce891515610c84565b6bffffffffffffffffffffffff6102178a6001600160a01b03166000527fc8fcad8db84d3cc18b4c41d551ea0ee66dd599cde068d998e57d5e09332c131d602052604060002090565b5416958615610322575b82965b8851881015610305576001600160a01b0360406001600160e01b031961024a8b8d610ba8565b5116958681527fc8fcad8db84d3cc18b4c41d551ea0ee66dd599cde068d998e57d5e09332c131c60205220541661029b576102938161028e8f966001948f91611389565b610cf5565b970196610224565b608460405162461bcd60e51b815260206004820152603560248201527f4c69624469616d6f6e644375743a2043616e2774206164642066756e6374696f60448201527f6e207468617420616c72656164792065786973747300000000000000000000006064820152fd5b5094999196509450600191969297505b0196919293509394610167565b61032b8a611262565b610221565b959795600181036104da57506001600160a01b0361034e8883610ba8565b51511697604061035e8984610ba8565b5101519461036e86511515610c13565b6103798a1515610c84565b6bffffffffffffffffffffffff6103c28b6001600160a01b03166000527fc8fcad8db84d3cc18b4c41d551ea0ee66dd599cde068d998e57d5e09332c131d602052604060002090565b54169485156104cc575b88955b87518710156104b6576001600160e01b03196103eb888a610ba8565b5116808b527fc8fcad8db84d3cc18b4c41d551ea0ee66dd599cde068d998e57d5e09332c131c6020526001600160a01b0360408c205416918d831461044c5761028e8e828461043f61044496600198610d6d565b611389565b9601956103cf565b608460405162461bcd60e51b815260206004820152603860248201527f4c69624469616d6f6e644375743a2043616e2774207265706c6163652066756e60448201527f6374696f6e20776974682073616d652066756e6374696f6e00000000000000006064820152fd5b5093989094508799506001919692979550610315565b6104d58b611262565b6103cc565b949792949193909291600203610601576001600160a01b036104fc8885610ba8565b51511694604061050c8986610ba8565b5101519561051c87511515610c13565b61059757865b865181101561058657806105806001600160e01b03196105446001948b610ba8565b5116808b527fc8fcad8db84d3cc18b4c41d551ea0ee66dd599cde068d998e57d5e09332c131c6020526001600160a01b0360408c205416610d6d565b01610522565b509194509194966001889497610315565b608460405162461bcd60e51b815260206004820152603660248201527f4c69624469616d6f6e644375743a2052656d6f7665206661636574206164647260448201527f657373206d7573742062652061646472657373283029000000000000000000006064820152fd5b608460405162461bcd60e51b815260206004820152602760248201527f4c69624469616d6f6e644375743a20496e636f7272656374204661636574437560448201527f74416374696f6e000000000000000000000000000000000000000000000000006064820152fd5b602489634e487b7160e01b81526021600452fd5b95949196506040519060608201906060835251809152608082019060808160051b840101989188905b8282106108af575050505080806106f288998560207f8faa70878671ccd212d20771b795c50af8fd3ff6cf27f4bde57e5d4de0aeb673969b9a9b0152828103604084015289610bd2565b0390a1806107705750505050516107065780f35b608460405162461bcd60e51b815260206004820152603c60248201527f4c69624469616d6f6e644375743a205f696e697420697320616464726573732860448201527f3029206275745f63616c6c64617461206973206e6f7420656d707479000000006064820152fd5b9383943003610847575b51915af43d1561083f573d906107926100dd83610b74565b9182523d83602084013e5b156107a6575080f35b8051156107d5576107d19060405191829162461bcd60e51b8352602060048401526024830190610bd2565b0390fd5b608460405162461bcd60e51b815260206004820152602660248201527f4c69624469616d6f6e644375743a205f696e69742066756e6374696f6e20726560448201527f76657274656400000000000000000000000000000000000000000000000000006064820152fd5b60609061079d565b6108aa6108546060610b38565b602881527f4c69624469616d6f6e644375743a205f696e697420616464726573732068617360208201527f206e6f20636f646500000000000000000000000000000000000000000000000060408201528461149c565b61077a565b7fffffffffffffffffffffffffffffffffffffffffffffffffffffffffffffff80858c03018152835160608c01906001600160a01b038151168d526020810151600381101561095b5760406020928f9284608094015201519d8e6060604083015251809452019c01908b905b8082106109385750505060209384019360019290920191016106a8565b90919c6020808f926001600160e01b031960019451168152019e0192019061091b565b60248d634e487b7160e01b81526021600452fd5b819a9997939a98969594983567ffffffffffffffff8111610ac55781019a60607fffffffffffffffffffffffffffffffffffffffffffffffffffffffffffffffdc8d36030112610ac5576040519b60608d018d811067ffffffffffffffff821117610ab15760405260248101356001600160a01b0381168103610aad578d5260448101356003811015610aad5760208e015260648101359067ffffffffffffffff8211610aad5790602491010136601f82011215610aa9578035610a356100dd82610b90565b9160208084848152019260051b82010190368211610aa557602001915b818310610a80575050506020918d83928e9f9d9e9b9c9d604001528152019201919397989994959650610159565b82356001600160e01b031981168103610aa157815260209283019201610a52565b8f80fd5b8e80fd5b8b80fd5b8c80fd5b60248d634e487b7160e01b81526041600452fd5b8a80fd5b608460405162461bcd60e51b815260206004820152602260248201527f4c69624469616d6f6e643a204d75737420626520636f6e7472616374206f776e60448201527f65720000000000000000000000000000000000000000000000000000000000006064820152fd5b600080fd5b90601f19601f604051930116820182811067ffffffffffffffff821117610b5e57604052565b634e487b7160e01b600052604160045260246000fd5b67ffffffffffffffff8111610b5e57601f01601f191660200190565b67ffffffffffffffff8111610b5e5760051b60200190565b8051821015610bbc5760209160051b010190565b634e487b7160e01b600052603260045260246000fd5b919082519283825260005b848110610bfe575050601f19601f8460006020809697860101520116010190565b80602080928401015182828601015201610bdd565b15610c1a57565b608460405162461bcd60e51b815260206004820152602b60248201527f4c69624469616d6f6e644375743a204e6f2073656c6563746f727320696e206660448201527f6163657420746f206375740000000000000000000000000000000000000000006064820152fd5b15610c8b57565b608460405162461bcd60e51b815260206004820152602c60248201527f4c69624469616d6f6e644375743a204164642066616365742063616e2774206260448201527f65206164647265737328302900000000000000000000000000000000000000006064820152fd5b6bffffffffffffffffffffffff166bffffffffffffffffffffffff8114610d1c5760010190565b634e487b7160e01b600052601160045260246000fd5b9190918054831015610bbc57600052601c60206000208360031c019260021b1690565b8054821015610bbc5760005260206000200190600090565b6001600160a01b03169081156111f85730821461118e576001600160e01b031916806000527fc8fcad8db84d3cc18b4c41d551ea0ee66dd599cde068d998e57d5e09332c131c60205260406000205460a01c90826000527fc8fcad8db84d3cc18b4c41d551ea0ee66dd599cde068d998e57d5e09332c131d602052604060002054916000198301928311610d1c5782810361108a575b50604060008481527fc8fcad8db84d3cc18b4c41d551ea0ee66dd599cde068d998e57d5e09332c131d6020522080548015610fb6576000190190610e478282610d32565b63ffffffff82549160031b1b19169055556000527fc8fcad8db84d3cc18b4c41d551ea0ee66dd599cde068d998e57d5e09332c131c6020526000604081205515610e8e5750565b7fc8fcad8db84d3cc18b4c41d551ea0ee66dd599cde068d998e57d5e09332c131e546000198101908111610d1c57816000527fc8fcad8db84d3cc18b4c41d551ea0ee66dd599cde068d998e57d5e09332c131d60205260016040600020015490808203610fcc575b50507fc8fcad8db84d3cc18b4c41d551ea0ee66dd599cde068d998e57d5e09332c131e548015610fb65760001901610f4e817fc8fcad8db84d3cc18b4c41d551ea0ee66dd599cde068d998e57d5e09332c131e610d55565b6001600160a01b0382549160031b1b191690557fc8fcad8db84d3cc18b4c41d551ea0ee66dd599cde068d998e57d5e09332c131e556000527fc8fcad8db84d3cc18b4c41d551ea0ee66dd599cde068d998e57d5e09332c131d60205260006001604082200155565b634e487b7160e01b600052603160045260246000fd5b610ffe6001600160a01b03917fc8fcad8db84d3cc18b4c41d551ea0ee66dd599cde068d998e57d5e09332c131e610d55565b90549060031b1c1661105381611034847fc8fcad8db84d3cc18b4c41d551ea0ee66dd599cde068d998e57d5e09332c131e610d55565b9091906001600160a01b038084549260031b9316831b921b1916179055565b6000527fc8fcad8db84d3cc18b4c41d551ea0ee66dd599cde068d998e57d5e09332c131d6020526001604060002001553880610ef6565b61118890846000527fc8fcad8db84d3cc18b4c41d551ea0ee66dd599cde068d998e57d5e09332c131d6020526001600160e01b03196110cd856040600020610d32565b90549060031b1c60e01b866000527fc8fcad8db84d3cc18b4c41d551ea0ee66dd599cde068d998e57d5e09332c131d60205261112e81611111856040600020610d32565b90919063ffffffff83549160031b9260e01c831b921b1916179055565b166000527fc8fcad8db84d3cc18b4c41d551ea0ee66dd599cde068d998e57d5e09332c131c6020526040600020906001600160a01b0373ffffffffffffffffffffffffffffffffffffffff1983549260a01b169116179055565b38610e03565b608460405162461bcd60e51b815260206004820152602e60248201527f4c69624469616d6f6e644375743a2043616e27742072656d6f766520696d6d7560448201527f7461626c652066756e6374696f6e0000000000000000000000000000000000006064820152fd5b608460405162461bcd60e51b815260206004820152603760248201527f4c69624469616d6f6e644375743a2043616e27742072656d6f76652066756e6360448201527f74696f6e207468617420646f65736e27742065786973740000000000000000006064820152fd5b6112c561126f6060610b38565b602481527f4c69624469616d6f6e644375743a204e657720666163657420686173206e6f2060208201527f636f64650000000000000000000000000000000000000000000000000000000060408201528261149c565b7fc8fcad8db84d3cc18b4c41d551ea0ee66dd599cde068d998e57d5e09332c131e54906001600160a01b0381166000527fc8fcad8db84d3cc18b4c41d551ea0ee66dd599cde068d998e57d5e09332c131d6020528160016040600020015568010000000000000000821015610b5e5761103482600161138794017fc8fcad8db84d3cc18b4c41d551ea0ee66dd599cde068d998e57d5e09332c131e557fc8fcad8db84d3cc18b4c41d551ea0ee66dd599cde068d998e57d5e09332c131e610d55565b565b6113f26001600160e01b0319821692836000527fc8fcad8db84d3cc18b4c41d551ea0ee66dd599cde068d998e57d5e09332c131c6020526040600020906001600160a01b0373ffffffffffffffffffffffffffffffffffffffff1983549260a01b169116179055565b60406001600160a01b0360009416938481527fc8fcad8db84d3cc18b4c41d551ea0ee66dd599cde068d998e57d5e09332c131d602052209081549168010000000000000000831015610b5e578261111191600161145195018155610d32565b6000527fc8fcad8db84d3cc18b4c41d551ea0ee66dd599cde068d998e57d5e09332c131c60205260406000209073ffffffffffffffffffffffffffffffffffffffff19825416179055565b3b156114a55750565b6107d19060405191829162461bcd60e51b8352602060048401526024830190610bd256fea2646970667358221220700d0ee929da1821a298a93d777f43abd07ee51e1a40001ae6ada8f9a54cca6e64736f6c634300081c003360a0604052612908604081380391826100178161079d565b938492833981010312610763576100396020610032836107c2565b92016107c2565b6080527fc8fcad8db84d3cc18b4c41d551ea0ee66dd599cde068d998e57d5e09332c132080546001600160a01b039283166001600160a01b0319821681179092559091167f8be0079c531659141344cd1fd0a4f28419497f9722a3daafe3b4186f6b6457e0600080a360406100ad8161079d565b6001815290601f19810160005b81811061073c57506100cb8261079d565b90600182523660208301376307e4c70760e21b6100e7826107d6565b526080516001600160a01b0316906100fd610768565b9182526000602083015282820152610114836107d6565b5261011e826107d6565b50602061012a8161079d565b90600082526000925b84518410156105b1578161014785876107f9565b510151600381101561059b576000816102c75750909190506001600160a01b0361017185876107f9565b515116928261018086886107f9565b510151906101908251151561084e565b61019b8515156108ae565b6001600160a01b03851660009081526000805160206128e883398151915260205260409020546001600160601b03169081156102b9575b6000915b83518310156102a3576001600160e01b03196101f284866107f9565b511660008181526000805160206128a88339815191528752879020546001600160a01b0316610239578161022c8960019461023194610e2c565b61090f565b9201916101d6565b865162461bcd60e51b815260048101879052603560248201527f4c69624469616d6f6e644375743a2043616e2774206164642066756e6374696f60448201527f6e207468617420616c72656164792065786973747300000000000000000000006064820152608490fd5b50959150506001919593505b0192919390610133565b6102c286610d3d565b6101d2565b506001810361043c57506001600160a01b036102e385876107f9565b51511692816102f286886107f9565b510151906103028251151561084e565b61030d8515156108ae565b6001600160a01b03851660009081526000805160206128e883398151915260205260409020546001600160601b031690811561042e575b6000915b835183101561041d576001600160e01b031961036484866107f9565b511660008181526000805160206128a88339815191528852869020546001600160a01b03168881146103b3579161022c8982846103a66103ab96600198610978565b610e2c565b920191610348565b865162461bcd60e51b815260048101899052603860248201527f4c69624469616d6f6e644375743a2043616e2774207265706c6163652066756e60448201527f6374696f6e20776974682073616d652066756e6374696f6e00000000000000006064820152608490fd5b5095915050600191929593506102af565b61043786610d3d565b610344565b92939260009190600203610548576001600160a01b0361045c85886107f9565b515116948161046b86896107f9565b5101519561047b8751151561084e565b6104de57825b86518110156104cf576001906104c96001600160e01b03196104a3838b6107f9565b51168087526000805160206128a88339815191528852838060a01b038688205416610978565b01610481565b509450919492600191506102af565b815162461bcd60e51b815260048101859052603660248201527f4c69624469616d6f6e644375743a2052656d6f7665206661636574206164647260448201527f657373206d7573742062652061646472657373283029000000000000000000006064820152608490fd5b5162461bcd60e51b815260048101839052602760248201527f4c69624469616d6f6e644375743a20496e636f727265637420466163657443756044820152663a20b1ba34b7b760c91b6064820152608490fd5b634e487b7160e01b600052602160045260246000fd5b91848351906060820160608352815180915260808301908560808260051b8601019301916000905b8282106106a55750505050908061061e7f8faa70878671ccd212d20771b795c50af8fd3ff6cf27f4bde57e5d4de0aeb67393600087840152828103888401528561080d565b0390a15161063d5750516119ac9081610efc82396080518161058b0152f35b608491519062461bcd60e51b82526004820152603c60248201527f4c69624469616d6f6e644375743a205f696e697420697320616464726573732860448201527f3029206275745f63616c6c64617461206973206e6f7420656d707479000000006064820152fd5b858503607f19018152835180516001600160a01b031686528881015194959394929391926060830191600382101561059b5760808460608e8e979481979689809701520151958201528451809452019201906000905b8082106107185750505090806001929601920192019092916105d9565b82516001600160e01b03191684528b949384019390920191600191909101906106fb565b602090610747610768565b60008152600083820152606085820152828287010152016100ba565b600080fd5b60405190606082016001600160401b0381118382101761078757604052565b634e487b7160e01b600052604160045260246000fd5b6040519190601f01601f191682016001600160401b0381118382101761078757604052565b51906001600160a01b038216820361076357565b8051156107e35760200190565b634e487b7160e01b600052603260045260246000fd5b80518210156107e35760209160051b010190565b919082519283825260005b848110610839575050826000602080949584010152601f8019910116010190565b80602080928401015182828601015201610818565b1561085557565b60405162461bcd60e51b815260206004820152602b60248201527f4c69624469616d6f6e644375743a204e6f2073656c6563746f727320696e206660448201526a1858d95d081d1bc818dd5d60aa1b6064820152608490fd5b156108b557565b60405162461bcd60e51b815260206004820152602c60248201527f4c69624469616d6f6e644375743a204164642066616365742063616e2774206260448201526b65206164647265737328302960a01b6064820152608490fd5b6001600160601b039081169081146109275760010190565b634e487b7160e01b600052601160045260246000fd5b91909180548310156107e357600052601c60206000208360031c019260021b1690565b80548210156107e35760005260206000200190600090565b6001600160a01b0316908115610cd257308214610c765763ffffffff60e01b16806000526000805160206128a883398151915260205260406000205460a01c90826000526000805160206128e883398151915260205260406000205491600019830192831161092757828103610bb1575b50604060008481526000805160206128e88339815191526020522080548015610b0c576000190190610a1b828261093d565b63ffffffff82549160031b1b19169055556000526000805160206128a88339815191526020526000604081205515610a505750565b6000805160206128c883398151915254600019810190811161092757816000526000805160206128e883398151915260205260016040600020015490808203610b22575b50506000805160206128c8833981519152548015610b0c5760001901610ac8816000805160206128c8833981519152610960565b81549060018060a01b039060031b1b191690556000805160206128c8833981519152556000526000805160206128e883398151915260205260006001604082200155565b634e487b7160e01b600052603160045260246000fd5b610b3a906000805160206128c8833981519152610960565b905460039190911b1c6001600160a01b0316610b8c81610b68846000805160206128c8833981519152610960565b81546001600160a01b0393841660039290921b91821b9390911b1916919091179055565b6000526000805160206128e88339815191526020526001604060002001553880610a94565b610c7090846000526000805160206128e8833981519152602052610bd984604060002061093d565b90549060031b1c60e01b856000526000805160206128e8833981519152602052610c2881610c0b84604060002061093d565b90919063ffffffff83549160031b9260e01c831b921b1916179055565b6001600160e01b03191660009081526000805160206128a88339815191526020526040902080546001600160a01b031660a09290921b6001600160a01b031916919091179055565b386109e9565b60405162461bcd60e51b815260206004820152602e60248201527f4c69624469616d6f6e644375743a2043616e27742072656d6f766520696d6d7560448201526d3a30b1363290333ab731ba34b7b760911b6064820152608490fd5b60405162461bcd60e51b815260206004820152603760248201527f4c69624469616d6f6e644375743a2043616e27742072656d6f76652066756e6360448201527f74696f6e207468617420646f65736e27742065786973740000000000000000006064820152608490fd5b610d47606061079d565b602481527f4c69624469616d6f6e644375743a204e657720666163657420686173206e6f20602082015263636f646560e01b6040820152813b15610e0457506000805160206128c8833981519152546001600160a01b03821660009081526000805160206128e883398151915260205260409020600101819055906801000000000000000082101561078757610b68826001610e0294016000805160206128c8833981519152556000805160206128c8833981519152610960565b565b60405162461bcd60e51b815260206004820152908190610e2890602483019061080d565b0390fd5b6001600160e01b0319811660008181526000805160206128a88339815191526020526040902080546001600160a01b031660a09490941b6001600160a01b031916939093179092556001600160a01b03831660009081526000805160206128e88339815191526020526040902080549190680100000000000000008310156107875782610c0b916001610ec19501815561093d565b60009081526000805160206128a88339815191526020526040902080546001600160a01b0319166001600160a01b0390921691909117905556fe60806040523615610012576100126102b1565b005b9190918260041161004d57821161004d577ffffffffffffffffffffffffffffffffffffffffffffffffffffffffffffffffc6004920190565b600080fd5b634e487b7160e01b600052604160045260246000fd5b604051906060820182811067ffffffffffffffff82111761008857604052565b610052565b90601f19601f604051930116820182811067ffffffffffffffff82111761008857604052565b67ffffffffffffffff81116100885760051b60200190565b6001600160a01b0381160361004d57565b35906100e7826100cb565b565b67ffffffffffffffff811161008857601f01601f191660200190565b81601f8201121561004d5780359061012461011f836100e9565b61008d565b928284526020838301011161004d57816000926020809301838601378301015290565b9160608383031261004d57823567ffffffffffffffff811161004d57830182601f8201121561004d5780359061017f61011f836100b3565b9160208084838152019160051b8301019185831161004d5760208101915b8383106101d75750505050926101b5602082016100dc565b92604082013567ffffffffffffffff811161004d576101d49201610105565b90565b823567ffffffffffffffff811161004d5782016060601f19828a03011261004d57610200610068565b90602081013561020f816100cb565b82526040810135600381101561004d576020830152606081013567ffffffffffffffff811161004d57602091010188601f8201121561004d57803561025661011f826100b3565b9160208084848152019260051b820101908b821161004d57602001915b81831061029057505050604082015281526020928301920161019d565b82356001600160e01b03198116810361004d57815260209283019201610273565b6001600160e01b0319600035169061030c6102ff836001600160e01b0319166000527fc8fcad8db84d3cc18b4c41d551ea0ee66dd599cde068d998e57d5e09332c131c602052604060002090565b546001600160a01b031690565b916001600160a01b0383161561033d5760008084368280378136915af43d6000803e15610338573d6000f35b3d6000fd5b9091507f1f931c1c00000000000000000000000000000000000000000000000000000000810361039a57506100e76001600160a01b036103886103803636610014565b810190610147565b92906103933361045b565b16906108f5565b7f605038ab000000000000000000000000000000000000000000000000000000006000526001600160e01b03191660045260246000fd5b6040906103dd8261008d565b6001815291601f1901366020840137565b634e487b7160e01b600052603260045260246000fd5b8051156104115760200190565b6103ee565b80518210156104115760209160051b010190565b6003111561043457565b634e487b7160e01b600052602160045260246000fd5b610454602061008d565b9060008252565b6001600160a01b03807fc8fcad8db84d3cc18b4c41d551ea0ee66dd599cde068d998e57d5e09332c13205416916104f3816001600160a01b031673ffffffffffffffffffffffffffffffffffffffff197fc8fcad8db84d3cc18b4c41d551ea0ee66dd599cde068d998e57d5e09332c13205416177fc8fcad8db84d3cc18b4c41d551ea0ee66dd599cde068d998e57d5e09332c132055565b16907f8be0079c531659141344cd1fd0a4f28419497f9722a3daafe3b4186f6b6457e0600080a360406105258161008d565b9060018252601f19810160005b8181106105da575050906100e7916105486103d1565b61057961055482610404565b7f1f931c1c000000000000000000000000000000000000000000000000000000009052565b610581610068565b6001600160a01b037f000000000000000000000000000000000000000000000000000000000000000016815291600060208401528201526105c182610404565b526105cb81610404565b506105d461044a565b9061075b565b6020906105e5610068565b6000815260008382015260608582015282828701015201610532565b5160038110156104345790565b919082519283825260005b84811061063a575050601f19601f8460006020809697860101520116010190565b80602080928401015182828601015201610619565b9392909193606081016060825283518091526080820190602060808260051b8501019501916000905b8282106106aa575050505061069d6101d4949560208301906001600160a01b03169052565b604081840391015261060e565b909192957fffffffffffffffffffffffffffffffffffffffffffffffffffffffffffffff80858203018252865160608201906001600160a01b038151168352602081015190600382101561043457604060809160209384870152015193606060408201528451809452019201906000905b80821061073957505050602080600192980192019201909291610678565b9091926020806001926001600160e01b0319875116815201940192019061071b565b9160005b83518110156108b15761077e60206107778387610416565b5101610601565b6107878161042a565b806107c95750806107c36107ae6107a060019488610416565b51516001600160a01b031690565b60406107ba8489610416565b51015190610db4565b0161075f565b6107d28161042a565b600181036108085750806108036107ee6107a060019488610416565b60406107fa8489610416565b51015190610c88565b6107c3565b8061081460029261042a565b03610841578061080361082c6107a060019488610416565b60406108388489610416565b51015190610a60565b60405162461bcd60e51b815260206004820152602760248201527f4c69624469616d6f6e644375743a20496e636f7272656374204661636574437560448201527f74416374696f6e00000000000000000000000000000000000000000000000000606482015280608481015b0390fd5b5091907f8faa70878671ccd212d20771b795c50af8fd3ff6cf27f4bde57e5d4de0aeb67360006100e7936108eb846040519384938461064f565b0390a16000611036565b92909160005b84518110156109ad5761091360206107778388610416565b61091c8161042a565b806109475750806109416109356107a060019489610416565b60406107ba848a610416565b016108fb565b6109508161042a565b6001810361097d57508061097861096c6107a060019489610416565b60406107fa848a610416565b610941565b8061098960029261042a565b0361084157806109786109a16107a060019489610416565b6040610838848a610416565b509092917f8faa70878671ccd212d20771b795c50af8fd3ff6cf27f4bde57e5d4de0aeb673816100e7946109e7856040519384938461064f565b0390a1611036565b156109f657565b608460405162461bcd60e51b815260206004820152602b60248201527f4c69624469616d6f6e644375743a204e6f2073656c6563746f727320696e206660448201527f6163657420746f206375740000000000000000000000000000000000000000006064820152fd5b6001600160a01b0390929192610a78845115156109ef565b16610afa5760005b8251811015610af55780610aef610aaa610a9c60019487610416565b516001600160e01b03191690565b610aea6102ff826001600160e01b0319166000527fc8fcad8db84d3cc18b4c41d551ea0ee66dd599cde068d998e57d5e09332c131c602052604060002090565b6112bc565b01610a80565b509050565b608460405162461bcd60e51b815260206004820152603660248201527f4c69624469616d6f6e644375743a2052656d6f7665206661636574206164647260448201527f657373206d7573742062652061646472657373283029000000000000000000006064820152fd5b15610b6b57565b608460405162461bcd60e51b815260206004820152602c60248201527f4c69624469616d6f6e644375743a204164642066616365742063616e2774206260448201527f65206164647265737328302900000000000000000000000000000000000000006064820152fd5b15610bdc57565b608460405162461bcd60e51b815260206004820152603860248201527f4c69624469616d6f6e644375743a2043616e2774207265706c6163652066756e60448201527f6374696f6e20776974682073616d652066756e6374696f6e00000000000000006064820152fd5b634e487b7160e01b600052601160045260246000fd5b6bffffffffffffffffffffffff166bffffffffffffffffffffffff8114610c835760010190565b610c46565b919091610c97835115156109ef565b6001600160a01b038116610cac811515610b64565b6bffffffffffffffffffffffff610cf5836001600160a01b03166000527fc8fcad8db84d3cc18b4c41d551ea0ee66dd599cde068d998e57d5e09332c131d602052604060002090565b5416938415610da6575b6000945b8151861015610d9e57610d9681610d91866001946001600160e01b0319610d2a8c89610416565b5116610d8c816001600160a01b03610d75826001600160e01b0319166000527fc8fcad8db84d3cc18b4c41d551ea0ee66dd599cde068d998e57d5e09332c131c602052604060002090565b5416610aea8c6001600160a01b0383161415610bd5565b611830565b610c5c565b950194610d03565b505050509050565b610daf836116d6565b610cff565b919091610dc3835115156109ef565b610dd76001600160a01b0382161515610b64565b6bffffffffffffffffffffffff610e20826001600160a01b03166000527fc8fcad8db84d3cc18b4c41d551ea0ee66dd599cde068d998e57d5e09332c131d602052604060002090565b5416928315610f23575b6000935b8151851015610f1c576001600160e01b0319610e4a8684610416565b51166001600160a01b0380610e92836001600160e01b0319166000527fc8fcad8db84d3cc18b4c41d551ea0ee66dd599cde068d998e57d5e09332c131c602052604060002090565b541616610eb25781610d9185600194610eaa94611830565b940193610e2e565b608460405162461bcd60e51b815260206004820152603560248201527f4c69624469616d6f6e644375743a2043616e2774206164642066756e6374696f60448201527f6e207468617420616c72656164792065786973747300000000000000000000006064820152fd5b5050509050565b610f2c826116d6565b610e2a565b610f3b606061008d565b90602882527f206e6f20636f64650000000000000000000000000000000000000000000000006040837f4c69624469616d6f6e644375743a205f696e697420616464726573732068617360208201520152565b3d15610faf573d90610fa261011f836100e9565b9182523d6000602084013e565b606090565b9060206101d492818152019061060e565b15610fcc57565b608460405162461bcd60e51b815260206004820152603c60248201527f4c69624469616d6f6e644375743a205f696e697420697320616464726573732860448201527f3029206275745f63616c6c64617461206973206e6f7420656d707479000000006064820152fd5b906001600160a01b0382168061105357506100e791505115610fc5565b9060009283923003611108575b602082519201905af4611071610f8e565b901561107a5750565b80511561109d576108ad9060405191829162461bcd60e51b835260048301610fb4565b60405162461bcd60e51b815260206004820152602660248201527f4c69624469616d6f6e644375743a205f696e69742066756e6374696f6e20726560448201527f76657274656400000000000000000000000000000000000000000000000000006064820152608490fd5b611119611113610f31565b8261194a565b611060565b1561112557565b608460405162461bcd60e51b815260206004820152603760248201527f4c69624469616d6f6e644375743a2043616e27742072656d6f76652066756e6360448201527f74696f6e207468617420646f65736e27742065786973740000000000000000006064820152fd5b1561119657565b608460405162461bcd60e51b815260206004820152602e60248201527f4c69624469616d6f6e644375743a2043616e27742072656d6f766520696d6d7560448201527f7461626c652066756e6374696f6e0000000000000000000000000000000000006064820152fd5b906000198201918211610c8357565b919091805483101561041157600052601c60206000208360031c019260021b1690565b634e487b7160e01b600052603160045260246000fd5b8054801561127257600019019061125f828261120f565b63ffffffff82549160031b1b1916905555565b611232565b80548210156104115760005260206000200190600090565b805480156112725760001901906112a68282611277565b6001600160a01b0382549160031b1b1916905555565b906112dd6001600160a01b0383166112d581151561111e565b30141561118f565b600061141161133e61132d611326857fc8fcad8db84d3cc18b4c41d551ea0ee66dd599cde068d998e57d5e09332c131c906001600160e01b031916600052602052604060002090565b5460a01c90565b6bffffffffffffffffffffffff1690565b9284611386611380827fc8fcad8db84d3cc18b4c41d551ea0ee66dd599cde068d998e57d5e09332c131d906001600160a01b0316600052602052604060002090565b54611200565b9485808203611597575b50506113d26113d7917fc8fcad8db84d3cc18b4c41d551ea0ee66dd599cde068d998e57d5e09332c131d906001600160a01b0316600052602052604060002090565b611248565b7fc8fcad8db84d3cc18b4c41d551ea0ee66dd599cde068d998e57d5e09332c131c906001600160e01b031916600052602052604060002090565b551561141a5750565b60016114f960009261144c7fc8fcad8db84d3cc18b4c41d551ea0ee66dd599cde068d998e57d5e09332c131e54611200565b8361148a837fc8fcad8db84d3cc18b4c41d551ea0ee66dd599cde068d998e57d5e09332c131d906001600160a01b0316600052602052604060002090565b0154908082036114fd575b50506114c07fc8fcad8db84d3cc18b4c41d551ea0ee66dd599cde068d998e57d5e09332c131e61128f565b7fc8fcad8db84d3cc18b4c41d551ea0ee66dd599cde068d998e57d5e09332c131d906001600160a01b0316600052602052604060002090565b0155565b61158e61154161152e87937fc8fcad8db84d3cc18b4c41d551ea0ee66dd599cde068d998e57d5e09332c131e611277565b90546001600160a01b039160031b1c1690565b6114c08161156f867fc8fcad8db84d3cc18b4c41d551ea0ee66dd599cde068d998e57d5e09332c131e611277565b9091906001600160a01b038084549260031b9316831b921b1916179055565b01553880611495565b6bffffffffffffffffffffffff82611665856116486115fa9661160c6115ff6116a1986115fa6116ce9c7fc8fcad8db84d3cc18b4c41d551ea0ee66dd599cde068d998e57d5e09332c131d906001600160a01b0316600052602052604060002090565b61120f565b90549060031b1c60e01b90565b9788937fc8fcad8db84d3cc18b4c41d551ea0ee66dd599cde068d998e57d5e09332c131d906001600160a01b0316600052602052604060002090565b90919063ffffffff83549160031b9260e01c831b921b1916179055565b16917fc8fcad8db84d3cc18b4c41d551ea0ee66dd599cde068d998e57d5e09332c131c906001600160e01b031916600052602052604060002090565b906001600160a01b0373ffffffffffffffffffffffffffffffffffffffff1983549260a01b169116179055565b843885611390565b6117396116e3606061008d565b602481527f4c69624469616d6f6e644375743a204e657720666163657420686173206e6f2060208201527f636f64650000000000000000000000000000000000000000000000000000000060408201528261194a565b7fc8fcad8db84d3cc18b4c41d551ea0ee66dd599cde068d998e57d5e09332c131e54906001600160a01b0381166000527fc8fcad8db84d3cc18b4c41d551ea0ee66dd599cde068d998e57d5e09332c131d602052816001604060002001556801000000000000000082101561008857600182017fc8fcad8db84d3cc18b4c41d551ea0ee66dd599cde068d998e57d5e09332c131e557fc8fcad8db84d3cc18b4c41d551ea0ee66dd599cde068d998e57d5e09332c131e805483101561041157600090815260209020909101805473ffffffffffffffffffffffffffffffffffffffff19166001600160a01b03909216919091179055565b6118996001600160e01b0319821692836000527fc8fcad8db84d3cc18b4c41d551ea0ee66dd599cde068d998e57d5e09332c131c6020526040600020906001600160a01b0373ffffffffffffffffffffffffffffffffffffffff1983549260a01b169116179055565b604060006001600160a01b03851681527fc8fcad8db84d3cc18b4c41d551ea0ee66dd599cde068d998e57d5e09332c131d60205220908154916801000000000000000083101561008857826116489160016118f69501815561120f565b6000527fc8fcad8db84d3cc18b4c41d551ea0ee66dd599cde068d998e57d5e09332c131c6020526001600160a01b036040600020911673ffffffffffffffffffffffffffffffffffffffff19825416179055565b3b156119535750565b6108ad9060405191829162461bcd60e51b8352602060048401818152019061060e56fea2646970667358221220860987e66a6289f8879f98f70a33b5fb5263d0b21b3f06314b8e608d1a76e23c64736f6c634300081c0033c8fcad8db84d3cc18b4c41d551ea0ee66dd599cde068d998e57d5e09332c131cc8fcad8db84d3cc18b4c41d551ea0ee66dd599cde068d998e57d5e09332c131ec8fcad8db84d3cc18b4c41d551ea0ee66dd599cde068d998e57d5e09332c131d",
  "devdoc": {
    "author": "Peeramid Labs, 2024",
    "details": "This contract follows the Diamond pattern and is designed to be used exclusively by the      Distributor contract. It manages facets for tournament operations, voting, and game master functions.",
    "errors": {
      "FailedDeployment()": [
        {
          "details": "The deployment failed."
        }
      ],
      "InsufficientBalance(uint256,uint256)": [
        {
          "details": "The ETH balance of the account is not enough to perform the operation."
        }
      ]
    },
    "events": {
      "Distributed(address,address[])": {
        "params": {
          "distributor": "The address of the entity that performed the distribution.",
          "instances": "An array of addresses that were produced."
        }
      }
    },
    "kind": "dev",
    "methods": {
      "constructor": {
        "details": "Constructor for the ArguableVotingTournament contractWARNING: distributionName must be less then 31 bytes long to comply with ShortStrings immutable formatThe initializer function is added as a regular facet to the Diamond Proxy.      Since initialization is handled by the distributor contract, it's expected that      the distributor will remove this facet after successful initialization."
      },
      "get()": {
        "returns": {
          "_0": "An array of addresses that are used for instantiation.",
          "name": "The name of the distribution.",
          "version": "The version of the distribution."
        }
      },
      "instantiate(bytes)": {
        "details": "// instances: 0 - diamond; 1 - DiamondLoupeFacet; 2 - EIP712InspectorFacet; 3 - RankifyInstanceMainFacet; 4 - RankifyInstanceRequirementsFacet; 5 - RankifyInstanceGameMastersFacet // 6 - OwnershipFacet",
        "returns": {
          "_1": "distributionName: bytes32 encoded name to be used in EIP712 signing flow",
          "_2": "distributionVersion: uint256 encoded distribution version. Can be parsed to eip712 signature with EDS LibSemver",
          "instances": "Array[8]: [diamond proxy, 8x diamond facets..]"
        }
      }
    },
    "title": "ArguableVotingTournament Distribution",
    "version": 1
  },
  "userdoc": {
    "events": {
      "Distributed(address,address[])": {
        "notice": "Emitted when a distribution occurs."
      }
    },
    "kind": "user",
    "methods": {
      "constructor": {
        "notice": "Sets up the diamond proxy system with all required facets and initializes core components"
      },
      "get()": {
        "notice": "Retrieves the current distribution sources."
      },
      "instantiate(bytes)": {
        "notice": "see Ethereum Distribution System IDistribute for interface specification."
      }
    },
    "notice": "This contract implements a diamond distribution for the Ethereum Distribution System (EDS).         It creates and manages instances of ArguableVotingTournament, enabling decentralized         tournament management with voting capabilities.",
    "version": 1
  },
  "storageLayout": {
    "storage": [],
    "types": null
  }
}