{
  "address": "0xD72A98EeF2B6a9c58fe2822d41f1666A90e6Ef21",
  "abi": [
    {
      "inputs": [],
      "name": "currentChainId",
      "outputs": [
        {
          "internalType": "uint256",
          "name": "",
          "type": "uint256"
        }
      ],
      "stateMutability": "view",
      "type": "function"
    },
    {
      "inputs": [],
      "name": "inspectEIP712Hashes",
      "outputs": [
        {
          "internalType": "bytes32",
          "name": "_CACHED_DOMAIN_SEPARATOR",
          "type": "bytes32"
        },
        {
          "internalType": "uint256",
          "name": "_CACHED_CHAIN_ID",
          "type": "uint256"
        },
        {
          "internalType": "address",
          "name": "_CACHED_THIS",
          "type": "address"
        },
        {
          "internalType": "bytes32",
          "name": "_HASHED_NAME",
          "type": "bytes32"
        },
        {
          "internalType": "bytes32",
          "name": "_HASHED_VERSION",
          "type": "bytes32"
        },
        {
          "internalType": "bytes32",
          "name": "_TYPE_HASH",
          "type": "bytes32"
        },
        {
          "internalType": "string",
          "name": "_NAME",
          "type": "string"
        },
        {
          "internalType": "string",
          "name": "_VERSION",
          "type": "string"
        }
      ],
      "stateMutability": "view",
      "type": "function"
    }
  ],
  "transactionHash": "0x8c193c097bd44812057683f142936fb13f941485b13afc34fc78dc0be01c549e",
  "args": [],
  "numDeployments": 2,
  "solcInputHash": "1b742a02baa97e6715880566a1101cf4",
  "bytecode": "0x608080604052346015576104b0908161001b8239f35b600080fdfe608080604052600436101561001357600080fd5b60003560e01c9081636cbadbfa14610420575063d3a8018d1461003557600080fd5b3461041b57600060031936011261041b577fe5b6a7afa77789577f2802f0da58895f660e5798c5c11b2ea18b0a53bd65d3a7547fe5b6a7afa77789577f2802f0da58895f660e5798c5c11b2ea18b0a53bd65d3a8549073ffffffffffffffffffffffffffffffffffffffff7fe5b6a7afa77789577f2802f0da58895f660e5798c5c11b2ea18b0a53bd65d3a954167fe5b6a7afa77789577f2802f0da58895f660e5798c5c11b2ea18b0a53bd65d3aa547fe5b6a7afa77789577f2802f0da58895f660e5798c5c11b2ea18b0a53bd65d3ab54907fe5b6a7afa77789577f2802f0da58895f660e5798c5c11b2ea18b0a53bd65d3ac546040519060007fe5b6a7afa77789577f2802f0da58895f660e5798c5c11b2ea18b0a53bd65d3ae548060011c90600181168015610411575b60208310811461033a578286528593929181156103ed5750600114610371575b5003601f01601f1916820167ffffffffffffffff81118382101761026b576040526040519360007fe5b6a7afa77789577f2802f0da58895f660e5798c5c11b2ea18b0a53bd65d3ad548060011c90600181168015610367575b60208310811461033a57828952889392918115610316575060011461029a575b5003601f01601f191685019367ffffffffffffffff85118686101761026b576102679661025995604052604051998a998a5260208a015260408901526060880152608087015260a086015261010060c0860152610100850190610439565b9083820360e0850152610439565b0390f35b7f4e487b7100000000000000000000000000000000000000000000000000000000600052604160045260246000fd5b7fe5b6a7afa77789577f2802f0da58895f660e5798c5c11b2ea18b0a53bd65d3ad600090815291507fc5c890a89b2ac831e4c9f6e8f1ea5ae98d7cbfd619197ee2bc5b0aff51a14d8e5b8183106102fa5750508101602001601f196101fb565b6020919350806001915483858c010152019101909187926102e4565b60ff191660208581019190915291151560051b84019091019150601f1990506101fb565b6024847f4e487b710000000000000000000000000000000000000000000000000000000081526022600452fd5b91607f16916101db565b7fe5b6a7afa77789577f2802f0da58895f660e5798c5c11b2ea18b0a53bd65d3ae600090815291507fc72307a12ab1e211a43df3970a68598079aacb48da18d6e37e255dc3212e7da25b8183106103d15750508101602001601f19610182565b60209193508060019154838589010152019101909184926103bb565b60ff191660208581019190915291151560051b84019091019150601f199050610182565b91607f1691610162565b600080fd5b3461041b57600060031936011261041b57602090468152f35b919082519283825260005b848110610465575050601f19601f8460006020809697860101520116010190565b8060208092840101518282860101520161044456fea264697066735822122040cb2be259a206ad4cfd81a0d0b293698f484b5b43cd1bfa4421dd36f84a959764736f6c634300081c0033",
  "devdoc": {
    "kind": "dev",
    "methods": {},
    "version": 1
  },
  "userdoc": {
    "kind": "user",
    "methods": {},
    "version": 1
  },
  "storageLayout": {
    "storage": [],
    "types": null
  }
}