{
  "address": "0xfDacD54ae0dF0Db550D38a170375623E53fd66f6",
  "abi": [
    {
      "inputs": [],
      "name": "currentChainId",
      "outputs": [
        {
          "internalType": "uint256",
          "name": "",
          "type": "uint256"
        }
      ],
      "stateMutability": "view",
      "type": "function"
    },
    {
      "inputs": [],
      "name": "inspectEIP712Hashes",
      "outputs": [
        {
          "internalType": "bytes32",
          "name": "_CACHED_DOMAIN_SEPARATOR",
          "type": "bytes32"
        },
        {
          "internalType": "uint256",
          "name": "_CACHED_CHAIN_ID",
          "type": "uint256"
        },
        {
          "internalType": "address",
          "name": "_CACHED_THIS",
          "type": "address"
        },
        {
          "internalType": "bytes32",
          "name": "_HASHED_NAME",
          "type": "bytes32"
        },
        {
          "internalType": "bytes32",
          "name": "_HASHED_VERSION",
          "type": "bytes32"
        },
        {
          "internalType": "bytes32",
          "name": "_TYPE_HASH",
          "type": "bytes32"
        },
        {
          "internalType": "string",
          "name": "_NAME",
          "type": "string"
        },
        {
          "internalType": "string",
          "name": "_VERSION",
          "type": "string"
        }
      ],
      "stateMutability": "view",
      "type": "function"
    }
  ],
  "transactionHash": "0x5420820c77bf292ff43daf03f5f0d3c7fcf1fdfa83a960261769639f4d83888d",
  "args": [],
  "numDeployments": 1,
  "solcInputHash": "1b9e844d30db1fb497c1cae6af1f768c",
  "bytecode": "0x6080604052348015600f57600080fd5b506104428061001f6000396000f3fe608060405234801561001057600080fd5b50600436106100365760003560e01c80636cbadbfa1461003b578063d3a8018d1461004e575b600080fd5b6040514681526020015b60405180910390f35b61005661006a565b604051610045989796959493929190610349565b7fe5b6a7afa77789577f2802f0da58895f660e5798c5c11b2ea18b0a53bd65d3a780547fe5b6a7afa77789577f2802f0da58895f660e5798c5c11b2ea18b0a53bd65d3a8547fe5b6a7afa77789577f2802f0da58895f660e5798c5c11b2ea18b0a53bd65d3a9547fe5b6a7afa77789577f2802f0da58895f660e5798c5c11b2ea18b0a53bd65d3aa547fe5b6a7afa77789577f2802f0da58895f660e5798c5c11b2ea18b0a53bd65d3ab547fe5b6a7afa77789577f2802f0da58895f660e5798c5c11b2ea18b0a53bd65d3ac547fe5b6a7afa77789577f2802f0da58895f660e5798c5c11b2ea18b0a53bd65d3ae805460009889988998899889988998606098899896979596949573ffffffffffffffffffffffffffffffffffffffff909416949293919290917fe5b6a7afa77789577f2802f0da58895f660e5798c5c11b2ea18b0a53bd65d3ad9082906101be906103b9565b80601f01602080910402602001604051908101604052809291908181526020018280546101ea906103b9565b80156102375780601f1061020c57610100808354040283529160200191610237565b820191906000526020600020905b81548152906001019060200180831161021a57829003601f168201915b5050505050915080805461024a906103b9565b80601f0160208091040260200160405190810160405280929190818152602001828054610276906103b9565b80156102c35780601f10610298576101008083540402835291602001916102c3565b820191906000526020600020905b8154815290600101906020018083116102a657829003601f168201915b5050505050905098509850985098509850985098509850509091929394959697565b6000815180845260005b8181101561030b576020818501810151868301820152016102ef565b5060006020828601015260207fffffffffffffffffffffffffffffffffffffffffffffffffffffffffffffffe0601f83011685010191505092915050565b88815287602082015273ffffffffffffffffffffffffffffffffffffffff871660408201528560608201528460808201528360a082015261010060c082015260006103986101008301856102e5565b82810360e08401526103aa81856102e5565b9b9a5050505050505050505050565b600181811c908216806103cd57607f821691505b602082108103610406577f4e487b7100000000000000000000000000000000000000000000000000000000600052602260045260246000fd5b5091905056fea2646970667358221220a345d4c1c9ddfbf0f663f14308e6fe17f1212535cf5592e8925d0e0b2079f12664736f6c634300081c0033",
  "devdoc": {
    "kind": "dev",
    "methods": {},
    "version": 1
  },
  "userdoc": {
    "kind": "user",
    "methods": {},
    "version": 1
  },
  "storageLayout": {
    "storage": [],
    "types": null
  }
}