{
  "address": "0xC0dE1D2F7662c63796E544B2647b2A94EE658E07",
  "abi": [
    {
      "inputs": [
        {
          "internalType": "bytes32",
          "name": "id",
          "type": "bytes32"
        },
        {
          "internalType": "address",
          "name": "source",
          "type": "address"
        }
      ],
      "name": "alreadyExists",
      "type": "error"
    },
    {
      "anonymous": false,
      "inputs": [
        {
          "indexed": true,
          "internalType": "address",
          "name": "container",
          "type": "address"
        },
        {
          "indexed": true,
          "internalType": "bytes32",
          "name": "codeHash",
          "type": "bytes32"
        }
      ],
      "name": "Indexed",
      "type": "event"
    },
    {
      "inputs": [
        {
          "internalType": "bytes32",
          "name": "id",
          "type": "bytes32"
        }
      ],
      "name": "get",
      "outputs": [
        {
          "internalType": "address",
          "name": "",
          "type": "address"
        }
      ],
      "stateMutability": "view",
      "type": "function"
    },
    {
      "inputs": [
        {
          "internalType": "address",
          "name": "container",
          "type": "address"
        }
      ],
      "name": "register",
      "outputs": [],
      "stateMutability": "nonpayable",
      "type": "function"
    }
  ],
  "transactionHash": "0x0d289f558708f8b811fe58d86237eb0016952bdcf52dfc386330880e55ea09fb",
  "args": [],
  "numDeployments": 1,
  "solcInputHash": "812717e362e8e38d8a81a60368add9bd",
  "bytecode": "0x6080604052348015600f57600080fd5b5061033e8061001f6000396000f3fe608060405234801561001057600080fd5b50600436106100365760003560e01c80634420e4861461003b5780638eaa6ac014610050575b600080fd5b61004e6100493660046102db565b6100af565b005b61008661005e366004610318565b60009081526020819052604090205473ffffffffffffffffffffffffffffffffffffffff1690565b60405173ffffffffffffffffffffffffffffffffffffffff909116815260200160405180910390f35b73ffffffffffffffffffffffffffffffffffffffff8082163f600090815260208190526040902054166100e182610243565b61014c576040517f08c379a000000000000000000000000000000000000000000000000000000000815260206004820152601160248201527f496e76616c696420636f6e7461696e657200000000000000000000000000000060448201526064015b60405180910390fd5b73ffffffffffffffffffffffffffffffffffffffff8116156101c75761017181610243565b156101c7576040517f1a88fd5200000000000000000000000000000000000000000000000000000000815273ffffffffffffffffffffffffffffffffffffffff8316803f60048301526024820152604401610143565b73ffffffffffffffffffffffffffffffffffffffff8216803f60009081526020819052604080822080547fffffffffffffffffffffffff0000000000000000000000000000000000000000168417905551823f92917f7eac48f4f5b19bc4a3e15fd574676fc0f406678447f0ca444ed4830d0a4b521f91a35050565b6000808273ffffffffffffffffffffffffffffffffffffffff16803b806020016040519081016040528181526000908060200190933c805190915073ffffffffffffffffffffffffffffffffffffffff84163f907feadcdba66a79ab5dce91622d1d75c8cff5cff0b96944c3bf1072cd08ce01832990158015906102c657508115155b80156102d25750808214155b95945050505050565b6000602082840312156102ed57600080fd5b813573ffffffffffffffffffffffffffffffffffffffff8116811461031157600080fd5b9392505050565b60006020828403121561032a57600080fd5b503591905056fea164736f6c634300081c000a",
  "devdoc": {
    "author": "Tim Pechersky (@Peersky)",
    "details": "This allows to query contracts by their bytecode instead of addresses.",
    "kind": "dev",
    "methods": {
      "get(bytes32)": {
        "details": "returns zero if the contract is not indexed",
        "params": {
          "id": "The bytecode hash"
        },
        "returns": {
          "_0": "The contract address"
        }
      },
      "register(address)": {
        "details": "`msg.codeHash` will be usedIt will revert if the contract is already indexed or if returns EIP7702 hash",
        "params": {
          "container": "The contract to register"
        }
      }
    },
    "title": "Byte Code Indexer Contract",
    "version": 1
  },
  "userdoc": {
    "kind": "user",
    "methods": {
      "get(bytes32)": {
        "notice": "Returns the contract address by its bytecode hash"
      },
      "register(address)": {
        "notice": "Registers a contract in the index by its bytecode hash"
      }
    },
    "notice": "You can use this contract to index contracts by their bytecode.",
    "version": 1
  },
  "storageLayout": {
    "storage": [
      {
        "astId": 6501,
        "contract": "src/ERC7744.sol:ERC7744",
        "label": "index",
        "offset": 0,
        "slot": "0",
        "type": "t_mapping(t_bytes32,t_address)"
      }
    ],
    "types": {
      "t_address": {
        "encoding": "inplace",
        "label": "address",
        "numberOfBytes": "20"
      },
      "t_bytes32": {
        "encoding": "inplace",
        "label": "bytes32",
        "numberOfBytes": "32"
      },
      "t_mapping(t_bytes32,t_address)": {
        "encoding": "mapping",
        "key": "t_bytes32",
        "label": "mapping(bytes32 => address)",
        "numberOfBytes": "32",
        "value": "t_address"
      }
    }
  }
}