{
  "address": "0x068620258FC3a2696B455b6f2Cf6A5877779CAba",
  "abi": [
    {
      "inputs": [],
      "stateMutability": "nonpayable",
      "type": "constructor"
    },
    {
      "inputs": [],
      "name": "CheckpointUnorderedInsertion",
      "type": "error"
    },
    {
      "inputs": [],
      "name": "FailedCall",
      "type": "error"
    },
    {
      "inputs": [
        {
          "internalType": "address",
          "name": "voter",
          "type": "address"
        }
      ],
      "name": "GovernorAlreadyCastVote",
      "type": "error"
    },
    {
      "inputs": [
        {
          "internalType": "uint256",
          "name": "proposalId",
          "type": "uint256"
        }
      ],
      "name": "GovernorAlreadyQueuedProposal",
      "type": "error"
    },
    {
      "inputs": [],
      "name": "GovernorDisabledDeposit",
      "type": "error"
    },
    {
      "inputs": [
        {
          "internalType": "address",
          "name": "proposer",
          "type": "address"
        },
        {
          "internalType": "uint256",
          "name": "votes",
          "type": "uint256"
        },
        {
          "internalType": "uint256",
          "name": "threshold",
          "type": "uint256"
        }
      ],
      "name": "GovernorInsufficientProposerVotes",
      "type": "error"
    },
    {
      "inputs": [
        {
          "internalType": "uint256",
          "name": "targets",
          "type": "uint256"
        },
        {
          "internalType": "uint256",
          "name": "calldatas",
          "type": "uint256"
        },
        {
          "internalType": "uint256",
          "name": "values",
          "type": "uint256"
        }
      ],
      "name": "GovernorInvalidProposalLength",
      "type": "error"
    },
    {
      "inputs": [
        {
          "internalType": "uint256",
          "name": "quorumNumerator",
          "type": "uint256"
        },
        {
          "internalType": "uint256",
          "name": "quorumDenominator",
          "type": "uint256"
        }
      ],
      "name": "GovernorInvalidQuorumFraction",
      "type": "error"
    },
    {
      "inputs": [
        {
          "internalType": "address",
          "name": "voter",
          "type": "address"
        }
      ],
      "name": "GovernorInvalidSignature",
      "type": "error"
    },
    {
      "inputs": [],
      "name": "GovernorInvalidVoteParams",
      "type": "error"
    },
    {
      "inputs": [],
      "name": "GovernorInvalidVoteType",
      "type": "error"
    },
    {
      "inputs": [
        {
          "internalType": "uint256",
          "name": "votingPeriod",
          "type": "uint256"
        }
      ],
      "name": "GovernorInvalidVotingPeriod",
      "type": "error"
    },
    {
      "inputs": [
        {
          "internalType": "uint256",
          "name": "proposalId",
          "type": "uint256"
        }
      ],
      "name": "GovernorNonexistentProposal",
      "type": "error"
    },
    {
      "inputs": [
        {
          "internalType": "uint256",
          "name": "proposalId",
          "type": "uint256"
        }
      ],
      "name": "GovernorNotQueuedProposal",
      "type": "error"
    },
    {
      "inputs": [
        {
          "internalType": "address",
          "name": "account",
          "type": "address"
        }
      ],
      "name": "GovernorOnlyExecutor",
      "type": "error"
    },
    {
      "inputs": [],
      "name": "GovernorQueueNotImplemented",
      "type": "error"
    },
    {
      "inputs": [
        {
          "internalType": "address",
          "name": "proposer",
          "type": "address"
        }
      ],
      "name": "GovernorRestrictedProposer",
      "type": "error"
    },
    {
      "inputs": [
        {
          "internalType": "uint256",
          "name": "proposalId",
          "type": "uint256"
        },
        {
          "internalType": "address",
          "name": "account",
          "type": "address"
        }
      ],
      "name": "GovernorUnableToCancel",
      "type": "error"
    },
    {
      "inputs": [
        {
          "internalType": "uint256",
          "name": "proposalId",
          "type": "uint256"
        },
        {
          "internalType": "enum IGovernor.ProposalState",
          "name": "current",
          "type": "uint8"
        },
        {
          "internalType": "bytes32",
          "name": "expectedStates",
          "type": "bytes32"
        }
      ],
      "name": "GovernorUnexpectedProposalState",
      "type": "error"
    },
    {
      "inputs": [
        {
          "internalType": "address",
          "name": "account",
          "type": "address"
        },
        {
          "internalType": "uint256",
          "name": "currentNonce",
          "type": "uint256"
        }
      ],
      "name": "InvalidAccountNonce",
      "type": "error"
    },
    {
      "inputs": [],
      "name": "InvalidInitialization",
      "type": "error"
    },
    {
      "inputs": [],
      "name": "NotInitializing",
      "type": "error"
    },
    {
      "inputs": [
        {
          "internalType": "uint8",
          "name": "bits",
          "type": "uint8"
        },
        {
          "internalType": "uint256",
          "name": "value",
          "type": "uint256"
        }
      ],
      "name": "SafeCastOverflowedUintDowncast",
      "type": "error"
    },
    {
      "anonymous": false,
      "inputs": [],
      "name": "EIP712DomainChanged",
      "type": "event"
    },
    {
      "anonymous": false,
      "inputs": [
        {
          "indexed": false,
          "internalType": "uint64",
          "name": "version",
          "type": "uint64"
        }
      ],
      "name": "Initialized",
      "type": "event"
    },
    {
      "anonymous": false,
      "inputs": [
        {
          "indexed": false,
          "internalType": "uint256",
          "name": "proposalId",
          "type": "uint256"
        }
      ],
      "name": "ProposalCanceled",
      "type": "event"
    },
    {
      "anonymous": false,
      "inputs": [
        {
          "indexed": false,
          "internalType": "uint256",
          "name": "proposalId",
          "type": "uint256"
        },
        {
          "indexed": false,
          "internalType": "address",
          "name": "proposer",
          "type": "address"
        },
        {
          "indexed": false,
          "internalType": "address[]",
          "name": "targets",
          "type": "address[]"
        },
        {
          "indexed": false,
          "internalType": "uint256[]",
          "name": "values",
          "type": "uint256[]"
        },
        {
          "indexed": false,
          "internalType": "string[]",
          "name": "signatures",
          "type": "string[]"
        },
        {
          "indexed": false,
          "internalType": "bytes[]",
          "name": "calldatas",
          "type": "bytes[]"
        },
        {
          "indexed": false,
          "internalType": "uint256",
          "name": "voteStart",
          "type": "uint256"
        },
        {
          "indexed": false,
          "internalType": "uint256",
          "name": "voteEnd",
          "type": "uint256"
        },
        {
          "indexed": false,
          "internalType": "string",
          "name": "description",
          "type": "string"
        }
      ],
      "name": "ProposalCreated",
      "type": "event"
    },
    {
      "anonymous": false,
      "inputs": [
        {
          "indexed": false,
          "internalType": "uint256",
          "name": "proposalId",
          "type": "uint256"
        }
      ],
      "name": "ProposalExecuted",
      "type": "event"
    },
    {
      "anonymous": false,
      "inputs": [
        {
          "indexed": false,
          "internalType": "uint256",
          "name": "proposalId",
          "type": "uint256"
        },
        {
          "indexed": false,
          "internalType": "uint256",
          "name": "etaSeconds",
          "type": "uint256"
        }
      ],
      "name": "ProposalQueued",
      "type": "event"
    },
    {
      "anonymous": false,
      "inputs": [
        {
          "indexed": false,
          "internalType": "uint256",
          "name": "oldProposalThreshold",
          "type": "uint256"
        },
        {
          "indexed": false,
          "internalType": "uint256",
          "name": "newProposalThreshold",
          "type": "uint256"
        }
      ],
      "name": "ProposalThresholdSet",
      "type": "event"
    },
    {
      "anonymous": false,
      "inputs": [
        {
          "indexed": false,
          "internalType": "uint256",
          "name": "oldQuorumNumerator",
          "type": "uint256"
        },
        {
          "indexed": false,
          "internalType": "uint256",
          "name": "newQuorumNumerator",
          "type": "uint256"
        }
      ],
      "name": "QuorumNumeratorUpdated",
      "type": "event"
    },
    {
      "anonymous": false,
      "inputs": [
        {
          "indexed": true,
          "internalType": "address",
          "name": "voter",
          "type": "address"
        },
        {
          "indexed": false,
          "internalType": "uint256",
          "name": "proposalId",
          "type": "uint256"
        },
        {
          "indexed": false,
          "internalType": "uint8",
          "name": "support",
          "type": "uint8"
        },
        {
          "indexed": false,
          "internalType": "uint256",
          "name": "weight",
          "type": "uint256"
        },
        {
          "indexed": false,
          "internalType": "string",
          "name": "reason",
          "type": "string"
        }
      ],
      "name": "VoteCast",
      "type": "event"
    },
    {
      "anonymous": false,
      "inputs": [
        {
          "indexed": true,
          "internalType": "address",
          "name": "voter",
          "type": "address"
        },
        {
          "indexed": false,
          "internalType": "uint256",
          "name": "proposalId",
          "type": "uint256"
        },
        {
          "indexed": false,
          "internalType": "uint8",
          "name": "support",
          "type": "uint8"
        },
        {
          "indexed": false,
          "internalType": "uint256",
          "name": "weight",
          "type": "uint256"
        },
        {
          "indexed": false,
          "internalType": "string",
          "name": "reason",
          "type": "string"
        },
        {
          "indexed": false,
          "internalType": "bytes",
          "name": "params",
          "type": "bytes"
        }
      ],
      "name": "VoteCastWithParams",
      "type": "event"
    },
    {
      "anonymous": false,
      "inputs": [
        {
          "indexed": false,
          "internalType": "uint256",
          "name": "oldVotingDelay",
          "type": "uint256"
        },
        {
          "indexed": false,
          "internalType": "uint256",
          "name": "newVotingDelay",
          "type": "uint256"
        }
      ],
      "name": "VotingDelaySet",
      "type": "event"
    },
    {
      "anonymous": false,
      "inputs": [
        {
          "indexed": false,
          "internalType": "uint256",
          "name": "oldVotingPeriod",
          "type": "uint256"
        },
        {
          "indexed": false,
          "internalType": "uint256",
          "name": "newVotingPeriod",
          "type": "uint256"
        }
      ],
      "name": "VotingPeriodSet",
      "type": "event"
    },
    {
      "inputs": [],
      "name": "BALLOT_TYPEHASH",
      "outputs": [
        {
          "internalType": "bytes32",
          "name": "",
          "type": "bytes32"
        }
      ],
      "stateMutability": "view",
      "type": "function"
    },
    {
      "inputs": [],
      "name": "CLOCK_MODE",
      "outputs": [
        {
          "internalType": "string",
          "name": "",
          "type": "string"
        }
      ],
      "stateMutability": "view",
      "type": "function"
    },
    {
      "inputs": [],
      "name": "COUNTING_MODE",
      "outputs": [
        {
          "internalType": "string",
          "name": "",
          "type": "string"
        }
      ],
      "stateMutability": "pure",
      "type": "function"
    },
    {
      "inputs": [],
      "name": "EXTENDED_BALLOT_TYPEHASH",
      "outputs": [
        {
          "internalType": "bytes32",
          "name": "",
          "type": "bytes32"
        }
      ],
      "stateMutability": "view",
      "type": "function"
    },
    {
      "inputs": [
        {
          "internalType": "uint256",
          "name": "proposalId",
          "type": "uint256"
        }
      ],
      "name": "cancel",
      "outputs": [],
      "stateMutability": "nonpayable",
      "type": "function"
    },
    {
      "inputs": [
        {
          "internalType": "address[]",
          "name": "targets",
          "type": "address[]"
        },
        {
          "internalType": "uint256[]",
          "name": "values",
          "type": "uint256[]"
        },
        {
          "internalType": "bytes[]",
          "name": "calldatas",
          "type": "bytes[]"
        },
        {
          "internalType": "bytes32",
          "name": "descriptionHash",
          "type": "bytes32"
        }
      ],
      "name": "cancel",
      "outputs": [
        {
          "internalType": "uint256",
          "name": "",
          "type": "uint256"
        }
      ],
      "stateMutability": "nonpayable",
      "type": "function"
    },
    {
      "inputs": [
        {
          "internalType": "uint256",
          "name": "proposalId",
          "type": "uint256"
        },
        {
          "internalType": "uint8",
          "name": "support",
          "type": "uint8"
        }
      ],
      "name": "castVote",
      "outputs": [
        {
          "internalType": "uint256",
          "name": "",
          "type": "uint256"
        }
      ],
      "stateMutability": "nonpayable",
      "type": "function"
    },
    {
      "inputs": [
        {
          "internalType": "uint256",
          "name": "proposalId",
          "type": "uint256"
        },
        {
          "internalType": "uint8",
          "name": "support",
          "type": "uint8"
        },
        {
          "internalType": "address",
          "name": "voter",
          "type": "address"
        },
        {
          "internalType": "bytes",
          "name": "signature",
          "type": "bytes"
        }
      ],
      "name": "castVoteBySig",
      "outputs": [
        {
          "internalType": "uint256",
          "name": "",
          "type": "uint256"
        }
      ],
      "stateMutability": "nonpayable",
      "type": "function"
    },
    {
      "inputs": [
        {
          "internalType": "uint256",
          "name": "proposalId",
          "type": "uint256"
        },
        {
          "internalType": "uint8",
          "name": "support",
          "type": "uint8"
        },
        {
          "internalType": "string",
          "name": "reason",
          "type": "string"
        }
      ],
      "name": "castVoteWithReason",
      "outputs": [
        {
          "internalType": "uint256",
          "name": "",
          "type": "uint256"
        }
      ],
      "stateMutability": "nonpayable",
      "type": "function"
    },
    {
      "inputs": [
        {
          "internalType": "uint256",
          "name": "proposalId",
          "type": "uint256"
        },
        {
          "internalType": "uint8",
          "name": "support",
          "type": "uint8"
        },
        {
          "internalType": "string",
          "name": "reason",
          "type": "string"
        },
        {
          "internalType": "bytes",
          "name": "params",
          "type": "bytes"
        }
      ],
      "name": "castVoteWithReasonAndParams",
      "outputs": [
        {
          "internalType": "uint256",
          "name": "",
          "type": "uint256"
        }
      ],
      "stateMutability": "nonpayable",
      "type": "function"
    },
    {
      "inputs": [
        {
          "internalType": "uint256",
          "name": "proposalId",
          "type": "uint256"
        },
        {
          "internalType": "uint8",
          "name": "support",
          "type": "uint8"
        },
        {
          "internalType": "address",
          "name": "voter",
          "type": "address"
        },
        {
          "internalType": "string",
          "name": "reason",
          "type": "string"
        },
        {
          "internalType": "bytes",
          "name": "params",
          "type": "bytes"
        },
        {
          "internalType": "bytes",
          "name": "signature",
          "type": "bytes"
        }
      ],
      "name": "castVoteWithReasonAndParamsBySig",
      "outputs": [
        {
          "internalType": "uint256",
          "name": "",
          "type": "uint256"
        }
      ],
      "stateMutability": "nonpayable",
      "type": "function"
    },
    {
      "inputs": [],
      "name": "clock",
      "outputs": [
        {
          "internalType": "uint48",
          "name": "",
          "type": "uint48"
        }
      ],
      "stateMutability": "view",
      "type": "function"
    },
    {
      "inputs": [],
      "name": "eip712Domain",
      "outputs": [
        {
          "internalType": "bytes1",
          "name": "fields",
          "type": "bytes1"
        },
        {
          "internalType": "string",
          "name": "name",
          "type": "string"
        },
        {
          "internalType": "string",
          "name": "version",
          "type": "string"
        },
        {
          "internalType": "uint256",
          "name": "chainId",
          "type": "uint256"
        },
        {
          "internalType": "address",
          "name": "verifyingContract",
          "type": "address"
        },
        {
          "internalType": "bytes32",
          "name": "salt",
          "type": "bytes32"
        },
        {
          "internalType": "uint256[]",
          "name": "extensions",
          "type": "uint256[]"
        }
      ],
      "stateMutability": "view",
      "type": "function"
    },
    {
      "inputs": [
        {
          "internalType": "address[]",
          "name": "targets",
          "type": "address[]"
        },
        {
          "internalType": "uint256[]",
          "name": "values",
          "type": "uint256[]"
        },
        {
          "internalType": "bytes[]",
          "name": "calldatas",
          "type": "bytes[]"
        },
        {
          "internalType": "bytes32",
          "name": "descriptionHash",
          "type": "bytes32"
        }
      ],
      "name": "execute",
      "outputs": [
        {
          "internalType": "uint256",
          "name": "",
          "type": "uint256"
        }
      ],
      "stateMutability": "payable",
      "type": "function"
    },
    {
      "inputs": [
        {
          "internalType": "uint256",
          "name": "proposalId",
          "type": "uint256"
        }
      ],
      "name": "execute",
      "outputs": [],
      "stateMutability": "payable",
      "type": "function"
    },
    {
      "inputs": [
        {
          "internalType": "address[]",
          "name": "targets",
          "type": "address[]"
        },
        {
          "internalType": "uint256[]",
          "name": "values",
          "type": "uint256[]"
        },
        {
          "internalType": "bytes[]",
          "name": "calldatas",
          "type": "bytes[]"
        },
        {
          "internalType": "bytes32",
          "name": "descriptionHash",
          "type": "bytes32"
        }
      ],
      "name": "getProposalId",
      "outputs": [
        {
          "internalType": "uint256",
          "name": "",
          "type": "uint256"
        }
      ],
      "stateMutability": "view",
      "type": "function"
    },
    {
      "inputs": [
        {
          "internalType": "address",
          "name": "account",
          "type": "address"
        },
        {
          "internalType": "uint256",
          "name": "timepoint",
          "type": "uint256"
        }
      ],
      "name": "getVotes",
      "outputs": [
        {
          "internalType": "uint256",
          "name": "",
          "type": "uint256"
        }
      ],
      "stateMutability": "view",
      "type": "function"
    },
    {
      "inputs": [
        {
          "internalType": "address",
          "name": "account",
          "type": "address"
        },
        {
          "internalType": "uint256",
          "name": "timepoint",
          "type": "uint256"
        },
        {
          "internalType": "bytes",
          "name": "params",
          "type": "bytes"
        }
      ],
      "name": "getVotesWithParams",
      "outputs": [
        {
          "internalType": "uint256",
          "name": "",
          "type": "uint256"
        }
      ],
      "stateMutability": "view",
      "type": "function"
    },
    {
      "inputs": [
        {
          "internalType": "uint256",
          "name": "proposalId",
          "type": "uint256"
        },
        {
          "internalType": "address",
          "name": "account",
          "type": "address"
        }
      ],
      "name": "hasVoted",
      "outputs": [
        {
          "internalType": "bool",
          "name": "",
          "type": "bool"
        }
      ],
      "stateMutability": "view",
      "type": "function"
    },
    {
      "inputs": [
        {
          "internalType": "address[]",
          "name": "targets",
          "type": "address[]"
        },
        {
          "internalType": "uint256[]",
          "name": "values",
          "type": "uint256[]"
        },
        {
          "internalType": "bytes[]",
          "name": "calldatas",
          "type": "bytes[]"
        },
        {
          "internalType": "bytes32",
          "name": "descriptionHash",
          "type": "bytes32"
        }
      ],
      "name": "hashProposal",
      "outputs": [
        {
          "internalType": "uint256",
          "name": "",
          "type": "uint256"
        }
      ],
      "stateMutability": "pure",
      "type": "function"
    },
    {
      "inputs": [
        {
          "internalType": "string",
          "name": "name",
          "type": "string"
        },
        {
          "internalType": "contract IVotes",
          "name": "_token",
          "type": "address"
        },
        {
          "internalType": "uint48",
          "name": "votingDelay",
          "type": "uint48"
        },
        {
          "internalType": "uint32",
          "name": "votingPeriod",
          "type": "uint32"
        },
        {
          "internalType": "uint256",
          "name": "quorum",
          "type": "uint256"
        }
      ],
      "name": "initialize",
      "outputs": [],
      "stateMutability": "nonpayable",
      "type": "function"
    },
    {
      "inputs": [],
      "name": "name",
      "outputs": [
        {
          "internalType": "string",
          "name": "",
          "type": "string"
        }
      ],
      "stateMutability": "view",
      "type": "function"
    },
    {
      "inputs": [
        {
          "internalType": "address",
          "name": "owner",
          "type": "address"
        }
      ],
      "name": "nonces",
      "outputs": [
        {
          "internalType": "uint256",
          "name": "",
          "type": "uint256"
        }
      ],
      "stateMutability": "view",
      "type": "function"
    },
    {
      "inputs": [
        {
          "internalType": "address",
          "name": "",
          "type": "address"
        },
        {
          "internalType": "address",
          "name": "",
          "type": "address"
        },
        {
          "internalType": "uint256[]",
          "name": "",
          "type": "uint256[]"
        },
        {
          "internalType": "uint256[]",
          "name": "",
          "type": "uint256[]"
        },
        {
          "internalType": "bytes",
          "name": "",
          "type": "bytes"
        }
      ],
      "name": "onERC1155BatchReceived",
      "outputs": [
        {
          "internalType": "bytes4",
          "name": "",
          "type": "bytes4"
        }
      ],
      "stateMutability": "nonpayable",
      "type": "function"
    },
    {
      "inputs": [
        {
          "internalType": "address",
          "name": "",
          "type": "address"
        },
        {
          "internalType": "address",
          "name": "",
          "type": "address"
        },
        {
          "internalType": "uint256",
          "name": "",
          "type": "uint256"
        },
        {
          "internalType": "uint256",
          "name": "",
          "type": "uint256"
        },
        {
          "internalType": "bytes",
          "name": "",
          "type": "bytes"
        }
      ],
      "name": "onERC1155Received",
      "outputs": [
        {
          "internalType": "bytes4",
          "name": "",
          "type": "bytes4"
        }
      ],
      "stateMutability": "nonpayable",
      "type": "function"
    },
    {
      "inputs": [
        {
          "internalType": "address",
          "name": "",
          "type": "address"
        },
        {
          "internalType": "address",
          "name": "",
          "type": "address"
        },
        {
          "internalType": "uint256",
          "name": "",
          "type": "uint256"
        },
        {
          "internalType": "bytes",
          "name": "",
          "type": "bytes"
        }
      ],
      "name": "onERC721Received",
      "outputs": [
        {
          "internalType": "bytes4",
          "name": "",
          "type": "bytes4"
        }
      ],
      "stateMutability": "nonpayable",
      "type": "function"
    },
    {
      "inputs": [],
      "name": "proposalCount",
      "outputs": [
        {
          "internalType": "uint256",
          "name": "",
          "type": "uint256"
        }
      ],
      "stateMutability": "view",
      "type": "function"
    },
    {
      "inputs": [
        {
          "internalType": "uint256",
          "name": "proposalId",
          "type": "uint256"
        }
      ],
      "name": "proposalDeadline",
      "outputs": [
        {
          "internalType": "uint256",
          "name": "",
          "type": "uint256"
        }
      ],
      "stateMutability": "view",
      "type": "function"
    },
    {
      "inputs": [
        {
          "internalType": "uint256",
          "name": "proposalId",
          "type": "uint256"
        }
      ],
      "name": "proposalDetails",
      "outputs": [
        {
          "internalType": "address[]",
          "name": "targets",
          "type": "address[]"
        },
        {
          "internalType": "uint256[]",
          "name": "values",
          "type": "uint256[]"
        },
        {
          "internalType": "bytes[]",
          "name": "calldatas",
          "type": "bytes[]"
        },
        {
          "internalType": "bytes32",
          "name": "descriptionHash",
          "type": "bytes32"
        }
      ],
      "stateMutability": "view",
      "type": "function"
    },
    {
      "inputs": [
        {
          "internalType": "uint256",
          "name": "index",
          "type": "uint256"
        }
      ],
      "name": "proposalDetailsAt",
      "outputs": [
        {
          "internalType": "uint256",
          "name": "proposalId",
          "type": "uint256"
        },
        {
          "internalType": "address[]",
          "name": "targets",
          "type": "address[]"
        },
        {
          "internalType": "uint256[]",
          "name": "values",
          "type": "uint256[]"
        },
        {
          "internalType": "bytes[]",
          "name": "calldatas",
          "type": "bytes[]"
        },
        {
          "internalType": "bytes32",
          "name": "descriptionHash",
          "type": "bytes32"
        }
      ],
      "stateMutability": "view",
      "type": "function"
    },
    {
      "inputs": [
        {
          "internalType": "uint256",
          "name": "proposalId",
          "type": "uint256"
        }
      ],
      "name": "proposalEta",
      "outputs": [
        {
          "internalType": "uint256",
          "name": "",
          "type": "uint256"
        }
      ],
      "stateMutability": "view",
      "type": "function"
    },
    {
      "inputs": [
        {
          "internalType": "uint256",
          "name": "proposalId",
          "type": "uint256"
        }
      ],
      "name": "proposalNeedsQueuing",
      "outputs": [
        {
          "internalType": "bool",
          "name": "",
          "type": "bool"
        }
      ],
      "stateMutability": "view",
      "type": "function"
    },
    {
      "inputs": [
        {
          "internalType": "uint256",
          "name": "proposalId",
          "type": "uint256"
        }
      ],
      "name": "proposalProposer",
      "outputs": [
        {
          "internalType": "address",
          "name": "",
          "type": "address"
        }
      ],
      "stateMutability": "view",
      "type": "function"
    },
    {
      "inputs": [
        {
          "internalType": "uint256",
          "name": "proposalId",
          "type": "uint256"
        }
      ],
      "name": "proposalSnapshot",
      "outputs": [
        {
          "internalType": "uint256",
          "name": "",
          "type": "uint256"
        }
      ],
      "stateMutability": "view",
      "type": "function"
    },
    {
      "inputs": [],
      "name": "proposalThreshold",
      "outputs": [
        {
          "internalType": "uint256",
          "name": "",
          "type": "uint256"
        }
      ],
      "stateMutability": "view",
      "type": "function"
    },
    {
      "inputs": [
        {
          "internalType": "uint256",
          "name": "proposalId",
          "type": "uint256"
        }
      ],
      "name": "proposalVotes",
      "outputs": [
        {
          "internalType": "uint256",
          "name": "againstVotes",
          "type": "uint256"
        },
        {
          "internalType": "uint256",
          "name": "forVotes",
          "type": "uint256"
        },
        {
          "internalType": "uint256",
          "name": "abstainVotes",
          "type": "uint256"
        }
      ],
      "stateMutability": "view",
      "type": "function"
    },
    {
      "inputs": [
        {
          "internalType": "address[]",
          "name": "targets",
          "type": "address[]"
        },
        {
          "internalType": "uint256[]",
          "name": "values",
          "type": "uint256[]"
        },
        {
          "internalType": "bytes[]",
          "name": "calldatas",
          "type": "bytes[]"
        },
        {
          "internalType": "string",
          "name": "description",
          "type": "string"
        }
      ],
      "name": "propose",
      "outputs": [
        {
          "internalType": "uint256",
          "name": "",
          "type": "uint256"
        }
      ],
      "stateMutability": "nonpayable",
      "type": "function"
    },
    {
      "inputs": [
        {
          "internalType": "address[]",
          "name": "targets",
          "type": "address[]"
        },
        {
          "internalType": "uint256[]",
          "name": "values",
          "type": "uint256[]"
        },
        {
          "internalType": "bytes[]",
          "name": "calldatas",
          "type": "bytes[]"
        },
        {
          "internalType": "bytes32",
          "name": "descriptionHash",
          "type": "bytes32"
        }
      ],
      "name": "queue",
      "outputs": [
        {
          "internalType": "uint256",
          "name": "",
          "type": "uint256"
        }
      ],
      "stateMutability": "nonpayable",
      "type": "function"
    },
    {
      "inputs": [
        {
          "internalType": "uint256",
          "name": "proposalId",
          "type": "uint256"
        }
      ],
      "name": "queue",
      "outputs": [],
      "stateMutability": "nonpayable",
      "type": "function"
    },
    {
      "inputs": [
        {
          "internalType": "uint256",
          "name": "timepoint",
          "type": "uint256"
        }
      ],
      "name": "quorum",
      "outputs": [
        {
          "internalType": "uint256",
          "name": "",
          "type": "uint256"
        }
      ],
      "stateMutability": "view",
      "type": "function"
    },
    {
      "inputs": [],
      "name": "quorumDenominator",
      "outputs": [
        {
          "internalType": "uint256",
          "name": "",
          "type": "uint256"
        }
      ],
      "stateMutability": "view",
      "type": "function"
    },
    {
      "inputs": [
        {
          "internalType": "uint256",
          "name": "timepoint",
          "type": "uint256"
        }
      ],
      "name": "quorumNumerator",
      "outputs": [
        {
          "internalType": "uint256",
          "name": "",
          "type": "uint256"
        }
      ],
      "stateMutability": "view",
      "type": "function"
    },
    {
      "inputs": [],
      "name": "quorumNumerator",
      "outputs": [
        {
          "internalType": "uint256",
          "name": "",
          "type": "uint256"
        }
      ],
      "stateMutability": "view",
      "type": "function"
    },
    {
      "inputs": [
        {
          "internalType": "address",
          "name": "target",
          "type": "address"
        },
        {
          "internalType": "uint256",
          "name": "value",
          "type": "uint256"
        },
        {
          "internalType": "bytes",
          "name": "data",
          "type": "bytes"
        }
      ],
      "name": "relay",
      "outputs": [],
      "stateMutability": "payable",
      "type": "function"
    },
    {
      "inputs": [
        {
          "internalType": "uint256",
          "name": "newProposalThreshold",
          "type": "uint256"
        }
      ],
      "name": "setProposalThreshold",
      "outputs": [],
      "stateMutability": "nonpayable",
      "type": "function"
    },
    {
      "inputs": [
        {
          "internalType": "uint48",
          "name": "newVotingDelay",
          "type": "uint48"
        }
      ],
      "name": "setVotingDelay",
      "outputs": [],
      "stateMutability": "nonpayable",
      "type": "function"
    },
    {
      "inputs": [
        {
          "internalType": "uint32",
          "name": "newVotingPeriod",
          "type": "uint32"
        }
      ],
      "name": "setVotingPeriod",
      "outputs": [],
      "stateMutability": "nonpayable",
      "type": "function"
    },
    {
      "inputs": [
        {
          "internalType": "uint256",
          "name": "proposalId",
          "type": "uint256"
        }
      ],
      "name": "state",
      "outputs": [
        {
          "internalType": "enum IGovernor.ProposalState",
          "name": "",
          "type": "uint8"
        }
      ],
      "stateMutability": "view",
      "type": "function"
    },
    {
      "inputs": [
        {
          "internalType": "bytes4",
          "name": "interfaceId",
          "type": "bytes4"
        }
      ],
      "name": "supportsInterface",
      "outputs": [
        {
          "internalType": "bool",
          "name": "",
          "type": "bool"
        }
      ],
      "stateMutability": "view",
      "type": "function"
    },
    {
      "inputs": [],
      "name": "token",
      "outputs": [
        {
          "internalType": "contract IERC5805",
          "name": "",
          "type": "address"
        }
      ],
      "stateMutability": "view",
      "type": "function"
    },
    {
      "inputs": [
        {
          "internalType": "uint256",
          "name": "newQuorumNumerator",
          "type": "uint256"
        }
      ],
      "name": "updateQuorumNumerator",
      "outputs": [],
      "stateMutability": "nonpayable",
      "type": "function"
    },
    {
      "inputs": [],
      "name": "version",
      "outputs": [
        {
          "internalType": "string",
          "name": "",
          "type": "string"
        }
      ],
      "stateMutability": "view",
      "type": "function"
    },
    {
      "inputs": [],
      "name": "votingDelay",
      "outputs": [
        {
          "internalType": "uint256",
          "name": "",
          "type": "uint256"
        }
      ],
      "stateMutability": "view",
      "type": "function"
    },
    {
      "inputs": [],
      "name": "votingPeriod",
      "outputs": [
        {
          "internalType": "uint256",
          "name": "",
          "type": "uint256"
        }
      ],
      "stateMutability": "view",
      "type": "function"
    },
    {
      "stateMutability": "payable",
      "type": "receive"
    }
  ],
  "transactionHash": "0xe2b1546346e9e6e9496b100cf518423cbf67d2e396afe94ada22ff526e796d0b",
  "args": [],
  "numDeployments": 1,
  "solcInputHash": "8ff6da728a23f74f7782b7fcfe230a1c",
  "bytecode": "0x6080806040523460d2577ff0c57e16840df040f15088dc2f81fe391c3923bec73e23a9662efc9c229c6a005460ff8160401c1660c1576002600160401b03196001600160401b03821601605c575b60405161545690816100d88239f35b6001600160401b0319166001600160401b039081177ff0c57e16840df040f15088dc2f81fe391c3923bec73e23a9662efc9c229c6a005581527fc7f505b2f371ae2175ee4913f4499e1f2633a7b5936321eed1cdaeb6115181d290602090a13880604d565b63f92ee8a960e01b60005260046000fd5b600080fdfe6080604052600436101561001b575b361561001957600080fd5b005b60003560e01c806301ffc9a71461037657806302a251a31461037157806306f3f9e61461036c57806306fdde0314610367578063143489d014610362578063150b7a021461035d578063160cbed71461035857806316e9eaec146103535780632656227d1461034e5780632d63f693146103495780632e82db94146103445780632fe3e2611461033f5780633932abb11461033a5780633e4f49e61461033557806340e58ee514610330578063438596321461032b578063452115d6146103265780634bf5d7e914610321578063544ffc9c1461031c57806354fd4d501461031757806356781388146103125780635b8d0e0d1461030d5780635f398a141461030857806360c4247f1461030357806379051887146102fe5780637b3c71d3146102f95780637d5e81e2146102f45780637ecebe00146102ef57806384b0196e146102ea5780638ff262e3146102e557806391ddadf4146102e057806397c3d334146102db5780639a802a6d146102d6578063a7713a70146102d1578063a8f8a668146102a9578063a9a95294146102cc578063ab58fb8e146102c7578063b553209d146102c2578063b58131b0146102bd578063bc197c81146102b8578063c01f9e37146102b3578063c28bc2fa146102ae578063c59057e4146102a9578063da35c664146102a4578063dd4e2ba51461029f578063ddf0b0091461029a578063deaaa7cc14610295578063e540d01d14610290578063eb9019d41461028b578063ece40cc114610286578063f23a6e6114610281578063f8ce560a1461027c578063fc0c546a146102775763fe0d94c10361000e57611f1c565b611ed6565b611eb8565b611e46565b611e22565b611d5d565b611d2b565b611cf0565b611c89565b611c2a565b611bed565b611759565b611b80565b611b62565b611aad565b611a71565b6117f8565b611791565b611775565b61172d565b611643565b611627565b6115fc565b6114a2565b611399565b6112c3565b611222565b6111cc565b61119f565b611171565b6110ef565b611046565b610fde565b610fb2565b610f50565b610f20565b610f04565b610e8b565b610e1a565b610deb565b610d7e565b610d43565b610c63565b610c0f565b610bf8565b610bc9565b610aa9565b61086a565b61072a565b61060f565b6104c9565b61047e565b34610479576020600319360112610479576004357fffffffff000000000000000000000000000000000000000000000000000000008116809103610479577fcdbdfcee00000000000000000000000000000000000000000000000000000000811490811561044f575b8115610425575b81156103fb575b506040519015158152602090f35b7f01ffc9a700000000000000000000000000000000000000000000000000000000915014386103ed565b7f4e2312e000000000000000000000000000000000000000000000000000000000811491506103e6565b7f65455a8600000000000000000000000000000000000000000000000000000000811491506103df565b600080fd5b346104795760006003193601126104795760206104c163ffffffff7ed7616c8fe29c6c2fbe1d0c5bc8f2faa4c35b43746e70b24b4d532752affd015460301c1690565b604051908152f35b34610479576020600319360112610479576004356104e5612de6565b60648111610581576001600160d01b036104fd613925565b1690610507612974565b916001600160d01b0382116105675761054b7f0553476bf02ef2726e8ce5ced78d63e26e602e4a2257b1f559418e24b4633997936001600160d01b03841690614c91565b505060408051918252602082019290925290819081015b0390a1005b506306dfcc6560e41b60005260d060045260245260446000fd5b7f243e544500000000000000000000000000000000000000000000000000000000600052600452606460245260446000fd5b60005b8381106105c65750506000910152565b81810151838201526020016105b6565b90601f19601f6020936105f4815180928187528780880191016105b3565b0116010190565b90602061060c9281815201906105d6565b90565b346104795760006003193601126104795760405160007f7c712897014dbe49c045ef1299aa2d5f9e67e48eea4403efa21f1e0f3ac0cb005461065081611f81565b80845290600181169081156107065750600114610688575b61068483610678818503826107b4565b604051918291826105fb565b0390f35b7f7c712897014dbe49c045ef1299aa2d5f9e67e48eea4403efa21f1e0f3ac0cb0060009081527fda13dda7583a39a3cd73e8830529c760837228fa4683752c823b17e10548aad5939250905b8082106106ec57509091508101602001610678610668565b9192600181602092548385880101520191019092916106d4565b60ff191660208086019190915291151560051b840190910191506106789050610668565b3461047957602060031936011261047957602061077c6004356000527f7c712897014dbe49c045ef1299aa2d5f9e67e48eea4403efa21f1e0f3ac0cb016020526001600160a01b036040600020541690565b6001600160a01b0360405191168152f35b6001600160a01b0381160361047957565b634e487b7160e01b600052604160045260246000fd5b90601f601f19910116810190811067ffffffffffffffff8211176107d757604052565b61079e565b604051906107eb6080836107b4565b565b604051906107eb6040836107b4565b67ffffffffffffffff81116107d757601f01601f191660200190565b929192610824826107fc565b9161083260405193846107b4565b829481845281830111610479578281602093846000960137010152565b9080601f830112156104795781602061060c93359101610818565b346104795760806003193601126104795761088660043561078d565b61089160243561078d565b60643567ffffffffffffffff8111610479576108b190369060040161084f565b5060206040517f150b7a02000000000000000000000000000000000000000000000000000000008152f35b67ffffffffffffffff81116107d75760051b60200190565b9080601f8301121561047957813561090b816108dc565b9261091960405194856107b4565b81845260208085019260051b82010192831161047957602001905b8282106109415750505090565b6020809183356109508161078d565b815201910190610934565b9080601f83011215610479578135610972816108dc565b9261098060405194856107b4565b81845260208085019260051b82010192831161047957602001905b8282106109a85750505090565b813581526020918201910161099b565b9080601f830112156104795781356109cf816108dc565b926109dd60405194856107b4565b81845260208085019260051b820101918383116104795760208201905b838210610a0957505050505090565b813567ffffffffffffffff811161047957602091610a2c8784809488010161084f565b8152019101906109fa565b60806003198201126104795760043567ffffffffffffffff81116104795781610a62916004016108f4565b9160243567ffffffffffffffff81116104795782610a829160040161095b565b916044359067ffffffffffffffff821161047957610aa2916004016109b8565b9060643590565b3461047957610ab736610a37565b92919091611fbb565b906020808351928381520192019060005b818110610ade5750505090565b82516001600160a01b0316845260209384019390920191600101610ad1565b906020808351928381520192019060005b818110610b1b5750505090565b8251845260209384019390920191600101610b0e565b9080602083519182815201916020808360051b8301019401926000915b838310610b5d57505050505090565b9091929394602080610b7b83601f19866001960301875289516105d6565b97019301930191939290610b4e565b949392610bb6606093610ba8610bc49460808a5260808a0190610ac0565b9088820360208a0152610afd565b908682036040880152610b31565b930152565b3461047957602060031936011261047957610684610be860043561217b565b9060409492945194859485610b8a565b60206104c1610c0636610a37565b92919091612272565b346104795760206003193601126104795760206104c16004356000527f7c712897014dbe49c045ef1299aa2d5f9e67e48eea4403efa21f1e0f3ac0cb0160205265ffffffffffff60406000205460a01c1690565b34610479576020600319360112610479576004357f7fd223d3380145bd26132714391e777c488a0df7ac2dd4b66419d8549fb3a60054811015610d3e57610d26907f7fd223d3380145bd26132714391e777c488a0df7ac2dd4b66419d8549fb3a6006000527f417ab5363cd721cbd7a5446b963bb4274a7db26ef2bb28819834095c165ca17a0154610d34610cf78261217b565b9392959091610d18604051978897885260a0602089015260a0880190610ac0565b908682036040880152610afd565b908482036060860152610b31565b9060808301520390f35b612248565b346104795760006003193601126104795760206040517f3e83946653575f9a39005e1545185629e92736b7528ab20ca3816f315424a8118152f35b3461047957600060031936011261047957602065ffffffffffff7ed7616c8fe29c6c2fbe1d0c5bc8f2faa4c35b43746e70b24b4d532752affd015416604051908152f35b634e487b7160e01b600052602160045260246000fd5b6008811015610de657602452565b610dc2565b3461047957602060031936011261047957610e07600435612f17565b6040516008821015610de6576020918152f35b34610479576020600319360112610479576004356000527f7fd223d3380145bd26132714391e777c488a0df7ac2dd4b66419d8549fb3a6016020526100196040600020600381015490610e6c81611ffa565b90610e856002610e7e6001840161204e565b9201612099565b916123a7565b3461047957604060031936011261047957602060ff610ef8602435600435610eb28261078d565b6000527fa1cefa0f43667ef127a258e673c94202a79b656e62899531c4376d87a7f3980084526003604060002001906001600160a01b0316600052602052604060002090565b54166040519015158152f35b346104795760206104c1610f1736610a37565b929190916123a7565b3461047957600060031936011261047957610684610f3c612575565b6040519182916020835260208301906105d6565b34610479576020600319360112610479576004356000527fa1cefa0f43667ef127a258e673c94202a79b656e62899531c4376d87a7f3980060205260606040600020805490600260018201549101549060405192835260208301526040820152f35b3461047957600060031936011261047957610684610f3c61266f565b6024359060ff8216820361047957565b346104795760406003193601126104795760206104c1600435610fff610fce565b6040519161100d85846107b4565b6000835233906130c8565b9181601f840112156104795782359167ffffffffffffffff8311610479576020838186019501011161047957565b346104795760c060031936011261047957600435611062610fce565b90604435906110708261078d565b60643567ffffffffffffffff811161047957611090903690600401611018565b60843567ffffffffffffffff8111610479576110b090369060040161084f565b9160a4359467ffffffffffffffff861161047957610684966110d96110df97369060040161084f565b956126aa565b6040519081529081906020820190565b346104795760806003193601126104795760043561110b610fce565b9060443567ffffffffffffffff81116104795761112c903690600401611018565b91909260643567ffffffffffffffff8111610479576111669461115661115e92369060040161084f565b943691610818565b9133906132d9565b604051908152602090f35b346104795760206003193601126104795760206104c1600435613433565b65ffffffffffff81160361047957565b34610479576020600319360112610479576100196004356111bf8161118f565b6111c7612de6565b6135dd565b34610479576060600319360112610479576004356111e8610fce565b906044359067ffffffffffffffff82116104795760209261121a6112136104c1943690600401611018565b3691610818565b9133906130c8565b346104795760806003193601126104795760043567ffffffffffffffff8111610479576112539036906004016108f4565b60243567ffffffffffffffff81116104795761127390369060040161095b565b9060443567ffffffffffffffff8111610479576112949036906004016109b8565b906064359167ffffffffffffffff831161047957610684936112bd6110df94369060040161084f565b926127f2565b34610479576020600319360112610479576001600160a01b036004356112e88161078d565b166000527f5ab42ced628888259c08ac98db1eb0cf702fc1501344311d8b100cd1bfe4bb006020526020604060002054604051908152f35b919361137961060c96949561136b6001600160a01b03947f0f00000000000000000000000000000000000000000000000000000000000000875260e0602088015260e08701906105d6565b9085820360408701526105d6565b946060840152166080820152600060a082015260c0818403910152610afd565b34610479576000600319360112610479577fa16a46d94261c7517cc8ff89f61c0ce93598e3c849801011dee649a6a557d100541580611479575b1561141b576113e0613743565b6113e8613836565b906106846020604051906113fc81836107b4565b60008252601f1981019036908301376040519384933091469186611320565b60646040517f08c379a000000000000000000000000000000000000000000000000000000000815260206004820152601560248201527f4549503731323a20556e696e697469616c697a656400000000000000000000006044820152fd5b507fa16a46d94261c7517cc8ff89f61c0ce93598e3c849801011dee649a6a557d10154156113d3565b34610479576080600319360112610479576004356114be610fce565b90604435916114cc8361078d565b60643567ffffffffffffffff8111610479576115a56114f26115a992369060040161084f565b61159f61153a876001600160a01b03166000527f5ab42ced628888259c08ac98db1eb0cf702fc1501344311d8b100cd1bfe4bb00602052604060002080549060018201905590565b60405160208101917ff2aad550cf55f045cb27e9c559f9889fdfb6e6cdaa032301d6ea397784ae51d7835288604083015260ff881660608301526001600160a01b038a16608083015260a082015260a0815261159760c0826107b4565b5190206130e6565b8661318d565b1590565b6115c457906110df91610684936115be612525565b926130c8565b7f94ab6c07000000000000000000000000000000000000000000000000000000006000526001600160a01b03831660045260245b6000fd5b34610479576000600319360112610479576020611617612974565b65ffffffffffff60405191168152f35b3461047957600060031936011261047957602060405160648152f35b34610479576060600319360112610479576004356116608161078d565b602435906044359067ffffffffffffffff82116104795760446001600160a01b0391611692602094369060040161084f565b50827f3ba4977254e415696610a40ebf2258dbfa0ec6a2ff64e84bfe715ff16977cc0054166040519586948593630748d63560e31b855216600484015260248301525afa801561172857610684916000916116f9575b506040519081529081906020820190565b61171b915060203d602011611721575b61171381836107b4565b810190612d2d565b386116e8565b503d611709565b612519565b346104795760006003193601126104795760206001600160d01b03611750613925565b16604051908152f35b346104795760206104c161176c36610a37565b92919091612cff565b3461047957602060031936011261047957602060405160008152f35b346104795760206003193601126104795760206104c16004356000527f7c712897014dbe49c045ef1299aa2d5f9e67e48eea4403efa21f1e0f3ac0cb0160205265ffffffffffff6001604060002001541690565b6064359063ffffffff8216820361047957565b346104795760a06003193601126104795760043567ffffffffffffffff81116104795761182990369060040161084f565b602435906118368261078d565b6044356118428161118f565b61184a6117e5565b608435917ff0c57e16840df040f15088dc2f81fe391c3923bec73e23a9662efc9c229c6a00549467ffffffffffffffff61189c61188e6115a58960ff9060401c1690565b9767ffffffffffffffff1690565b1680159081611a69575b6001149081611a5f575b159081611a56575b50611a2c57611939948661193060017fffffffffffffffffffffffffffffffffffffffffffffffff00000000000000007ff0c57e16840df040f15088dc2f81fe391c3923bec73e23a9662efc9c229c6a005416177ff0c57e16840df040f15088dc2f81fe391c3923bec73e23a9662efc9c229c6a0055565b6119c757612a24565b61193f57005b61199468ff0000000000000000197ff0c57e16840df040f15088dc2f81fe391c3923bec73e23a9662efc9c229c6a0054167ff0c57e16840df040f15088dc2f81fe391c3923bec73e23a9662efc9c229c6a0055565b604051600181527fc7f505b2f371ae2175ee4913f4499e1f2633a7b5936321eed1cdaeb6115181d2908060208101610562565b611a276801000000000000000068ff0000000000000000197ff0c57e16840df040f15088dc2f81fe391c3923bec73e23a9662efc9c229c6a005416177ff0c57e16840df040f15088dc2f81fe391c3923bec73e23a9662efc9c229c6a0055565b612a24565b7ff92ee8a90000000000000000000000000000000000000000000000000000000060005260046000fd5b905015386118b8565b303b1591506118b0565b8791506118a6565b346104795760006003193601126104795760207ed7616c8fe29c6c2fbe1d0c5bc8f2faa4c35b43746e70b24b4d532752affd0054604051908152f35b346104795760a060031936011261047957611ac960043561078d565b611ad460243561078d565b60443567ffffffffffffffff811161047957611af490369060040161095b565b5060643567ffffffffffffffff811161047957611b1590369060040161095b565b5060843567ffffffffffffffff811161047957611b3690369060040161084f565b506040517fbc197c81000000000000000000000000000000000000000000000000000000008152602090f35b346104795760206003193601126104795760206104c1600435612c46565b606060031936011261047957600435611b988161078d565b60243560443567ffffffffffffffff81116104795761001992600092611bc384933690600401611018565b9190611bcd612de6565b826040519384928337810185815203925af1611be7612ccf565b90613b8a565b346104795760006003193601126104795760207f7fd223d3380145bd26132714391e777c488a0df7ac2dd4b66419d8549fb3a60054604051908152f35b34610479576000600319360112610479576106846040805190611c4d81836107b4565b602082527f737570706f72743d627261766f2671756f72756d3d666f722c6162737461696e6020830152519182916020835260208301906105d6565b34610479576020600319360112610479576004356000527f7fd223d3380145bd26132714391e777c488a0df7ac2dd4b66419d8549fb3a6016020526040600020600381015490611cd881611ffa565b90611cea6002610e7e6001840161204e565b91611fbb565b346104795760006003193601126104795760206040517ff2aad550cf55f045cb27e9c559f9889fdfb6e6cdaa032301d6ea397784ae51d78152f35b346104795760206003193601126104795760043563ffffffff811681036104795761001990611d58612de6565b613bcb565b34610479576040600319360112610479576044600435611d7c8161078d565b602435906001600160a01b0360209384926000604051611d9c86826107b4565b52827f3ba4977254e415696610a40ebf2258dbfa0ec6a2ff64e84bfe715ff16977cc0054166040519586948593630748d63560e31b855216600484015260248301525afa9081156117285761068492600092611e05575b50506040519081529081906020820190565b611e1b9250803d106117215761171381836107b4565b3880611df3565b3461047957602060031936011261047957610019600435611e41612de6565b613cb9565b346104795760a060031936011261047957611e6260043561078d565b611e6d60243561078d565b60843567ffffffffffffffff811161047957611e8d90369060040161084f565b5060206040517ff23a6e61000000000000000000000000000000000000000000000000000000008152f35b346104795760206003193601126104795760206104c1600435612d3c565b346104795760006003193601126104795760206001600160a01b037f3ba4977254e415696610a40ebf2258dbfa0ec6a2ff64e84bfe715ff16977cc005416604051908152f35b6020600319360112610479576004356000527f7fd223d3380145bd26132714391e777c488a0df7ac2dd4b66419d8549fb3a6016020526100196040600020600381015490611f6981611ffa565b90611f7b6002610e7e6001840161204e565b91612272565b90600182811c92168015611fb1575b6020831014611f9b57565b634e487b7160e01b600052602260045260246000fd5b91607f1691611f90565b91611fcf9391611fca93612cff565b612e53565b507f90884a460000000000000000000000000000000000000000000000000000000060005260046000fd5b906040519182815491828252602082019060005260206000209260005b81811061202c5750506107eb925003836107b4565b84546001600160a01b0316835260019485019487945060209093019201612017565b906040519182815491828252602082019060005260206000209260005b8181106120805750506107eb925003836107b4565b845483526001948501948794506020909301920161206b565b908154916120a6836108dc565b926120b460405194856107b4565b80845260208401916000526020600020916000905b8282106120d65750505050565b604051600085546120e681611f81565b80845290600181169081156121585750600114612120575b5060019282612112859460209403826107b4565b8152019401910190926120c9565b6000878152602081209092505b818310612142575050810160200160016120fe565b600181602092548386880101520192019161212d565b60ff191660208581019190915291151560051b84019091019150600190506120fe565b806000527f7fd223d3380145bd26132714391e777c488a0df7ac2dd4b66419d8549fb3a601602052604060002091604051906080820182811067ffffffffffffffff8211176107d7576040526121d084611ffa565b82526121de6001850161204e565b916020810192835260036121f460028701612099565b956040830196875201549360608201948086521561221b5750519151935192519193929190565b7f6ad060750000000000000000000000000000000000000000000000000000000060005260045260246000fd5b634e487b7160e01b600052603260045260246000fd5b8051821015610d3e5760209160051b010190565b9261228290929192828486612cff565b92602094612294602060101786612ed7565b506122c8856000527f7c712897014dbe49c045ef1299aa2d5f9e67e48eea4403efa21f1e0f3ac0cb01602052604060002090565b7e010000000000000000000000000000000000000000000000000000000000007fff00ffffffffffffffffffffffffffffffffffffffffffffffffffffffffffff82541617905560005b825181101561236757806123606000806001600160a01b036123366001968961225e565b5116612342858b61225e565b519061234e868b61225e565b51918d83519301915af1611be7612ccf565b5001612312565b5094505050507f712ae1383f79ac853f8d882153778e0260ef8f03b504e2866e0593e04d2b291f604051806123a184829190602083019252565b0390a190565b939291906123b783838388612cff565b946123c186612f17565b6008811015610de65715806124cb575b15612499576123e1949550612cff565b6123ec603b82612ed7565b50612420816000527f7c712897014dbe49c045ef1299aa2d5f9e67e48eea4403efa21f1e0f3ac0cb01602052604060002090565b80547effffffffffffffffffffffffffffffffffffffffffffffffffffffffffffff167f01000000000000000000000000000000000000000000000000000000000000001790556040518181527f789cf55be980739dad1d0699b93b58e806b51c9d96619bfa8fe0a28abaa7b30c9080602081016123a1565b857f8fe5d8a9000000000000000000000000000000000000000000000000000000006000526004523360245260446000fd5b506001600160a01b03612511876000527f7c712897014dbe49c045ef1299aa2d5f9e67e48eea4403efa21f1e0f3ac0cb016020526001600160a01b036040600020541690565b1633146123d1565b6040513d6000823e3d90fd5b604051906125346020836107b4565b60008252565b604051906125496040836107b4565b601d82527f6d6f64653d626c6f636b6e756d6265722666726f6d3d64656661756c740000006020830152565b600460006001600160a01b037f3ba4977254e415696610a40ebf2258dbfa0ec6a2ff64e84bfe715ff16977cc005416604051928380927f4bf5d7e90000000000000000000000000000000000000000000000000000000082525afa600091816125e7575b5061060c575061060c61253a565b90913d8082843e6125f881846107b4565b8201916020818403126126675780519067ffffffffffffffff821161266b570182601f820112156126675780519161262f836107fc565b9361263d60405195866107b4565b8385526020848401011161266457509061265d91602080850191016105b3565b90386125d9565b80fd5b5080fd5b8280fd5b6040519061267e6040836107b4565b600182527f31000000000000000000000000000000000000000000000000000000000000006020830152565b9390929196956115a561278a9161278487878c8b612703826001600160a01b03166000527f5ab42ced628888259c08ac98db1eb0cf702fc1501344311d8b100cd1bfe4bb00602052604060002080549060018201905590565b6001600160a01b03612716368c8e610818565b6020815191012092602081519101209360ff6040519660208801987f3e83946653575f9a39005e1545185629e92736b7528ab20ca3816f315424a8118a52604089015216606087015216608085015260a084015260c083015260e082015260e08152611597610100826107b4565b8a61318d565b6127a55761060c95969161279f913691610818565b926132d9565b7f94ab6c07000000000000000000000000000000000000000000000000000000006000526001600160a01b03871660045260246000fd5b634e487b7160e01b600052601160045260246000fd5b91939290936128018233613687565b15612946577ed7616c8fe29c6c2fbe1d0c5bc8f2faa4c35b43746e70b24b4d532752affd0054948561283b575b61060c94955033936145df565b60001965ffffffffffff61284d612974565b160165ffffffffffff81116129415765ffffffffffff1695600096876040516128776020826107b4565b5260206001600160a01b037f3ba4977254e415696610a40ebf2258dbfa0ec6a2ff64e84bfe715ff16977cc00541691604460405180948193630748d63560e31b83526001600160a01b033316600484015260248301525afa9788156117285797612920575b508087106128ea575061282e565b7fc242ee160000000000000000000000000000000000000000000000000000000060005233600452602487905260445260646000fd5b61293a91975060203d6020116117215761171381836107b4565b95386128dc565b6127dc565b7fd9b39557000000000000000000000000000000000000000000000000000000006000523360045260246000fd5b600460206001600160a01b037f3ba4977254e415696610a40ebf2258dbfa0ec6a2ff64e84bfe715ff16977cc005416604051928380927f91ddadf40000000000000000000000000000000000000000000000000000000082525afa600091816129e7575b5061060c575061060c43614010565b9091506020813d602011612a1c575b81612a03602093836107b4565b810103126104795751612a158161118f565b90386129d8565b3d91506129f6565b9493929091612a3161490e565b612a3961266f565b612a4161490e565b865167ffffffffffffffff81116107d757612a8581612a807fa16a46d94261c7517cc8ff89f61c0ce93598e3c849801011dee649a6a557d10254611f81565b614298565b6020601f8211600114612b70576107eb9798612aef612b60979694612ac885612b4b9896612b4696600091612b65575b506000198260011b9260031b1c19161790565b7fa16a46d94261c7517cc8ff89f61c0ce93598e3c849801011dee649a6a557d10255614967565b612b1860007fa16a46d94261c7517cc8ff89f61c0ce93598e3c849801011dee649a6a557d10055565b612b4160007fa16a46d94261c7517cc8ff89f61c0ce93598e3c849801011dee649a6a557d10155565b614ade565b6139aa565b612b5361490e565b612b5b61490e565b613a48565b613acb565b905085015138612ab5565b7fa16a46d94261c7517cc8ff89f61c0ce93598e3c849801011dee649a6a557d102600052601f198216907f42ad5d3e1f2e6e70edcf6d991b8a3023d3fca8047a131592f9edb9fd9b89d57d9160005b818110612c2e5750612b60979694600185612b46956107eb9d9e95612b4b9a98612aef9610612c15575b5050811b017fa16a46d94261c7517cc8ff89f61c0ce93598e3c849801011dee649a6a557d10255614967565b86015160001960f88460031b161c191690553880612be9565b9192602060018192868f015181550194019201612bbf565b806000527f7c712897014dbe49c045ef1299aa2d5f9e67e48eea4403efa21f1e0f3ac0cb0160205265ffffffffffff60406000205460a01c16906000527f7c712897014dbe49c045ef1299aa2d5f9e67e48eea4403efa21f1e0f3ac0cb0160205263ffffffff60406000205460d01c160165ffffffffffff81116129415765ffffffffffff1690565b3d15612cfa573d90612ce0826107fc565b91612cee60405193846107b4565b82523d6000602084013e565b606090565b9290612d19612d2792604051948593602085019788610b8a565b03601f1981018352826107b4565b51902090565b90816020910312610479575190565b60249060206001600160a01b037f3ba4977254e415696610a40ebf2258dbfa0ec6a2ff64e84bfe715ff16977cc005416604051938480927f8e539e8c0000000000000000000000000000000000000000000000000000000082528560048301525afa9081156117285761060c92600092612dc1575b50612dbb90613433565b90613d34565b612dbb919250612ddf9060203d6020116117215761171381836107b4565b9190612db1565b333003612def57565b7f47096e47000000000000000000000000000000000000000000000000000000006000526001600160a01b03331660045260246000fd5b6008811015610de65760ff600191161b90565b600452606491906008811015610de6576024526000604452565b612e5c81612f17565b906010612e6883612e26565b1615612e72575090565b612e8a92506331b75e4d60e01b600052600452610dd8565b601060445260646000fd5b612e9e81612f17565b906002612eaa83612e26565b1615612eb4575090565b612ecc92506331b75e4d60e01b600052600452610dd8565b600260445260646000fd5b90612ee182612f17565b9181612eec84612e26565b1615612ef757505090565b6331b75e4d60e01b600052600452612f0e82610dd8565b60445260646000fd5b612f4a816000527f7c712897014dbe49c045ef1299aa2d5f9e67e48eea4403efa21f1e0f3ac0cb01602052604060002090565b5460f881901c9060f01c60ff166130c1576130bb57612f9e816000527f7c712897014dbe49c045ef1299aa2d5f9e67e48eea4403efa21f1e0f3ac0cb0160205265ffffffffffff60406000205460a01c1690565b801561308c57612fba612faf612974565b65ffffffffffff1690565b8091101561308557612fcb82612c46565b10612fd65750600190565b612fe26115a582613dcd565b8015613041575b15612ff45750600390565b613033906000527f7c712897014dbe49c045ef1299aa2d5f9e67e48eea4403efa21f1e0f3ac0cb0160205265ffffffffffff6001604060002001541690565b61303c57600490565b600590565b506130806115a5826000527fa1cefa0f43667ef127a258e673c94202a79b656e62899531c4376d87a7f398006020526040600020600181015490541090565b612fe9565b5050600090565b7f6ad0607500000000000000000000000000000000000000000000000000000000600052600482905260246000fd5b50600290565b5050600790565b9161060c9391604051936130dd6020866107b4565b600085526132d9565b6042906130f1615278565b6130f96152e2565b6040519060208201927f8b73c3c69bb8fe3d512ecc4cf759cc79239f7b179b0ffacaa9a75d522b39400f8452604083015260608201524660808201523060a082015260a0815261314a60c0826107b4565b51902090604051917f19010000000000000000000000000000000000000000000000000000000000008352600283015260228201522090565b60041115610de657565b9190823b6131c8579061319f91613e59565b506131a981613183565b1591826131b557505090565b6001600160a01b03919250811691161490565b91600092612d19613218859460405192839160208301957f1626ba7e00000000000000000000000000000000000000000000000000000000875260248401526040604484015260648301906105d6565b51915afa613224612ccf565b8161326b575b81613233575090565b905060208180518101031261047957602001517f1626ba7e000000000000000000000000000000000000000000000000000000001490565b90506020815110159061322a565b93909260ff6132a59361060c97958752166020860152604085015260a0606085015260a08401906105d6565b9160808184039101526105d6565b909260ff60809361060c96958452166020830152604082015281606082015201906105d6565b929190926132e681612e95565b50613326816000527f7c712897014dbe49c045ef1299aa2d5f9e67e48eea4403efa21f1e0f3ac0cb0160205265ffffffffffff60406000205460a01c1690565b93604460206001600160a01b037f3ba4977254e415696610a40ebf2258dbfa0ec6a2ff64e84bfe715ff16977cc00541660405192838092630748d63560e31b82526001600160a01b0387169a8b600484015260248301525afa9081156117285761339b928591600093613412575b5084613e95565b948051156000146133df57506133d97fb8e138887d0aa13bab447e82de9d5c1777041ecd21ca36ba824ff1e6c07ddda49386604051948594856132b3565b0390a290565b6133d9907fe2babfbac5889a709b63bb7f598b324e08bc5a4fb9ec647fb3cbc9ec07eb8712948760405195869586613279565b61342c91935060203d6020116117215761171381836107b4565b9138613394565b61345c7fe770710421fd2cad75ad828c61aa98f2d77d423a440b67872d0f65554148e000613fcf565b6000939092509065ffffffffffff16811061348057506001600160d01b0391501690565b61348a9150614010565b7fe770710421fd2cad75ad828c61aa98f2d77d423a440b67872d0f65554148e000548291816005811161355c575b50906001600160d01b03936134ed927fe770710421fd2cad75ad828c61aa98f2d77d423a440b67872d0f65554148e000614fce565b806134f757501690565b613558915061350861355191613909565b7fe770710421fd2cad75ad828c61aa98f2d77d423a440b67872d0f65554148e0006000527f293b0181c8ec34cd3252e741689bdc21b70ee7a0ec76216439035a5c3718909b0190565b5460301c90565b1690565b9361356685614e59565b8503948511612941576001600160d01b03946134ed937fe770710421fd2cad75ad828c61aa98f2d77d423a440b67872d0f65554148e000865265ffffffffffff826020882001541665ffffffffffff8516106000146135cb5750915b919250936134b8565b9291506135d790613db2565b906135c2565b7fc565b045403dc03c2eea82b81a0465edad9e2e7fc4d97e11421c209da93d7a93604065ffffffffffff807ed7616c8fe29c6c2fbe1d0c5bc8f2faa4c35b43746e70b24b4d532752affd0154169382519485521692836020820152a165ffffffffffff197ed7616c8fe29c6c2fbe1d0c5bc8f2faa4c35b43746e70b24b4d532752affd015416177ed7616c8fe29c6c2fbe1d0c5bc8f2faa4c35b43746e70b24b4d532752affd0155565b9080516034811061373b577f2370726f706f7365723d000000000000000000000000000000000000000000007fffffffffffffffffffff000000000000000000000000000000000000000000007fffffffffffffffffffffffffffffffffffffffffffffffffffffffffffffffec8385010151160361373b5761372d917fffffffffffffffffffffffffffffffffffffffffffffffffffffffffffffffd682019061406d565b90159182156131b557505090565b505050600190565b6040517fa16a46d94261c7517cc8ff89f61c0ce93598e3c849801011dee649a6a557d1025481600061377483611f81565b80835292600181169081156138175750600114613798575b61060c925003826107b4565b507fa16a46d94261c7517cc8ff89f61c0ce93598e3c849801011dee649a6a557d102600090815290917f42ad5d3e1f2e6e70edcf6d991b8a3023d3fca8047a131592f9edb9fd9b89d57d5b8183106137fb57505090602061060c9282010161378c565b60209193508060019154838588010152019101909183926137e3565b6020925061060c94915060ff191682840152151560051b82010161378c565b6040517fa16a46d94261c7517cc8ff89f61c0ce93598e3c849801011dee649a6a557d1035481600061386783611f81565b8083529260018116908115613817575060011461388a5761060c925003826107b4565b507fa16a46d94261c7517cc8ff89f61c0ce93598e3c849801011dee649a6a557d103600090815290917f5f9ce34815f8e11431c7bb75a8e6886a91478f7ffc1dbb0a98dc240fddd76b755b8183106138ed57505090602061060c9282010161378c565b60209193508060019154838588010152019101909183926138d5565b90600019820191821161294157565b9190820391821161294157565b7fe770710421fd2cad75ad828c61aa98f2d77d423a440b67872d0f65554148e00054806139525750600090565b80600019810111612941577fe770710421fd2cad75ad828c61aa98f2d77d423a440b67872d0f65554148e0006000527f293b0181c8ec34cd3252e741689bdc21b70ee7a0ec76216439035a5c3718909a015460301c90565b90611d586139c2926139ba61490e565b6111c761490e565b7ed7616c8fe29c6c2fbe1d0c5bc8f2faa4c35b43746e70b24b4d532752affd005460408051918252670de0b6b3a764000060208301819052917fccb45da8d5717e6c4544694297c4ba5cf151d455c9bb0ed4fc7a38411bc0546191819081015b0390a17ed7616c8fe29c6c2fbe1d0c5bc8f2faa4c35b43746e70b24b4d532752affd0055565b6001600160a01b0390613a5961490e565b613a6161490e565b167fffffffffffffffffffffffff00000000000000000000000000000000000000007f3ba4977254e415696610a40ebf2258dbfa0ec6a2ff64e84bfe715ff16977cc005416177f3ba4977254e415696610a40ebf2258dbfa0ec6a2ff64e84bfe715ff16977cc0055565b90613ad461490e565b613adc61490e565b60648211613b57576001600160d01b03613af4613925565b1691613afe612974565b926001600160d01b03821161056757613b437f0553476bf02ef2726e8ce5ced78d63e26e602e4a2257b1f559418e24b463399793946001600160d01b03841690614c91565b5050604080519182526020820192909252a1565b507f243e544500000000000000000000000000000000000000000000000000000000600052600452606460245260446000fd5b9091906107eb5750805115613ba157805190602001fd5b7fd6bda2750000000000000000000000000000000000000000000000000000000060005260046000fd5b63ffffffff8116908115613c8a5769ffffffff0000000000007fffffffffffffffffffffffffffffffffffffffffffff00000000ffffffffffff917f7e3f7f0708a84de9203036abaa450dccc85ad5ff52f78c170f3edb55cf5e882860407ed7616c8fe29c6c2fbe1d0c5bc8f2faa4c35b43746e70b24b4d532752affd01549581519063ffffffff8860301c1682526020820152a160301b169116177ed7616c8fe29c6c2fbe1d0c5bc8f2faa4c35b43746e70b24b4d532752affd0155565b7ff1cfbf0500000000000000000000000000000000000000000000000000000000600052600060045260246000fd5b7ed7616c8fe29c6c2fbe1d0c5bc8f2faa4c35b43746e70b24b4d532752affd005460408051918252602082018390527fccb45da8d5717e6c4544694297c4ba5cf151d455c9bb0ed4fc7a38411bc05461919081908101613a22565b8115613d1e570490565b634e487b7160e01b600052601260045260246000fd5b600019828209908281029182808210910303908115613d96578160641115613d8f577f5c28f5c28f5c28f5c28f5c28f5c28f5c28f5c28f5c28f5c28f5c28f5c28f5c29936064910990828211900360fe1b910360021c170290565b6011613da1565b505060649004919050565b634e487b716000526020526024601cfd5b906001820180921161294157565b9190820180921161294157565b806000527fa1cefa0f43667ef127a258e673c94202a79b656e62899531c4376d87a7f39800602052613e41613e3c6040600020926000527f7c712897014dbe49c045ef1299aa2d5f9e67e48eea4403efa21f1e0f3ac0cb0160205265ffffffffffff60406000205460a01c1690565b612d3c565b60026001830154920154820180921161294157111590565b8151919060418303613e8a57613e8392506020820151906060604084015193015160001a90614dd0565b9192909190565b505060009160029190565b613ecb909291926000527fa1cefa0f43667ef127a258e673c94202a79b656e62899531c4376d87a7f39800602052604060002090565b9160038301613ef7613ef08383906001600160a01b0316600052602052604060002090565b5460ff1690565b613f9857613f1e60ff9392613f2b92906001600160a01b0316600052602052604060002090565b600160ff19825416179055565b1680613f425750613f3d828254613dc0565b905590565b60018103613f595750600101613f3d828254613dc0565b600203613f6e57600201613f3d828254613dc0565b7f06b337c20000000000000000000000000000000000000000000000000000000060005260046000fd5b7f71c6af49000000000000000000000000000000000000000000000000000000006000526001600160a01b03821660045260246000fd5b805480613fe3575050600090600090600090565b806000198101116129415760001991600052602060002001015460019165ffffffffffff82169160301c90565b65ffffffffffff81116140285765ffffffffffff1690565b6306dfcc6560e41b600052603060045260245260446000fd5b908160011b918083046002149015171561294157565b908160041b918083046010149015171561294157565b805183118015614128575b6140cc5761408582613db2565b8311806140d7575b614098901515614041565b60280180602811612941576140ad8385613918565b036140cc57916140c6916001600160a01b039493615035565b90921690565b505050600090600090565b50808201602001517fffff000000000000000000000000000000000000000000000000000000000000167f30780000000000000000000000000000000000000000000000000000000000001461408d565b50828211614078565b7f7fd223d3380145bd26132714391e777c488a0df7ac2dd4b66419d8549fb3a60054680100000000000000008110156107d757600181017f7fd223d3380145bd26132714391e777c488a0df7ac2dd4b66419d8549fb3a600557f7fd223d3380145bd26132714391e777c488a0df7ac2dd4b66419d8549fb3a60054811015610d3e577f7fd223d3380145bd26132714391e777c488a0df7ac2dd4b66419d8549fb3a6006000527f417ab5363cd721cbd7a5446b963bb4274a7db26ef2bb28819834095c165ca17a0155565b818110614207575050565b600081556001016141fc565b9181811061422057505050565b6107eb92600052602060002091820191016141fc565b81519167ffffffffffffffff83116107d7576801000000000000000083116107d75760209061426a84845481865585614213565b0190600052602060002060005b8381106142845750505050565b600190602084519401938184015501614277565b90601f82116142a5575050565b6107eb917fa16a46d94261c7517cc8ff89f61c0ce93598e3c849801011dee649a6a557d1026000526020600020906020601f840160051c830193106142f2575b601f0160051c01906141fc565b90915081906142e5565b90601f8211614309575050565b6107eb917f7c712897014dbe49c045ef1299aa2d5f9e67e48eea4403efa21f1e0f3ac0cb006000526020600020906020601f840160051c830193106142f257601f0160051c01906141fc565b9190601f811161436457505050565b6107eb926000526020600020906020601f840160051c830193106142f257601f0160051c01906141fc565b919091825167ffffffffffffffff81116107d7576143b7816143b18454611f81565b84614355565b6020601f82116001146143f75781906143e89394956000926143ec575b50506000198260011b9260031b1c19161790565b9055565b0151905038806143d4565b601f1982169061440c84600052602060002090565b9160005b8181106144485750958360019596971061442f575b505050811b019055565b015160001960f88460031b161c19169055388080614425565b9192602060018192868b015181550194019201614410565b8151916801000000000000000083116107d75781548383558084106144c2575b506020614494910191600052602060002090565b6000915b8383106144a55750505050565b60016020826144b68394518661438f565b01920192019190614498565b8260005283602060002091820191015b8181106144df5750614480565b806144ec60019254611f81565b806144f9575b50016144d2565b601f8111831461450f5750600081555b386144f2565b6145339083601f61452585600052602060002090565b920160051c820191016141fc565b60008181526020812081835555614509565b90805180519067ffffffffffffffff82116107d7576801000000000000000082116107d75760209061457c83865481885587614213565b0183600052602060002060005b8381106145c257505050506060816145aa6020600394015160018601614236565b6145bb604082015160028601614460565b0151910155565b60019060206001600160a01b038551169401938184015501614589565b9194939483516145f760208601918220838587612cff565b948451845190818114801590614903575b80156148fb575b6148c357505065ffffffffffff614661614652886000527f7c712897014dbe49c045ef1299aa2d5f9e67e48eea4403efa21f1e0f3ac0cb01602052604060002090565b5460a01c65ffffffffffff1690565b166148a5577f7d84a6263ae0d98d3329bd7b46bb4e8d6f98cd35a7adb45c274c8b7fd5ebd5e086979861060c9761484384896146db61469e612974565b65ffffffffffff6146d465ffffffffffff7ed7616c8fe29c6c2fbe1d0c5bc8f2faa4c35b43746e70b24b4d532752affd01541690565b9116613dc0565b8961470c63ffffffff7ed7616c8fe29c6c2fbe1d0c5bc8f2faa4c35b43746e70b24b4d532752affd015460301c1690565b614821614742886000527f7c712897014dbe49c045ef1299aa2d5f9e67e48eea4403efa21f1e0f3ac0cb01602052604060002090565b80547fffffffffffffffffffffffff0000000000000000000000000000000000000000166001600160a01b038b161781556147ca61477f86614010565b82547fffffffffffff000000000000ffffffffffffffffffffffffffffffffffffffff1660a09190911b79ffffffffffff000000000000000000000000000000000000000016178255565b6147d3836153f3565b7fffff00000000ffffffffffffffffffffffffffffffffffffffffffffffffffff7dffffffff000000000000000000000000000000000000000000000000000083549260d01b169116179055565b8c61483661482f8651615161565b9285613dc0565b94604051998a998a6151aa565b0390a161484f87614131565b5190209161485b6107dc565b9384526020840152604083015260608201526148a0836000527f7fd223d3380145bd26132714391e777c488a0df7ac2dd4b66419d8549fb3a601602052604060002090565b614545565b6115f8866148b281612f17565b906331b75e4d60e01b600052612e39565b84517f447b05d00000000000000000000000000000000000000000000000000000000060005260049190915260245260445260646000fd5b50801561460f565b508451811415614608565b60ff7ff0c57e16840df040f15088dc2f81fe391c3923bec73e23a9662efc9c229c6a005460401c161561493d57565b7fd7e6bcf80000000000000000000000000000000000000000000000000000000060005260046000fd5b90815167ffffffffffffffff81116107d7576149cd816149a77fa16a46d94261c7517cc8ff89f61c0ce93598e3c849801011dee649a6a557d10354611f81565b7fa16a46d94261c7517cc8ff89f61c0ce93598e3c849801011dee649a6a557d103614355565b602092601f8211600114614a21576149fd929382916000926143ec5750506000198260011b9260031b1c19161790565b7fa16a46d94261c7517cc8ff89f61c0ce93598e3c849801011dee649a6a557d10355565b7fa16a46d94261c7517cc8ff89f61c0ce93598e3c849801011dee649a6a557d103600052601f198216937f5f9ce34815f8e11431c7bb75a8e6886a91478f7ffc1dbb0a98dc240fddd76b759160005b868110614ac65750836001959610614aad575b505050811b017fa16a46d94261c7517cc8ff89f61c0ce93598e3c849801011dee649a6a557d10355565b015160001960f88460031b161c19169055388080614a83565b91926020600181928685015181550194019201614a70565b90614ae761490e565b815167ffffffffffffffff81116107d757614b2b81614b267f7c712897014dbe49c045ef1299aa2d5f9e67e48eea4403efa21f1e0f3ac0cb0054611f81565b6142fc565b602092601f8211600114614b7f57614b5b929382916000926143ec5750506000198260011b9260031b1c19161790565b7f7c712897014dbe49c045ef1299aa2d5f9e67e48eea4403efa21f1e0f3ac0cb0055565b7f7c712897014dbe49c045ef1299aa2d5f9e67e48eea4403efa21f1e0f3ac0cb00600052601f198216937fda13dda7583a39a3cd73e8830529c760837228fa4683752c823b17e10548aad59160005b868110614c245750836001959610614c0b575b505050811b017f7c712897014dbe49c045ef1299aa2d5f9e67e48eea4403efa21f1e0f3ac0cb0055565b015160001960f88460031b161c19169055388080614be1565b91926020600181928685015181550194019201614bce565b805490680100000000000000008210156107d75760018201815560008154831015610d3e57908152602090200181516020929092015160301b65ffffffffffff191665ffffffffffff92909216919091179055565b7fe770710421fd2cad75ad828c61aa98f2d77d423a440b67872d0f65554148e000549192918015614da657613508614cc891613909565b908154614ce4614cdd8265ffffffffffff1690565b9160301c90565b9265ffffffffffff808416921691808311614d7c57869203614d2757614d2392509065ffffffffffff65ffffffffffff1983549260301b169116179055565b9190565b5050614d2390614d46614d386107ed565b65ffffffffffff9092168252565b6001600160d01b03851660208201525b7fe770710421fd2cad75ad828c61aa98f2d77d423a440b67872d0f65554148e000614c3c565b7f2520601d0000000000000000000000000000000000000000000000000000000060005260046000fd5b50614dca90614db6614d386107ed565b6001600160d01b0384166020820152614d56565b60009190565b91907f7fffffffffffffffffffffffffffffff5d576e7357a4501ddfe92f46681b20a08411614e4d579160209360809260ff60009560405194855216868401526040830152606082015282805260015afa15611728576000516001600160a01b03811615614e415790600090600090565b50600090600190600090565b50505060009160039190565b600181111561060c57806001700100000000000000000000000000000000831015614f8c575b614f32614f28614f1e614f14614f0a614f00614eef614f399760048a68010000000000000000614f3e9c1015614f7f575b640100000000811015614f72575b62010000811015614f65575b610100811015614f58575b6010811015614f4b575b1015614f43575b60030260011c90565b614ef9818b613d14565b0160011c90565b614ef9818a613d14565b614ef98189613d14565b614ef98188613d14565b614ef98187613d14565b614ef98186613d14565b8093613d14565b821190565b900390565b60011b614ee6565b60041c9160021b91614edf565b60081c9160041b91614ed5565b60101c9160081b91614eca565b60201c9160101b91614ebe565b60401c9160201b91614eb0565b5050614f3e614f39614f32614f28614f1e614f14614f0a614f00614eef614fb38a60801c90565b9850680100000000000000009750614e7f9650505050505050565b91905b838210614fde5750505090565b9091928083169080841860011c8201809211612941578460005265ffffffffffff82602060002001541665ffffffffffff8416106000146150235750925b9190614fd1565b93925061502f90613db2565b9161501c565b92909261504184613db2565b8311806150df575b61505b61506391949293941515614041565b600095613dc0565b915b8183106150755750505060019190565b9092919360ff6150b26150ad602088860101517fff000000000000000000000000000000000000000000000000000000000000001690565b615327565b1690600f82116150d357906150c8600192614057565b019401919290615065565b50600094508493505050565b5061506361505b7f30780000000000000000000000000000000000000000000000000000000000007fffff000000000000000000000000000000000000000000000000000000000000615157602089870101517fffff0000000000000000000000000000000000000000000000000000000000001690565b1614915050615049565b9061516b826108dc565b61517860405191826107b4565b828152601f1961518882946108dc565b019060005b82811061519957505050565b80606060208093850101520161518d565b9599989697949391926001600160a01b036151ec946151de9389521660208801526101206040880152610120870190610ac0565b908582036060870152610afd565b968388036080850152815180895260208901906020808260051b8c01019401916000905b82821061524c575050505061060c969750906152339184820360a0860152610b31565b9360c083015260e08201526101008184039101526105d6565b9091929460208061526a838f601f19906001960301865289516105d6565b970192019201909291615210565b615280613743565b8051908115615290576020012090565b50507fa16a46d94261c7517cc8ff89f61c0ce93598e3c849801011dee649a6a557d1005480156152bd5790565b507fc5d2460186f7233c927e7db2dcc703c0e500b653ca82273b7bfad8045d85a47090565b6152ea613836565b80519081156152fa576020012090565b50507fa16a46d94261c7517cc8ff89f61c0ce93598e3c849801011dee649a6a557d1015480156152bd5790565b60f81c602f8111806153e9575b15615361577fffffffffffffffffffffffffffffffffffffffffffffffffffffffffffffffd00160ff1690565b60608111806153df575b15615398577fffffffffffffffffffffffffffffffffffffffffffffffffffffffffffffffa90160ff1690565b60408111806153d5575b156153cf577fffffffffffffffffffffffffffffffffffffffffffffffffffffffffffffffc90160ff1690565b5060ff90565b50604781106153a2565b506067811061536b565b50603a8110615334565b63ffffffff81116154075763ffffffff1690565b6306dfcc6560e41b600052602060045260245260446000fdfea264697066735822122090d1ddee3a211096bc84fa0177846104dfcfb5b01419e2f8631066bec689517d64736f6c634300081c0033",
  "devdoc": {
    "custom:security-contact": "sirt@peeramid.xyz",
    "errors": {
      "CheckpointUnorderedInsertion()": [
        {
          "details": "A value was attempted to be inserted on a past checkpoint."
        }
      ],
      "FailedCall()": [
        {
          "details": "A call to an address target failed. The target may have reverted."
        }
      ],
      "GovernorAlreadyCastVote(address)": [
        {
          "details": "The vote was already cast."
        }
      ],
      "GovernorAlreadyQueuedProposal(uint256)": [
        {
          "details": "The proposal has already been queued."
        }
      ],
      "GovernorDisabledDeposit()": [
        {
          "details": "Token deposits are disabled in this contract."
        }
      ],
      "GovernorInsufficientProposerVotes(address,uint256,uint256)": [
        {
          "details": "The `proposer` does not have the required votes to create a proposal."
        }
      ],
      "GovernorInvalidProposalLength(uint256,uint256,uint256)": [
        {
          "details": "Empty proposal or a mismatch between the parameters length for a proposal call."
        }
      ],
      "GovernorInvalidQuorumFraction(uint256,uint256)": [
        {
          "details": "The quorum set is not a valid fraction."
        }
      ],
      "GovernorInvalidSignature(address)": [
        {
          "details": "The provided signature is not valid for the expected `voter`. If the `voter` is a contract, the signature is not valid using {IERC1271-isValidSignature}."
        }
      ],
      "GovernorInvalidVoteParams()": [
        {
          "details": "The provided params buffer is not supported by the counting module."
        }
      ],
      "GovernorInvalidVoteType()": [
        {
          "details": "The vote type used is not valid for the corresponding counting module."
        }
      ],
      "GovernorInvalidVotingPeriod(uint256)": [
        {
          "details": "The voting period set is not a valid period."
        }
      ],
      "GovernorNonexistentProposal(uint256)": [
        {
          "details": "The `proposalId` doesn't exist."
        }
      ],
      "GovernorNotQueuedProposal(uint256)": [
        {
          "details": "The proposal hasn't been queued yet."
        }
      ],
      "GovernorOnlyExecutor(address)": [
        {
          "details": "The `account` is not the governance executor."
        }
      ],
      "GovernorQueueNotImplemented()": [
        {
          "details": "Queue operation is not implemented for this governor. Execute should be called directly."
        }
      ],
      "GovernorRestrictedProposer(address)": [
        {
          "details": "The `proposer` is not allowed to create a proposal."
        }
      ],
      "GovernorUnableToCancel(uint256,address)": [
        {
          "details": "The given `account` is unable to cancel the proposal with given `proposalId`."
        }
      ],
      "GovernorUnexpectedProposalState(uint256,uint8,bytes32)": [
        {
          "details": "The current state of a proposal is not the required for performing an operation. The `expectedStates` is a bitmap with the bits enabled for each ProposalState enum position counting from right to left. NOTE: If `expectedState` is `bytes32(0)`, the proposal is expected to not be in any state (i.e. not exist). This is the case when a proposal that is expected to be unset is already initiated (the proposal is duplicated). See {Governor-_encodeStateBitmap}."
        }
      ],
      "InvalidAccountNonce(address,uint256)": [
        {
          "details": "The nonce used for an `account` is not the expected current nonce."
        }
      ],
      "InvalidInitialization()": [
        {
          "details": "The contract is already initialized."
        }
      ],
      "NotInitializing()": [
        {
          "details": "The contract is not initializing."
        }
      ],
      "SafeCastOverflowedUintDowncast(uint8,uint256)": [
        {
          "details": "Value doesn't fit in an uint of `bits` size."
        }
      ]
    },
    "events": {
      "EIP712DomainChanged()": {
        "details": "MAY be emitted to signal that the domain could have changed."
      },
      "Initialized(uint64)": {
        "details": "Triggered when the contract has been initialized or reinitialized."
      },
      "ProposalCanceled(uint256)": {
        "details": "Emitted when a proposal is canceled."
      },
      "ProposalCreated(uint256,address,address[],uint256[],string[],bytes[],uint256,uint256,string)": {
        "details": "Emitted when a proposal is created."
      },
      "ProposalExecuted(uint256)": {
        "details": "Emitted when a proposal is executed."
      },
      "ProposalQueued(uint256,uint256)": {
        "details": "Emitted when a proposal is queued."
      },
      "VoteCast(address,uint256,uint8,uint256,string)": {
        "details": "Emitted when a vote is cast without params. Note: `support` values should be seen as buckets. Their interpretation depends on the voting module used."
      },
      "VoteCastWithParams(address,uint256,uint8,uint256,string,bytes)": {
        "details": "Emitted when a vote is cast with params. Note: `support` values should be seen as buckets. Their interpretation depends on the voting module used. `params` are additional encoded parameters. Their interpretation  also depends on the voting module used."
      }
    },
    "kind": "dev",
    "methods": {
      "CLOCK_MODE()": {
        "details": "Machine-readable description of the clock as specified in ERC-6372."
      },
      "COUNTING_MODE()": {
        "details": "See {IGovernor-COUNTING_MODE}."
      },
      "cancel(address[],uint256[],bytes[],bytes32)": {
        "details": "See {IGovernor-cancel}."
      },
      "cancel(uint256)": {
        "details": "ProposalId version of {IGovernor-cancel}."
      },
      "castVote(uint256,uint8)": {
        "details": "See {IGovernor-castVote}."
      },
      "castVoteBySig(uint256,uint8,address,bytes)": {
        "details": "See {IGovernor-castVoteBySig}."
      },
      "castVoteWithReason(uint256,uint8,string)": {
        "details": "See {IGovernor-castVoteWithReason}."
      },
      "castVoteWithReasonAndParams(uint256,uint8,string,bytes)": {
        "details": "See {IGovernor-castVoteWithReasonAndParams}."
      },
      "castVoteWithReasonAndParamsBySig(uint256,uint8,address,string,bytes,bytes)": {
        "details": "See {IGovernor-castVoteWithReasonAndParamsBySig}."
      },
      "clock()": {
        "details": "Clock (as specified in ERC-6372) is set to match the token's clock. Fallback to block numbers if the token does not implement ERC-6372."
      },
      "constructor": {
        "custom:oz-upgrades-unsafe-allow": "constructor"
      },
      "eip712Domain()": {
        "details": "returns the fields and values that describe the domain separator used by this contract for EIP-712 signature."
      },
      "execute(address[],uint256[],bytes[],bytes32)": {
        "details": "See {IGovernor-execute}."
      },
      "execute(uint256)": {
        "details": "Version of {IGovernor-execute} with only `proposalId` as an argument."
      },
      "getProposalId(address[],uint256[],bytes[],bytes32)": {
        "details": "See {IGovernor-getProposalId}."
      },
      "getVotes(address,uint256)": {
        "details": "See {IGovernor-getVotes}."
      },
      "getVotesWithParams(address,uint256,bytes)": {
        "details": "See {IGovernor-getVotesWithParams}."
      },
      "hasVoted(uint256,address)": {
        "details": "See {IGovernor-hasVoted}."
      },
      "hashProposal(address[],uint256[],bytes[],bytes32)": {
        "details": "See {IGovernor-hashProposal}. The proposal id is produced by hashing the ABI encoded `targets` array, the `values` array, the `calldatas` array and the descriptionHash (bytes32 which itself is the keccak256 hash of the description string). This proposal id can be produced from the proposal data which is part of the {ProposalCreated} event. It can even be computed in advance, before the proposal is submitted. Note that the chainId and the governor address are not part of the proposal id computation. Consequently, the same proposal (with same operation and same description) will have the same id if submitted on multiple governors across multiple networks. This also means that in order to execute the same operation twice (on the same governor) the proposer will have to change the description in order to avoid proposal id conflicts."
      },
      "name()": {
        "details": "See {IGovernor-name}."
      },
      "nonces(address)": {
        "details": "Returns the next unused nonce for an address."
      },
      "onERC1155BatchReceived(address,address,uint256[],uint256[],bytes)": {
        "details": "See {IERC1155Receiver-onERC1155BatchReceived}. Receiving tokens is disabled if the governance executor is other than the governor itself (eg. when using with a timelock)."
      },
      "onERC1155Received(address,address,uint256,uint256,bytes)": {
        "details": "See {IERC1155Receiver-onERC1155Received}. Receiving tokens is disabled if the governance executor is other than the governor itself (eg. when using with a timelock)."
      },
      "onERC721Received(address,address,uint256,bytes)": {
        "details": "See {IERC721Receiver-onERC721Received}. Receiving tokens is disabled if the governance executor is other than the governor itself (eg. when using with a timelock)."
      },
      "proposalCount()": {
        "details": "Returns the number of stored proposals."
      },
      "proposalDeadline(uint256)": {
        "details": "See {IGovernor-proposalDeadline}."
      },
      "proposalDetails(uint256)": {
        "details": "Returns the details of a proposalId. Reverts if `proposalId` is not a known proposal."
      },
      "proposalDetailsAt(uint256)": {
        "details": "Returns the details (including the proposalId) of a proposal given its sequential index."
      },
      "proposalEta(uint256)": {
        "details": "See {IGovernor-proposalEta}."
      },
      "proposalProposer(uint256)": {
        "details": "See {IGovernor-proposalProposer}."
      },
      "proposalSnapshot(uint256)": {
        "details": "See {IGovernor-proposalSnapshot}."
      },
      "proposalVotes(uint256)": {
        "details": "Accessor to the internal vote counts."
      },
      "propose(address[],uint256[],bytes[],string)": {
        "details": "See {IGovernor-propose}. This function has opt-in frontrunning protection, described in {_isValidDescriptionForProposer}."
      },
      "queue(address[],uint256[],bytes[],bytes32)": {
        "details": "See {IGovernor-queue}."
      },
      "queue(uint256)": {
        "details": "Version of {IGovernor-queue} with only `proposalId` as an argument."
      },
      "quorum(uint256)": {
        "details": "Returns the quorum for a timepoint, in terms of number of votes: `supply * numerator / denominator`."
      },
      "quorumDenominator()": {
        "details": "Returns the quorum denominator. Defaults to 100, but may be overridden."
      },
      "quorumNumerator()": {
        "details": "Returns the current quorum numerator. See {quorumDenominator}."
      },
      "quorumNumerator(uint256)": {
        "details": "Returns the quorum numerator at a specific timepoint. See {quorumDenominator}."
      },
      "relay(address,uint256,bytes)": {
        "details": "Relays a transaction or function call to an arbitrary target. In cases where the governance executor is some contract other than the governor itself, like when using a timelock, this function can be invoked in a governance proposal to recover tokens or Ether that was sent to the governor contract by mistake. Note that if the executor is simply the governor itself, use of `relay` is redundant."
      },
      "setProposalThreshold(uint256)": {
        "details": "Update the proposal threshold. This operation can only be performed through a governance proposal. Emits a {ProposalThresholdSet} event."
      },
      "setVotingDelay(uint48)": {
        "details": "Update the voting delay. This operation can only be performed through a governance proposal. Emits a {VotingDelaySet} event."
      },
      "setVotingPeriod(uint32)": {
        "details": "Update the voting period. This operation can only be performed through a governance proposal. Emits a {VotingPeriodSet} event."
      },
      "state(uint256)": {
        "details": "See {IGovernor-state}."
      },
      "supportsInterface(bytes4)": {
        "details": "See {IERC165-supportsInterface}."
      },
      "token()": {
        "details": "The token that voting power is sourced from."
      },
      "updateQuorumNumerator(uint256)": {
        "details": "Changes the quorum numerator. Emits a {QuorumNumeratorUpdated} event. Requirements: - Must be called through a governance proposal. - New numerator must be smaller or equal to the denominator."
      },
      "version()": {
        "details": "See {IGovernor-version}."
      },
      "votingDelay()": {
        "details": "See {IGovernor-votingDelay}."
      },
      "votingPeriod()": {
        "details": "See {IGovernor-votingPeriod}."
      }
    },
    "version": 1
  },
  "userdoc": {
    "kind": "user",
    "methods": {},
    "version": 1
  },
  "storageLayout": {
    "storage": [],
    "types": null
  }
}