{
  "address": "0x0B795e9C24afe3A8A0CD27BC87dafcB6f62f0EE5",
  "abi": [
    {
      "inputs": [
        {
          "internalType": "address[]",
          "name": "zkpVerifier",
          "type": "address[]"
        },
        {
          "internalType": "bytes32",
          "name": "rankTokenCodeId",
          "type": "bytes32"
        },
        {
          "internalType": "bytes32",
          "name": "RankifyDIistributionId",
          "type": "bytes32"
        },
        {
          "internalType": "bytes32",
          "name": "accessManagerId",
          "type": "bytes32"
        },
        {
          "internalType": "bytes32",
          "name": "governanceERC20BaseId",
          "type": "bytes32"
        },
        {
          "internalType": "bytes32",
          "name": "DAOId",
          "type": "bytes32"
        },
        {
          "internalType": "string",
          "name": "distributionName",
          "type": "string"
        },
        {
          "components": [
            {
              "internalType": "uint64",
              "name": "major",
              "type": "uint64"
            },
            {
              "internalType": "uint64",
              "name": "minor",
              "type": "uint64"
            },
            {
              "internalType": "uint128",
              "name": "patch",
              "type": "uint128"
            }
          ],
          "internalType": "struct LibSemver.Version",
          "name": "distributionVersion",
          "type": "tuple"
        },
        {
          "internalType": "uint256",
          "name": "minParticipantsInCircle",
          "type": "uint256"
        }
      ],
      "stateMutability": "nonpayable",
      "type": "constructor"
    },
    {
      "inputs": [],
      "name": "FailedDeployment",
      "type": "error"
    },
    {
      "inputs": [
        {
          "internalType": "uint256",
          "name": "balance",
          "type": "uint256"
        },
        {
          "internalType": "uint256",
          "name": "needed",
          "type": "uint256"
        }
      ],
      "name": "InsufficientBalance",
      "type": "error"
    },
    {
      "inputs": [],
      "name": "InvalidShortString",
      "type": "error"
    },
    {
      "inputs": [
        {
          "internalType": "string",
          "name": "str",
          "type": "string"
        }
      ],
      "name": "StringTooLong",
      "type": "error"
    },
    {
      "anonymous": false,
      "inputs": [
        {
          "indexed": true,
          "internalType": "address",
          "name": "distributor",
          "type": "address"
        },
        {
          "indexed": false,
          "internalType": "address[]",
          "name": "instances",
          "type": "address[]"
        }
      ],
      "name": "Distributed",
      "type": "event"
    },
    {
      "inputs": [],
      "name": "contractURI",
      "outputs": [
        {
          "internalType": "string",
          "name": "",
          "type": "string"
        }
      ],
      "stateMutability": "pure",
      "type": "function"
    },
    {
      "inputs": [
        {
          "components": [
            {
              "components": [
                {
                  "internalType": "string",
                  "name": "tokenName",
                  "type": "string"
                },
                {
                  "internalType": "string",
                  "name": "tokenSymbol",
                  "type": "string"
                },
                {
                  "internalType": "uint256[]",
                  "name": "preMintAmounts",
                  "type": "uint256[]"
                },
                {
                  "internalType": "address[]",
                  "name": "preMintReceivers",
                  "type": "address[]"
                },
                {
                  "internalType": "string",
                  "name": "orgName",
                  "type": "string"
                },
                {
                  "internalType": "uint48",
                  "name": "votingDelay",
                  "type": "uint48"
                },
                {
                  "internalType": "uint32",
                  "name": "votingPeriod",
                  "type": "uint32"
                },
                {
                  "internalType": "uint256",
                  "name": "quorum",
                  "type": "uint256"
                }
              ],
              "internalType": "struct MAODistribution.GovernanceArgs",
              "name": "govSettings",
              "type": "tuple"
            },
            {
              "components": [
                {
                  "internalType": "uint256",
                  "name": "principalCost",
                  "type": "uint256"
                },
                {
                  "internalType": "uint96",
                  "name": "principalTimeConstant",
                  "type": "uint96"
                },
                {
                  "internalType": "string",
                  "name": "rankTokenURI",
                  "type": "string"
                },
                {
                  "internalType": "string",
                  "name": "rankTokenContractURI",
                  "type": "string"
                },
                {
                  "internalType": "address",
                  "name": "paymentToken",
                  "type": "address"
                }
              ],
              "internalType": "struct MAODistribution.UserRankifySettings",
              "name": "rankifySettings",
              "type": "tuple"
            }
          ],
          "internalType": "struct MAODistribution.DistributorArguments",
          "name": "args",
          "type": "tuple"
        }
      ],
      "name": "distributionSchema",
      "outputs": [
        {
          "components": [
            {
              "components": [
                {
                  "internalType": "string",
                  "name": "tokenName",
                  "type": "string"
                },
                {
                  "internalType": "string",
                  "name": "tokenSymbol",
                  "type": "string"
                },
                {
                  "internalType": "uint256[]",
                  "name": "preMintAmounts",
                  "type": "uint256[]"
                },
                {
                  "internalType": "address[]",
                  "name": "preMintReceivers",
                  "type": "address[]"
                },
                {
                  "internalType": "string",
                  "name": "orgName",
                  "type": "string"
                },
                {
                  "internalType": "uint48",
                  "name": "votingDelay",
                  "type": "uint48"
                },
                {
                  "internalType": "uint32",
                  "name": "votingPeriod",
                  "type": "uint32"
                },
                {
                  "internalType": "uint256",
                  "name": "quorum",
                  "type": "uint256"
                }
              ],
              "internalType": "struct MAODistribution.GovernanceArgs",
              "name": "govSettings",
              "type": "tuple"
            },
            {
              "components": [
                {
                  "internalType": "uint256",
                  "name": "principalCost",
                  "type": "uint256"
                },
                {
                  "internalType": "uint96",
                  "name": "principalTimeConstant",
                  "type": "uint96"
                },
                {
                  "internalType": "string",
                  "name": "rankTokenURI",
                  "type": "string"
                },
                {
                  "internalType": "string",
                  "name": "rankTokenContractURI",
                  "type": "string"
                },
                {
                  "internalType": "address",
                  "name": "paymentToken",
                  "type": "address"
                }
              ],
              "internalType": "struct MAODistribution.UserRankifySettings",
              "name": "rankifySettings",
              "type": "tuple"
            }
          ],
          "internalType": "struct MAODistribution.DistributorArguments",
          "name": "",
          "type": "tuple"
        }
      ],
      "stateMutability": "pure",
      "type": "function"
    },
    {
      "inputs": [],
      "name": "get",
      "outputs": [
        {
          "internalType": "address[]",
          "name": "sources",
          "type": "address[]"
        },
        {
          "internalType": "bytes32",
          "name": "",
          "type": "bytes32"
        },
        {
          "internalType": "uint256",
          "name": "",
          "type": "uint256"
        }
      ],
      "stateMutability": "view",
      "type": "function"
    },
    {
      "inputs": [
        {
          "internalType": "bytes",
          "name": "data",
          "type": "bytes"
        }
      ],
      "name": "instantiate",
      "outputs": [
        {
          "internalType": "address[]",
          "name": "instances",
          "type": "address[]"
        },
        {
          "internalType": "bytes32",
          "name": "distributionName",
          "type": "bytes32"
        },
        {
          "internalType": "uint256",
          "name": "distributionVersion",
          "type": "uint256"
        }
      ],
      "stateMutability": "nonpayable",
      "type": "function"
    }
  ],
  "transactionHash": "0x0a6a2aad4a0c3b8ac2abb35374c207592d623c5fcf8e76fb86ab4bbea0a3a092",
  "args": [
    [
      "0x95Ae6155D6B98f5F55c8E9263B7422D1d83FC23d",
      "0x3645D9507449AC61D5942D4846d70EE4718f1C18",
      "0x7831e817841A05eF244b1e64C0c396B1c447e77f",
      "0x4C79a92983CC3437998841AD24b287b062f05467"
    ],
    "0x54c9196a8e0a087098175a66aaf03498fcd2c59306480e7dae7b982692b60d4f",
    "0x2672f2ccf6cf68cf4f8ebca8d8ed05d579ab3648874232b98d3474a3dab26fe0",
    "0x7d666c2c7cf363c4dea89cc589f674718ff1fbb9760d7b42e0210b43fae063bf",
    "0xb833dca7b01d6cc78a838caffab27db3e61c3692f46ef4acf1a39cc2c81303b2",
    "0xa1efcd57c6b8428d8e7ea4148eb6caa7a01efd59e66e92e8ed500713bd9e0999",
    "RANKIFY_INSTANCE_NAME",
    {
      "major": "0",
      "minor": "0",
      "patch": "1"
    },
    3
  ],
  "numDeployments": 3,
  "solcInputHash": "fe226cebd4efd0fadca834a628ed9ff3",
  "bytecode": "0x61020080604052346106d257612b2a803803809161001d8285610aa4565b833981019080820361016081126106d25781516001600160401b0381116106d257820183601f820112156106d2578051906001600160401b038211610a76578160051b90604051926100726020840185610aa4565b83526020830160208193830101918783116106d257602001905b828210610a8c5750505060208401519260408501519360608601519560808101519260a08201519860c083015160018060401b0381116106d25783019181601f840112156106d2578251906001600160401b038211610a7657604051936100fd601f8401601f191660200186610aa4565b8285526020850193602084830101116106d2576060928460206101209301610adb565b60df1901126106d25760405190606082016001600160401b03811183821017610a765760405261015260e08501610afe565b82526101616101008501610afe565b60208301908152610120850151949093906001600160801b03861686036106d2576040840195865261014001516002811115610a1a5761014052601f8151116109dc57519051602082106109cb575b1760809081529051915192516001600160801b031692901b600160801b600160c01b031660c09190911b6001600160c01b031916171760a05260405163023aa9ab60e61b81526004810191909152602081602481600080516020612b0a8339815191525afa9081156106df57600091610991575b5060c0526040519063023aa9ab60e61b82526004820152602081602481600080516020612b0a8339815191525afa9081156106df57600091610957575b506101005281511561094157516001600160a01b0316610160528051600110156109415760408101516001600160a01b0316610180528051600210156109415760608101516001600160a01b03166101a05280516003101561094157608001516001600160a01b039081166101c0526101805116156108fc576101a0516001600160a01b0316156108b7576101c0516001600160a01b03161561087257610160516001600160a01b03161561083a57610100516001600160a01b0316156107f5576040519063023aa9ab60e61b82526004820152602081602481600080516020612b0a8339815191525afa9081156106df576000916107bb575b506001600160a01b031660e08190521561076a576040519063023aa9ab60e61b82526004820152602081602481600080516020612b0a8339815191525afa9081156106df57600091610730575b506101208190526001600160a01b0316156106eb576040519063023aa9ab60e61b82526004820152602081602481600080516020612b0a8339815191525afa9081156106df576000916106a0575b506101e08190526001600160a01b0316156106665760018060a01b03610120511660206000604051828101906301ffc9a760e01b82526301ffc9a760e01b602482015260248152610448604482610aa4565b519084617530fa903d600051908361065a575b5082610650575b50816105e7575b8161057f575b501561052957604051611ff79081610b1382396080518181816111490152611582015260a0518181816111280152611560015260c0518181816106c10152611463015260e051818181610bd7015261148f01526101005181818161039601526114cc015261012051818181610447015261150101526101405181610c7001526101605181610cac01526101805181610cda01526101a05181610d0a01526101c05181610d3a01526101e05181818161059901526115360152f35b60405162461bcd60e51b815260206004820152602860248201527f416363657373206d616e6167657220646f6573206e6f7420737570706f72742060448201526724a2a9219b9b9a1b60c11b6064820152608490fd5b60209150600090604051838101906301ffc9a760e01b82526387a9852f60e01b6024820152602481526105b3604482610aa4565b5191617530fa6000513d826105db575b50816105d1575b503861046f565b90501515386105ca565b602011159150386105c3565b905060206000604051828101906301ffc9a760e01b825263ffffffff60e01b60248201526024815261061a604482610aa4565b519084617530fa6000513d82610644575b508161063a575b501590610469565b9050151538610632565b6020111591503861062b565b1515915038610462565b6020111592503861045b565b60405162461bcd60e51b8152602060048201526012602482015271111053c818985cd9481b9bdd08199bdd5b9960721b6044820152606490fd5b90506020813d6020116106d7575b816106bb60209383610aa4565b810103126106d2576106cc90610ac7565b386103f6565b600080fd5b3d91506106ae565b6040513d6000823e3d90fd5b60405162461bcd60e51b815260206004820152601d60248201527f416363657373206d616e616765722062617365206e6f7420666f756e640000006044820152606490fd5b90506020813d602011610762575b8161074b60209383610aa4565b810103126106d25761075c90610ac7565b386103a8565b3d915061073e565b60405162461bcd60e51b815260206004820152602360248201527f52616e6b69667920646973747269627574696f6e2062617365206e6f7420666f6044820152621d5b9960ea1b6064820152608490fd5b90506020813d6020116107ed575b816107d660209383610aa4565b810103126106d2576107e790610ac7565b3861035b565b3d91506107c9565b60405162461bcd60e51b815260206004820152601f60248201527f476f7665726e616e63652045524332302062617365206e6f7420666f756e64006044820152606490fd5b60405162461bcd60e51b815260206004820152601060248201526f15995c9a599a595c881b9bdd081cd95d60821b6044820152606490fd5b60405162461bcd60e51b815260206004820152601360248201527f506f736569646f6e32206e6f7420666f756e64000000000000000000000000006044820152606490fd5b60405162461bcd60e51b815260206004820152601360248201527f506f736569646f6e36206e6f7420666f756e64000000000000000000000000006044820152606490fd5b60405162461bcd60e51b815260206004820152601360248201527f506f736569646f6e35206e6f7420666f756e64000000000000000000000000006044820152606490fd5b634e487b7160e01b600052603260045260246000fd5b90506020813d602011610989575b8161097260209383610aa4565b810103126106d25761098390610ac7565b38610261565b3d9150610965565b90506020813d6020116109c3575b816109ac60209383610aa4565b810103126106d2576109bd90610ac7565b38610224565b3d915061099f565b6000198260200360031b1b166101b0565b604490610a0c9260405193849263305a27a960e01b84526020600485015251809281602486015285850190610adb565b601f01601f19168101030190fd5b60405162461bcd60e51b815260206004820152602e60248201527f6d696e5061727469636970616e7473496e436972636c65206d7573742062652060448201526d33b932b0ba32b9103a3430b7101960911b6064820152608490fd5b634e487b7160e01b600052604160045260246000fd5b60208091610a9984610ac7565b81520191019061008c565b601f909101601f19168101906001600160401b03821190821017610a7657604052565b51906001600160a01b03821682036106d257565b60005b838110610aee5750506000910152565b8181015183820152602001610ade565b51906001600160401b03821682036106d25756fe6080604052600436101561001257600080fd5b6000803560e01c80632ecce70c146115a85780636d4ce63c146114205780639ca33c9e146100885763e8a3d4851461004957600080fd5b346100855780600319360112610085576040516100819161006b602083611a92565b8152604051918291602083526020830190611b6c565b0390f35b80fd5b5034610085576020600319360112610085576004359067ffffffffffffffff8211610085573660238301121561008557816004013567ffffffffffffffff811161141c57820160248101923684116113e8576020818303126113e85760248101359067ffffffffffffffff821161141857016024810191906040908203126113e8576040519161011783611a21565b803567ffffffffffffffff81116113e4578101610100602482850301126113e4576040519061014582611a3d565b803567ffffffffffffffff81116113ec5787610162918301611ad1565b8252602081013567ffffffffffffffff81116113ec5787610184918301611ad1565b6020830152604081013567ffffffffffffffff81116113ec57810187601f820112156113ec578035906101b682611b1d565b916101c46040519384611a92565b80835260208084019160051b830101918a83116112f357602001905b828210611408575050506040830152606081013567ffffffffffffffff81116113ec57810187601f820112156113ec5780359061021c82611b1d565b9161022a6040519384611a92565b80835260208084019160051b830101918a83116112f357602001905b8282106113f0575050506060830152608081013567ffffffffffffffff81116113ec5787610275918301611ad1565b608083015260a081013565ffffffffffff811681036113ec5760a083015260c081013563ffffffff811681036113ec579060e09160c0840152013560e0820152835260208101359067ffffffffffffffff82116113e45760a0916024910180930301126113e857604051936102e985611a5a565b8135855260208201356bffffffffffffffffffffffff811681036113e4576020860152604082013567ffffffffffffffff81116113e4578161032c918401611ad1565b6040860152606082013567ffffffffffffffff81116113e45791610357608092610362948301611ad1565b606087015201611b35565b608084015260208101928352519160608301516040840151916040519161038883611a21565b8252602082019283526103ba7f0000000000000000000000000000000000000000000000000000000000000000611db9565b906040805196906103cb8189611a92565b60018852601f1901865b8181106113ba5750507f40c10f190000000000000000000000000000000000000000000000000000000061040888611c24565b515260409384516104198682611a92565b60018152601f19860136602083013760206104338a611c24565b5101526001856104428a611c24565b5101527f0000000000000000000000000000000000000000000000000000000000000000936001600160a01b0361047886611db9565b1698893b1561131457886104bf8b82938a519485809481937f90c2e49400000000000000000000000000000000000000000000000000000000835289339160048501611cce565b03925af180156113b057611395575b506001600160a01b031695825190602084015192883b156112f35791610570610534928b946105606105468c5198899788977f3bd0365b000000000000000000000000000000000000000000000000000000008952608060048a01526084890190611b6c565b90600319888303016024890152611b6c565b91600319868403016044870152518c83528c830190611bc5565b9151906020818403910152611b91565b8b60648301520381838a5af1801561118857908791611380575b50506001600160a01b036105bd7f0000000000000000000000000000000000000000000000000000000000000000611db9565b1690608081015165ffffffffffff60a08301511660e063ffffffff60c085015116930151843b156112f3579161062a918a93895195869485947fb553209d00000000000000000000000000000000000000000000000000000000865260a0600487015260a4860190611b6c565b928c6024860152604485015260648401526084830152038183865af180156111885790879161136b575b50506080968451956106668988611a92565b60038752601f19890136602089013761067e87611c24565b5261068886611c47565b5261069285611c57565b52516001600160a01b036106a585611c24565b5116906001600160a01b036106b986611c57565b5116926106e57f0000000000000000000000000000000000000000000000000000000000000000611db9565b936001600160a01b0361081560e0937f938e3d7b0000000000000000000000000000000000000000000000000000000061080f8a516107248882611a92565b60068152601f1988013660208301377f731133e90000000000000000000000000000000000000000000000000000000061075d82611c24565b527fe2ab691d0000000000000000000000000000000000000000000000000000000061078882611c47565b527fb5674c68000000000000000000000000000000000000000000000000000000006107b382611c57565b527fb48ab8b6000000000000000000000000000000000000000000000000000000006107de82611c67565b527f02fe53050000000000000000000000000000000000000000000000000000000061080982611c77565b52611c87565b52611db9565b1693865160e06108258183611a92565b60068252601f19018a5b81811061132d5750507f731133e90000000000000000000000000000000000000000000000000000000061086282611c24565b515287516108708982611a92565b60018152601f198901366020830137602061088a83611c24565b51015260018861089983611c24565b5101527fe2ab691d000000000000000000000000000000000000000000000000000000006108c682611c47565b515287516108d48982611a92565b60018152601f19890136602083013760206108ee83611c47565b5101526001886108fd83611c47565b5101527fb5674c680000000000000000000000000000000000000000000000000000000061092a82611c57565b515287516109388982611a92565b60018152601f198901366020830137602061095283611c57565b51015260018861096183611c57565b5101527fb48ab8b60000000000000000000000000000000000000000000000000000000061098e82611c67565b5152875161099c8982611a92565b60018152601f19890136602083013760206109b683611c67565b5101526001886109c583611c67565b5101527f02fe5305000000000000000000000000000000000000000000000000000000006109f282611c77565b5152600188610a0083611c77565b5101527f938e3d7b00000000000000000000000000000000000000000000000000000000610a2d82611c87565b5152600188610a3b83611c87565b510152853b156112f35789610a7f918951809381927f90c2e4940000000000000000000000000000000000000000000000000000000083528b339160048501611cce565b0381838a5af180156112b257908a91611318575b50508684015160608501516001600160a01b0388163b1561119257610af1918c610b038d938c5195869485947f8f15b41400000000000000000000000000000000000000000000000000000000865260048601526084850190611b6c565b90600319848303016024850152611b6c565b8960448301528660648301520381836001600160a01b038c165af180156112b257908a916112ff575b50508651907f8da5cb5b000000000000000000000000000000000000000000000000000000008252602082600481335afa80156112b2578a9081906112bc575b610bca93506001600160a01b038a519116602082015260208152610b908a82611a92565b8951809481927f9ca33c9e000000000000000000000000000000000000000000000000000000008352602060048401526024830190611b6c565b0381836001600160a01b037f0000000000000000000000000000000000000000000000000000000000000000165af19283156112b257908b9392918b968c938d956111d2575b506001600160a01b038151966bffffffffffffffffffffffff60208401511692015116908b51968761016081011067ffffffffffffffff6101608a0111176111be5761016088018d526001600160a01b038c16885260208801528b8701527f000000000000000000000000000000000000000000000000000000000000000060608701528d86015260a085015260c08401526001600160a01b037f000000000000000000000000000000000000000000000000000000000000000016848401526001600160a01b037f0000000000000000000000000000000000000000000000000000000000000000166101008401526001600160a01b037f0000000000000000000000000000000000000000000000000000000000000000166101208401526001600160a01b037f0000000000000000000000000000000000000000000000000000000000000000166101408401526001600160a01b03610d7186611c24565b511692601f60ff83161161119657885191610d8c8a84611a92565b6020835260208301601f198b0136823760ff82168452528a898051610db081611a76565b82815282602082015201528b8360c01c8a8051610dcc81611a76565b8281528660208201941c67ffffffffffffffff16845201946fffffffffffffffffffffffffffffffff168552610e0190611e39565b905167ffffffffffffffff16610e1690611e39565b93516fffffffffffffffffffffffffffffffff16610e3390611e39565b8a5194828693519081602086019160200191610e4e92611b49565b8301602081017f2e00000000000000000000000000000000000000000000000000000000000000905281519182602183019160200191610e8d92611b49565b01602001600181017f2e00000000000000000000000000000000000000000000000000000000000000905281519182600283019160200191610ece92611b49565b0160010103600101601f1981018452610ee79084611a92565b833b1561119257918a8094928a8e958151988997889687957f5f741df6000000000000000000000000000000000000000000000000000000008752600487016101a090526101a48701610f3991611b6c565b868103600319016024880152610f4e91611b6c565b9383516001600160a01b03166044870152602084015160648701528301516bffffffffffffffffffffffff166084860152606083015160a48601528201516001600160a01b031660c485015260a08201516001600160a01b031660e485015260c08201516001600160a01b03166101048501528101516001600160a01b03166101248401526101008101516001600160a01b03166101448401526101208101516001600160a01b031661016484015261014001516001600160a01b031661018483015203925af180156111885790879161116f575b5050906001600160a01b03611054819493601f1987519a611044818d611a92565b60038c52013660208c0137611c24565b511661105f88611c24565b5261106987611c47565b521661107485611c57565b526110828251855190611cab565b93601f196110a761109287611b1d565b9661109f85519889611a92565b808852611b1d565b01366020870137835b83518110156110e157806001600160a01b036110ce60019387611c97565b51166110da8289611c97565b52016110b0565b5090925b815181101561112057806001600160a01b0361110360019385611c97565b5116611119611113838751611cab565b88611c97565b52016110e5565b8351806100817f00000000000000000000000000000000000000000000000000000000000000007f00000000000000000000000000000000000000000000000000000000000000008984611c02565b8161117991611a92565b611184578538611023565b8580fd5b85513d89823e3d90fd5b8a80fd5b60048b7fb3512b0c000000000000000000000000000000000000000000000000000000008152fd5b60248f634e487b7160e01b81526041600452fd5b97509450925090503d808b873e6111e98187611a92565b8501916060868403126111925785519267ffffffffffffffff84116112ae5780601f8589010112156112ae57838701519061122382611b1d565b946112308c519687611a92565b828652602086019160208460051b838c010101116112aa578e96959493929189820160200191905b60208460051b838d010101831061128057505050508960208801519701519296929338610c10565b829394959697985060208093916112978293611da5565b815201930191508f979695949392611258565b8d80fd5b8b80fd5b88513d8c823e3d90fd5b5050906020813d6020116112f7575b816112d860209383611a92565b810103126112f35790896112ee610bca93611da5565b610b6c565b8980fd5b3d91506112cb565b8161130991611a92565b611314578838610b2c565b8880fd5b8161132291611a92565b611314578838610a93565b6020908a5161133b81611a76565b8d81526060838201528d8c8201528282860101520161082f565b634e487b7160e01b600052604160045260246000fd5b8161137591611a92565b611184578538610654565b8161138a91611a92565b61118457853861058a565b976113a9816001600160a01b03939a611a92565b97906104ce565b87513d8b823e3d90fd5b6020906040516113c981611a76565b89815260608382015289604082015282828c010152016103d5565b8480fd5b8280fd5b8680fd5b602080916113fd84611b35565b815201910190610246565b81358152602091820191016101e0565b8380fd5b5080fd5b50346100855780600319360112610085576040516100819161144360c083611a92565b600582525060a036602083013761145981611c24565b6001600160a01b037f00000000000000000000000000000000000000000000000000000000000000001690526001600160a01b037f0000000000000000000000000000000000000000000000000000000000000000166114b882611c47565b526114c281611c57565b6001600160a01b037f00000000000000000000000000000000000000000000000000000000000000001690526114f781611c67565b6001600160a01b037f000000000000000000000000000000000000000000000000000000000000000016905261152c81611c77565b6001600160a01b037f00000000000000000000000000000000000000000000000000000000000000001690526040519182917f0000000000000000000000000000000000000000000000000000000000000000907f00000000000000000000000000000000000000000000000000000000000000009084611c02565b50346100855760206003193601126100855760043567ffffffffffffffff811161141c576040600319823603011261141c57604051906115e782611a21565b806004013567ffffffffffffffff81116114185781016101006003198236030112611418576040519061161982611a3d565b600481013567ffffffffffffffff81116111845761163d9060043691840101611ad1565b8252602481013567ffffffffffffffff8111611184576116639060043691840101611ad1565b6020830152604481013567ffffffffffffffff81116111845760049082010136601f820112156111845780359061169982611b1d565b916116a76040519384611a92565b80835260208084019160051b8301019136831161131457602001905b828210611a11575050506040830152606481013567ffffffffffffffff81116111845760049082010136601f820112156111845780359061170382611b1d565b916117116040519384611a92565b80835260208084019160051b8301019136831161131457602001905b8282106119f9575050506060830152608481013567ffffffffffffffff8111611184576117609060043691840101611ad1565b608083015260a481013565ffffffffffff811681036111845760a083015260c48101359063ffffffff821682036111845760e49160c0840152013560e0820152825260248101359067ffffffffffffffff821161141857019160a0600319843603011261008557604051926117d484611a5a565b6004810135845260248101356bffffffffffffffffffffffff811681036113e8576020850152604481013567ffffffffffffffff81116113e85761181e9060043691840101611ad1565b6040850152606481013567ffffffffffffffff81116113e85761184d9161035760849260043691840101611ad1565b608084015260208201928352602060405161186781611a21565b60405161187381611a3d565b6060815260608382015260606040820152606080820152606060808201528360a08201528360c08201528360e08201528152604051926118b284611a5a565b808452808385015260606040850152606080850152608084015201526040519182916020835251906040602084015260e061195e61194961193361191d611907875161010060608b01526101608a0190611b6c565b6020880151605f198a83030160808b0152611b6c565b6040870151605f198983030160a08a0152611b91565b6060860151605f198883030160c0890152611bc5565b6080850151605f198783030184880152611b6c565b9265ffffffffffff60a08201511661010086015263ffffffff60c08201511661012086015201516101408401525190601f19838203016040840152815181526bffffffffffffffffffffffff602083015116602082015260806001600160a01b03816119ee6119dc604087015160a0604088015260a0870190611b6c565b60608701518682036060880152611b6c565b940151169101520390f35b60208091611a0684611b35565b81520191019061172d565b81358152602091820191016116c3565b6040810190811067ffffffffffffffff82111761135557604052565b610100810190811067ffffffffffffffff82111761135557604052565b60a0810190811067ffffffffffffffff82111761135557604052565b6060810190811067ffffffffffffffff82111761135557604052565b90601f601f19910116810190811067ffffffffffffffff82111761135557604052565b67ffffffffffffffff811161135557601f01601f191660200190565b81601f82011215611b1857803590611ae882611ab5565b92611af66040519485611a92565b82845260208383010111611b1857816000926020809301838601378301015290565b600080fd5b67ffffffffffffffff81116113555760051b60200190565b35906001600160a01b0382168203611b1857565b60005b838110611b5c5750506000910152565b8181015183820152602001611b4c565b90601f19601f602093611b8a81518092818752878088019101611b49565b0116010190565b906020808351928381520192019060005b818110611baf5750505090565b8251845260209384019390920191600101611ba2565b906020808351928381520192019060005b818110611be35750505090565b82516001600160a01b0316845260209384019390920191600101611bd6565b611c1a60409295949395606083526060830190611bc5565b9460208201520152565b805115611c315760200190565b634e487b7160e01b600052603260045260246000fd5b805160011015611c315760400190565b805160021015611c315760600190565b805160031015611c315760800190565b805160041015611c315760a00190565b805160051015611c315760c00190565b8051821015611c315760209160051b010190565b91908201809211611cb857565b634e487b7160e01b600052601160045260246000fd5b91939290606083016060845281518091526080840190602060808260051b8701019301916000905b828210611d1b57505050506040916001600160a01b0380929616602085015216910152565b90919293602080827fffffffffffffffffffffffffffffffffffffffffffffffffffffffffffffff808a600195030185528751907fffffffff000000000000000000000000000000000000000000000000000000008251168152604080611d8f858501516060878601526060850190611bc5565b9301511515910152960192019201909291611cf6565b51906001600160a01b0382168203611b1857565b6e5af43d82803e903d91602b57fd5bf390763d602d80600a3d3981f3363d3d373d3d3d363d7300000062ffffff8260881c161760005260781b17602052603760096000f0906001600160a01b03821615611e0f57565b7fb06ebf3d0000000000000000000000000000000000000000000000000000000060005260046000fd5b806000917a184f03e93ff9f4daa797ed6e38ed64bf6a1f010000000000000000821015611f99575b806d04ee2d6d415b85acef8100000000600a921015611f7e575b662386f26fc10000811015611f6a575b6305f5e100811015611f59575b612710811015611f4a575b6064811015611f3c575b1015611f31575b600a60001960216001850194601f19611ee5611ecf88611ab5565b97611edd604051998a611a92565b808952611ab5565b013660208801378501015b01917f30313233343536373839616263646566000000000000000000000000000000008282061a8353048015611f2c57600019600a9192611ef0565b505090565b600190910190611eb4565b606460029104930192611ead565b61271060049104930192611ea3565b6305f5e10060089104930192611e98565b662386f26fc1000060109104930192611e8b565b6d04ee2d6d415b85acef810000000060209104930192611e7b565b50604091507a184f03e93ff9f4daa797ed6e38ed64bf6a1f0100000000000000008104611e6156fea264697066735822122072b6d6c190c67bd3c4eeebeef6b042566f9cd791f7bd86f18abc2fe292b05bd364736f6c634300081c0033000000000000000000000000c0de1d2f7662c63796e544b2647b2a94ee658e07",
  "devdoc": {
    "author": "Peeramid Labs, 2024",
    "details": "This contract implements the IDistribution and CodeIndexer interfaces. It uses the Clones library for address cloning.",
    "errors": {
      "FailedDeployment()": [
        {
          "details": "The deployment failed."
        }
      ],
      "InsufficientBalance(uint256,uint256)": [
        {
          "details": "The ETH balance of the account is not enough to perform the operation."
        }
      ]
    },
    "events": {
      "Distributed(address,address[])": {
        "params": {
          "distributor": "The address of the entity that performed the distribution.",
          "instances": "An array of addresses that were produced."
        }
      }
    },
    "kind": "dev",
    "methods": {
      "constructor": {
        "details": "Retrieves contract addresses from a contract index using the provided identifiers      and initializes the distribution system.WARNING: distributionName must be less then 31 bytes long to comply with ShortStrings immutable format",
        "params": {
          "RankifyDIistributionId": "Identifier for the Rankify distribution implementation",
          "accessManagerId": "Identifier for the access manager implementation",
          "distributionName": "Name identifier for this distribution",
          "distributionVersion": "Semantic version information as LibSemver.Version struct",
          "governanceERC20BaseId": "Identifier for the governance token implementation",
          "minParticipantsInCircle": "Minimum number of participants in a circle",
          "rankTokenCodeId": "Identifier for the rank token implementation in CodeIndex"
        }
      },
      "distributionSchema(((string,string,uint256[],address[],string,uint48,uint32,uint256),(uint256,uint96,string,string,address)))": {
        "details": "This is only needed to ensure `DistributorArguments` are provided in ABI, as it would be internal otherwise.",
        "returns": {
          "_0": "DistributorArguments The schema of the distribution."
        }
      },
      "get()": {
        "returns": {
          "_1": "The name of the distribution.",
          "_2": "The version of the distribution.",
          "sources": "An array of addresses that are used for instantiation."
        }
      },
      "instantiate(bytes)": {
        "details": "`instances` array contents: GovernanceToken, Gov Token AccessManager, Governor, Rankify Diamond proxy, RankTokenAccessManager, RankToken",
        "params": {
          "data": "The initialization data for the new instance, typeof {DistributorArguments}."
        },
        "returns": {
          "distributionName": "A bytes32 value representing the name of the distribution.",
          "distributionVersion": "A uint256 value representing the version of the distribution.",
          "instances": "An array of addresses representing the new instances."
        }
      }
    },
    "title": "MAODistribution",
    "version": 1
  },
  "userdoc": {
    "events": {
      "Distributed(address,address[])": {
        "notice": "Emitted when a distribution occurs."
      }
    },
    "kind": "user",
    "methods": {
      "constructor": {
        "notice": "Initializes the contract with the provided parameters and performs necessary checks."
      },
      "distributionSchema(((string,string,uint256[],address[],string,uint48,uint32,uint256),(uint256,uint96,string,string,address)))": {
        "notice": "Returns the schema of the distribution."
      },
      "get()": {
        "notice": "Retrieves the current distribution sources."
      },
      "instantiate(bytes)": {
        "notice": "Instantiates a new instance with the provided data."
      }
    },
    "notice": "The contract is responsible for creating and managing DAOs and Rankify distributions.",
    "version": 1
  },
  "storageLayout": {
    "storage": [],
    "types": null
  }
}