{
  "address": "0xC218cB7c5e7126F760Fd79aCe9D3e5557B9157aF",
  "abi": [
    {
      "inputs": [],
      "name": "ALPHA_X",
      "outputs": [
        {
          "internalType": "uint256",
          "name": "",
          "type": "uint256"
        }
      ],
      "stateMutability": "view",
      "type": "function"
    },
    {
      "inputs": [],
      "name": "ALPHA_Y",
      "outputs": [
        {
          "internalType": "uint256",
          "name": "",
          "type": "uint256"
        }
      ],
      "stateMutability": "view",
      "type": "function"
    },
    {
      "inputs": [],
      "name": "BASE_FIELD_SIZE",
      "outputs": [
        {
          "internalType": "uint256",
          "name": "",
          "type": "uint256"
        }
      ],
      "stateMutability": "view",
      "type": "function"
    },
    {
      "inputs": [],
      "name": "BETA_X1",
      "outputs": [
        {
          "internalType": "uint256",
          "name": "",
          "type": "uint256"
        }
      ],
      "stateMutability": "view",
      "type": "function"
    },
    {
      "inputs": [],
      "name": "BETA_X2",
      "outputs": [
        {
          "internalType": "uint256",
          "name": "",
          "type": "uint256"
        }
      ],
      "stateMutability": "view",
      "type": "function"
    },
    {
      "inputs": [],
      "name": "BETA_Y1",
      "outputs": [
        {
          "internalType": "uint256",
          "name": "",
          "type": "uint256"
        }
      ],
      "stateMutability": "view",
      "type": "function"
    },
    {
      "inputs": [],
      "name": "BETA_Y2",
      "outputs": [
        {
          "internalType": "uint256",
          "name": "",
          "type": "uint256"
        }
      ],
      "stateMutability": "view",
      "type": "function"
    },
    {
      "inputs": [],
      "name": "DELTA_X1",
      "outputs": [
        {
          "internalType": "uint256",
          "name": "",
          "type": "uint256"
        }
      ],
      "stateMutability": "view",
      "type": "function"
    },
    {
      "inputs": [],
      "name": "DELTA_X2",
      "outputs": [
        {
          "internalType": "uint256",
          "name": "",
          "type": "uint256"
        }
      ],
      "stateMutability": "view",
      "type": "function"
    },
    {
      "inputs": [],
      "name": "DELTA_Y1",
      "outputs": [
        {
          "internalType": "uint256",
          "name": "",
          "type": "uint256"
        }
      ],
      "stateMutability": "view",
      "type": "function"
    },
    {
      "inputs": [],
      "name": "DELTA_Y2",
      "outputs": [
        {
          "internalType": "uint256",
          "name": "",
          "type": "uint256"
        }
      ],
      "stateMutability": "view",
      "type": "function"
    },
    {
      "inputs": [],
      "name": "GAMMA_X1",
      "outputs": [
        {
          "internalType": "uint256",
          "name": "",
          "type": "uint256"
        }
      ],
      "stateMutability": "view",
      "type": "function"
    },
    {
      "inputs": [],
      "name": "GAMMA_X2",
      "outputs": [
        {
          "internalType": "uint256",
          "name": "",
          "type": "uint256"
        }
      ],
      "stateMutability": "view",
      "type": "function"
    },
    {
      "inputs": [],
      "name": "GAMMA_Y1",
      "outputs": [
        {
          "internalType": "uint256",
          "name": "",
          "type": "uint256"
        }
      ],
      "stateMutability": "view",
      "type": "function"
    },
    {
      "inputs": [],
      "name": "GAMMA_Y2",
      "outputs": [
        {
          "internalType": "uint256",
          "name": "",
          "type": "uint256"
        }
      ],
      "stateMutability": "view",
      "type": "function"
    },
    {
      "inputs": [],
      "name": "IC0_X",
      "outputs": [
        {
          "internalType": "uint256",
          "name": "",
          "type": "uint256"
        }
      ],
      "stateMutability": "view",
      "type": "function"
    },
    {
      "inputs": [],
      "name": "IC0_Y",
      "outputs": [
        {
          "internalType": "uint256",
          "name": "",
          "type": "uint256"
        }
      ],
      "stateMutability": "view",
      "type": "function"
    },
    {
      "inputs": [],
      "name": "IC10_X",
      "outputs": [
        {
          "internalType": "uint256",
          "name": "",
          "type": "uint256"
        }
      ],
      "stateMutability": "view",
      "type": "function"
    },
    {
      "inputs": [],
      "name": "IC10_Y",
      "outputs": [
        {
          "internalType": "uint256",
          "name": "",
          "type": "uint256"
        }
      ],
      "stateMutability": "view",
      "type": "function"
    },
    {
      "inputs": [],
      "name": "IC11_X",
      "outputs": [
        {
          "internalType": "uint256",
          "name": "",
          "type": "uint256"
        }
      ],
      "stateMutability": "view",
      "type": "function"
    },
    {
      "inputs": [],
      "name": "IC11_Y",
      "outputs": [
        {
          "internalType": "uint256",
          "name": "",
          "type": "uint256"
        }
      ],
      "stateMutability": "view",
      "type": "function"
    },
    {
      "inputs": [],
      "name": "IC12_X",
      "outputs": [
        {
          "internalType": "uint256",
          "name": "",
          "type": "uint256"
        }
      ],
      "stateMutability": "view",
      "type": "function"
    },
    {
      "inputs": [],
      "name": "IC12_Y",
      "outputs": [
        {
          "internalType": "uint256",
          "name": "",
          "type": "uint256"
        }
      ],
      "stateMutability": "view",
      "type": "function"
    },
    {
      "inputs": [],
      "name": "IC13_X",
      "outputs": [
        {
          "internalType": "uint256",
          "name": "",
          "type": "uint256"
        }
      ],
      "stateMutability": "view",
      "type": "function"
    },
    {
      "inputs": [],
      "name": "IC13_Y",
      "outputs": [
        {
          "internalType": "uint256",
          "name": "",
          "type": "uint256"
        }
      ],
      "stateMutability": "view",
      "type": "function"
    },
    {
      "inputs": [],
      "name": "IC14_X",
      "outputs": [
        {
          "internalType": "uint256",
          "name": "",
          "type": "uint256"
        }
      ],
      "stateMutability": "view",
      "type": "function"
    },
    {
      "inputs": [],
      "name": "IC14_Y",
      "outputs": [
        {
          "internalType": "uint256",
          "name": "",
          "type": "uint256"
        }
      ],
      "stateMutability": "view",
      "type": "function"
    },
    {
      "inputs": [],
      "name": "IC15_X",
      "outputs": [
        {
          "internalType": "uint256",
          "name": "",
          "type": "uint256"
        }
      ],
      "stateMutability": "view",
      "type": "function"
    },
    {
      "inputs": [],
      "name": "IC15_Y",
      "outputs": [
        {
          "internalType": "uint256",
          "name": "",
          "type": "uint256"
        }
      ],
      "stateMutability": "view",
      "type": "function"
    },
    {
      "inputs": [],
      "name": "IC16_X",
      "outputs": [
        {
          "internalType": "uint256",
          "name": "",
          "type": "uint256"
        }
      ],
      "stateMutability": "view",
      "type": "function"
    },
    {
      "inputs": [],
      "name": "IC16_Y",
      "outputs": [
        {
          "internalType": "uint256",
          "name": "",
          "type": "uint256"
        }
      ],
      "stateMutability": "view",
      "type": "function"
    },
    {
      "inputs": [],
      "name": "IC17_X",
      "outputs": [
        {
          "internalType": "uint256",
          "name": "",
          "type": "uint256"
        }
      ],
      "stateMutability": "view",
      "type": "function"
    },
    {
      "inputs": [],
      "name": "IC17_Y",
      "outputs": [
        {
          "internalType": "uint256",
          "name": "",
          "type": "uint256"
        }
      ],
      "stateMutability": "view",
      "type": "function"
    },
    {
      "inputs": [],
      "name": "IC18_X",
      "outputs": [
        {
          "internalType": "uint256",
          "name": "",
          "type": "uint256"
        }
      ],
      "stateMutability": "view",
      "type": "function"
    },
    {
      "inputs": [],
      "name": "IC18_Y",
      "outputs": [
        {
          "internalType": "uint256",
          "name": "",
          "type": "uint256"
        }
      ],
      "stateMutability": "view",
      "type": "function"
    },
    {
      "inputs": [],
      "name": "IC19_X",
      "outputs": [
        {
          "internalType": "uint256",
          "name": "",
          "type": "uint256"
        }
      ],
      "stateMutability": "view",
      "type": "function"
    },
    {
      "inputs": [],
      "name": "IC19_Y",
      "outputs": [
        {
          "internalType": "uint256",
          "name": "",
          "type": "uint256"
        }
      ],
      "stateMutability": "view",
      "type": "function"
    },
    {
      "inputs": [],
      "name": "IC1_X",
      "outputs": [
        {
          "internalType": "uint256",
          "name": "",
          "type": "uint256"
        }
      ],
      "stateMutability": "view",
      "type": "function"
    },
    {
      "inputs": [],
      "name": "IC1_Y",
      "outputs": [
        {
          "internalType": "uint256",
          "name": "",
          "type": "uint256"
        }
      ],
      "stateMutability": "view",
      "type": "function"
    },
    {
      "inputs": [],
      "name": "IC20_X",
      "outputs": [
        {
          "internalType": "uint256",
          "name": "",
          "type": "uint256"
        }
      ],
      "stateMutability": "view",
      "type": "function"
    },
    {
      "inputs": [],
      "name": "IC20_Y",
      "outputs": [
        {
          "internalType": "uint256",
          "name": "",
          "type": "uint256"
        }
      ],
      "stateMutability": "view",
      "type": "function"
    },
    {
      "inputs": [],
      "name": "IC21_X",
      "outputs": [
        {
          "internalType": "uint256",
          "name": "",
          "type": "uint256"
        }
      ],
      "stateMutability": "view",
      "type": "function"
    },
    {
      "inputs": [],
      "name": "IC21_Y",
      "outputs": [
        {
          "internalType": "uint256",
          "name": "",
          "type": "uint256"
        }
      ],
      "stateMutability": "view",
      "type": "function"
    },
    {
      "inputs": [],
      "name": "IC22_X",
      "outputs": [
        {
          "internalType": "uint256",
          "name": "",
          "type": "uint256"
        }
      ],
      "stateMutability": "view",
      "type": "function"
    },
    {
      "inputs": [],
      "name": "IC22_Y",
      "outputs": [
        {
          "internalType": "uint256",
          "name": "",
          "type": "uint256"
        }
      ],
      "stateMutability": "view",
      "type": "function"
    },
    {
      "inputs": [],
      "name": "IC23_X",
      "outputs": [
        {
          "internalType": "uint256",
          "name": "",
          "type": "uint256"
        }
      ],
      "stateMutability": "view",
      "type": "function"
    },
    {
      "inputs": [],
      "name": "IC23_Y",
      "outputs": [
        {
          "internalType": "uint256",
          "name": "",
          "type": "uint256"
        }
      ],
      "stateMutability": "view",
      "type": "function"
    },
    {
      "inputs": [],
      "name": "IC24_X",
      "outputs": [
        {
          "internalType": "uint256",
          "name": "",
          "type": "uint256"
        }
      ],
      "stateMutability": "view",
      "type": "function"
    },
    {
      "inputs": [],
      "name": "IC24_Y",
      "outputs": [
        {
          "internalType": "uint256",
          "name": "",
          "type": "uint256"
        }
      ],
      "stateMutability": "view",
      "type": "function"
    },
    {
      "inputs": [],
      "name": "IC25_X",
      "outputs": [
        {
          "internalType": "uint256",
          "name": "",
          "type": "uint256"
        }
      ],
      "stateMutability": "view",
      "type": "function"
    },
    {
      "inputs": [],
      "name": "IC25_Y",
      "outputs": [
        {
          "internalType": "uint256",
          "name": "",
          "type": "uint256"
        }
      ],
      "stateMutability": "view",
      "type": "function"
    },
    {
      "inputs": [],
      "name": "IC26_X",
      "outputs": [
        {
          "internalType": "uint256",
          "name": "",
          "type": "uint256"
        }
      ],
      "stateMutability": "view",
      "type": "function"
    },
    {
      "inputs": [],
      "name": "IC26_Y",
      "outputs": [
        {
          "internalType": "uint256",
          "name": "",
          "type": "uint256"
        }
      ],
      "stateMutability": "view",
      "type": "function"
    },
    {
      "inputs": [],
      "name": "IC27_X",
      "outputs": [
        {
          "internalType": "uint256",
          "name": "",
          "type": "uint256"
        }
      ],
      "stateMutability": "view",
      "type": "function"
    },
    {
      "inputs": [],
      "name": "IC27_Y",
      "outputs": [
        {
          "internalType": "uint256",
          "name": "",
          "type": "uint256"
        }
      ],
      "stateMutability": "view",
      "type": "function"
    },
    {
      "inputs": [],
      "name": "IC28_X",
      "outputs": [
        {
          "internalType": "uint256",
          "name": "",
          "type": "uint256"
        }
      ],
      "stateMutability": "view",
      "type": "function"
    },
    {
      "inputs": [],
      "name": "IC28_Y",
      "outputs": [
        {
          "internalType": "uint256",
          "name": "",
          "type": "uint256"
        }
      ],
      "stateMutability": "view",
      "type": "function"
    },
    {
      "inputs": [],
      "name": "IC29_X",
      "outputs": [
        {
          "internalType": "uint256",
          "name": "",
          "type": "uint256"
        }
      ],
      "stateMutability": "view",
      "type": "function"
    },
    {
      "inputs": [],
      "name": "IC29_Y",
      "outputs": [
        {
          "internalType": "uint256",
          "name": "",
          "type": "uint256"
        }
      ],
      "stateMutability": "view",
      "type": "function"
    },
    {
      "inputs": [],
      "name": "IC2_X",
      "outputs": [
        {
          "internalType": "uint256",
          "name": "",
          "type": "uint256"
        }
      ],
      "stateMutability": "view",
      "type": "function"
    },
    {
      "inputs": [],
      "name": "IC2_Y",
      "outputs": [
        {
          "internalType": "uint256",
          "name": "",
          "type": "uint256"
        }
      ],
      "stateMutability": "view",
      "type": "function"
    },
    {
      "inputs": [],
      "name": "IC30_X",
      "outputs": [
        {
          "internalType": "uint256",
          "name": "",
          "type": "uint256"
        }
      ],
      "stateMutability": "view",
      "type": "function"
    },
    {
      "inputs": [],
      "name": "IC30_Y",
      "outputs": [
        {
          "internalType": "uint256",
          "name": "",
          "type": "uint256"
        }
      ],
      "stateMutability": "view",
      "type": "function"
    },
    {
      "inputs": [],
      "name": "IC31_X",
      "outputs": [
        {
          "internalType": "uint256",
          "name": "",
          "type": "uint256"
        }
      ],
      "stateMutability": "view",
      "type": "function"
    },
    {
      "inputs": [],
      "name": "IC31_Y",
      "outputs": [
        {
          "internalType": "uint256",
          "name": "",
          "type": "uint256"
        }
      ],
      "stateMutability": "view",
      "type": "function"
    },
    {
      "inputs": [],
      "name": "IC32_X",
      "outputs": [
        {
          "internalType": "uint256",
          "name": "",
          "type": "uint256"
        }
      ],
      "stateMutability": "view",
      "type": "function"
    },
    {
      "inputs": [],
      "name": "IC32_Y",
      "outputs": [
        {
          "internalType": "uint256",
          "name": "",
          "type": "uint256"
        }
      ],
      "stateMutability": "view",
      "type": "function"
    },
    {
      "inputs": [],
      "name": "IC3_X",
      "outputs": [
        {
          "internalType": "uint256",
          "name": "",
          "type": "uint256"
        }
      ],
      "stateMutability": "view",
      "type": "function"
    },
    {
      "inputs": [],
      "name": "IC3_Y",
      "outputs": [
        {
          "internalType": "uint256",
          "name": "",
          "type": "uint256"
        }
      ],
      "stateMutability": "view",
      "type": "function"
    },
    {
      "inputs": [],
      "name": "IC4_X",
      "outputs": [
        {
          "internalType": "uint256",
          "name": "",
          "type": "uint256"
        }
      ],
      "stateMutability": "view",
      "type": "function"
    },
    {
      "inputs": [],
      "name": "IC4_Y",
      "outputs": [
        {
          "internalType": "uint256",
          "name": "",
          "type": "uint256"
        }
      ],
      "stateMutability": "view",
      "type": "function"
    },
    {
      "inputs": [],
      "name": "IC5_X",
      "outputs": [
        {
          "internalType": "uint256",
          "name": "",
          "type": "uint256"
        }
      ],
      "stateMutability": "view",
      "type": "function"
    },
    {
      "inputs": [],
      "name": "IC5_Y",
      "outputs": [
        {
          "internalType": "uint256",
          "name": "",
          "type": "uint256"
        }
      ],
      "stateMutability": "view",
      "type": "function"
    },
    {
      "inputs": [],
      "name": "IC6_X",
      "outputs": [
        {
          "internalType": "uint256",
          "name": "",
          "type": "uint256"
        }
      ],
      "stateMutability": "view",
      "type": "function"
    },
    {
      "inputs": [],
      "name": "IC6_Y",
      "outputs": [
        {
          "internalType": "uint256",
          "name": "",
          "type": "uint256"
        }
      ],
      "stateMutability": "view",
      "type": "function"
    },
    {
      "inputs": [],
      "name": "IC7_X",
      "outputs": [
        {
          "internalType": "uint256",
          "name": "",
          "type": "uint256"
        }
      ],
      "stateMutability": "view",
      "type": "function"
    },
    {
      "inputs": [],
      "name": "IC7_Y",
      "outputs": [
        {
          "internalType": "uint256",
          "name": "",
          "type": "uint256"
        }
      ],
      "stateMutability": "view",
      "type": "function"
    },
    {
      "inputs": [],
      "name": "IC8_X",
      "outputs": [
        {
          "internalType": "uint256",
          "name": "",
          "type": "uint256"
        }
      ],
      "stateMutability": "view",
      "type": "function"
    },
    {
      "inputs": [],
      "name": "IC8_Y",
      "outputs": [
        {
          "internalType": "uint256",
          "name": "",
          "type": "uint256"
        }
      ],
      "stateMutability": "view",
      "type": "function"
    },
    {
      "inputs": [],
      "name": "IC9_X",
      "outputs": [
        {
          "internalType": "uint256",
          "name": "",
          "type": "uint256"
        }
      ],
      "stateMutability": "view",
      "type": "function"
    },
    {
      "inputs": [],
      "name": "IC9_Y",
      "outputs": [
        {
          "internalType": "uint256",
          "name": "",
          "type": "uint256"
        }
      ],
      "stateMutability": "view",
      "type": "function"
    },
    {
      "inputs": [],
      "name": "P_PUBLIC_SIGNALS_ACCUMULATOR_SIZE",
      "outputs": [
        {
          "internalType": "uint16",
          "name": "",
          "type": "uint16"
        }
      ],
      "stateMutability": "view",
      "type": "function"
    },
    {
      "inputs": [],
      "name": "P_TOTAL_SIZE",
      "outputs": [
        {
          "internalType": "uint16",
          "name": "",
          "type": "uint16"
        }
      ],
      "stateMutability": "view",
      "type": "function"
    },
    {
      "inputs": [
        {
          "internalType": "uint256[2]",
          "name": "pointA_",
          "type": "uint256[2]"
        },
        {
          "internalType": "uint256[2][2]",
          "name": "pointB_",
          "type": "uint256[2][2]"
        },
        {
          "internalType": "uint256[2]",
          "name": "pointC_",
          "type": "uint256[2]"
        },
        {
          "internalType": "uint256[32]",
          "name": "publicSignals_",
          "type": "uint256[32]"
        }
      ],
      "name": "verifyProof",
      "outputs": [
        {
          "internalType": "bool",
          "name": "verified_",
          "type": "bool"
        }
      ],
      "stateMutability": "view",
      "type": "function"
    }
  ],
  "transactionHash": "0x8ef625f5e3c09fd9289456f1f67c634e420d3b5c378616c49693127620779092",
  "args": [],
  "numDeployments": 1,
  "solcInputHash": "1b9e844d30db1fb497c1cae6af1f768c",
  "bytecode": "0x6080604052348015600f57600080fd5b506126578061001f6000396000f3fe608060405234801561001057600080fd5b50600436106105ac5760003560e01c80637fdf8fc1116102ed578063d0fdd6af11610191578063dfcf46f0116100ee578063e834dbdd116100a2578063eeb9f2e41161007c578063eeb9f2e4146111db578063eedee58f14611202578063f7a65aae1461122957600080fd5b8063e834dbdd14611166578063e848dd6f1461118d578063eb38888b146111b457600080fd5b8063e1e7dabb116100d3578063e1e7dabb146110f1578063e552575914611118578063e66266061461113f57600080fd5b8063dfcf46f0146110a3578063e11e8ee2146110ca57600080fd5b8063d8c710e011610145578063dc05a8221161012a578063dc05a8221461102e578063dce4200414611055578063dd924b471461107c57600080fd5b8063d8c710e014610fe0578063dacb4e691461100757600080fd5b8063d663b36511610176578063d663b36514610f6b578063d70a63cc14610f92578063d7aa472a14610fb957600080fd5b8063d0fdd6af14610f1d578063d1fb02a314610f4457600080fd5b8063a1978c3c1161024a578063b936325c116101fe578063c461d14e116101d8578063c461d14e14610ec7578063c4c642ef14610ecf578063cc9c92ae14610ef657600080fd5b8063b936325c14610e52578063ba68817514610e79578063bf48189e14610ea057600080fd5b8063ac6f103e1161022f578063ac6f103e14610ddd578063acb4193614610e04578063aed4334914610e2b57600080fd5b8063a1978c3c14610d9a578063a6aca97614610dc157600080fd5b8063924f0a15116102a1578063970e603711610286578063970e603714610d255780639c8b8ac514610d4c578063a127ed8614610d7357600080fd5b8063924f0a1514610cd75780639683682614610cfe57600080fd5b806385b195eb116102d257806385b195eb14610c62578063898611fd14610c89578063901660c414610cb057600080fd5b80637fdf8fc114610c26578063839a60d014610c4d57600080fd5b80633a9e6a4d1161045457806359b396b5116103b15780636336ec6c116103655780636e8374dc1161033f5780636e8374dc14610bb157806373354b6014610bd8578063742797c414610bff57600080fd5b80636336ec6c14610b3c57806363d2f16814610b635780636a5935a714610b8a57600080fd5b80635c01e537116103965780635c01e53714610ac75780636076d7ed14610aee57806361bb179514610b1557600080fd5b806359b396b514610a795780635bf9f09314610aa057600080fd5b80634b750a92116104085780634e890b27116103ed5780634e890b2714610a0457806350def90514610a2b57806355061a7a14610a5257600080fd5b80634b750a92146109b65780634e528e9f146109dd57600080fd5b806341fe6a9a1161043957806341fe6a9a146109415780634234a1d61461096857806345ce05a81461098f57600080fd5b80633a9e6a4d146108f75780633cc08b241461091e57600080fd5b8063286f014b1161050d57806330c1731c116104c157806334a185221161049b57806334a185221461088257806336b397dc146108a957806339637503146108d057600080fd5b806330c1731c1461080d57806331aa5e261461083457806332148d471461085b57600080fd5b80632c0556ed116104f25780632c0556ed146107985780632d527448146107bf5780632dacca56146107e657600080fd5b8063286f014b1461074a57806328e446951461077157600080fd5b80630de199a51161056457806311fbfe661161054957806311fbfe66146106d55780631c4d4406146106fc57806324934a111461072357600080fd5b80630de199a5146106875780631077f544146106ae57600080fd5b80630c99ab7c116105955780630c99ab7c146106125780630cbb35c3146106395780630d4866881461066057600080fd5b806302020654146105b157806308cceecf146105eb575b600080fd5b6105d87f01107b7ad1091a7e6db609df0a98be2cbe1b1dd2be521469c78df731d9defd2381565b6040519081526020015b60405180910390f35b6105d87f11950e9c56ceb9bf2da3c4a27eb866114b5b77b9915ed05d6c811815be83e13881565b6105d87f0b5648fafdb0e47cf815c1233a678a4749e840c0d92ed9e5042cadbf5eda394a81565b6105d87f1f42afcac4bb81dd532d667c81bad6c1f12a46347c3c498831b86caeb85e4a3281565b6105d87f2ecc765c3f73cc0857436490ee57ddad056c101f93c76c1873fb4852f12e2dcc81565b6105d87f215cd0915b05d38de22b4b1e521af1cb208ede55c45f83f13bd7625e692cada881565b6105d87f024f5e3107e0dedc2dbdfca86b57359ec5508c129d6384c69575490edc29813981565b6105d87f18a41cf517b51523f63dd2ac7c6abc92fc5a894e8564a1d889b9fa67e0a324c781565b6105d87f1739c1b1a457a8c7313123d24d2f9192f896b7c63eea05a9d57f06547ad0cec881565b6105d87f021d2c557e73c1a0f899e21fcc5098633f6e882d5784e70d9df372601df91f4481565b6105d87f112cbe0984f0e8fbcad65350c8f8b50ef3fb8e05e7e87ab9b0c8d79de3da3cd081565b6105d87f055fb99ad51115a25f1f1b28ce76e8d2d2a57ee40275e7b45d162d711b55340b81565b6105d87f0182cc4ce5684619a73b163a7515169e19de12c561fc75b24bb428f39f1cfe6981565b6105d87f24978da29d6f5a83843999235f2ab6d8b532448c0b3345c5354b9f6d3cca463081565b6105d87f252bb69f69b31933bdef980d289c4d864b70630974e080d393e7e53a9840c96481565b6105d87f20999d87e22442ddc6b55e25efee744f6d8feb8578a8f5118e816997bd7d057381565b6105d87f203d4bf265fb2defabadf8b822dee81b31e63c706600de34d4876d6e47b4416481565b6105d87f278be06f919a6d926e70cb2a87c4354bacc7b637207605856a99a746d5b7c38d81565b6105d87f160b8f20ff86fa9972f89e420759d16f991312678c50f7edb0f0afc471b88b6881565b6105d87f22584bc71058c21f5aa6ee86bd7783d69b3099848f1e17556e01524c0fd3ed1581565b6105d87f1894445cfacb5b1cfc3540a644e9a6f51df393394b4ce277a22eddeec5609ede81565b6105d87f090689d0585ff075ec9e99ad690c3395bc4b313370b38ef355acdadcd122975b81565b61093161092c36600461251c565b611250565b60405190151581526020016105e2565b6105d87f098c5b20dbceeeb4c27ed85ce81c7c936047132f7d77598d6d294cfbd19a152581565b6105d87f16036eda05faab81632a50770bb1a17c973dafb0ffb8f4604e348600e326348081565b6105d87f2b7b1437b5d44e38287f8be0b044ef68c2a313c6325ce2e9058bb2ea3e7ea71881565b6105d87f0715e4d3db4ae3c5014e17d0f03b81f6e53ba411b423a21a602dc5dfbd195cc981565b6105d87f19f6d18df1e5f4a3e5effaf8b4152bffec047805fd5899d854a198d3bac94cb181565b6105d87f21e31947cc4594090efc9dd4bf094683794b08518f2a7c84b0e38b522ba6089781565b6105d87f1d603f2714aa687d0d56075705fe0d5d3536e945fcc35c9a53779631a51db3b481565b6105d87f192766ff4f3b3c72b16036823524b5f5d9590eaa35d52f33984d3707d602d9aa81565b6105d87f059fffc9b30d5b3a3f22fd851420de9223d134a40c44d82b30670249c71707c181565b6105d87f2841e4c9a95e1d8a083a1055eadfef888a0735c1751afc852448681cabe16fd281565b6105d87f0b86dd8683cedbfed0915b47f96b95432a28bd970bc2b549cc9a9728ad1744e781565b6105d87f0795cc2e1dd2b0d04f3f106c60df0d616c0d23fcbcad2792b867b98afc1c804481565b6105d87f15736a0dc26ef423a13302a6d43ba5e13b54be0b29e654afe632e16c7cb3d7f181565b6105d87f2076970fc5480377831dd6851f282a10848bf13238fa67ea344bd9671354907f81565b6105d87f121f6d739ff1d4b5bec4ba123ab54c23437ec3aad2da198d4f2ce96e14b4814681565b6105d87f14bedd503c37ceb061d8ec60209fe345ce89830a19230301f076caff004d192681565b6105d87f1c0918225638fe417fcd0eaa5b58b97513e71b345ea93db2013ed0d096c34b0381565b6105d87f09b8fd3f5abb00a9a3c6c4290991b3bd21e6a4d2455e13927f876a0dc41ff6b981565b6105d87f22fe641a54f9bed58eaa5a35d067637f4e7dfe05ab85e490be117fe7e1df50a581565b6105d87f0e187847ad4c798374d0d6732bf501847dd68bc0e071241e0213bc7fc13db7ab81565b6105d860008051602061260283398151915281565b6105d87f0490d148a760a303d3acebdab29f3639f0827d068c48d92118bf9a3b74477dac81565b6105d87f2df902e579126f9f2bbbad02f4a59475219811be0266404ff49890ce314edd7981565b6105d87f198e9393920d483a7260bfb731fb5d25f1aa493335a9e71297e485b7aef312c281565b6105d87f04367a9c80f435ba84cc9cbf27cfaf641564a3ca193762a75f9d2e6b7761a7f281565b6105d87f0d67a844870bfaa38e31213a8f75d01692c0c5c54ba246fbd7c8d04c6d00d3f681565b6105d87f12d81bc36d9d0685dd421b5166d2bb7386bd1f2933ef916aca6987c891941ef681565b6105d87f1471308db04cae38321c31fe20a6bebbbf72775bfaa8c7916947a9130f877ba881565b6105d87f2dbbbca604bcbb2f5da995551fe56de5db5a5616fc7177f5f82941666524763181565b6105d87f09acb409f9bc8eb9119338dc27bd3861aaddcd4b8e37e7f77bf060eed0f55a2e81565b610dca61038081565b60405161ffff90911681526020016105e2565b6105d87f2f8fe4dec35f5e5866d0abf144bfa48f16e0a6997786af7d58decc0377368a7e81565b6105d87f12c85ea5db8c6deb4aab71808dcb408fe3d1e7690c43d37b4ce6cc0166fa7daa81565b6105d87f18cca7c3bd4a08487defa603bc0493dfac9fc5ce6859fb2e9d5efa2a61211c7581565b6105d87f1719cace772112701c582537c8c67b3b738820ec02cd64ed4647fc08dc2d37cb81565b6105d87f067a79f692dc5ac489b5d48ced247cd18c21ccb6334050ea1dfbd195ccaed46c81565b6105d87f24aefc6d0943b5e74ce7ee3dcf1cd8a6152cb232815368a09846a578332f5d1e81565b610dca608081565b6105d87f21d138b54bf8d3b9694d2fe2247bede148269c3538ca91b0a85917cc6cd4f6ad81565b6105d87f01248149ff347aedf47525bcadf89e4ba27735770efd067c002d52dce27c8ede81565b6105d87f23d5207ff00b3f951c7eaaba02363527c2903fbfc03fa5a0cfef72e5b5ea677f81565b6105d87f2d4d9aa7e302d9df41749d5507949d05dbea33fbb16c643b22f599a2be6df2e281565b6105d87f020f202c5a5cf868774735a37a8f99007b4ffe859cd1824dececb017ac8dd0f481565b6105d87f187ffa809cc955909129133c99f36bfb54a64b4ddaf9eb9c7a6fbdaa339aaa8b81565b6105d87f0a09a9a12a16a5a2c2c8b2d6dbcae3debfa7a56005628f18fb21b5820d1155ec81565b6105d87f2a741b22764627e679a2a999bf1c9c93129477cff05b6fdd4a5a493d9926ead081565b6105d87f0d7ffefae1f21fb2ea1dc617eb31f69b8ec1fc8f1071d56229726808c6ee528981565b6105d87f0967032fcbf776d1afc985f88877f182d38480a653f2decaa9794cbc3bf3060c81565b6105d87f0918df3933a6f9f5c01d764ede964a2cfc3cc60d99a44b97b5a00f3cb6c3c5ef81565b6105d87f304cfbd1e08a704a99f5e847d93f8c3caafddec46b7a0d379da69a4d112346a781565b6105d87f1800deef121f1e76426a00665e5c4479674322d4f75edadd46debd5cd992f6ed81565b6105d87f065d7ecaa009a7a846c1b3d4e11d62dc42faef80c27edf8d27c764de48adff4b81565b6105d87f15487164eae7f0e1515c50de2c81e397ae16b867c4aef774b4ee77174433609f81565b6105d87f16b56ad51d8e0dbc01928b1477835e1d14e7f807fdeb4ce77f533886cc8245d881565b6105d87f2730ae5ad9aaefe026673a500e038d5dd46c563df8b4043c5168a9d6229e434a81565b6105d87f1afac7cf1fbda95a7c8fb9bf97012434b0183406bb06e0ae61cc413eb68d1b5681565b6105d87f27e3c9b4ce5f981f774b92401b1b5ae413546f11dfe0cd097a4c4624d2d5977f81565b6105d87f1c8b36c112a22e016b90e3298fcdb025f63324eacabc64076016ad08ca6c563d81565b6105d87f227010e84b72c81807494173acd3b029672fadcd0a2ba8366dce7d2e5b3735f881565b6105d87f1443da3e88c1c7387a72fd29fcc08538188a78f7743ee421936af3295c7b916381565b6105d87f138feba2517778176a7e91006c48fe3c25f694bc0477f65ef60720e1f4e8e4cd81565b6000612101565b60006040518381528460208201528560408201526040816060836007611770fa3d15151691508161128857506112ac565b825160408201526020830151606082015260408360808360066096fa3d1515169150505b949350505050565b6000608086017f2076970fc5480377831dd6851f282a10848bf13238fa67ea344bd9671354907f87527f22fe641a54f9bed58eaa5a35d067637f4e7dfe05ab85e490be117fe7e1df50a5602088015261135360008701517f09acb409f9bc8eb9119338dc27bd3861aaddcd4b8e37e7f77bf060eed0f55a2e7f020f202c5a5cf868774735a37a8f99007b4ffe859cd1824dececb017ac8dd0f48a611257565b61135d57506120f8565b6113ad60208701517f1f42afcac4bb81dd532d667c81bad6c1f12a46347c3c498831b86caeb85e4a327f0918df3933a6f9f5c01d764ede964a2cfc3cc60d99a44b97b5a00f3cb6c3c5ef8a611257565b6113b757506120f8565b61140760408701517f1d603f2714aa687d0d56075705fe0d5d3536e945fcc35c9a53779631a51db3b47f16036eda05faab81632a50770bb1a17c973dafb0ffb8f4604e348600e32634808a611257565b61141157506120f8565b61146160608701517f21e31947cc4594090efc9dd4bf094683794b08518f2a7c84b0e38b522ba608977f1443da3e88c1c7387a72fd29fcc08538188a78f7743ee421936af3295c7b91638a611257565b61146b57506120f8565b6114bb60808701517f021d2c557e73c1a0f899e21fcc5098633f6e882d5784e70d9df372601df91f447f2df902e579126f9f2bbbad02f4a59475219811be0266404ff49890ce314edd798a611257565b6114c557506120f8565b61151560a08701517f24aefc6d0943b5e74ce7ee3dcf1cd8a6152cb232815368a09846a578332f5d1e7f18cca7c3bd4a08487defa603bc0493dfac9fc5ce6859fb2e9d5efa2a61211c758a611257565b61151f57506120f8565b61156f60c08701517f0182cc4ce5684619a73b163a7515169e19de12c561fc75b24bb428f39f1cfe697f203d4bf265fb2defabadf8b822dee81b31e63c706600de34d4876d6e47b441648a611257565b61157957506120f8565b6115c960e08701517f252bb69f69b31933bdef980d289c4d864b70630974e080d393e7e53a9840c9647f098c5b20dbceeeb4c27ed85ce81c7c936047132f7d77598d6d294cfbd19a15258a611257565b6115d357506120f8565b6116246101008701517f055fb99ad51115a25f1f1b28ce76e8d2d2a57ee40275e7b45d162d711b55340b7f0d7ffefae1f21fb2ea1dc617eb31f69b8ec1fc8f1071d56229726808c6ee52898a611257565b61162e57506120f8565b61167f6101208701517f27e3c9b4ce5f981f774b92401b1b5ae413546f11dfe0cd097a4c4624d2d5977f7f18a41cf517b51523f63dd2ac7c6abc92fc5a894e8564a1d889b9fa67e0a324c78a611257565b61168957506120f8565b6116da6101408701517f09b8fd3f5abb00a9a3c6c4290991b3bd21e6a4d2455e13927f876a0dc41ff6b97f1894445cfacb5b1cfc3540a644e9a6f51df393394b4ce277a22eddeec5609ede8a611257565b6116e457506120f8565b6117356101608701517f067a79f692dc5ac489b5d48ced247cd18c21ccb6334050ea1dfbd195ccaed46c7f2dbbbca604bcbb2f5da995551fe56de5db5a5616fc7177f5f8294166652476318a611257565b61173f57506120f8565b6117906101808701517f024f5e3107e0dedc2dbdfca86b57359ec5508c129d6384c69575490edc2981397f22584bc71058c21f5aa6ee86bd7783d69b3099848f1e17556e01524c0fd3ed158a611257565b61179a57506120f8565b6117eb6101a08701517f1afac7cf1fbda95a7c8fb9bf97012434b0183406bb06e0ae61cc413eb68d1b567f2a741b22764627e679a2a999bf1c9c93129477cff05b6fdd4a5a493d9926ead08a611257565b6117f557506120f8565b6118466101c08701517f20999d87e22442ddc6b55e25efee744f6d8feb8578a8f5118e816997bd7d05737f0715e4d3db4ae3c5014e17d0f03b81f6e53ba411b423a21a602dc5dfbd195cc98a611257565b61185057506120f8565b6118a16101e08701517f278be06f919a6d926e70cb2a87c4354bacc7b637207605856a99a746d5b7c38d7f065d7ecaa009a7a846c1b3d4e11d62dc42faef80c27edf8d27c764de48adff4b8a611257565b6118ab57506120f8565b6118fc6102008701517f24978da29d6f5a83843999235f2ab6d8b532448c0b3345c5354b9f6d3cca46307f112cbe0984f0e8fbcad65350c8f8b50ef3fb8e05e7e87ab9b0c8d79de3da3cd08a611257565b61190657506120f8565b6119576102208701517f23d5207ff00b3f951c7eaaba02363527c2903fbfc03fa5a0cfef72e5b5ea677f7f2b7b1437b5d44e38287f8be0b044ef68c2a313c6325ce2e9058bb2ea3e7ea7188a611257565b61196157506120f8565b6119b26102408701517f0795cc2e1dd2b0d04f3f106c60df0d616c0d23fcbcad2792b867b98afc1c80447f059fffc9b30d5b3a3f22fd851420de9223d134a40c44d82b30670249c71707c18a611257565b6119bc57506120f8565b611a0d6102608701517f2841e4c9a95e1d8a083a1055eadfef888a0735c1751afc852448681cabe16fd27f01107b7ad1091a7e6db609df0a98be2cbe1b1dd2be521469c78df731d9defd238a611257565b611a1757506120f8565b611a686102808701517f19f6d18df1e5f4a3e5effaf8b4152bffec047805fd5899d854a198d3bac94cb17f0a09a9a12a16a5a2c2c8b2d6dbcae3debfa7a56005628f18fb21b5820d1155ec8a611257565b611a7257506120f8565b611ac36102a08701517f04367a9c80f435ba84cc9cbf27cfaf641564a3ca193762a75f9d2e6b7761a7f27f0b5648fafdb0e47cf815c1233a678a4749e840c0d92ed9e5042cadbf5eda394a8a611257565b611acd57506120f8565b611b1e6102c08701517f11950e9c56ceb9bf2da3c4a27eb866114b5b77b9915ed05d6c811815be83e1387f215cd0915b05d38de22b4b1e521af1cb208ede55c45f83f13bd7625e692cada88a611257565b611b2857506120f8565b611b796102e08701517f227010e84b72c81807494173acd3b029672fadcd0a2ba8366dce7d2e5b3735f87f1c8b36c112a22e016b90e3298fcdb025f63324eacabc64076016ad08ca6c563d8a611257565b611b8357506120f8565b611bd46103008701517f2f8fe4dec35f5e5866d0abf144bfa48f16e0a6997786af7d58decc0377368a7e7f21d138b54bf8d3b9694d2fe2247bede148269c3538ca91b0a85917cc6cd4f6ad8a611257565b611bde57506120f8565b611c2f6103208701517f121f6d739ff1d4b5bec4ba123ab54c23437ec3aad2da198d4f2ce96e14b481467f0d67a844870bfaa38e31213a8f75d01692c0c5c54ba246fbd7c8d04c6d00d3f68a611257565b611c3957506120f8565b611c8a6103408701517f2730ae5ad9aaefe026673a500e038d5dd46c563df8b4043c5168a9d6229e434a7f2ecc765c3f73cc0857436490ee57ddad056c101f93c76c1873fb4852f12e2dcc8a611257565b611c9457506120f8565b611ce56103608701517f192766ff4f3b3c72b16036823524b5f5d9590eaa35d52f33984d3707d602d9aa7f0490d148a760a303d3acebdab29f3639f0827d068c48d92118bf9a3b74477dac8a611257565b611cef57506120f8565b611d406103808701517f0b86dd8683cedbfed0915b47f96b95432a28bd970bc2b549cc9a9728ad1744e77f12d81bc36d9d0685dd421b5166d2bb7386bd1f2933ef916aca6987c891941ef68a611257565b611d4a57506120f8565b611d9b6103a08701517f160b8f20ff86fa9972f89e420759d16f991312678c50f7edb0f0afc471b88b687f1c0918225638fe417fcd0eaa5b58b97513e71b345ea93db2013ed0d096c34b038a611257565b611da557506120f8565b611df66103c08701517f1471308db04cae38321c31fe20a6bebbbf72775bfaa8c7916947a9130f877ba87f16b56ad51d8e0dbc01928b1477835e1d14e7f807fdeb4ce77f533886cc8245d88a611257565b611e0057506120f8565b611e516103e08701517f15487164eae7f0e1515c50de2c81e397ae16b867c4aef774b4ee77174433609f7f15736a0dc26ef423a13302a6d43ba5e13b54be0b29e654afe632e16c7cb3d7f18a611257565b611e5b57506120f8565b82518152602080840151600080516020612602833981519152908103068183015284515160408301528451810151606083015284810180515160808401525181015160a08301527f2d4d9aa7e302d9df41749d5507949d05dbea33fbb16c643b22f599a2be6df2e260c08301527f14bedd503c37ceb061d8ec60209fe345ce89830a19230301f076caff004d192660e08301527f0967032fcbf776d1afc985f88877f182d38480a653f2decaa9794cbc3bf3060c6101008301527f0e187847ad4c798374d0d6732bf501847dd68bc0e071241e0213bc7fc13db7ab6101208301527f304cfbd1e08a704a99f5e847d93f8c3caafddec46b7a0d379da69a4d112346a76101408301527f1739c1b1a457a8c7313123d24d2f9192f896b7c63eea05a9d57f06547ad0cec86101608301528751610180830152878101516101a08301527f198e9393920d483a7260bfb731fb5d25f1aa493335a9e71297e485b7aef312c26101c08301527f1800deef121f1e76426a00665e5c4479674322d4f75edadd46debd5cd992f6ed6101e08301527f090689d0585ff075ec9e99ad690c3395bc4b313370b38ef355acdadcd122975b6102008301527f12c85ea5db8c6deb4aab71808dcb408fe3d1e7690c43d37b4ce6cc0166fa7daa6102208301528551610240830152858101516102608301527f187ffa809cc955909129133c99f36bfb54a64b4ddaf9eb9c7a6fbdaa339aaa8b6102808301527f138feba2517778176a7e91006c48fe3c25f694bc0477f65ef60720e1f4e8e4cd6102a08301527f1719cace772112701c582537c8c67b3b738820ec02cd64ed4647fc08dc2d37cb6102c08301527f01248149ff347aedf47525bcadf89e4ba27735770efd067c002d52dce27c8ede6102e0830152816103008160086202c308fa90511690505b95945050505050565b60405161038081016040526001915061212b60008401516000805160206126028339815191521190565b60208401519216916000805160206126028339815191521160408401519216916000805160206126028339815191521160608401519216916000805160206126028339815191521160808401519216916000805160206126028339815191521160a08401519216916000805160206126028339815191521160c08401519216916000805160206126028339815191521160e08401519216916000805160206126028339815191521161010084015192169160008051602061260283398151915211610120840151921691600080516020612602833981519152116101408401519216916000805160206126028339815191521161016084015192169160008051602061260283398151915211610180840151921691600080516020612602833981519152116101a0840151921691600080516020612602833981519152116101c0840151921691600080516020612602833981519152116101e08401519216916000805160206126028339815191521161020084015192169160008051602061260283398151915211610220840151921691600080516020612602833981519152116102408401519216916000805160206126028339815191521161026084015192169160008051602061260283398151915211610280840151921691600080516020612602833981519152116102a0840151921691600080516020612602833981519152116102c0840151921691600080516020612602833981519152116102e08401519216916000805160206126028339815191521161030084015192169160008051602061260283398151915211610320840151921691600080516020612602833981519152116103408401519216916000805160206126028339815191521161036084015192169160008051602061260283398151915211610380840151921691600080516020612602833981519152116103a0840151921691600080516020612602833981519152116103c0840151921691600080516020612602833981519152116103e084015192169160008051602061260283398151915211821691508115191561244757612444818486888a6112b4565b91505b50949350505050565b604051601f82017fffffffffffffffffffffffffffffffffffffffffffffffffffffffffffffffe016810167ffffffffffffffff811182821017156124be577f4e487b7100000000000000000000000000000000000000000000000000000000600052604160045260246000fd5b604052919050565b600082601f8301126124d757600080fd5b60006124e36040612450565b90508060408401858111156124f757600080fd5b845b818110156125115780358352602092830192016124f9565b509195945050505050565b600080600080610500858703121561253357600080fd5b61253d86866124c6565b935085605f86011261254e57600080fd5b604061255981612450565b8060c088018981111561256b57600080fd5b8389015b81811015612590576125818b826124c6565b8452602090930192840161256f565b5081965061259e8a826124c6565b9550505050506101008501600087601f8301126125b9578081fd5b806104006125c681612450565b91508301818a8211156125d7578384fd5b5b818510156125f05784358152602094850194016125d8565b50969995985093965092945050505056fe30644e72e131a029b85045b68181585d97816a916871ca8d3c208c16d87cfd47a2646970667358221220325861fd9dcd0941c41c45c53a5b5bb6b1494370eda61a0a3b2a32a4b48a180f64736f6c634300081c0033",
  "devdoc": {
    "kind": "dev",
    "methods": {},
    "stateVariables": {
      "ALPHA_X": {
        "details": "verification key data"
      },
      "BASE_FIELD_SIZE": {
        "details": "base field size"
      },
      "P_PUBLIC_SIGNALS_ACCUMULATOR_SIZE": {
        "details": "memory pointer sizes"
      }
    },
    "version": 1
  },
  "userdoc": {
    "kind": "user",
    "methods": {},
    "version": 1
  },
  "storageLayout": {
    "storage": [],
    "types": null
  }
}