{
  "address": "0xaFA443F9f965ed3Dd973189c43e2b23d06342c26",
  "abi": [
    {
      "inputs": [
        {
          "internalType": "string",
          "name": "uri_",
          "type": "string"
        },
        {
          "internalType": "string",
          "name": "cURI",
          "type": "string"
        },
        {
          "internalType": "address",
          "name": "accessLayer",
          "type": "address"
        },
        {
          "internalType": "address",
          "name": "owner_",
          "type": "address"
        }
      ],
      "stateMutability": "nonpayable",
      "type": "constructor"
    },
    {
      "inputs": [
        {
          "internalType": "address",
          "name": "sender",
          "type": "address"
        },
        {
          "internalType": "uint256",
          "name": "balance",
          "type": "uint256"
        },
        {
          "internalType": "uint256",
          "name": "needed",
          "type": "uint256"
        },
        {
          "internalType": "uint256",
          "name": "tokenId",
          "type": "uint256"
        }
      ],
      "name": "ERC1155InsufficientBalance",
      "type": "error"
    },
    {
      "inputs": [
        {
          "internalType": "address",
          "name": "approver",
          "type": "address"
        }
      ],
      "name": "ERC1155InvalidApprover",
      "type": "error"
    },
    {
      "inputs": [
        {
          "internalType": "uint256",
          "name": "idsLength",
          "type": "uint256"
        },
        {
          "internalType": "uint256",
          "name": "valuesLength",
          "type": "uint256"
        }
      ],
      "name": "ERC1155InvalidArrayLength",
      "type": "error"
    },
    {
      "inputs": [
        {
          "internalType": "address",
          "name": "operator",
          "type": "address"
        }
      ],
      "name": "ERC1155InvalidOperator",
      "type": "error"
    },
    {
      "inputs": [
        {
          "internalType": "address",
          "name": "receiver",
          "type": "address"
        }
      ],
      "name": "ERC1155InvalidReceiver",
      "type": "error"
    },
    {
      "inputs": [
        {
          "internalType": "address",
          "name": "sender",
          "type": "address"
        }
      ],
      "name": "ERC1155InvalidSender",
      "type": "error"
    },
    {
      "inputs": [
        {
          "internalType": "address",
          "name": "operator",
          "type": "address"
        },
        {
          "internalType": "address",
          "name": "owner",
          "type": "address"
        }
      ],
      "name": "ERC1155MissingApprovalForAll",
      "type": "error"
    },
    {
      "inputs": [],
      "name": "InvalidInitialization",
      "type": "error"
    },
    {
      "inputs": [],
      "name": "NotInitializing",
      "type": "error"
    },
    {
      "inputs": [
        {
          "internalType": "address",
          "name": "owner",
          "type": "address"
        }
      ],
      "name": "OwnableInvalidOwner",
      "type": "error"
    },
    {
      "inputs": [
        {
          "internalType": "address",
          "name": "account",
          "type": "address"
        }
      ],
      "name": "OwnableUnauthorizedAccount",
      "type": "error"
    },
    {
      "inputs": [
        {
          "internalType": "uint256",
          "name": "id",
          "type": "uint256"
        },
        {
          "internalType": "uint256",
          "name": "balance",
          "type": "uint256"
        },
        {
          "internalType": "uint256",
          "name": "required",
          "type": "uint256"
        }
      ],
      "name": "insufficient",
      "type": "error"
    },
    {
      "anonymous": false,
      "inputs": [
        {
          "indexed": true,
          "internalType": "address",
          "name": "account",
          "type": "address"
        },
        {
          "indexed": true,
          "internalType": "address",
          "name": "operator",
          "type": "address"
        },
        {
          "indexed": false,
          "internalType": "bool",
          "name": "approved",
          "type": "bool"
        }
      ],
      "name": "ApprovalForAll",
      "type": "event"
    },
    {
      "anonymous": false,
      "inputs": [
        {
          "indexed": false,
          "internalType": "uint64",
          "name": "version",
          "type": "uint64"
        }
      ],
      "name": "Initialized",
      "type": "event"
    },
    {
      "anonymous": false,
      "inputs": [
        {
          "indexed": true,
          "internalType": "address",
          "name": "previousOwner",
          "type": "address"
        },
        {
          "indexed": true,
          "internalType": "address",
          "name": "newOwner",
          "type": "address"
        }
      ],
      "name": "OwnershipTransferred",
      "type": "event"
    },
    {
      "anonymous": false,
      "inputs": [
        {
          "indexed": true,
          "internalType": "address",
          "name": "newRankingInstance",
          "type": "address"
        }
      ],
      "name": "RankingInstanceUpdated",
      "type": "event"
    },
    {
      "anonymous": false,
      "inputs": [
        {
          "indexed": true,
          "internalType": "address",
          "name": "account",
          "type": "address"
        },
        {
          "indexed": true,
          "internalType": "uint256",
          "name": "id",
          "type": "uint256"
        },
        {
          "indexed": false,
          "internalType": "uint256",
          "name": "value",
          "type": "uint256"
        }
      ],
      "name": "TokensLocked",
      "type": "event"
    },
    {
      "anonymous": false,
      "inputs": [
        {
          "indexed": true,
          "internalType": "address",
          "name": "account",
          "type": "address"
        },
        {
          "indexed": true,
          "internalType": "uint256",
          "name": "id",
          "type": "uint256"
        },
        {
          "indexed": false,
          "internalType": "uint256",
          "name": "value",
          "type": "uint256"
        }
      ],
      "name": "TokensUnlocked",
      "type": "event"
    },
    {
      "anonymous": false,
      "inputs": [
        {
          "indexed": true,
          "internalType": "address",
          "name": "operator",
          "type": "address"
        },
        {
          "indexed": true,
          "internalType": "address",
          "name": "from",
          "type": "address"
        },
        {
          "indexed": true,
          "internalType": "address",
          "name": "to",
          "type": "address"
        },
        {
          "indexed": false,
          "internalType": "uint256[]",
          "name": "ids",
          "type": "uint256[]"
        },
        {
          "indexed": false,
          "internalType": "uint256[]",
          "name": "values",
          "type": "uint256[]"
        }
      ],
      "name": "TransferBatch",
      "type": "event"
    },
    {
      "anonymous": false,
      "inputs": [
        {
          "indexed": true,
          "internalType": "address",
          "name": "operator",
          "type": "address"
        },
        {
          "indexed": true,
          "internalType": "address",
          "name": "from",
          "type": "address"
        },
        {
          "indexed": true,
          "internalType": "address",
          "name": "to",
          "type": "address"
        },
        {
          "indexed": false,
          "internalType": "uint256",
          "name": "id",
          "type": "uint256"
        },
        {
          "indexed": false,
          "internalType": "uint256",
          "name": "value",
          "type": "uint256"
        }
      ],
      "name": "TransferSingle",
      "type": "event"
    },
    {
      "anonymous": false,
      "inputs": [
        {
          "indexed": false,
          "internalType": "string",
          "name": "value",
          "type": "string"
        },
        {
          "indexed": true,
          "internalType": "uint256",
          "name": "id",
          "type": "uint256"
        }
      ],
      "name": "URI",
      "type": "event"
    },
    {
      "inputs": [
        {
          "internalType": "address",
          "name": "account",
          "type": "address"
        },
        {
          "internalType": "uint256",
          "name": "id",
          "type": "uint256"
        }
      ],
      "name": "balanceOf",
      "outputs": [
        {
          "internalType": "uint256",
          "name": "",
          "type": "uint256"
        }
      ],
      "stateMutability": "view",
      "type": "function"
    },
    {
      "inputs": [
        {
          "internalType": "address[]",
          "name": "accounts",
          "type": "address[]"
        },
        {
          "internalType": "uint256[]",
          "name": "ids",
          "type": "uint256[]"
        }
      ],
      "name": "balanceOfBatch",
      "outputs": [
        {
          "internalType": "uint256[]",
          "name": "",
          "type": "uint256[]"
        }
      ],
      "stateMutability": "view",
      "type": "function"
    },
    {
      "inputs": [
        {
          "internalType": "address",
          "name": "to",
          "type": "address"
        },
        {
          "internalType": "uint256[]",
          "name": "ids",
          "type": "uint256[]"
        },
        {
          "internalType": "uint256[]",
          "name": "amounts",
          "type": "uint256[]"
        },
        {
          "internalType": "bytes",
          "name": "data",
          "type": "bytes"
        }
      ],
      "name": "batchMint",
      "outputs": [],
      "stateMutability": "nonpayable",
      "type": "function"
    },
    {
      "inputs": [
        {
          "internalType": "address",
          "name": "account",
          "type": "address"
        },
        {
          "internalType": "uint256",
          "name": "id",
          "type": "uint256"
        },
        {
          "internalType": "uint256",
          "name": "value",
          "type": "uint256"
        }
      ],
      "name": "burn",
      "outputs": [],
      "stateMutability": "nonpayable",
      "type": "function"
    },
    {
      "inputs": [
        {
          "internalType": "address",
          "name": "account",
          "type": "address"
        },
        {
          "internalType": "uint256[]",
          "name": "ids",
          "type": "uint256[]"
        },
        {
          "internalType": "uint256[]",
          "name": "values",
          "type": "uint256[]"
        }
      ],
      "name": "burnBatch",
      "outputs": [],
      "stateMutability": "nonpayable",
      "type": "function"
    },
    {
      "inputs": [],
      "name": "contractURI",
      "outputs": [
        {
          "internalType": "string",
          "name": "",
          "type": "string"
        }
      ],
      "stateMutability": "view",
      "type": "function"
    },
    {
      "inputs": [
        {
          "internalType": "string",
          "name": "uri_",
          "type": "string"
        },
        {
          "internalType": "string",
          "name": "cURI",
          "type": "string"
        },
        {
          "internalType": "address",
          "name": "accessLayer",
          "type": "address"
        },
        {
          "internalType": "address",
          "name": "owner_",
          "type": "address"
        }
      ],
      "name": "initialize",
      "outputs": [],
      "stateMutability": "nonpayable",
      "type": "function"
    },
    {
      "inputs": [
        {
          "internalType": "address",
          "name": "account",
          "type": "address"
        },
        {
          "internalType": "address",
          "name": "operator",
          "type": "address"
        }
      ],
      "name": "isApprovedForAll",
      "outputs": [
        {
          "internalType": "bool",
          "name": "",
          "type": "bool"
        }
      ],
      "stateMutability": "view",
      "type": "function"
    },
    {
      "inputs": [
        {
          "internalType": "address",
          "name": "account",
          "type": "address"
        },
        {
          "internalType": "uint256",
          "name": "id",
          "type": "uint256"
        },
        {
          "internalType": "uint256",
          "name": "amount",
          "type": "uint256"
        }
      ],
      "name": "lock",
      "outputs": [],
      "stateMutability": "nonpayable",
      "type": "function"
    },
    {
      "inputs": [
        {
          "internalType": "address",
          "name": "to",
          "type": "address"
        },
        {
          "internalType": "uint256",
          "name": "amount",
          "type": "uint256"
        },
        {
          "internalType": "uint256",
          "name": "level",
          "type": "uint256"
        },
        {
          "internalType": "bytes",
          "name": "data",
          "type": "bytes"
        }
      ],
      "name": "mint",
      "outputs": [],
      "stateMutability": "nonpayable",
      "type": "function"
    },
    {
      "inputs": [],
      "name": "owner",
      "outputs": [
        {
          "internalType": "address",
          "name": "",
          "type": "address"
        }
      ],
      "stateMutability": "view",
      "type": "function"
    },
    {
      "inputs": [],
      "name": "renounceOwnership",
      "outputs": [],
      "stateMutability": "nonpayable",
      "type": "function"
    },
    {
      "inputs": [
        {
          "internalType": "address",
          "name": "from",
          "type": "address"
        },
        {
          "internalType": "address",
          "name": "to",
          "type": "address"
        },
        {
          "internalType": "uint256[]",
          "name": "ids",
          "type": "uint256[]"
        },
        {
          "internalType": "uint256[]",
          "name": "values",
          "type": "uint256[]"
        },
        {
          "internalType": "bytes",
          "name": "data",
          "type": "bytes"
        }
      ],
      "name": "safeBatchTransferFrom",
      "outputs": [],
      "stateMutability": "nonpayable",
      "type": "function"
    },
    {
      "inputs": [
        {
          "internalType": "address",
          "name": "from",
          "type": "address"
        },
        {
          "internalType": "address",
          "name": "to",
          "type": "address"
        },
        {
          "internalType": "uint256",
          "name": "id",
          "type": "uint256"
        },
        {
          "internalType": "uint256",
          "name": "value",
          "type": "uint256"
        },
        {
          "internalType": "bytes",
          "name": "data",
          "type": "bytes"
        }
      ],
      "name": "safeTransferFrom",
      "outputs": [],
      "stateMutability": "nonpayable",
      "type": "function"
    },
    {
      "inputs": [
        {
          "internalType": "address",
          "name": "operator",
          "type": "address"
        },
        {
          "internalType": "bool",
          "name": "approved",
          "type": "bool"
        }
      ],
      "name": "setApprovalForAll",
      "outputs": [],
      "stateMutability": "nonpayable",
      "type": "function"
    },
    {
      "inputs": [
        {
          "internalType": "string",
          "name": "uri_",
          "type": "string"
        }
      ],
      "name": "setContractURI",
      "outputs": [],
      "stateMutability": "nonpayable",
      "type": "function"
    },
    {
      "inputs": [
        {
          "internalType": "string",
          "name": "uri_",
          "type": "string"
        }
      ],
      "name": "setURI",
      "outputs": [],
      "stateMutability": "nonpayable",
      "type": "function"
    },
    {
      "inputs": [
        {
          "internalType": "bytes4",
          "name": "interfaceId",
          "type": "bytes4"
        }
      ],
      "name": "supportsInterface",
      "outputs": [
        {
          "internalType": "bool",
          "name": "",
          "type": "bool"
        }
      ],
      "stateMutability": "view",
      "type": "function"
    },
    {
      "inputs": [
        {
          "internalType": "address",
          "name": "newOwner",
          "type": "address"
        }
      ],
      "name": "transferOwnership",
      "outputs": [],
      "stateMutability": "nonpayable",
      "type": "function"
    },
    {
      "inputs": [
        {
          "internalType": "address",
          "name": "account",
          "type": "address"
        },
        {
          "internalType": "uint256",
          "name": "id",
          "type": "uint256"
        },
        {
          "internalType": "uint256",
          "name": "amount",
          "type": "uint256"
        }
      ],
      "name": "unlock",
      "outputs": [],
      "stateMutability": "nonpayable",
      "type": "function"
    },
    {
      "inputs": [
        {
          "internalType": "address",
          "name": "account",
          "type": "address"
        },
        {
          "internalType": "uint256",
          "name": "id",
          "type": "uint256"
        }
      ],
      "name": "unlockedBalanceOf",
      "outputs": [
        {
          "internalType": "uint256",
          "name": "",
          "type": "uint256"
        }
      ],
      "stateMutability": "view",
      "type": "function"
    },
    {
      "inputs": [
        {
          "internalType": "uint256",
          "name": "",
          "type": "uint256"
        }
      ],
      "name": "uri",
      "outputs": [
        {
          "internalType": "string",
          "name": "",
          "type": "string"
        }
      ],
      "stateMutability": "view",
      "type": "function"
    }
  ],
  "transactionHash": "0xc47ee18643fd1b8255aaf11b7be27f37ffe30b4a059b58b9af5a23d3fe3082ce",
  "args": [
    "https://assets.vote4best.app/rank",
    "https://assets.vote4best.app/musicRankToken.json",
    "0x0000000000000000000000000000000000000000",
    "0x6Cf8d74C7875de8C2FfB09228F4bf2A21b25e583"
  ],
  "numDeployments": 1,
  "solcInputHash": "17c510c9b9842b99cfecc5ad3e483348",
  "bytecode": "0x608060405234801561001057600080fd5b5060405161365038038061365083398101604081905261002f91610551565b61003b84848484610044565b50505050610730565b7ff0c57e16840df040f15088dc2f81fe391c3923bec73e23a9662efc9c229c6a00805468010000000000000000810460ff1615906001600160401b031660008115801561008e5750825b90506000826001600160401b031660011480156100aa5750303b155b9050811580156100b8575080155b156100d65760405163f92ee8a960e01b815260040160405180910390fd5b84546001600160401b0319166001178555831561010457845460ff60401b1916680100000000000000001785555b61010d86610229565b6101168961023d565b7fabb1a8240a51bc1a396d93f585b28abbeb62208a7cb4238eab6b9a656a02af26610141898261065c565b50604080516001808252818301909252600091816020015b6040805180820190915260008152606060208201528152602001906001900390816101595790505090506040518060400160405280896001600160a01b0316815260200160405180602001604052806000815250815250816000815181106101c3576101c361071a565b60209081029190910101526101d78161028e565b50831561021e57845460ff60401b19168555604051600181527fc7f505b2f371ae2175ee4913f4499e1f2633a7b5936321eed1cdaeb6115181d29060200160405180910390a15b505050505050505050565b6102316102cb565b61023a8161031b565b50565b7f88be536d5240c274a3b1d3a1be54482fd9caa294f08c62a7cde569f49a3c45007f88be536d5240c274a3b1d3a1be54482fd9caa294f08c62a7cde569f49a3c4502610289838261065c565b505050565b805160005b81811015610289576102c38382815181106102b0576102b061071a565b602002602001015161035a60201b60201c565b600101610293565b7ff0c57e16840df040f15088dc2f81fe391c3923bec73e23a9662efc9c229c6a005468010000000000000000900460ff1661031957604051631afcd79f60e31b815260040160405180910390fd5b565b6103236102cb565b6001600160a01b03811661035157604051631e4fbdf760e01b81526000600482015260240160405180910390fd5b61023a8161040b565b7f650fcebb359486b662eb1b0aa6a1d52f283f87f1ffcacdfb2b58744a08e075ae8054600181018255600082905282517fda2a52c55025b17bec7d5eef42765efcfebc5e19591a1b3d775cf38f4689f236600290920291820180546001600160a01b0319166001600160a01b03909216919091178155602084015184927fda2a52c55025b17bec7d5eef42765efcfebc5e19591a1b3d775cf38f4689f2370190610404908261065c565b5050505050565b7f9016d09d72d40fdae2fd8ceac6b6234c7706214fd39c1cd1e609a0528c19930080546001600160a01b031981166001600160a01b03848116918217845560405192169182907f8be0079c531659141344cd1fd0a4f28419497f9722a3daafe3b4186f6b6457e090600090a3505050565b634e487b7160e01b600052604160045260246000fd5b600082601f8301126104a357600080fd5b81516001600160401b038111156104bc576104bc61047c565b604051601f8201601f19908116603f011681016001600160401b03811182821017156104ea576104ea61047c565b60405281815283820160200185101561050257600080fd5b60005b8281101561052157602081860181015183830182015201610505565b506000918101602001919091529392505050565b80516001600160a01b038116811461054c57600080fd5b919050565b6000806000806080858703121561056757600080fd5b84516001600160401b0381111561057d57600080fd5b61058987828801610492565b602087015190955090506001600160401b038111156105a757600080fd5b6105b387828801610492565b9350506105c260408601610535565b91506105d060608601610535565b905092959194509250565b600181811c908216806105ef57607f821691505b60208210810361060f57634e487b7160e01b600052602260045260246000fd5b50919050565b601f82111561028957806000526020600020601f840160051c8101602085101561063c5750805b601f840160051c820191505b818110156104045760008155600101610648565b81516001600160401b038111156106755761067561047c565b6106898161068384546105db565b84610615565b6020601f8211600181146106bd57600083156106a55750848201515b600019600385901b1c1916600184901b178455610404565b600084815260208120601f198516915b828110156106ed57878501518255602094850194600190920191016106cd565b508482101561070b5786840151600019600387901b60f8161c191681555b50505050600190811b01905550565b634e487b7160e01b600052603260045260246000fd5b612f118061073f6000396000f3fe608060405234801561001057600080fd5b50600436106101815760003560e01c80638f15b414116100d8578063e2ab691d1161008c578063f242432a11610066578063f242432a14610387578063f2fde38b1461039a578063f5298aca146103ad57600080fd5b8063e2ab691d14610311578063e8a3d48514610324578063e985e9c51461032c57600080fd5b8063a22cb465116100bd578063a22cb465146102d8578063b48ab8b6146102eb578063b5674c68146102fe57600080fd5b80638f15b414146102b2578063938e3d7b146102c557600080fd5b8063468b3b331161013a578063715018a611610114578063715018a61461025d578063731133e9146102655780638da5cb5b1461027857600080fd5b8063468b3b33146102175780634e1273f41461022a5780636b20c4541461024a57600080fd5b806302fe53051161016b57806302fe5305146101cf5780630e89341c146101e45780632eb2c2d61461020457600080fd5b8062fdd58e1461018657806301ffc9a7146101ac575b600080fd5b610199610194366004612360565b6103c0565b6040519081526020015b60405180910390f35b6101bf6101ba3660046123a0565b610409565b60405190151581526020016101a3565b6101e26101dd36600461248c565b610447565b005b6101f76101f23660046124c1565b61045b565b6040516101a3919061252a565b6101e26102123660046125c9565b610532565b610199610225366004612360565b6105dc565b61023d61023836600461267f565b61063b565b6040516101a39190612784565b6101e2610258366004612797565b610721565b6101e26107c1565b6101e2610273366004612810565b6107d5565b7f9016d09d72d40fdae2fd8ceac6b6234c7706214fd39c1cd1e609a0528c199300546040516001600160a01b0390911681526020016101a3565b6101e26102c0366004612871565b61081e565b6101e26102d336600461248c565b610a40565b6101e26102e63660046128fb565b610a77565b6101e26102f9366004612937565b610a82565b6101e261030c3660046129c4565b610bed565b6101e261031f3660046129c4565b610c29565b6101f7610c57565b6101bf61033a3660046129f7565b6001600160a01b0391821660009081527f88be536d5240c274a3b1d3a1be54482fd9caa294f08c62a7cde569f49a3c45016020908152604080832093909416825291909152205460ff1690565b6101e2610395366004612a2a565b610d08565b6101e26103a8366004612a83565b610da5565b6101e26103bb3660046129c4565b610df9565b60008181527f88be536d5240c274a3b1d3a1be54482fd9caa294f08c62a7cde569f49a3c4500602090815260408083206001600160a01b03861684529091529020545b92915050565b60006001600160e01b031982167fc79b8b5f000000000000000000000000000000000000000000000000000000001480610403575061040382610e27565b61044f610ec2565b61045881610f36565b50565b7f88be536d5240c274a3b1d3a1be54482fd9caa294f08c62a7cde569f49a3c450280546060917f88be536d5240c274a3b1d3a1be54482fd9caa294f08c62a7cde569f49a3c4500916104ac90612a9e565b80601f01602080910402602001604051908101604052809291908181526020018280546104d890612a9e565b80156105255780601f106104fa57610100808354040283529160200191610525565b820191906000526020600020905b81548152906001019060200180831161050857829003601f168201915b5050505050915050919050565b336001600160a01b038616811480159061059157506001600160a01b0380871660009081527f88be536d5240c274a3b1d3a1be54482fd9caa294f08c62a7cde569f49a3c4501602090815260408083209385168352929052205460ff16155b156105c75760405163711bec9160e11b81526001600160a01b038083166004830152871660248201526044015b60405180910390fd5b6105d48686868686610f82565b505050505050565b6001600160a01b03821660009081527fabb1a8240a51bc1a396d93f585b28abbeb62208a7cb4238eab6b9a656a02af266020818152604080842085855290915282205461062985856103c0565b6106339190612aee565b949350505050565b6060815183511461068557815183516040517f5b059991000000000000000000000000000000000000000000000000000000008152600481019290925260248201526044016105be565b6000835167ffffffffffffffff8111156106a1576106a16123c4565b6040519080825280602002602001820160405280156106ca578160200160208202803683370190505b50905060005b8451811015610719576020808202860101516106f4906020808402870101516103c0565b82828151811061070657610706612b01565b60209081029190910101526001016106d0565b509392505050565b6001600160a01b038316331480159061077d57506001600160a01b03831660009081527f88be536d5240c274a3b1d3a1be54482fd9caa294f08c62a7cde569f49a3c45016020908152604080832033845290915290205460ff16155b156107b157335b60405163711bec9160e11b81526001600160a01b03918216600482015290841660248201526044016105be565b6107bc838383610fe9565b505050565b6107c9610ec2565b6107d3600061102f565b565b6000356001600160e01b031916336000366000806107f686868686866110b8565b90506108048a8a8a8a6111d0565b61081286868686868661131c565b50505050505050505050565b7ff0c57e16840df040f15088dc2f81fe391c3923bec73e23a9662efc9c229c6a00805468010000000000000000810460ff16159067ffffffffffffffff166000811580156108695750825b905060008267ffffffffffffffff1660011480156108865750303b155b905081158015610894575080155b156108cb576040517ff92ee8a900000000000000000000000000000000000000000000000000000000815260040160405180910390fd5b84547fffffffffffffffffffffffffffffffffffffffffffffffff0000000000000000166001178555831561091657845468ff00000000000000001916680100000000000000001785555b61091f866113ae565b61092889610f36565b7fabb1a8240a51bc1a396d93f585b28abbeb62208a7cb4238eab6b9a656a02af266109538982612b5e565b50604080516001808252818301909252600091816020015b60408051808201909152600081526060602082015281526020019060019003908161096b5790505090506040518060400160405280896001600160a01b0316815260200160405180602001604052806000815250815250816000815181106109d5576109d5612b01565b60200260200101819052506109e9816113bf565b508315610a3557845468ff000000000000000019168555604051600181527fc7f505b2f371ae2175ee4913f4499e1f2633a7b5936321eed1cdaeb6115181d29060200160405180910390a15b505050505050505050565b610a48610ec2565b7fabb1a8240a51bc1a396d93f585b28abbeb62208a7cb4238eab6b9a656a02af26610a738282612b5e565b5050565b610a733383836113f6565b6000356001600160e01b03191633600036600080610aa386868686866110b8565b90506001600160a01b038a16610b0a5760405162461bcd60e51b815260206004820152602660248201527f52616e6b546f6b656e2d3e6d696e743a2041646472657373206e6f742073706560448201526518da599a595960d21b60648201526084016105be565b8751600003610b815760405162461bcd60e51b815260206004820152602560248201527f52616e6b546f6b656e2d3e6d696e743a20616d6f756e74206e6f74207370656360448201527f696669656400000000000000000000000000000000000000000000000000000060648201526084016105be565b8851600003610be15760405162461bcd60e51b815260206004820152602660248201527f52616e6b546f6b656e2d3e6d696e743a20706f6f6c206964206e6f742073706560448201526518da599a595960d21b60648201526084016105be565b6108048a8a8a8a6114cb565b6000356001600160e01b03191633600036600080610c0e86868686866110b8565b9050610c1b898989611503565b610a3586868686868661131c565b6000356001600160e01b03191633600036600080610c4a86868686866110b8565b9050610c1b89898961160f565b60607fabb1a8240a51bc1a396d93f585b28abbeb62208a7cb4238eab6b9a656a02af268054610c8590612a9e565b80601f0160208091040260200160405190810160405280929190818152602001828054610cb190612a9e565b8015610cfe5780601f10610cd357610100808354040283529160200191610cfe565b820191906000526020600020905b815481529060010190602001808311610ce157829003601f168201915b5050505050905090565b336001600160a01b0386168114801590610d6757506001600160a01b0380871660009081527f88be536d5240c274a3b1d3a1be54482fd9caa294f08c62a7cde569f49a3c4501602090815260408083209385168352929052205460ff16155b15610d985760405163711bec9160e11b81526001600160a01b038083166004830152871660248201526044016105be565b6105d4868686868661172f565b610dad610ec2565b6001600160a01b038116610df0576040517f1e4fbdf7000000000000000000000000000000000000000000000000000000008152600060048201526024016105be565b6104588161102f565b6000356001600160e01b03191633600036600080610e1a86868686866110b8565b9050610c1b8989896117bd565b60006001600160e01b031982167fd9b67a26000000000000000000000000000000000000000000000000000000001480610e8a57506001600160e01b031982167f0e89341c00000000000000000000000000000000000000000000000000000000145b8061040357507f01ffc9a7000000000000000000000000000000000000000000000000000000006001600160e01b0319831614610403565b33610ef47f9016d09d72d40fdae2fd8ceac6b6234c7706214fd39c1cd1e609a0528c199300546001600160a01b031690565b6001600160a01b0316146107d3576040517f118cdaa70000000000000000000000000000000000000000000000000000000081523360048201526024016105be565b7f88be536d5240c274a3b1d3a1be54482fd9caa294f08c62a7cde569f49a3c45007f88be536d5240c274a3b1d3a1be54482fd9caa294f08c62a7cde569f49a3c45026107bc8382612b5e565b6001600160a01b038416610fac57604051632bfa23e760e11b8152600060048201526024016105be565b6001600160a01b038516610fd557604051626a0d4560e21b8152600060048201526024016105be565b610fe285858585856118a7565b5050505050565b6001600160a01b03831661101257604051626a0d4560e21b8152600060048201526024016105be565b6107bc8360008484604051806020016040528060008152506118a7565b7f9016d09d72d40fdae2fd8ceac6b6234c7706214fd39c1cd1e609a0528c19930080547fffffffffffffffffffffffff000000000000000000000000000000000000000081166001600160a01b03848116918217845560405192169182907f8be0079c531659141344cd1fd0a4f28419497f9722a3daafe3b4186f6b6457e090600090a3505050565b7f650fcebb359486b662eb1b0aa6a1d52f283f87f1ffcacdfb2b58744a08e075ae80546060919060008167ffffffffffffffff8111156110fa576110fa6123c4565b60405190808252806020026020018201604052801561112d57816020015b60608152602001906001900390816111185790505b50905060005b828110156111c35761119e84828154811061115057611150612b01565b90600052602060002090600202018b8b8b8b8080601f0160208091040260200160405190810160405280939291908181526020018383808284376000920191909152508d92506118fa915050565b8282815181106111b0576111b0612b01565b6020908102919091010152600101611133565b5098975050505050505050565b6001600160a01b0384166112355760405162461bcd60e51b815260206004820152602660248201527f52616e6b546f6b656e2d3e6d696e743a2041646472657373206e6f742073706560448201526518da599a595960d21b60648201526084016105be565b826000036112ab5760405162461bcd60e51b815260206004820152602560248201527f52616e6b546f6b656e2d3e6d696e743a20616d6f756e74206e6f74207370656360448201527f696669656400000000000000000000000000000000000000000000000000000060648201526084016105be565b8160000361130a5760405162461bcd60e51b815260206004820152602660248201527f52616e6b546f6b656e2d3e6d696e743a20706f6f6c206964206e6f742073706560448201526518da599a595960d21b60648201526084016105be565b611316848385846119a5565b50505050565b7f650fcebb359486b662eb1b0aa6a1d52f283f87f1ffcacdfb2b58744a08e075ae805460005b81811015610a35576113a6838261135a600186612aee565b6113649190612aee565b8154811061137457611374612b01565b90600052602060002090600202018a8a8a8a8a8a888151811061139957611399612b01565b6020026020010151611a02565b600101611342565b6113b6611a94565b61045881611afb565b805160005b818110156107bc576113ee8382815181106113e1576113e1612b01565b6020026020010151611b03565b6001016113c4565b7f88be536d5240c274a3b1d3a1be54482fd9caa294f08c62a7cde569f49a3c45006001600160a01b03831661145a576040517fced3e100000000000000000000000000000000000000000000000000000000008152600060048201526024016105be565b6001600160a01b038481166000818152600184016020908152604080832094881680845294825291829020805460ff191687151590811790915591519182527f17307eab39ab6107e8899845ad3d59bd9653f200f220920489ca2b5937696c3191015b60405180910390a350505050565b6001600160a01b0384166114f557604051632bfa23e760e11b8152600060048201526024016105be565b6113166000858585856118a7565b6001600160a01b03831660009081527fabb1a8240a51bc1a396d93f585b28abbeb62208a7cb4238eab6b9a656a02af26602081815260408084208685529091529091205482111561159c576001600160a01b038416600090815260208281526040808320868452909152908190205490516331303bbb60e01b8152600481018590526024810191909152604481018390526064016105be565b6001600160a01b038416600090815260208281526040808320868452909152812080548492906115cd908490612aee565b909155505060405182815283906001600160a01b038616907f89882ad382a3742d4db24e4dabc5000c5852aed762904db28442e4e1630a1d07906020016114bd565b6001600160a01b03831660009081527fabb1a8240a51bc1a396d93f585b28abbeb62208a7cb4238eab6b9a656a02af26602081815260408084208685529091529091205461165e908390612c1d565b61166885856103c0565b10156116bc576001600160a01b038416600090815260208281526040808320868452909152908190205490516331303bbb60e01b8152600481018590526024810191909152604481018390526064016105be565b6001600160a01b038416600090815260208281526040808320868452909152812080548492906116ed908490612c1d565b909155505060405182815283906001600160a01b038616907fd741e738a23fd18a03a26522320d9fc6cac1fed483e215ea9150fbc2fc43385d906020016114bd565b6001600160a01b03841661175957604051632bfa23e760e11b8152600060048201526024016105be565b6001600160a01b03851661178257604051626a0d4560e21b8152600060048201526024016105be565b604080516001808252602082018690528183019081526060820185905260808201909252906117b487878484876118a7565b50505050505050565b6117c783836103c0565b817fabb1a8240a51bc1a396d93f585b28abbeb62208a7cb4238eab6b9a656a02af266001600160a01b03861660009081526020918252604080822087835290925220546118149190612c1d565b111561189c578161182584846103c0565b827fabb1a8240a51bc1a396d93f585b28abbeb62208a7cb4238eab6b9a656a02af266001600160a01b03871660009081526020918252604080822088835290925220546118729190612c1d565b6040516331303bbb60e01b81526004810193909352602483019190915260448201526064016105be565b6107bc838383611bc5565b6118b385858585611c37565b6001600160a01b03841615610fe257825133906001036118ec57602084810151908401516118e5838989858589611c43565b50506105d4565b6105d4818787878787611d99565b84546040517f4440d2450000000000000000000000000000000000000000000000000000000081526060916000916001600160a01b0390911690634440d245906119539060018b01908a908a9089908b90600401612cb3565b6000604051808303816000875af1158015611972573d6000803e3d6000fd5b505050506040513d6000823e601f3d908101601f1916820160405261199a9190810190612d09565b979650505050505050565b6001600160a01b0384166119cf57604051632bfa23e760e11b8152600060048201526024016105be565b604080516001808252602082018690528183019081526060820185905260808201909252906105d46000878484876118a7565b86546040517fc3e9576a0000000000000000000000000000000000000000000000000000000081526001600160a01b039091169063c3e9576a90611a599060018b01908a908a9088908b908b908a90600401612d80565b600060405180830381600087803b158015611a7357600080fd5b505af1158015611a87573d6000803e3d6000fd5b5050505050505050505050565b7ff0c57e16840df040f15088dc2f81fe391c3923bec73e23a9662efc9c229c6a005468010000000000000000900460ff166107d3576040517fd7e6bcf800000000000000000000000000000000000000000000000000000000815260040160405180910390fd5b610dad611a94565b7f650fcebb359486b662eb1b0aa6a1d52f283f87f1ffcacdfb2b58744a08e075ae8054600181018255600082905282517fda2a52c55025b17bec7d5eef42765efcfebc5e19591a1b3d775cf38f4689f236600290920291820180547fffffffffffffffffffffffff0000000000000000000000000000000000000000166001600160a01b03909216919091178155602084015184927fda2a52c55025b17bec7d5eef42765efcfebc5e19591a1b3d775cf38f4689f2370190610fe29082612b5e565b6001600160a01b0383163314801590611c2157506001600160a01b03831660009081527f88be536d5240c274a3b1d3a1be54482fd9caa294f08c62a7cde569f49a3c45016020908152604080832033845290915290205460ff16155b15611c2c5733610784565b6107bc838383611eb4565b61131684848484611f1c565b6001600160a01b0384163b156105d4576040517ff23a6e610000000000000000000000000000000000000000000000000000000081526001600160a01b0385169063f23a6e6190611ca09089908990889088908890600401612e05565b6020604051808303816000875af1925050508015611cdb575060408051601f3d908101601f19168201909252611cd891810190612e42565b60015b611d44573d808015611d09576040519150601f19603f3d011682016040523d82523d6000602084013e611d0e565b606091505b508051600003611d3c57604051632bfa23e760e11b81526001600160a01b03861660048201526024016105be565b805181602001fd5b6001600160e01b031981167ff23a6e6100000000000000000000000000000000000000000000000000000000146117b457604051632bfa23e760e11b81526001600160a01b03861660048201526024016105be565b6001600160a01b0384163b156105d4576040517fbc197c810000000000000000000000000000000000000000000000000000000081526001600160a01b0385169063bc197c8190611df69089908990889088908890600401612e5f565b6020604051808303816000875af1925050508015611e31575060408051601f3d908101601f19168201909252611e2e91810190612e42565b60015b611e5f573d808015611d09576040519150601f19603f3d011682016040523d82523d6000602084013e611d0e565b6001600160e01b031981167fbc197c8100000000000000000000000000000000000000000000000000000000146117b457604051632bfa23e760e11b81526001600160a01b03861660048201526024016105be565b6001600160a01b038316611edd57604051626a0d4560e21b8152600060048201526024016105be565b604080516001808252602082018590528183019081526060820184905260a08201909252600060808201818152919291610fe2918791859085906118a7565b60005b82518110156120d0576001600160a01b038516156120c857611f5a85848381518110611f4d57611f4d612b01565b60200260200101516103c0565b828281518110611f6c57611f6c612b01565b6020026020010151611f9b7fabb1a8240a51bc1a396d93f585b28abbeb62208a7cb4238eab6b9a656a02af2690565b6000016000886001600160a01b03166001600160a01b031681526020019081526020016000206000868581518110611fd557611fd5612b01565b6020026020010151815260200190815260200160002054611ff69190612c1d565b11156120c85782818151811061200e5761200e612b01565b602002602001015161202c86858481518110611f4d57611f4d612b01565b83838151811061203e5761203e612b01565b602002602001015161206d7fabb1a8240a51bc1a396d93f585b28abbeb62208a7cb4238eab6b9a656a02af2690565b6000016000896001600160a01b03166001600160a01b0316815260200190815260200160002060008786815181106120a7576120a7612b01565b60200260200101518152602001908152602001600020546118729190612c1d565b600101611f1f565b506113168484848460007f88be536d5240c274a3b1d3a1be54482fd9caa294f08c62a7cde569f49a3c45009050815183511461214557825182516040517f5b059991000000000000000000000000000000000000000000000000000000008152600481019290925260248201526044016105be565b3360005b8451811015612264576020818102868101820151908601909101516001600160a01b03891615612215576000828152602086815260408083206001600160a01b038d168452909152902054818110156121ee576040517f03dee4c50000000000000000000000000000000000000000000000000000000081526001600160a01b038b1660048201526024810182905260448101839052606481018490526084016105be565b6000838152602087815260408083206001600160a01b038e16845290915290209082900390555b6001600160a01b0388161561225a576000828152602086815260408083206001600160a01b038c16845290915281208054839290612254908490612c1d565b90915550505b5050600101612149565b5083516001036122e55760208401516000906020850151909150866001600160a01b0316886001600160a01b0316846001600160a01b03167fc3d58168c5ae7397731d063d5bbf3d657854427343f4c083240f7aacaa2d0f6285856040516122d6929190918252602082015260400190565b60405180910390a450506105d4565b846001600160a01b0316866001600160a01b0316826001600160a01b03167f4a39dc06d4c0dbc64b70af90fd698a233a518aa5d07e595d983b8c0526c8f7fb8787604051612334929190612eb6565b60405180910390a4505050505050565b80356001600160a01b038116811461235b57600080fd5b919050565b6000806040838503121561237357600080fd5b61237c83612344565b946020939093013593505050565b6001600160e01b03198116811461045857600080fd5b6000602082840312156123b257600080fd5b81356123bd8161238a565b9392505050565b634e487b7160e01b600052604160045260246000fd5b604051601f8201601f1916810167ffffffffffffffff81118282101715612403576124036123c4565b604052919050565b600067ffffffffffffffff821115612425576124256123c4565b50601f01601f191660200190565b600082601f83011261244457600080fd5b813560208301600061245d6124588461240b565b6123da565b905082815285838301111561247157600080fd5b82826020830137600092810160200192909252509392505050565b60006020828403121561249e57600080fd5b813567ffffffffffffffff8111156124b557600080fd5b61063384828501612433565b6000602082840312156124d357600080fd5b5035919050565b60005b838110156124f55781810151838201526020016124dd565b50506000910152565b600081518084526125168160208601602086016124da565b601f01601f19169290920160200192915050565b6020815260006123bd60208301846124fe565b600067ffffffffffffffff821115612557576125576123c4565b5060051b60200190565b600082601f83011261257257600080fd5b81356125806124588261253d565b8082825260208201915060208360051b8601019250858311156125a257600080fd5b602085015b838110156125bf5780358352602092830192016125a7565b5095945050505050565b600080600080600060a086880312156125e157600080fd5b6125ea86612344565b94506125f860208701612344565b9350604086013567ffffffffffffffff81111561261457600080fd5b61262088828901612561565b935050606086013567ffffffffffffffff81111561263d57600080fd5b61264988828901612561565b925050608086013567ffffffffffffffff81111561266657600080fd5b61267288828901612433565b9150509295509295909350565b6000806040838503121561269257600080fd5b823567ffffffffffffffff8111156126a957600080fd5b8301601f810185136126ba57600080fd5b80356126c86124588261253d565b8082825260208201915060208360051b8501019250878311156126ea57600080fd5b6020840193505b828410156127135761270284612344565b8252602093840193909101906126f1565b9450505050602083013567ffffffffffffffff81111561273257600080fd5b61273e85828601612561565b9150509250929050565b600081518084526020840193506020830160005b8281101561277a57815186526020958601959091019060010161275c565b5093949350505050565b6020815260006123bd6020830184612748565b6000806000606084860312156127ac57600080fd5b6127b584612344565b9250602084013567ffffffffffffffff8111156127d157600080fd5b6127dd86828701612561565b925050604084013567ffffffffffffffff8111156127fa57600080fd5b61280686828701612561565b9150509250925092565b6000806000806080858703121561282657600080fd5b61282f85612344565b93506020850135925060408501359150606085013567ffffffffffffffff81111561285957600080fd5b61286587828801612433565b91505092959194509250565b6000806000806080858703121561288757600080fd5b843567ffffffffffffffff81111561289e57600080fd5b6128aa87828801612433565b945050602085013567ffffffffffffffff8111156128c757600080fd5b6128d387828801612433565b9350506128e260408601612344565b91506128f060608601612344565b905092959194509250565b6000806040838503121561290e57600080fd5b61291783612344565b91506020830135801515811461292c57600080fd5b809150509250929050565b6000806000806080858703121561294d57600080fd5b61295685612344565b9350602085013567ffffffffffffffff81111561297257600080fd5b61297e87828801612561565b935050604085013567ffffffffffffffff81111561299b57600080fd5b6129a787828801612561565b925050606085013567ffffffffffffffff81111561285957600080fd5b6000806000606084860312156129d957600080fd5b6129e284612344565b95602085013595506040909401359392505050565b60008060408385031215612a0a57600080fd5b612a1383612344565b9150612a2160208401612344565b90509250929050565b600080600080600060a08688031215612a4257600080fd5b612a4b86612344565b9450612a5960208701612344565b93506040860135925060608601359150608086013567ffffffffffffffff81111561266657600080fd5b600060208284031215612a9557600080fd5b6123bd82612344565b600181811c90821680612ab257607f821691505b602082108103612ad257634e487b7160e01b600052602260045260246000fd5b50919050565b634e487b7160e01b600052601160045260246000fd5b8181038181111561040357610403612ad8565b634e487b7160e01b600052603260045260246000fd5b601f8211156107bc57806000526020600020601f840160051c81016020851015612b3e5750805b601f840160051c820191505b81811015610fe25760008155600101612b4a565b815167ffffffffffffffff811115612b7857612b786123c4565b612b8c81612b868454612a9e565b84612b17565b6020601f821160018114612bc05760008315612ba85750848201515b600019600385901b1c1916600184901b178455610fe2565b600084815260208120601f198516915b82811015612bf05787850151825560209485019460019092019101612bd0565b5084821015612c0e5786840151600019600387901b60f8161c191681555b50505050600190811b01905550565b8082018082111561040357610403612ad8565b60008154612c3d81612a9e565b808552600182168015612c575760018114612c7357612caa565b60ff1983166020870152602082151560051b8701019350612caa565b84600052602060002060005b83811015612ca15781546020828a010152600182019150602081019050612c7f565b87016020019450505b50505092915050565b60a081526000612cc660a0830188612c30565b6001600160e01b0319871660208401526001600160a01b03861660408401528460608401528281036080840152612cfd81856124fe565b98975050505050505050565b600060208284031215612d1b57600080fd5b815167ffffffffffffffff811115612d3257600080fd5b8201601f81018413612d4357600080fd5b8051612d516124588261240b565b818152856020838501011115612d6657600080fd5b612d778260208301602086016124da565b95945050505050565b60c081526000612d9360c083018a612c30565b6001600160e01b0319891660208401526001600160a01b0388166040840152866060840152828103608084015284815284866020830137600060208683010152601f19601f8601168101905060208382030160a0840152612df760208201856124fe565b9a9950505050505050505050565b6001600160a01b03861681526001600160a01b038516602082015283604082015282606082015260a06080820152600061199a60a08301846124fe565b600060208284031215612e5457600080fd5b81516123bd8161238a565b6001600160a01b03861681526001600160a01b038516602082015260a060408201526000612e9060a0830186612748565b8281036060840152612ea28186612748565b90508281036080840152612cfd81856124fe565b604081526000612ec96040830185612748565b8281036020840152612d77818561274856fea2646970667358221220d91e01ff870ccc19fdaa676cac8a86733a73f7879da2591ad00c0b9bab43b16b64736f6c634300081c0033",
  "devdoc": {
    "author": "Peersky",
    "errors": {
      "ERC1155InsufficientBalance(address,uint256,uint256,uint256)": [
        {
          "details": "Indicates an error related to the current `balance` of a `sender`. Used in transfers.",
          "params": {
            "balance": "Current balance for the interacting account.",
            "needed": "Minimum amount required to perform a transfer.",
            "sender": "Address whose tokens are being transferred.",
            "tokenId": "Identifier number of a token."
          }
        }
      ],
      "ERC1155InvalidApprover(address)": [
        {
          "details": "Indicates a failure with the `approver` of a token to be approved. Used in approvals.",
          "params": {
            "approver": "Address initiating an approval operation."
          }
        }
      ],
      "ERC1155InvalidArrayLength(uint256,uint256)": [
        {
          "details": "Indicates an array length mismatch between ids and values in a safeBatchTransferFrom operation. Used in batch transfers.",
          "params": {
            "idsLength": "Length of the array of token identifiers",
            "valuesLength": "Length of the array of token amounts"
          }
        }
      ],
      "ERC1155InvalidOperator(address)": [
        {
          "details": "Indicates a failure with the `operator` to be approved. Used in approvals.",
          "params": {
            "operator": "Address that may be allowed to operate on tokens without being their owner."
          }
        }
      ],
      "ERC1155InvalidReceiver(address)": [
        {
          "details": "Indicates a failure with the token `receiver`. Used in transfers.",
          "params": {
            "receiver": "Address to which tokens are being transferred."
          }
        }
      ],
      "ERC1155InvalidSender(address)": [
        {
          "details": "Indicates a failure with the token `sender`. Used in transfers.",
          "params": {
            "sender": "Address whose tokens are being transferred."
          }
        }
      ],
      "ERC1155MissingApprovalForAll(address,address)": [
        {
          "details": "Indicates a failure with the `operator`s approval. Used in transfers.",
          "params": {
            "operator": "Address that may be allowed to operate on tokens without being their owner.",
            "owner": "Address of the current owner of a token."
          }
        }
      ],
      "InvalidInitialization()": [
        {
          "details": "The contract is already initialized."
        }
      ],
      "NotInitializing()": [
        {
          "details": "The contract is not initializing."
        }
      ],
      "OwnableInvalidOwner(address)": [
        {
          "details": "The owner is not a valid owner account. (eg. `address(0)`)"
        }
      ],
      "OwnableUnauthorizedAccount(address)": [
        {
          "details": "The caller account is not authorized to perform an operation."
        }
      ]
    },
    "events": {
      "ApprovalForAll(address,address,bool)": {
        "details": "Emitted when `account` grants or revokes permission to `operator` to transfer their tokens, according to `approved`."
      },
      "Initialized(uint64)": {
        "details": "Triggered when the contract has been initialized or reinitialized."
      },
      "TransferBatch(address,address,address,uint256[],uint256[])": {
        "details": "Equivalent to multiple {TransferSingle} events, where `operator`, `from` and `to` are the same for all transfers."
      },
      "TransferSingle(address,address,address,uint256,uint256)": {
        "details": "Emitted when `value` amount of tokens of type `id` are transferred from `from` to `to` by `operator`."
      },
      "URI(string,uint256)": {
        "details": "Emitted when the URI for token type `id` changes to `value`, if it is a non-programmatic URI. If an {URI} event was emitted for `id`, the standard https://eips.ethereum.org/EIPS/eip-1155#metadata-extensions[guarantees] that `value` will equal the value returned by {IERC1155MetadataURI-uri}."
      }
    },
    "kind": "dev",
    "methods": {
      "balanceOf(address,uint256)": {
        "details": "See {IERC1155-balanceOf}."
      },
      "balanceOfBatch(address[],uint256[])": {
        "details": "See {IERC1155-balanceOfBatch}. Requirements: - `accounts` and `ids` must have the same length."
      },
      "batchMint(address,uint256[],uint256[],bytes)": {
        "details": "Mints specified amounts of tokens to an account. `to` is the address of the account to mint the tokens to. `ids` is the array of IDs of the tokens to mint. `amounts` is the array of amounts of tokens to mint. `data` is the additional data."
      },
      "isApprovedForAll(address,address)": {
        "details": "See {IERC1155-isApprovedForAll}."
      },
      "owner()": {
        "details": "Returns the address of the current owner."
      },
      "renounceOwnership()": {
        "details": "Leaves the contract without owner. It will not be possible to call `onlyOwner` functions. Can only be called by the current owner. NOTE: Renouncing ownership will leave the contract without an owner, thereby disabling any functionality that is only available to the owner."
      },
      "safeBatchTransferFrom(address,address,uint256[],uint256[],bytes)": {
        "details": "See {IERC1155-safeBatchTransferFrom}."
      },
      "safeTransferFrom(address,address,uint256,uint256,bytes)": {
        "details": "See {IERC1155-safeTransferFrom}."
      },
      "setApprovalForAll(address,bool)": {
        "details": "See {IERC1155-setApprovalForAll}."
      },
      "transferOwnership(address)": {
        "details": "Transfers ownership of the contract to a new account (`newOwner`). Can only be called by the current owner."
      },
      "unlockedBalanceOf(address,uint256)": {
        "details": "Returns the unlocked balance of a specific ERC1155 token for an account. The unlocked balance is calculated by subtracting the locked amount from the total balance.",
        "params": {
          "account": "The address of the account.",
          "id": "The ID of the ERC1155 token."
        },
        "returns": {
          "_0": "The unlocked balance of the ERC1155 token for the account."
        }
      },
      "uri(uint256)": {
        "details": "See {IERC1155MetadataURI-uri}. This implementation returns the same URI for *all* token types. It relies on the token type ID substitution mechanism https://eips.ethereum.org/EIPS/eip-1155#metadata[defined in the ERC]. Clients calling this function must replace the `\\{id\\}` substring with the actual token type ID."
      }
    },
    "title": "RankToken",
    "version": 1
  },
  "userdoc": {
    "kind": "user",
    "methods": {},
    "notice": "RankToken is a composite ERC1155 token that is used to track user ranks",
    "version": 1
  },
  "storageLayout": {
    "storage": [],
    "types": null
  }
}