{
  "address": "0x21C68Aa0be617ebE09138d185BF2ff804131A8da",
  "abi": [
    {
      "inputs": [
        {
          "internalType": "address",
          "name": "owner",
          "type": "address"
        }
      ],
      "stateMutability": "nonpayable",
      "type": "constructor"
    },
    {
      "inputs": [],
      "name": "CheckpointUnorderedInsertion",
      "type": "error"
    },
    {
      "inputs": [],
      "name": "ECDSAInvalidSignature",
      "type": "error"
    },
    {
      "inputs": [
        {
          "internalType": "uint256",
          "name": "length",
          "type": "uint256"
        }
      ],
      "name": "ECDSAInvalidSignatureLength",
      "type": "error"
    },
    {
      "inputs": [
        {
          "internalType": "bytes32",
          "name": "s",
          "type": "bytes32"
        }
      ],
      "name": "ECDSAInvalidSignatureS",
      "type": "error"
    },
    {
      "inputs": [
        {
          "internalType": "uint256",
          "name": "increasedSupply",
          "type": "uint256"
        },
        {
          "internalType": "uint256",
          "name": "cap",
          "type": "uint256"
        }
      ],
      "name": "ERC20ExceededCap",
      "type": "error"
    },
    {
      "inputs": [
        {
          "internalType": "uint256",
          "name": "increasedSupply",
          "type": "uint256"
        },
        {
          "internalType": "uint256",
          "name": "cap",
          "type": "uint256"
        }
      ],
      "name": "ERC20ExceededSafeSupply",
      "type": "error"
    },
    {
      "inputs": [
        {
          "internalType": "address",
          "name": "spender",
          "type": "address"
        },
        {
          "internalType": "uint256",
          "name": "allowance",
          "type": "uint256"
        },
        {
          "internalType": "uint256",
          "name": "needed",
          "type": "uint256"
        }
      ],
      "name": "ERC20InsufficientAllowance",
      "type": "error"
    },
    {
      "inputs": [
        {
          "internalType": "address",
          "name": "sender",
          "type": "address"
        },
        {
          "internalType": "uint256",
          "name": "balance",
          "type": "uint256"
        },
        {
          "internalType": "uint256",
          "name": "needed",
          "type": "uint256"
        }
      ],
      "name": "ERC20InsufficientBalance",
      "type": "error"
    },
    {
      "inputs": [
        {
          "internalType": "address",
          "name": "approver",
          "type": "address"
        }
      ],
      "name": "ERC20InvalidApprover",
      "type": "error"
    },
    {
      "inputs": [
        {
          "internalType": "uint256",
          "name": "cap",
          "type": "uint256"
        }
      ],
      "name": "ERC20InvalidCap",
      "type": "error"
    },
    {
      "inputs": [
        {
          "internalType": "address",
          "name": "receiver",
          "type": "address"
        }
      ],
      "name": "ERC20InvalidReceiver",
      "type": "error"
    },
    {
      "inputs": [
        {
          "internalType": "address",
          "name": "sender",
          "type": "address"
        }
      ],
      "name": "ERC20InvalidSender",
      "type": "error"
    },
    {
      "inputs": [
        {
          "internalType": "address",
          "name": "spender",
          "type": "address"
        }
      ],
      "name": "ERC20InvalidSpender",
      "type": "error"
    },
    {
      "inputs": [
        {
          "internalType": "uint256",
          "name": "timepoint",
          "type": "uint256"
        },
        {
          "internalType": "uint48",
          "name": "clock",
          "type": "uint48"
        }
      ],
      "name": "ERC5805FutureLookup",
      "type": "error"
    },
    {
      "inputs": [],
      "name": "ERC6372InconsistentClock",
      "type": "error"
    },
    {
      "inputs": [
        {
          "internalType": "address",
          "name": "account",
          "type": "address"
        },
        {
          "internalType": "uint256",
          "name": "currentNonce",
          "type": "uint256"
        }
      ],
      "name": "InvalidAccountNonce",
      "type": "error"
    },
    {
      "inputs": [],
      "name": "InvalidShortString",
      "type": "error"
    },
    {
      "inputs": [
        {
          "internalType": "address",
          "name": "owner",
          "type": "address"
        }
      ],
      "name": "OwnableInvalidOwner",
      "type": "error"
    },
    {
      "inputs": [
        {
          "internalType": "address",
          "name": "account",
          "type": "address"
        }
      ],
      "name": "OwnableUnauthorizedAccount",
      "type": "error"
    },
    {
      "inputs": [
        {
          "internalType": "uint8",
          "name": "bits",
          "type": "uint8"
        },
        {
          "internalType": "uint256",
          "name": "value",
          "type": "uint256"
        }
      ],
      "name": "SafeCastOverflowedUintDowncast",
      "type": "error"
    },
    {
      "inputs": [
        {
          "internalType": "string",
          "name": "str",
          "type": "string"
        }
      ],
      "name": "StringTooLong",
      "type": "error"
    },
    {
      "inputs": [
        {
          "internalType": "uint256",
          "name": "expiry",
          "type": "uint256"
        }
      ],
      "name": "VotesExpiredSignature",
      "type": "error"
    },
    {
      "anonymous": false,
      "inputs": [
        {
          "indexed": true,
          "internalType": "address",
          "name": "owner",
          "type": "address"
        },
        {
          "indexed": true,
          "internalType": "address",
          "name": "spender",
          "type": "address"
        },
        {
          "indexed": false,
          "internalType": "uint256",
          "name": "value",
          "type": "uint256"
        }
      ],
      "name": "Approval",
      "type": "event"
    },
    {
      "anonymous": false,
      "inputs": [
        {
          "indexed": true,
          "internalType": "address",
          "name": "delegator",
          "type": "address"
        },
        {
          "indexed": true,
          "internalType": "address",
          "name": "fromDelegate",
          "type": "address"
        },
        {
          "indexed": true,
          "internalType": "address",
          "name": "toDelegate",
          "type": "address"
        }
      ],
      "name": "DelegateChanged",
      "type": "event"
    },
    {
      "anonymous": false,
      "inputs": [
        {
          "indexed": true,
          "internalType": "address",
          "name": "delegate",
          "type": "address"
        },
        {
          "indexed": false,
          "internalType": "uint256",
          "name": "previousVotes",
          "type": "uint256"
        },
        {
          "indexed": false,
          "internalType": "uint256",
          "name": "newVotes",
          "type": "uint256"
        }
      ],
      "name": "DelegateVotesChanged",
      "type": "event"
    },
    {
      "anonymous": false,
      "inputs": [],
      "name": "EIP712DomainChanged",
      "type": "event"
    },
    {
      "anonymous": false,
      "inputs": [
        {
          "indexed": true,
          "internalType": "address",
          "name": "previousOwner",
          "type": "address"
        },
        {
          "indexed": true,
          "internalType": "address",
          "name": "newOwner",
          "type": "address"
        }
      ],
      "name": "OwnershipTransferred",
      "type": "event"
    },
    {
      "anonymous": false,
      "inputs": [
        {
          "indexed": true,
          "internalType": "address",
          "name": "from",
          "type": "address"
        },
        {
          "indexed": true,
          "internalType": "address",
          "name": "to",
          "type": "address"
        },
        {
          "indexed": false,
          "internalType": "uint256",
          "name": "value",
          "type": "uint256"
        }
      ],
      "name": "Transfer",
      "type": "event"
    },
    {
      "inputs": [],
      "name": "CLOCK_MODE",
      "outputs": [
        {
          "internalType": "string",
          "name": "",
          "type": "string"
        }
      ],
      "stateMutability": "view",
      "type": "function"
    },
    {
      "inputs": [
        {
          "internalType": "address",
          "name": "owner",
          "type": "address"
        },
        {
          "internalType": "address",
          "name": "spender",
          "type": "address"
        }
      ],
      "name": "allowance",
      "outputs": [
        {
          "internalType": "uint256",
          "name": "",
          "type": "uint256"
        }
      ],
      "stateMutability": "view",
      "type": "function"
    },
    {
      "inputs": [
        {
          "internalType": "address",
          "name": "spender",
          "type": "address"
        },
        {
          "internalType": "uint256",
          "name": "value",
          "type": "uint256"
        }
      ],
      "name": "approve",
      "outputs": [
        {
          "internalType": "bool",
          "name": "",
          "type": "bool"
        }
      ],
      "stateMutability": "nonpayable",
      "type": "function"
    },
    {
      "inputs": [
        {
          "internalType": "address",
          "name": "account",
          "type": "address"
        }
      ],
      "name": "balanceOf",
      "outputs": [
        {
          "internalType": "uint256",
          "name": "",
          "type": "uint256"
        }
      ],
      "stateMutability": "view",
      "type": "function"
    },
    {
      "inputs": [
        {
          "internalType": "uint256",
          "name": "value",
          "type": "uint256"
        }
      ],
      "name": "burn",
      "outputs": [],
      "stateMutability": "nonpayable",
      "type": "function"
    },
    {
      "inputs": [
        {
          "internalType": "address",
          "name": "account",
          "type": "address"
        },
        {
          "internalType": "uint256",
          "name": "value",
          "type": "uint256"
        }
      ],
      "name": "burnFrom",
      "outputs": [],
      "stateMutability": "nonpayable",
      "type": "function"
    },
    {
      "inputs": [],
      "name": "cap",
      "outputs": [
        {
          "internalType": "uint256",
          "name": "",
          "type": "uint256"
        }
      ],
      "stateMutability": "view",
      "type": "function"
    },
    {
      "inputs": [
        {
          "internalType": "address",
          "name": "account",
          "type": "address"
        },
        {
          "internalType": "uint32",
          "name": "pos",
          "type": "uint32"
        }
      ],
      "name": "checkpoints",
      "outputs": [
        {
          "components": [
            {
              "internalType": "uint48",
              "name": "_key",
              "type": "uint48"
            },
            {
              "internalType": "uint208",
              "name": "_value",
              "type": "uint208"
            }
          ],
          "internalType": "struct Checkpoints.Checkpoint208",
          "name": "",
          "type": "tuple"
        }
      ],
      "stateMutability": "view",
      "type": "function"
    },
    {
      "inputs": [],
      "name": "clock",
      "outputs": [
        {
          "internalType": "uint48",
          "name": "",
          "type": "uint48"
        }
      ],
      "stateMutability": "view",
      "type": "function"
    },
    {
      "inputs": [],
      "name": "decimals",
      "outputs": [
        {
          "internalType": "uint8",
          "name": "",
          "type": "uint8"
        }
      ],
      "stateMutability": "view",
      "type": "function"
    },
    {
      "inputs": [
        {
          "internalType": "address",
          "name": "delegatee",
          "type": "address"
        }
      ],
      "name": "delegate",
      "outputs": [],
      "stateMutability": "nonpayable",
      "type": "function"
    },
    {
      "inputs": [
        {
          "internalType": "address",
          "name": "delegatee",
          "type": "address"
        },
        {
          "internalType": "uint256",
          "name": "nonce",
          "type": "uint256"
        },
        {
          "internalType": "uint256",
          "name": "expiry",
          "type": "uint256"
        },
        {
          "internalType": "uint8",
          "name": "v",
          "type": "uint8"
        },
        {
          "internalType": "bytes32",
          "name": "r",
          "type": "bytes32"
        },
        {
          "internalType": "bytes32",
          "name": "s",
          "type": "bytes32"
        }
      ],
      "name": "delegateBySig",
      "outputs": [],
      "stateMutability": "nonpayable",
      "type": "function"
    },
    {
      "inputs": [
        {
          "internalType": "address",
          "name": "account",
          "type": "address"
        }
      ],
      "name": "delegates",
      "outputs": [
        {
          "internalType": "address",
          "name": "",
          "type": "address"
        }
      ],
      "stateMutability": "view",
      "type": "function"
    },
    {
      "inputs": [],
      "name": "eip712Domain",
      "outputs": [
        {
          "internalType": "bytes1",
          "name": "fields",
          "type": "bytes1"
        },
        {
          "internalType": "string",
          "name": "name",
          "type": "string"
        },
        {
          "internalType": "string",
          "name": "version",
          "type": "string"
        },
        {
          "internalType": "uint256",
          "name": "chainId",
          "type": "uint256"
        },
        {
          "internalType": "address",
          "name": "verifyingContract",
          "type": "address"
        },
        {
          "internalType": "bytes32",
          "name": "salt",
          "type": "bytes32"
        },
        {
          "internalType": "uint256[]",
          "name": "extensions",
          "type": "uint256[]"
        }
      ],
      "stateMutability": "view",
      "type": "function"
    },
    {
      "inputs": [
        {
          "internalType": "uint256",
          "name": "timepoint",
          "type": "uint256"
        }
      ],
      "name": "getPastTotalSupply",
      "outputs": [
        {
          "internalType": "uint256",
          "name": "",
          "type": "uint256"
        }
      ],
      "stateMutability": "view",
      "type": "function"
    },
    {
      "inputs": [
        {
          "internalType": "address",
          "name": "account",
          "type": "address"
        },
        {
          "internalType": "uint256",
          "name": "timepoint",
          "type": "uint256"
        }
      ],
      "name": "getPastVotes",
      "outputs": [
        {
          "internalType": "uint256",
          "name": "",
          "type": "uint256"
        }
      ],
      "stateMutability": "view",
      "type": "function"
    },
    {
      "inputs": [
        {
          "internalType": "address",
          "name": "account",
          "type": "address"
        }
      ],
      "name": "getVotes",
      "outputs": [
        {
          "internalType": "uint256",
          "name": "",
          "type": "uint256"
        }
      ],
      "stateMutability": "view",
      "type": "function"
    },
    {
      "inputs": [
        {
          "internalType": "address",
          "name": "to",
          "type": "address"
        },
        {
          "internalType": "uint256",
          "name": "amount",
          "type": "uint256"
        }
      ],
      "name": "mint",
      "outputs": [],
      "stateMutability": "nonpayable",
      "type": "function"
    },
    {
      "inputs": [],
      "name": "name",
      "outputs": [
        {
          "internalType": "string",
          "name": "",
          "type": "string"
        }
      ],
      "stateMutability": "view",
      "type": "function"
    },
    {
      "inputs": [
        {
          "internalType": "address",
          "name": "owner",
          "type": "address"
        }
      ],
      "name": "nonces",
      "outputs": [
        {
          "internalType": "uint256",
          "name": "",
          "type": "uint256"
        }
      ],
      "stateMutability": "view",
      "type": "function"
    },
    {
      "inputs": [
        {
          "internalType": "address",
          "name": "account",
          "type": "address"
        }
      ],
      "name": "numCheckpoints",
      "outputs": [
        {
          "internalType": "uint32",
          "name": "",
          "type": "uint32"
        }
      ],
      "stateMutability": "view",
      "type": "function"
    },
    {
      "inputs": [],
      "name": "owner",
      "outputs": [
        {
          "internalType": "address",
          "name": "",
          "type": "address"
        }
      ],
      "stateMutability": "view",
      "type": "function"
    },
    {
      "inputs": [],
      "name": "renounceOwnership",
      "outputs": [],
      "stateMutability": "nonpayable",
      "type": "function"
    },
    {
      "inputs": [],
      "name": "symbol",
      "outputs": [
        {
          "internalType": "string",
          "name": "",
          "type": "string"
        }
      ],
      "stateMutability": "view",
      "type": "function"
    },
    {
      "inputs": [],
      "name": "totalSupply",
      "outputs": [
        {
          "internalType": "uint256",
          "name": "",
          "type": "uint256"
        }
      ],
      "stateMutability": "view",
      "type": "function"
    },
    {
      "inputs": [
        {
          "internalType": "address",
          "name": "to",
          "type": "address"
        },
        {
          "internalType": "uint256",
          "name": "value",
          "type": "uint256"
        }
      ],
      "name": "transfer",
      "outputs": [
        {
          "internalType": "bool",
          "name": "",
          "type": "bool"
        }
      ],
      "stateMutability": "nonpayable",
      "type": "function"
    },
    {
      "inputs": [
        {
          "internalType": "address",
          "name": "from",
          "type": "address"
        },
        {
          "internalType": "address",
          "name": "to",
          "type": "address"
        },
        {
          "internalType": "uint256",
          "name": "value",
          "type": "uint256"
        }
      ],
      "name": "transferFrom",
      "outputs": [
        {
          "internalType": "bool",
          "name": "",
          "type": "bool"
        }
      ],
      "stateMutability": "nonpayable",
      "type": "function"
    },
    {
      "inputs": [
        {
          "internalType": "address",
          "name": "newOwner",
          "type": "address"
        }
      ],
      "name": "transferOwnership",
      "outputs": [],
      "stateMutability": "nonpayable",
      "type": "function"
    }
  ],
  "transactionHash": "0x1cdd2022b4a6e5a16ad3cc77ab583de6f76dab659907d8bfa79b0d42a29fd2fc",
  "args": [
    "0x6Cf8d74C7875de8C2FfB09228F4bf2A21b25e583"
  ],
  "numDeployments": 1,
  "bytecode": "0x61018060405234801561001157600080fd5b5060405161263838038061263883398101604081905261003091610291565b806040518060400160405280600c81526020016b2930b735b4b33caa37b5b2b760a11b815250604051806040016040528060068152602001650302e31322e360d41b8152506040518060400160405280600781526020016652616e6b69667960c81b8152506040518060400160405280600381526020016252465960e81b81525081600390816100c09190610360565b5060046100cd8282610360565b506100dd915083905060056101ce565b610120526100ec8160066101ce565b61014052815160208084019190912060e052815190820120610100524660a05261017960e05161010051604080517f8b73c3c69bb8fe3d512ecc4cf759cc79239f7b179b0ffacaa9a75d522b39400f60208201529081019290925260608201524660808201523060a082015260009060c00160405160208183030381529060405280519060200120905090565b60805250503060c0526001600160a01b0381166101b157604051631e4fbdf760e01b8152600060048201526024015b60405180910390fd5b6101ba81610201565b5050670de0b6b3a764000061016052610490565b60006020835110156101ea576101e383610253565b90506101fb565b816101f58482610360565b5060ff90505b92915050565b600b80546001600160a01b038381166001600160a01b0319831681179093556040519116919082907f8be0079c531659141344cd1fd0a4f28419497f9722a3daafe3b4186f6b6457e090600090a35050565b600080829050601f8151111561027e578260405163305a27a960e01b81526004016101a8919061041e565b80516102898261046c565b179392505050565b6000602082840312156102a357600080fd5b81516001600160a01b03811681146102ba57600080fd5b9392505050565b634e487b7160e01b600052604160045260246000fd5b600181811c908216806102eb57607f821691505b60208210810361030b57634e487b7160e01b600052602260045260246000fd5b50919050565b601f82111561035b57806000526020600020601f840160051c810160208510156103385750805b601f840160051c820191505b818110156103585760008155600101610344565b50505b505050565b81516001600160401b03811115610379576103796102c1565b61038d8161038784546102d7565b84610311565b6020601f8211600181146103c157600083156103a95750848201515b600019600385901b1c1916600184901b178455610358565b600084815260208120601f198516915b828110156103f157878501518255602094850194600190920191016103d1565b508482101561040f5786840151600019600387901b60f8161c191681555b50505050600190811b01905550565b602081526000825180602084015260005b8181101561044c576020818601810151604086840101520161042f565b506000604082850101526040601f19601f83011684010191505092915050565b8051602080830151919081101561030b5760001960209190910360031b1b16919050565b60805160a05160c05160e0516101005161012051610140516101605161213c6104fc60003960008181610240015261103601526000610d9701526000610d6a015260006115e0015260006115b8015260006115130152600061153d01526000611567015261213c6000f3fe608060405234801561001057600080fd5b50600436106101c45760003560e01c8063715018a6116100f957806395d89b4111610097578063c3cda52011610071578063c3cda5201461041f578063dd62ed3e14610432578063f1127ed81461046b578063f2fde38b146104aa57600080fd5b806395d89b41146103f15780639ab24eb0146103f9578063a9059cbb1461040c57600080fd5b806384b0196e116100d357806384b0196e146103935780638da5cb5b146103ae5780638e539e8c146103bf57806391ddadf4146103d257600080fd5b8063715018a61461034f57806379cc6790146103575780637ecebe001461036a57600080fd5b806340c10f1911610166578063587cde1e11610140578063587cde1e146102a75780635c19a95c146102eb5780636fcfff45146102fe57806370a082311461032657600080fd5b806340c10f191461027757806342966c681461028c5780634bf5d7e91461029f57600080fd5b806323b872dd116101a257806323b872dd1461021c578063313ce5671461022f578063355274ea1461023e5780633a46b1a81461026457600080fd5b806306fdde03146101c9578063095ea7b3146101e757806318160ddd1461020a575b600080fd5b6101d16104bd565b6040516101de9190611d9d565b60405180910390f35b6101fa6101f5366004611dcc565b61054f565b60405190151581526020016101de565b6002545b6040519081526020016101de565b6101fa61022a366004611df6565b610569565b604051600981526020016101de565b7f000000000000000000000000000000000000000000000000000000000000000061020e565b61020e610272366004611dcc565b61058d565b61028a610285366004611dcc565b6105c9565b005b61028a61029a366004611e33565b6105df565b6101d16105ec565b6102d36102b5366004611e4c565b6001600160a01b039081166000908152600860205260409020541690565b6040516001600160a01b0390911681526020016101de565b61028a6102f9366004611e4c565b61067d565b61031161030c366004611e4c565b610688565b60405163ffffffff90911681526020016101de565b61020e610334366004611e4c565b6001600160a01b031660009081526020819052604090205490565b61028a610693565b61028a610365366004611dcc565b6106a7565b61020e610378366004611e4c565b6001600160a01b031660009081526007602052604090205490565b61039b6106bc565b6040516101de9796959493929190611e67565b600b546001600160a01b03166102d3565b61020e6103cd366004611e33565b61071e565b6103da610743565b60405165ffffffffffff90911681526020016101de565b6101d1610752565b61020e610407366004611e4c565b610761565b6101fa61041a366004611dcc565b610782565b61028a61042d366004611f1b565b610790565b61020e610440366004611f7b565b6001600160a01b03918216600090815260016020908152604080832093909416825291909152205490565b61047e610479366004611fae565b61086b565b60408051825165ffffffffffff1681526020928301516001600160d01b031692810192909252016101de565b61028a6104b8366004611e4c565b610890565b6060600380546104cc90611fee565b80601f01602080910402602001604051908101604052809291908181526020018280546104f890611fee565b80156105455780601f1061051a57610100808354040283529160200191610545565b820191906000526020600020905b81548152906001019060200180831161052857829003601f168201915b5050505050905090565b60003361055d8185856108e4565b60019150505b92915050565b6000336105778582856108f6565b6105828585856109ac565b506001949350505050565b60006105b961059b83610a3d565b6001600160a01b038516600090815260096020526040902090610aa5565b6001600160d01b03169392505050565b6105d1610b5e565b6105db8282610ba4565b5050565b6105e93382610bf3565b50565b60606105f6610c42565b65ffffffffffff16610606610743565b65ffffffffffff1614610645576040517f6ff0714000000000000000000000000000000000000000000000000000000000815260040160405180910390fd5b5060408051808201909152601d81527f6d6f64653d626c6f636b6e756d6265722666726f6d3d64656661756c74000000602082015290565b336105db8183610c4d565b600061056382610cd7565b61069b610b5e565b6106a56000610cf9565b565b6106b28233836108f6565b6105db8282610bf3565b6000606080600080600060606106d0610d63565b6106d8610d90565b604080516000808252602082019092527f0f000000000000000000000000000000000000000000000000000000000000009b939a50919850469750309650945092509050565b600061073461072c83610a3d565b600a90610aa5565b6001600160d01b031692915050565b600061074d610c42565b905090565b6060600480546104cc90611fee565b6001600160a01b038116600090815260096020526040812061073490610dbd565b60003361055d8185856109ac565b834211156107d2576040517f4683af0e000000000000000000000000000000000000000000000000000000008152600481018590526024015b60405180910390fd5b604080517fe48329057bfd03d55e49b547132e39cffd9c1820ad7b9d4c5307691425d15adf60208201526001600160a01b03881691810191909152606081018690526080810185905260009061084c906108449060a00160405160208183030381529060405280519060200120610df9565b858585610e41565b90506108588187610e6f565b6108628188610c4d565b50505050505050565b60408051808201909152600080825260208201526108898383610edb565b9392505050565b610898610b5e565b6001600160a01b0381166108db576040517f1e4fbdf7000000000000000000000000000000000000000000000000000000008152600060048201526024016107c9565b6105e981610cf9565b6108f18383836001610f11565b505050565b6001600160a01b038381166000908152600160209081526040808320938616835292905220547fffffffffffffffffffffffffffffffffffffffffffffffffffffffffffffffff8110156109a65781811015610997576040517ffb8f41b20000000000000000000000000000000000000000000000000000000081526001600160a01b038416600482015260248101829052604481018390526064016107c9565b6109a684848484036000610f11565b50505050565b6001600160a01b0383166109ef576040517f96c6fd1e000000000000000000000000000000000000000000000000000000008152600060048201526024016107c9565b6001600160a01b038216610a32576040517fec442f05000000000000000000000000000000000000000000000000000000008152600060048201526024016107c9565b6108f1838383611018565b600080610a48610743565b90508065ffffffffffff168310610a9c576040517fecd3f81e0000000000000000000000000000000000000000000000000000000081526004810184905265ffffffffffff821660248201526044016107c9565b610889836110a1565b815460009081816005811115610b04576000610ac0846110d8565b610aca908561203e565b60008881526020902090915081015465ffffffffffff9081169087161015610af457809150610b02565b610aff816001612051565b92505b505b6000610b128787858561123e565b90508015610b5057610b3787610b2960018461203e565b600091825260209091200190565b54660100000000000090046001600160d01b0316610b53565b60005b979650505050505050565b600b546001600160a01b031633146106a5576040517f118cdaa70000000000000000000000000000000000000000000000000000000081523360048201526024016107c9565b6001600160a01b038216610be7576040517fec442f05000000000000000000000000000000000000000000000000000000008152600060048201526024016107c9565b6105db60008383611018565b6001600160a01b038216610c36576040517f96c6fd1e000000000000000000000000000000000000000000000000000000008152600060048201526024016107c9565b6105db82600083611018565b600061074d436110a1565b6001600160a01b0382811660008181526008602052604080822080548686167fffffffffffffffffffffffff0000000000000000000000000000000000000000821681179092559151919094169392849290917f3134e8a2e6d97e929a7e54011ea5485d7d196dd5f0ba4d4ef95803e8e3fc257f9190a46108f18183610cd2866112a0565b6112be565b6001600160a01b0381166000908152600960205260408120546105639061142a565b600b80546001600160a01b038381167fffffffffffffffffffffffff0000000000000000000000000000000000000000831681179093556040519116919082907f8be0079c531659141344cd1fd0a4f28419497f9722a3daafe3b4186f6b6457e090600090a35050565b606061074d7f0000000000000000000000000000000000000000000000000000000000000000600561145b565b606061074d7f0000000000000000000000000000000000000000000000000000000000000000600661145b565b80546000908015610df057610dd783610b2960018461203e565b54660100000000000090046001600160d01b0316610889565b60009392505050565b6000610563610e06611506565b836040517f19010000000000000000000000000000000000000000000000000000000000008152600281019290925260228201526042902090565b600080600080610e5388888888611631565b925092509250610e638282611700565b50909695505050505050565b6001600160a01b03821660009081526007602052604090208054600181019091558181146108f1576040517f752d88c00000000000000000000000000000000000000000000000000000000081526001600160a01b0384166004820152602481018290526044016107c9565b60408051808201909152600080825260208201526001600160a01b03831660009081526009602052604090206108899083611804565b6001600160a01b038416610f54576040517fe602df05000000000000000000000000000000000000000000000000000000008152600060048201526024016107c9565b6001600160a01b038316610f97576040517f94280d62000000000000000000000000000000000000000000000000000000008152600060048201526024016107c9565b6001600160a01b03808516600090815260016020908152604080832093871683529290522082905580156109a657826001600160a01b0316846001600160a01b03167f8c5be1e5ebec7d5bd14f71427d1e84f3dd0314c0f7b2291e5b200ac8c7c3b9258460405161100a91815260200190565b60405180910390a350505050565b611023838383611877565b6001600160a01b0383166108f1576002547f0000000000000000000000000000000000000000000000000000000000000000908181111561109a576040517f9e79f85400000000000000000000000000000000000000000000000000000000815260048101829052602481018390526044016107c9565b5050505050565b600065ffffffffffff8211156110d4576040516306dfcc6560e41b815260306004820152602481018390526044016107c9565b5090565b6000600182116110e6575090565b816001700100000000000000000000000000000000821061110c5760809190911c9060401b5b6801000000000000000082106111275760409190911c9060201b5b640100000000821061113e5760209190911c9060101b5b6201000082106111535760109190911c9060081b5b61010082106111675760089190911c9060041b5b6010821061117a5760049190911c9060021b5b600482106111865760011b5b600302600190811c9081858161119e5761119e612064565b048201901c905060018185816111b6576111b6612064565b048201901c905060018185816111ce576111ce612064565b048201901c905060018185816111e6576111e6612064565b048201901c905060018185816111fe576111fe612064565b048201901c9050600181858161121657611216612064565b048201901c905061123581858161122f5761122f612064565b04821190565b90039392505050565b60005b8183101561129857600061125584846118f7565b60008781526020902090915065ffffffffffff86169082015465ffffffffffff16111561128457809250611292565b61128f816001612051565b93505b50611241565b509392505050565b6001600160a01b038116600090815260208190526040812054610563565b816001600160a01b0316836001600160a01b0316141580156112e05750600081115b156108f1576001600160a01b03831615611388576001600160a01b038316600090815260096020526040812081906113239061191261131e8661191e565b611952565b6001600160d01b031691506001600160d01b03169150846001600160a01b03167fdec2bacdd2f05b59de34da9b523dff8be42e5e38e818c82fdb0bae774387a724838360405161137d929190918252602082015260400190565b60405180910390a250505b6001600160a01b038216156108f1576001600160a01b038216600090815260096020526040812081906113c19061198b61131e8661191e565b6001600160d01b031691506001600160d01b03169150836001600160a01b03167fdec2bacdd2f05b59de34da9b523dff8be42e5e38e818c82fdb0bae774387a724838360405161141b929190918252602082015260400190565b60405180910390a25050505050565b600063ffffffff8211156110d4576040516306dfcc6560e41b815260206004820152602481018390526044016107c9565b606060ff83146114755761146e83611997565b9050610563565b81805461148190611fee565b80601f01602080910402602001604051908101604052809291908181526020018280546114ad90611fee565b80156114fa5780601f106114cf576101008083540402835291602001916114fa565b820191906000526020600020905b8154815290600101906020018083116114dd57829003601f168201915b50505050509050610563565b6000306001600160a01b037f00000000000000000000000000000000000000000000000000000000000000001614801561155f57507f000000000000000000000000000000000000000000000000000000000000000046145b1561158957507f000000000000000000000000000000000000000000000000000000000000000090565b61074d604080517f8b73c3c69bb8fe3d512ecc4cf759cc79239f7b179b0ffacaa9a75d522b39400f60208201527f0000000000000000000000000000000000000000000000000000000000000000918101919091527f000000000000000000000000000000000000000000000000000000000000000060608201524660808201523060a082015260009060c00160405160208183030381529060405280519060200120905090565b600080807f7fffffffffffffffffffffffffffffff5d576e7357a4501ddfe92f46681b20a084111561166c57506000915060039050826116f6565b604080516000808252602082018084528a905260ff891692820192909252606081018790526080810186905260019060a0016020604051602081039080840390855afa1580156116c0573d6000803e3d6000fd5b5050604051601f1901519150506001600160a01b0381166116ec575060009250600191508290506116f6565b9250600091508190505b9450945094915050565b60008260038111156117145761171461207a565b0361171d575050565b60018260038111156117315761173161207a565b03611768576040517ff645eedf00000000000000000000000000000000000000000000000000000000815260040160405180910390fd5b600282600381111561177c5761177c61207a565b036117b6576040517ffce698f7000000000000000000000000000000000000000000000000000000008152600481018290526024016107c9565b60038260038111156117ca576117ca61207a565b036105db576040517fd78bce0c000000000000000000000000000000000000000000000000000000008152600481018290526024016107c9565b6040805180820190915260008082526020820152826000018263ffffffff168154811061183357611833612090565b60009182526020918290206040805180820190915291015465ffffffffffff81168252660100000000000090046001600160d01b0316918101919091529392505050565b6118828383836119d6565b6001600160a01b0383166118ec57600061189b60025490565b90506001600160d01b03808211156118e9576040517f1cb15d2600000000000000000000000000000000000000000000000000000000815260048101839052602481018290526044016107c9565b50505b6108f1838383611b19565b600061190660028484186120a6565b61088990848416612051565b600061088982846120c8565b60006001600160d01b038211156110d4576040516306dfcc6560e41b815260d06004820152602481018390526044016107c9565b60008061197e611960610743565b61197661196c88610dbd565b868863ffffffff16565b879190611b8f565b915091505b935093915050565b600061088982846120e7565b606060006119a483611b9d565b604080516020808252818301909252919250600091906020820181803683375050509182525060208101929092525090565b6001600160a01b038316611a015780600260008282546119f69190612051565b90915550611a8c9050565b6001600160a01b03831660009081526020819052604090205481811015611a6d576040517fe450d38c0000000000000000000000000000000000000000000000000000000081526001600160a01b038516600482015260248101829052604481018390526064016107c9565b6001600160a01b03841660009081526020819052604090209082900390555b6001600160a01b038216611aa857600280548290039055611ac7565b6001600160a01b03821660009081526020819052604090208054820190555b816001600160a01b0316836001600160a01b03167fddf252ad1be2c89b69c2b068fc378daa952ba7f163c4a11628f55a4df523b3ef83604051611b0c91815260200190565b60405180910390a3505050565b6001600160a01b038316611b3b57611b38600a61198b61131e8461191e565b50505b6001600160a01b038216611b5d57611b5a600a61191261131e8461191e565b50505b6001600160a01b038381166000908152600860205260408082205485841683529120546108f1929182169116836112be565b60008061197e858585611bde565b600060ff8216601f811115610563576040517fb3512b0c00000000000000000000000000000000000000000000000000000000815260040160405180910390fd5b825460009081908015611cf9576000611bfc87610b2960018561203e565b805490915065ffffffffffff80821691660100000000000090046001600160d01b0316908816821115611c5b576040517f2520601d00000000000000000000000000000000000000000000000000000000815260040160405180910390fd5b8765ffffffffffff168265ffffffffffff1603611c9757825465ffffffffffff1666010000000000006001600160d01b03891602178355611ceb565b6040805180820190915265ffffffffffff808a1682526001600160d01b03808a1660208085019182528d54600181018f5560008f815291909120945191519092166601000000000000029216919091179101555b945085935061198392505050565b50506040805180820190915265ffffffffffff80851682526001600160d01b0380851660208085019182528854600181018a5560008a8152918220955192519093166601000000000000029190931617920191909155905081611983565b6000815180845260005b81811015611d7d57602081850181015186830182015201611d61565b506000602082860101526020601f19601f83011685010191505092915050565b6020815260006108896020830184611d57565b80356001600160a01b0381168114611dc757600080fd5b919050565b60008060408385031215611ddf57600080fd5b611de883611db0565b946020939093013593505050565b600080600060608486031215611e0b57600080fd5b611e1484611db0565b9250611e2260208501611db0565b929592945050506040919091013590565b600060208284031215611e4557600080fd5b5035919050565b600060208284031215611e5e57600080fd5b61088982611db0565b7fff000000000000000000000000000000000000000000000000000000000000008816815260e060208201526000611ea260e0830189611d57565b8281036040840152611eb48189611d57565b606084018890526001600160a01b038716608085015260a0840186905283810360c08501528451808252602080870193509091019060005b81811015611f0a578351835260209384019390920191600101611eec565b50909b9a5050505050505050505050565b60008060008060008060c08789031215611f3457600080fd5b611f3d87611db0565b95506020870135945060408701359350606087013560ff81168114611f6157600080fd5b9598949750929560808101359460a0909101359350915050565b60008060408385031215611f8e57600080fd5b611f9783611db0565b9150611fa560208401611db0565b90509250929050565b60008060408385031215611fc157600080fd5b611fca83611db0565b9150602083013563ffffffff81168114611fe357600080fd5b809150509250929050565b600181811c9082168061200257607f821691505b60208210810361202257634e487b7160e01b600052602260045260246000fd5b50919050565b634e487b7160e01b600052601160045260246000fd5b8181038181111561056357610563612028565b8082018082111561056357610563612028565b634e487b7160e01b600052601260045260246000fd5b634e487b7160e01b600052602160045260246000fd5b634e487b7160e01b600052603260045260246000fd5b6000826120c357634e487b7160e01b600052601260045260246000fd5b500490565b6001600160d01b03828116828216039081111561056357610563612028565b6001600160d01b0381811683821601908111156105635761056361202856fea2646970667358221220db5dbf10d86cb9518332f25171c02056c7886c50454a02035315e91da7a5e2c664736f6c634300081c0033"
}