{
  "address": "0xbD846F28E93E36cbe955D4919fE3a387B3672AEC",
  "abi": [
    {
      "inputs": [],
      "name": "ECDSAInvalidSignature",
      "type": "error"
    },
    {
      "inputs": [
        {
          "internalType": "uint256",
          "name": "length",
          "type": "uint256"
        }
      ],
      "name": "ECDSAInvalidSignatureLength",
      "type": "error"
    },
    {
      "inputs": [
        {
          "internalType": "bytes32",
          "name": "s",
          "type": "bytes32"
        }
      ],
      "name": "ECDSAInvalidSignatureS",
      "type": "error"
    },
    {
      "inputs": [
        {
          "internalType": "uint256",
          "name": "a",
          "type": "uint256"
        },
        {
          "internalType": "uint256",
          "name": "b",
          "type": "uint256"
        }
      ],
      "name": "NoDivisionReminderAllowed",
      "type": "error"
    },
    {
      "inputs": [],
      "name": "RankNotSpecified",
      "type": "error"
    },
    {
      "inputs": [
        {
          "internalType": "string",
          "name": "message",
          "type": "string"
        }
      ],
      "name": "invalidConfiguration",
      "type": "error"
    },
    {
      "inputs": [
        {
          "internalType": "bytes32",
          "name": "digest",
          "type": "bytes32"
        },
        {
          "internalType": "string",
          "name": "message",
          "type": "string"
        }
      ],
      "name": "invalidECDSARecoverSigner",
      "type": "error"
    },
    {
      "inputs": [
        {
          "internalType": "uint256",
          "name": "nTurns",
          "type": "uint256"
        }
      ],
      "name": "invalidTurnCount",
      "type": "error"
    },
    {
      "inputs": [],
      "name": "zeroValue",
      "type": "error"
    },
    {
      "anonymous": false,
      "inputs": [
        {
          "indexed": true,
          "internalType": "uint256",
          "name": "gameId",
          "type": "uint256"
        }
      ],
      "name": "GameClosed",
      "type": "event"
    },
    {
      "anonymous": false,
      "inputs": [
        {
          "indexed": true,
          "internalType": "uint256",
          "name": "gameId",
          "type": "uint256"
        }
      ],
      "name": "GameStarted",
      "type": "event"
    },
    {
      "anonymous": false,
      "inputs": [
        {
          "indexed": true,
          "internalType": "uint256",
          "name": "gameId",
          "type": "uint256"
        },
        {
          "indexed": true,
          "internalType": "address",
          "name": "participant",
          "type": "address"
        },
        {
          "indexed": false,
          "internalType": "bytes32",
          "name": "gmCommitment",
          "type": "bytes32"
        },
        {
          "indexed": false,
          "internalType": "string",
          "name": "voterPubKey",
          "type": "string"
        }
      ],
      "name": "PlayerJoined",
      "type": "event"
    },
    {
      "anonymous": false,
      "inputs": [
        {
          "indexed": true,
          "internalType": "uint256",
          "name": "gameId",
          "type": "uint256"
        },
        {
          "indexed": true,
          "internalType": "address",
          "name": "player",
          "type": "address"
        }
      ],
      "name": "PlayerLeft",
      "type": "event"
    },
    {
      "anonymous": false,
      "inputs": [
        {
          "indexed": true,
          "internalType": "address",
          "name": "player",
          "type": "address"
        },
        {
          "indexed": false,
          "internalType": "uint256",
          "name": "rankId",
          "type": "uint256"
        },
        {
          "indexed": false,
          "internalType": "uint256",
          "name": "amount",
          "type": "uint256"
        },
        {
          "indexed": false,
          "internalType": "uint256",
          "name": "_toMint",
          "type": "uint256"
        }
      ],
      "name": "RankTokenExited",
      "type": "event"
    },
    {
      "anonymous": false,
      "inputs": [
        {
          "indexed": true,
          "internalType": "uint256",
          "name": "gameId",
          "type": "uint256"
        }
      ],
      "name": "RegistrationOpen",
      "type": "event"
    },
    {
      "anonymous": false,
      "inputs": [
        {
          "indexed": false,
          "internalType": "uint256",
          "name": "gameId",
          "type": "uint256"
        },
        {
          "indexed": true,
          "internalType": "address",
          "name": "gm",
          "type": "address"
        },
        {
          "indexed": true,
          "internalType": "address",
          "name": "creator",
          "type": "address"
        },
        {
          "indexed": true,
          "internalType": "uint256",
          "name": "rank",
          "type": "uint256"
        }
      ],
      "name": "gameCreated",
      "type": "event"
    },
    {
      "inputs": [
        {
          "internalType": "uint256",
          "name": "gameId",
          "type": "uint256"
        }
      ],
      "name": "canEndTurn",
      "outputs": [
        {
          "internalType": "bool",
          "name": "",
          "type": "bool"
        }
      ],
      "stateMutability": "view",
      "type": "function"
    },
    {
      "inputs": [
        {
          "internalType": "uint256",
          "name": "gameId",
          "type": "uint256"
        }
      ],
      "name": "canStartGame",
      "outputs": [
        {
          "internalType": "bool",
          "name": "",
          "type": "bool"
        }
      ],
      "stateMutability": "view",
      "type": "function"
    },
    {
      "inputs": [
        {
          "internalType": "uint256",
          "name": "gameId",
          "type": "uint256"
        }
      ],
      "name": "cancelGame",
      "outputs": [],
      "stateMutability": "nonpayable",
      "type": "function"
    },
    {
      "inputs": [
        {
          "components": [
            {
              "internalType": "uint256",
              "name": "gameRank",
              "type": "uint256"
            },
            {
              "internalType": "uint256",
              "name": "minPlayerCnt",
              "type": "uint256"
            },
            {
              "internalType": "uint256",
              "name": "maxPlayerCnt",
              "type": "uint256"
            },
            {
              "internalType": "uint96",
              "name": "nTurns",
              "type": "uint96"
            },
            {
              "internalType": "uint256",
              "name": "voteCredits",
              "type": "uint256"
            },
            {
              "internalType": "address",
              "name": "gameMaster",
              "type": "address"
            },
            {
              "internalType": "uint128",
              "name": "minGameTime",
              "type": "uint128"
            },
            {
              "internalType": "uint128",
              "name": "timePerTurn",
              "type": "uint128"
            },
            {
              "internalType": "uint128",
              "name": "timeToJoin",
              "type": "uint128"
            },
            {
              "internalType": "string",
              "name": "metadata",
              "type": "string"
            }
          ],
          "internalType": "struct IRankifyInstance.NewGameParamsInput",
          "name": "params",
          "type": "tuple"
        }
      ],
      "name": "createGame",
      "outputs": [],
      "stateMutability": "nonpayable",
      "type": "function"
    },
    {
      "inputs": [
        {
          "internalType": "uint128",
          "name": "minGameTime",
          "type": "uint128"
        }
      ],
      "name": "estimateGamePrice",
      "outputs": [
        {
          "internalType": "uint256",
          "name": "",
          "type": "uint256"
        }
      ],
      "stateMutability": "pure",
      "type": "function"
    },
    {
      "inputs": [
        {
          "internalType": "uint256",
          "name": "rankId",
          "type": "uint256"
        },
        {
          "internalType": "uint256",
          "name": "amount",
          "type": "uint256"
        }
      ],
      "name": "exitRankToken",
      "outputs": [],
      "stateMutability": "nonpayable",
      "type": "function"
    },
    {
      "inputs": [
        {
          "internalType": "uint256",
          "name": "gameId",
          "type": "uint256"
        }
      ],
      "name": "gameCreator",
      "outputs": [
        {
          "internalType": "address",
          "name": "",
          "type": "address"
        }
      ],
      "stateMutability": "view",
      "type": "function"
    },
    {
      "inputs": [
        {
          "internalType": "uint256",
          "name": "gameId",
          "type": "uint256"
        }
      ],
      "name": "gameWinner",
      "outputs": [
        {
          "internalType": "address",
          "name": "",
          "type": "address"
        }
      ],
      "stateMutability": "view",
      "type": "function"
    },
    {
      "inputs": [],
      "name": "getContractState",
      "outputs": [
        {
          "components": [
            {
              "internalType": "uint256",
              "name": "numGames",
              "type": "uint256"
            },
            {
              "internalType": "bool",
              "name": "contractInitialized",
              "type": "bool"
            },
            {
              "components": [
                {
                  "internalType": "uint256",
                  "name": "principalCost",
                  "type": "uint256"
                },
                {
                  "internalType": "uint96",
                  "name": "principalTimeConstant",
                  "type": "uint96"
                },
                {
                  "internalType": "address",
                  "name": "gamePaymentToken",
                  "type": "address"
                },
                {
                  "internalType": "address",
                  "name": "rankTokenAddress",
                  "type": "address"
                },
                {
                  "internalType": "address",
                  "name": "beneficiary",
                  "type": "address"
                },
                {
                  "internalType": "uint256",
                  "name": "minimumParticipantsInCircle",
                  "type": "uint256"
                },
                {
                  "internalType": "address",
                  "name": "derivedToken",
                  "type": "address"
                },
                {
                  "internalType": "address",
                  "name": "proposalIntegrityVerifier",
                  "type": "address"
                },
                {
                  "internalType": "address",
                  "name": "poseidon5",
                  "type": "address"
                },
                {
                  "internalType": "address",
                  "name": "poseidon6",
                  "type": "address"
                },
                {
                  "internalType": "address",
                  "name": "poseidon2",
                  "type": "address"
                }
              ],
              "internalType": "struct LibRankify.CommonParams",
              "name": "commonParams",
              "type": "tuple"
            }
          ],
          "internalType": "struct LibRankify.InstanceState",
          "name": "",
          "type": "tuple"
        }
      ],
      "stateMutability": "pure",
      "type": "function"
    },
    {
      "inputs": [
        {
          "internalType": "uint256",
          "name": "gameId",
          "type": "uint256"
        }
      ],
      "name": "getGM",
      "outputs": [
        {
          "internalType": "address",
          "name": "",
          "type": "address"
        }
      ],
      "stateMutability": "view",
      "type": "function"
    },
    {
      "inputs": [
        {
          "internalType": "uint256",
          "name": "gameId",
          "type": "uint256"
        }
      ],
      "name": "getGameRank",
      "outputs": [
        {
          "internalType": "uint256",
          "name": "",
          "type": "uint256"
        }
      ],
      "stateMutability": "view",
      "type": "function"
    },
    {
      "inputs": [
        {
          "internalType": "uint256",
          "name": "gameId",
          "type": "uint256"
        }
      ],
      "name": "getPlayerVotedArray",
      "outputs": [
        {
          "internalType": "bool[]",
          "name": "",
          "type": "bool[]"
        }
      ],
      "stateMutability": "view",
      "type": "function"
    },
    {
      "inputs": [
        {
          "internalType": "uint256",
          "name": "gameId",
          "type": "uint256"
        }
      ],
      "name": "getPlayers",
      "outputs": [
        {
          "internalType": "address[]",
          "name": "",
          "type": "address[]"
        }
      ],
      "stateMutability": "view",
      "type": "function"
    },
    {
      "inputs": [
        {
          "internalType": "address",
          "name": "player",
          "type": "address"
        }
      ],
      "name": "getPlayersGame",
      "outputs": [
        {
          "internalType": "uint256",
          "name": "",
          "type": "uint256"
        }
      ],
      "stateMutability": "view",
      "type": "function"
    },
    {
      "inputs": [
        {
          "internalType": "uint256",
          "name": "gameId",
          "type": "uint256"
        }
      ],
      "name": "getPlayersMoved",
      "outputs": [
        {
          "internalType": "bool[]",
          "name": "",
          "type": "bool[]"
        },
        {
          "internalType": "uint256",
          "name": "",
          "type": "uint256"
        }
      ],
      "stateMutability": "view",
      "type": "function"
    },
    {
      "inputs": [
        {
          "internalType": "uint256",
          "name": "gameId",
          "type": "uint256"
        }
      ],
      "name": "getScores",
      "outputs": [
        {
          "internalType": "address[]",
          "name": "",
          "type": "address[]"
        },
        {
          "internalType": "uint256[]",
          "name": "",
          "type": "uint256[]"
        }
      ],
      "stateMutability": "view",
      "type": "function"
    },
    {
      "inputs": [
        {
          "internalType": "uint256",
          "name": "gameId",
          "type": "uint256"
        }
      ],
      "name": "getTurn",
      "outputs": [
        {
          "internalType": "uint256",
          "name": "",
          "type": "uint256"
        }
      ],
      "stateMutability": "view",
      "type": "function"
    },
    {
      "inputs": [
        {
          "internalType": "uint256",
          "name": "gameId",
          "type": "uint256"
        },
        {
          "internalType": "address",
          "name": "player",
          "type": "address"
        }
      ],
      "name": "isActive",
      "outputs": [
        {
          "internalType": "bool",
          "name": "",
          "type": "bool"
        }
      ],
      "stateMutability": "view",
      "type": "function"
    },
    {
      "inputs": [
        {
          "internalType": "uint256",
          "name": "gameId",
          "type": "uint256"
        }
      ],
      "name": "isGameOver",
      "outputs": [
        {
          "internalType": "bool",
          "name": "",
          "type": "bool"
        }
      ],
      "stateMutability": "view",
      "type": "function"
    },
    {
      "inputs": [
        {
          "internalType": "uint256",
          "name": "gameId",
          "type": "uint256"
        }
      ],
      "name": "isLastTurn",
      "outputs": [
        {
          "internalType": "bool",
          "name": "",
          "type": "bool"
        }
      ],
      "stateMutability": "view",
      "type": "function"
    },
    {
      "inputs": [
        {
          "internalType": "uint256",
          "name": "gameId",
          "type": "uint256"
        }
      ],
      "name": "isOvertime",
      "outputs": [
        {
          "internalType": "bool",
          "name": "",
          "type": "bool"
        }
      ],
      "stateMutability": "view",
      "type": "function"
    },
    {
      "inputs": [
        {
          "internalType": "uint256",
          "name": "gameId",
          "type": "uint256"
        },
        {
          "internalType": "address",
          "name": "player",
          "type": "address"
        }
      ],
      "name": "isPlayerTurnComplete",
      "outputs": [
        {
          "internalType": "bool",
          "name": "",
          "type": "bool"
        }
      ],
      "stateMutability": "view",
      "type": "function"
    },
    {
      "inputs": [
        {
          "internalType": "uint256",
          "name": "gameId",
          "type": "uint256"
        }
      ],
      "name": "isRegistrationOpen",
      "outputs": [
        {
          "internalType": "bool",
          "name": "",
          "type": "bool"
        }
      ],
      "stateMutability": "view",
      "type": "function"
    },
    {
      "inputs": [
        {
          "internalType": "uint256",
          "name": "gameId",
          "type": "uint256"
        },
        {
          "internalType": "bytes",
          "name": "gameMasterSignature",
          "type": "bytes"
        },
        {
          "internalType": "bytes32",
          "name": "gmCommitment",
          "type": "bytes32"
        },
        {
          "internalType": "uint256",
          "name": "deadline",
          "type": "uint256"
        },
        {
          "internalType": "string",
          "name": "voterPubKey",
          "type": "string"
        }
      ],
      "name": "joinGame",
      "outputs": [],
      "stateMutability": "payable",
      "type": "function"
    },
    {
      "inputs": [
        {
          "internalType": "uint256",
          "name": "gameId",
          "type": "uint256"
        }
      ],
      "name": "leaveGame",
      "outputs": [],
      "stateMutability": "nonpayable",
      "type": "function"
    },
    {
      "inputs": [
        {
          "internalType": "address",
          "name": "operator",
          "type": "address"
        },
        {
          "internalType": "address",
          "name": "",
          "type": "address"
        },
        {
          "internalType": "uint256[]",
          "name": "",
          "type": "uint256[]"
        },
        {
          "internalType": "uint256[]",
          "name": "",
          "type": "uint256[]"
        },
        {
          "internalType": "bytes",
          "name": "",
          "type": "bytes"
        }
      ],
      "name": "onERC1155BatchReceived",
      "outputs": [
        {
          "internalType": "bytes4",
          "name": "",
          "type": "bytes4"
        }
      ],
      "stateMutability": "view",
      "type": "function"
    },
    {
      "inputs": [
        {
          "internalType": "address",
          "name": "operator",
          "type": "address"
        },
        {
          "internalType": "address",
          "name": "",
          "type": "address"
        },
        {
          "internalType": "uint256",
          "name": "",
          "type": "uint256"
        },
        {
          "internalType": "uint256",
          "name": "",
          "type": "uint256"
        },
        {
          "internalType": "bytes",
          "name": "",
          "type": "bytes"
        }
      ],
      "name": "onERC1155Received",
      "outputs": [
        {
          "internalType": "bytes4",
          "name": "",
          "type": "bytes4"
        }
      ],
      "stateMutability": "view",
      "type": "function"
    },
    {
      "inputs": [
        {
          "internalType": "address",
          "name": "operator",
          "type": "address"
        },
        {
          "internalType": "address",
          "name": "",
          "type": "address"
        },
        {
          "internalType": "uint256",
          "name": "",
          "type": "uint256"
        },
        {
          "internalType": "bytes",
          "name": "",
          "type": "bytes"
        }
      ],
      "name": "onERC721Received",
      "outputs": [
        {
          "internalType": "bytes4",
          "name": "",
          "type": "bytes4"
        }
      ],
      "stateMutability": "view",
      "type": "function"
    },
    {
      "inputs": [
        {
          "internalType": "uint256",
          "name": "gameId",
          "type": "uint256"
        }
      ],
      "name": "openRegistration",
      "outputs": [],
      "stateMutability": "nonpayable",
      "type": "function"
    },
    {
      "inputs": [
        {
          "internalType": "uint256",
          "name": "gameId",
          "type": "uint256"
        },
        {
          "internalType": "uint256",
          "name": "permutationCommitment",
          "type": "uint256"
        }
      ],
      "name": "startGame",
      "outputs": [],
      "stateMutability": "nonpayable",
      "type": "function"
    }
  ],
  "transactionHash": "0xe6d0e33fe23916e171d511b358f483af0aaa7b0fc4e8fd4a4c1a23e30ffb8ab9",
  "args": [],
  "numDeployments": 1,
  "solcInputHash": "3ea2864ad3cb14f931435061b28b0384",
  "bytecode": "0x6080604052348015600f57600080fd5b50615ecd8061001f6000396000f3fe6080604052600436106101cd5760003560e01c80638d3b80b3116100f7578063b881cffe11610095578063cca84a0c11610064578063cca84a0c146105a2578063de838048146105c2578063f23a6e61146105ef578063f72ea4671461060f57600080fd5b8063b881cffe14610522578063bab0ac0314610542578063bc197c8114610562578063bfa640361461058257600080fd5b80639a214b1e116100d15780639a214b1e146104a2578063aee5f34a146104c2578063b0e8bc35146104e2578063b55991c01461050257600080fd5b80638d3b80b3146104425780638eed01f8146104625780639637460e1461048257600080fd5b80633f663d241161016f57806358759df71161013e57806358759df7146103c057806369958ab9146103e0578063730b8381146104005780637f4e48491461042057600080fd5b80633f663d24146103335780633feef58a146103535780634024ba7514610373578063460e20491461039357600080fd5b80633528dff7116101ab5780633528dff71461029257806337eb5109146102c057806338abc5a2146102ee578063392b749c1461030357600080fd5b806304527d90146101d25780630479130914610209578063150b7a0214610241575b600080fd5b3480156101de57600080fd5b506101f26101ed3660046151b9565b61062f565b604051610200929190615217565b60405180910390f35b34801561021557600080fd5b506102296102243660046151b9565b610644565b6040516001600160a01b039091168152602001610200565b34801561024d57600080fd5b5061026161025c3660046152d6565b610662565b6040517fffffffff000000000000000000000000000000000000000000000000000000009091168152602001610200565b34801561029e57600080fd5b506102b26102ad3660046151b9565b6106b0565b604051610200929190615379565b3480156102cc57600080fd5b506102e06102db3660046153b2565b6107c8565b604051908152602001610200565b6103016102fc3660046154a7565b6108bd565b005b34801561030f57600080fd5b5061032361031e3660046151b9565b610a9e565b6040519015158152602001610200565b34801561033f57600080fd5b5061030161034e36600461555d565b610aaf565b34801561035f57600080fd5b5061030161036e3660046151b9565b610b9c565b34801561037f57600080fd5b5061032361038e3660046151b9565b610c32565b34801561039f57600080fd5b506103b36103ae3660046151b9565b610c3d565b6040516102009190615650565b3480156103cc57600080fd5b506103236103db3660046151b9565b610c48565b3480156103ec57600080fd5b506103016103fb3660046151b9565b610c53565b34801561040c57600080fd5b5061030161041b366004615663565b610d1d565b34801561042c57600080fd5b50610435610d74565b6040516102009190615685565b34801561044e57600080fd5b5061032361045d366004615787565b610ece565b34801561046e57600080fd5b5061032361047d3660046151b9565b610f09565b34801561048e57600080fd5b5061032361049d3660046151b9565b610f14565b3480156104ae57600080fd5b506102e06104bd3660046151b9565b610f3b565b3480156104ce57600080fd5b506102296104dd3660046151b9565b610f4d565b3480156104ee57600080fd5b506103016104fd366004615663565b610f6b565b34801561050e57600080fd5b506102e061051d3660046151b9565b611158565b34801561052e57600080fd5b5061032361053d3660046151b9565b61117c565b34801561054e57600080fd5b5061032361055d366004615787565b611187565b34801561056e57600080fd5b5061026161057d3660046157f8565b6111c2565b34801561058e57600080fd5b506102e061059d3660046158bf565b611213565b3480156105ae57600080fd5b506103016105bd3660046151b9565b611250565b3480156105ce57600080fd5b506105e26105dd3660046151b9565b6112a3565b60405161020091906158da565b3480156105fb57600080fd5b5061026161060a3660046158ed565b611394565b34801561061b57600080fd5b5061022961062a3660046151b9565b6113e3565b60608061063b83611410565b91509150915091565b600061064f826114fb565b601101546001600160a01b031692915050565b600061066c611521565b306001600160a01b038716036106a357507f150b7a02000000000000000000000000000000000000000000000000000000006106a7565b5060005b95945050505050565b60606000806106da846000908152600080516020615e788339815191526020526040902060080190565b905060006106e785611585565b90506000815167ffffffffffffffff811115610705576107056153cd565b60405190808252806020026020018201604052801561072e578160200160208202803683370190505b50905060005b82518110156107b55783600701600084838151811061075557610755615965565b60200260200101516001600160a01b03166001600160a01b0316815260200190815260200160002060009054906101000a900460ff1682828151811061079d5761079d615965565b91151560209283029190910190910152600101610734565b5080836009015494509450505050915091565b6000806107d36115b4565b604080516060808201835283548252600184015460ff1615156020808401919091528351610160810185526002860154815260038601546bffffffffffffffffffffffff8116928201929092526c010000000000000000000000009091046001600160a01b03908116828601526004860154811692820192909252600585015482166080820152600685015460a08201526007850154821660c08201526008850154821660e082015260098501548216610100820152600a8501548216610120820152600b909401541661014084015290810182905291506108b69084906115dd565b9392505050565b7f490744b35bb5c4ef4fe6db5e9bd248361ef1300fccf80ca351b310c51dd62d8a805460ff16156109355760405162461bcd60e51b815260206004820152601860248201527f5245473a20596f75207368616c6c206e6f74207061737321000000000000000060448201526064015b60405180910390fd5b805460ff1916600117815542831161098f5760405162461bcd60e51b815260206004820152601d60248201527f5369676e617475726520646561646c696e652068617320706173736564000000604482015260640161092c565b6000610a337fd3bd306206eb750ea9d44d832310282e4267987d2f047c29fc09232a1e8005e633898888886040516020016109ca919061599f565b60408051601f198184030181528282528051602091820120908301979097526001600160a01b03909516948101949094526060840192909252608083015260a082015260c081019190915260e00160405160208183030381529060405280519060200120611609565b9050610a4187338884611651565b610a4a8761175c565b336001600160a01b0316877f82b857b30a7678f4bcb524e2a7f621e7140b3a452ea8c5c56331c6b5dcba44888786604051610a869291906159bb565b60405180910390a350805460ff191690555050505050565b6000610aa9826117c1565b92915050565b610ab7611521565b6000610ac16115b4565b9050600060405180610180016040528083600001546001610ae29190615a0b565b815260200184600001518152602001336001600160a01b031681526020018460200151815260200184604001518152602001846080015181526020018460a001516001600160a01b0316815260200184606001516bffffffffffffffffffffffff1681526020018460c001516001600160801b031681526020018460e001516001600160801b031681526020018461010001516001600160801b031681526020018461012001518152509050610b978161181e565b505050565b7f490744b35bb5c4ef4fe6db5e9bd248361ef1300fccf80ca351b310c51dd62d8a805460ff1615610c0f5760405162461bcd60e51b815260206004820152601860248201527f5245473a20596f75207368616c6c206e6f742070617373210000000000000000604482015260640161092c565b805460ff19166001178155610c27823361191661195a565b805460ff1916905550565b6000610aa982611972565b6060610aa982611585565b6000610aa9826119e3565b7f490744b35bb5c4ef4fe6db5e9bd248361ef1300fccf80ca351b310c51dd62d8a805460ff1615610cc65760405162461bcd60e51b815260206004820152601860248201527f5245473a20596f75207368616c6c206e6f742070617373210000000000000000604482015260640161092c565b805460ff19166001178155610cdb8233611afb565b610ce782611916611b71565b60405182907f71f4c9aec1b2c51302bcaf09a3f4985709759853536445493905081899603a2190600090a2805460ff1916905550565b610d2682611bc0565b610d2f82611c1d565b6000610d3a836114fb565b6009810183905560405190915083907f50ad08f58a27f2851d7e3a1b3a6a46b290f2ce677e99642d30ff639721e7779090600090a2505050565b610de76040805160608082018352600080835260208084018290528451610160810186528281529081018290528085018290529182018190526080820181905260a0820181905260c0820181905260e0820181905261010082018190526101208201819052610140820152909182015290565b6000610df16115b4565b604080516060808201835283548252600184015460ff1615156020808401919091528351610160810185526002860154815260038601546bffffffffffffffffffffffff8116928201929092526c010000000000000000000000009091046001600160a01b03908116828601526004860154811692820192909252600585015482166080820152600685015460a08201526007850154821660c08201526008850154821660e082015260098501548216610100820152600a8501548216610120820152600b90940154166101408401529081019190915292915050565b6000828152600080516020615e78833981519152602090815260408083206001600160a01b0385168452600f0190915281205460ff166108b6565b6000610aa982611cd4565b6000818152600080516020615e78833981519152602052604081206014015460ff16610aa9565b6000610f46826114fb565b5492915050565b6000610f58826114fb565b600301546001600160a01b031692915050565b80600003610fbb5760405162461bcd60e51b815260206004820152601f60248201527f63616e6e6f742073706563696679207a65726f206578697420616d6f756e7400604482015260640161092c565b6000610fc56115b4565b60048101546007820154600683015492935060028401926001600160a01b039283169290911690600090610ffa908890615b05565b84546110069190615b11565b6110109087615b11565b6040517ff5298aca00000000000000000000000000000000000000000000000000000000815233600482015260248101899052604481018890529091506001600160a01b0384169063f5298aca90606401600060405180830381600087803b15801561107b57600080fd5b505af115801561108f573d6000803e3d6000fd5b50506040517f40c10f19000000000000000000000000000000000000000000000000000000008152336004820152602481018490526001600160a01b03851692506340c10f199150604401600060405180830381600087803b1580156110f457600080fd5b505af1158015611108573d6000803e3d6000fd5b5050604080518a8152602081018a90529081018490523392507f21e56d8662c78d8f3e594a1e36359dddfa7296f292849962ce1f75a663938cc9915060600160405180910390a250505050505050565b6000818152600080516020615e788339815191526020526040812060080154610aa9565b6000610aa982611d1d565b6000828152600080516020615e78833981519152602090815260408083206001600160a01b038516845260100190915281205460ff166108b6565b60006111cc611521565b306001600160a01b038a160361120357507fbc197c819b3e337a6f9652dd10becd7eef83032af3b9d958d3d42f6694146621611207565b5060005b98975050505050505050565b6001600160a01b03811660009081527faa1f1fd6916372407d8e1fff30618f7864d63b564f087227812164c61d47c7486020526040812054610aa9565b61125981611bc0565b6112638133611afb565b61126c81611d58565b61127581611e43565b60405181907f5da9fef10786347975dd7cc4fc53417cff6969b0f7a9b6763169306c8cbeb63690600090a250565b606060006112b0836114fb565b905060006112bd84611585565b90506000815167ffffffffffffffff8111156112db576112db6153cd565b604051908082528060200260200182016040528015611304578160200160208202803683370190505b50905060005b825181101561138b5783601001600084838151811061132b5761132b615965565b60200260200101516001600160a01b03166001600160a01b0316815260200190815260200160002060009054906101000a900460ff1682828151811061137357611373615965565b9115156020928302919091019091015260010161130a565b50949350505050565b600061139e611521565b306001600160a01b038816036113d557507ff23a6e612e1ff4830e658fe43f4e3cb4a5f8170bd5d9e69fb5d7a7fa9e4fdf976113d9565b5060005b9695505050505050565b6000818152600080516020615e7883398151915260205260408120600601546001600160a01b0316610aa9565b606080600061141e84611585565b90506000815167ffffffffffffffff81111561143c5761143c6153cd565b604051908082528060200260200182016040528015611465578160200160208202803683370190505b50905060005b82518110156114f0576114cb8684838151811061148a5761148a615965565b60200260200101516000918252600080516020615e78833981519152602090815260408084206001600160a01b039390931684526013909201905290205490565b8282815181106114dd576114dd615965565b602090810291909101015260010161146b565b509094909350915050565b6000818152600080516020615e78833981519152602052604081206007015481906108b6565b600061152b6115b4565b600181015490915060ff166115825760405162461bcd60e51b815260206004820152600f60248201527f6f6e6c79496e697469616c697a65640000000000000000000000000000000000604482015260640161092c565b50565b6000818152600080516020615e788339815191526020526040902060609060088101906108b690600d01611ebc565b6000807fa12d076190200dcdcbe467d038e4860de98e28ac6ff33e86413a723b4ebb26be610aa9565b60006108b6826000015183602001516bffffffffffffffffffffffff16856001600160801b0316611ec9565b6000610aa9611616611f84565b836040517f19010000000000000000000000000000000000000000000000000000000000008152600281019290925260228201526042902090565b61165a84611bc0565b6116648484612055565b61166e848461209c565b600061167a8284612286565b9050806001600160a01b03166116b5866000908152600080516020615e7883398151915260205260409020600601546001600160a01b031690565b6001600160a01b031614829061175457604080517fc85d473600000000000000000000000000000000000000000000000000000000815260048101929092526024820152602760448201527f4c696252616e6b6966793a3a6a6f696e47616d652d3e696e76616c696420736960648201527f676e617475726500000000000000000000000000000000000000000000000000608482015260a40161092c565b505050505050565b60006117b18260408051602080820193909352815180820384018152908201825280519083012060009081527fb12a0409539e5fa777ebbd0648c2d35d1b56f5385885518278a66364324a9138909252902090565b90506117bd81336122b0565b5050565b6000818152600080516020615e7883398151915260208190526040822060018101546008820192916117f590600d01612330565b148061180557506118058461233a565b15611814575060019392505050565b5060009392505050565b7f490744b35bb5c4ef4fe6db5e9bd248361ef1300fccf80ca351b310c51dd62d8a805460ff16156118915760405162461bcd60e51b815260206004820152601860248201527f5245473a20596f75207368616c6c206e6f742070617373210000000000000000604482015260640161092c565b805460ff191660011781556118a5826123fc565b6118ad61511b565b82516118b99082612bd9565b602083015160c0840151845160405133926001600160a01b0316917f48f48f6273652830aa3718ca489b3d13c244a7215c70bab5c5c2f523aba583b69161190291815260200190565b60405180910390a450805460ff1916905550565b6119208282613015565b6040516001600160a01b0382169083907fb2bd643202385c64d9814c6c3fa61b1ba098d6652292e9d9a6f1a0cdae6eb82490600090a35050565b6119648383613076565b610b9783838363ffffffff16565b6000818152600080516020615e78833981519152602081905260408220600a8101546008909101919083036119ab575060009392505050565b6000848152602082905260409020600301546119c79042615a0b565b8260020154106119d85760006119db565b60015b949350505050565b6000818152600080516020615e7883398151915260205260408120600c81015460089091019060ff161580611a1c5750611a1c83611cd4565b15611a2a5750600092915050565b600080611a3983600501611ebc565b905060005b8151811015611ae957836008016000838381518110611a5f57611a5f615965565b6020908102919091018101516001600160a01b031682528101919091526040016000205460ff168015611ace5750836007016000838381518110611aa557611aa5615965565b6020908102919091018101516001600160a01b031682528101919091526040016000205460ff16155b15611ae15782611add81615b28565b9350505b600101611a3e565b508115806106a757506106a7856130ca565b611b0482611bc0565b6000611b0f836114fb565b60038101549091506001600160a01b03838116911614610b975760405162461bcd60e51b815260206004820152601160248201527f4f6e6c792067616d652063726561746f72000000000000000000000000000000604482015260640161092c565b6000611b7c83611585565b905060005b8151811015611bb657611bae84838381518110611ba057611ba0615965565b60200260200101518561195a565b600101611b81565b50610b978361312f565b611bc8611521565b611bd181613322565b6115825760405162461bcd60e51b815260206004820152600e60248201527f67616d65206e6f7420666f756e64000000000000000000000000000000000000604482015260640161092c565b6000818152600080516020615e78833981519152602081905260409091206001810154600882019291611c5290600d01612330565b1480611c7d57506000838152602082905260409020600301546002830154611c7a9190615a0b565b42115b611cc95760405162461bcd60e51b815260206004820152601d60248201527f737461727447616d652d3e4e6f7420656e6f75676820706c6179657273000000604482015260640161092c565b610b97838383613362565b6000818152600080516020615e7883398151915260208190526040822060048101546008909101805490911080156118055750600c81015460ff16611814575060019392505050565b6000818152600080516020615e7883398151915260208190526040822060048101546008909101805490919003611814575060019392505050565b611d6181611972565b15611dd45760405162461bcd60e51b815260206004820152602360248201527f43616e6e6f7420646f207768656e20726567697374726174696f6e206973206f60448201527f70656e0000000000000000000000000000000000000000000000000000000000606482015260840161092c565b6000818152600080516020615e7883398151915260205260409020600c015460ff16156115825760405162461bcd60e51b815260206004820152601b60248201527f43616e6e6f7420646f207768656e2067616d6520737461727465640000000000604482015260640161092c565b611e4c81613322565b611e985760405162461bcd60e51b815260206004820152600e60248201527f67616d65206e6f7420666f756e64000000000000000000000000000000000000604482015260640161092c565b6000908152600080516020615e788339815191526020526040902042600a90910155565b606060006108b683613582565b6000838302816000198587098281108382030391505080600003611f0057838281611ef657611ef6615b42565b04925050506108b6565b808411611f1757611f1760038515026011186135de565b6000848688096000868103871696879004966002600389028118808a02820302808a02820302808a02820302808a02820302808a02820302808a02909103029181900381900460010186841190950394909402919094039290920491909117919091029150509392505050565b7fe5b6a7afa77789577f2802f0da58895f660e5798c5c11b2ea18b0a53bd65d3a9546000907fe5b6a7afa77789577f2802f0da58895f660e5798c5c11b2ea18b0a53bd65d3a7906001600160a01b031630148015611fe55750806001015446145b15611ff05754919050565b61204b8160050154826003015483600401546040805160208101859052908101839052606081018290524660808201523060a082015260009060c0016040516020818303038152906040528051906020012090509392505050565b91505090565b5090565b600061205f6115b4565b9050600061206c846114fb565b905060018160000154111561209657805460048301546120969185916001600160a01b03166135f0565b50505050565b6000828152600080516020615e788339815191526020819052604090912060088101906120c885613322565b6121145760405162461bcd60e51b815260206004820152601760248201527f616464506c617965722d3e696e76616c69642067616d65000000000000000000604482015260640161092c565b6001600160a01b03841660009081526001840160205260409020541561217c5760405162461bcd60e51b815260206004820152601960248201527f616464506c617965722d3e506c6179657220696e2067616d6500000000000000604482015260640161092c565b806001015461218d83600501612330565b106121da5760405162461bcd60e51b815260206004820152601560248201527f616464506c617965722d3e70617274792066756c6c0000000000000000000000604482015260640161092c565b6121e38561367c565b61222f5760405162461bcd60e51b815260206004820152601860248201527f616464506c617965722d3e63616e74206a6f696e206e6f770000000000000000604482015260640161092c565b61223c60058301856136c9565b50506001600160a01b0390921660009081526007830160209081526040808320805460ff199081169091556008909501825280832080549095169094556001929092019091522055565b60008060008061229686866136de565b9250925092506122a6828261372b565b5090949350505050565b600c82015460ff166123045760405162461bcd60e51b815260206004820152601760248201527f506f736974696f6e20646f6573206e6f74206578697374000000000000000000604482015260640161092c565b61231282823030303061382f565b60018260080160008282546123279190615a0b565b90915550505050565b6000610aa9825490565b6000818152600080516020615e78833981519152602081905260408220600c8101546008909101919060ff1615612375575060009392505050565b816002015460000361238b575060009392505050565b8360000361239d575060009392505050565b60008481526020829052604090206003015460028301546123be9190615a0b565b42116123ce575060009392505050565b6000848152602082905260409020600201546123ec60058401612330565b10156119d8575060009392505050565b612404611521565b600061240e6115b4565b60e0830151600382015460029092019250612436916bffffffffffffffffffffffff16615b58565b600182015460e08401516bffffffffffffffffffffffff918216929091161561248a5760405163b61659cd60e01b81526bffffffffffffffffffffffff92831660048201529116602482015260440161092c565b505060e082015160018201546124ae91906bffffffffffffffffffffffff16615b58565b60018201546101008401516bffffffffffffffffffffffff918216929091161561250a5760405163b61659cd60e01b81526bffffffffffffffffffffffff90921660048301526001600160801b0316602482015260440161092c565b50508160e001516bffffffffffffffffffffffff1682610100015161252f9190615b90565b60e083015161010084015190916001600160801b0316156125825760405163b61659cd60e01b81526bffffffffffffffffffffffff90921660048301526001600160801b0316602482015260440161092c565b505060008261010001516001600160801b0316116126085760405162461bcd60e51b815260206004820152602760248201527f4c696252616e6b6966793a3a6e657747616d652d3e4d696e2067616d6520746960448201527f6d65207a65726f00000000000000000000000000000000000000000000000000606482015260840161092c565b60e082015160026bffffffffffffffffffffffff821611612666576040517f534985a70000000000000000000000000000000000000000000000000000000081526bffffffffffffffffffffffff909116600482015260240161092c565b5060006040518061010001604052808461012001516001600160801b0316815260200184608001518152602001846060015181526020018461014001516001600160801b031681526020018460e001516bffffffffffffffffffffffff1681526020018460a0015181526020018460c001516001600160a01b031681526020016000801b815250905060006126f96115b4565b84519091506127089083613b5f565b600061271785600001516114fb565b905061272b8560a001518660800151613cb4565b8051600a8301556020810151600b83015560400151600c820155610160850151600182019061275a9082615c3f565b506001840154612779906bffffffffffffffffffffffff166010615b11565b60018501546101008701516127b7916127ab916bffffffffffffffffffffffff909116906001600160801b0316615cfe565b60ff81901d9081011890565b106128045760405162461bcd60e51b815260206004820152601b60248201527f4d696e2067616d652074696d65206f7574206f6620626f756e64730000000000604482015260640161092c565b84606001518460040154111561285c5760405162461bcd60e51b815260206004820152601860248201527f4d696e20706c6179657220636f756e7420746f6f206c6f770000000000000000604482015260640161092c565b6101008086015160408051610160810182528754815260018801546bffffffffffffffffffffffff811660208301526001600160a01b036c01000000000000000000000000909104811692820192909252600288015482166060820152600388015482166080820152600488015460a08201526005880154821660c08201526006880154821660e082015260078801548216938101939093526008870154811661012084015260098701541661014083015260009161291b91906115dd565b9050600061292c826009600a611ec9565b9050600061293a8284615d1e565b6003880154600189015460408b81015190517f79cc67900000000000000000000000000000000000000000000000000000000081526001600160a01b03918216600482015260248101879052939450918216926c01000000000000000000000000909104909116906379cc679090604401600060405180830381600087803b1580156129c557600080fd5b505af11580156129d9573d6000803e3d6000fd5b50505050600188015460408a81015190516323b872dd60e01b81526001600160a01b0391821660048201528382166024820152604481018590526c0100000000000000000000000090920416906323b872dd906064016020604051808303816000875af1158015612a4e573d6000803e3d6000fd5b505050506040513d601f19601f82011682018060405250810190612a729190615d31565b508860200151600003612ab1576040517fc7fa2ae200000000000000000000000000000000000000000000000000000000815260040160405180910390fd5b604089015160038601805473ffffffffffffffffffffffffffffffffffffffff19166001600160a01b0390921691909117905585546001908790600090612af9908490615a0b565b909155505060208901518086556101008a01516001600160801b0316600287015560048701546001600160a01b031690819063731133e9903090600190612b409082615a0b565b6040517fffffffff0000000000000000000000000000000000000000000000000000000060e086901b1681526001600160a01b03909316600484015260248301919091526044820152608060648201526000608482015260a4015b600060405180830381600087803b158015612bb557600080fd5b505af1158015612bc9573d6000803e3d6000fd5b5050505050505050505050505050565b6000612c2e8360408051602080820193909352815180820384018152908201825280519083012060009081527fb12a0409539e5fa777ebbd0648c2d35d1b56f5385885518278a66364324a9138909252902090565b9050806008015460001480612c59575080600701548160060154612c529190615a0b565b8160080154145b612ccb5760405162461bcd60e51b815260206004820152603660248201527f43616e6e6f74206d757461746520706f736974696f6e2077697468206375727260448201527f656e746c7920706f7369746976652062616c616e636500000000000000000000606482015260840161092c565b815180516001830155602081015160028301556040810151600383015560608101516004830155608001516005820155612d09600a82016000615165565b612d17600b82016000615165565b612d25600982016000615183565b60005b8260200151518110156130025781600a0183602001518281518110612d4f57612d4f615965565b602090810291909101810151518254600181018455600093845292829020909201805473ffffffffffffffffffffffffffffffffffffffff19166001600160a01b03909316929092179091558301518051600b8401919083908110612db657612db6615965565b602090810291909101810151810151825460018101845560009384529282902090920191909155830151805160098401919083908110612df857612df8615965565b60209081029190910181015160400151825460018101845560009384529282902091830490910180549192909160ff601f9092166101000a918202191690836002811115612e4857612e48615d53565b021790555082602001518181518110612e6357612e63615965565b60200260200101516060015182600001600085602001518481518110612e8b57612e8b615965565b6020026020010151604001516002811115612ea857612ea8615d53565b6002811115612eb957612eb9615d53565b8152602001908152602001600020600085602001518481518110612edf57612edf615965565b6020026020010151600001516001600160a01b03166001600160a01b03168152602001908152602001600020600085602001518481518110612f2357612f23615965565b60209081029190910181015181015182528101919091526040016000208151805182908190612f529082615c3f565b50602091820151600190910155820151805160028301908190612f759082615c3f565b50602091909101516001909101556040820151805160048301908190612f9b9082615c3f565b50602091909101516001909101556060820151805160068301908190612fc19082615c3f565b50602091909101516001909101556080820151805160088301908190612fe79082615c3f565b50602082015181600101555050905050806001019050612d28565b50600c01805460ff191660011790555050565b600061306a8360408051602080820193909352815180820384018152908201825280519083012060009081527fb12a0409539e5fa777ebbd0648c2d35d1b56f5385885518278a66364324a9138909252902090565b9050610b978183613e49565b61307f82611bc0565b6130898282613ed2565b60006130936115b4565b905060006130a0846114fb565b905060018160000154111561209657805460048301546120969185916001600160a01b0316614048565b6000806130d6836140a0565b6000848152600080516020615e7883398151915260205260409020600c8101549192506008019060ff161580613110575061311084611cd4565b1561311f575060009392505050565b8115611814575060019392505050565b6000818152600080516020615e7883398151915260208190526040822090919061315b90600d01611ebc565b905060005b815181101561329a5760008481526020849052604081208351601390910190829085908590811061319357613193615965565b60200260200101516001600160a01b03166001600160a01b0316815260200190815260200160002081905550600083600001600086815260200190815260200160002060080160070160008484815181106131f0576131f0615965565b60200260200101516001600160a01b03166001600160a01b0316815260200190815260200160002060006101000a81548160ff0219169083151502179055506000836000016000868152602001908152602001600020600801600801600084848151811061326057613260615965565b6020908102919091018101516001600160a01b03168252810191909152604001600020805460ff1916911515919091179055600101613160565b50600083815260208390526040812060088101829055600c8101805461ffff1916905560148101805460ff191690556132d891601590910190615165565b600083815260208390526040812060118101829055600d019081816132fd8282615165565b5050506000938452505060205260408120600a81018290556009810182905560120155565b6000818152600080516020615e788339815191526020526040812060068101546001600160a01b0316156133595750600192915050565b50600092915050565b600482015460ff16156133b75760405162461bcd60e51b815260206004820152601a60248201527f737461727447616d652d3e616c72656164792073746172746564000000000000604482015260640161092c565b81600201546000036134315760405162461bcd60e51b815260206004820152602d60248201527f737461727447616d652d3e47616d6520726567697374726174696f6e2077617360448201527f206e6f7420796574206f70656e00000000000000000000000000000000000000606482015260840161092c565b826000036134815760405162461bcd60e51b815260206004820152601960248201527f737461727447616d652d3e47616d65206e6f7420666f756e6400000000000000604482015260640161092c565b60008381526020829052604090206002015461349f60058401612330565b10156134ed5760405162461bcd60e51b815260206004820152601d60248201527f737461727447616d652d3e4e6f7420656e6f75676820706c6179657273000000604482015260640161092c565b60048201805461ffff1916600190811790915580835542908301819055600383015561351882614116565b600061352683600501612330565b600a8401819055905060005b8181101561357b5760006135496005860183614172565b6001600160a01b031660009081526008860160205260409020805460ff19166001908117909155919091019050613532565b5050505050565b6060816000018054806020026020016040519081016040528092919081815260200182805480156135d257602002820191906000526020600020905b8154815260200190600101908083116135be575b50505050509050919050565b634e487b71600052806020526024601cfd5b6040517fe2ab691d0000000000000000000000000000000000000000000000000000000081526001600160a01b038481166004830152602482018490526001604483015282919082169063e2ab691d906064015b600060405180830381600087803b15801561365e57600080fd5b505af1158015613672573d6000803e3d6000fd5b5050505050505050565b6000818152600080516020615e7883398151915260205260408120600c81015460089091019060ff16806136b257506002810154155b156136c05750600092915050565b50600192915050565b60006108b6836001600160a01b03841661417e565b600080600083516041036137185760208401516040850151606086015160001a61370a888285856141cd565b955095509550505050613724565b50508151600091506002905b9250925092565b600082600381111561373f5761373f615d53565b03613748575050565b600182600381111561375c5761375c615d53565b03613793576040517ff645eedf00000000000000000000000000000000000000000000000000000000815260040160405180910390fd5b60028260038111156137a7576137a7615d53565b036137e1576040517ffce698f70000000000000000000000000000000000000000000000000000000081526004810182905260240161092c565b60038260038111156137f5576137f5615d53565b036117bd576040517fd78bce0c0000000000000000000000000000000000000000000000000000000081526004810182905260240161092c565b306001600160a01b03861603613958576002860154156138845760028601546040516001600160a01b0383169180156108fc02916000818181858888f19350505050158015613882573d6000803e3d6000fd5b505b6004860154156138c95760048601546040516001600160a01b0386169180156108fc02916000818181858888f193505050501580156138c7573d6000803e3d6000fd5b505b60058601541561390e5760058601546040516001600160a01b0385169180156108fc02916000818181858888f1935050505015801561390c573d6000803e3d6000fd5b505b6003860154156139535760038601546040516001600160a01b0384169180156108fc02916000818181858888f19350505050158015613951573d6000803e3d6000fd5b505b6139e2565b6003860154600587015460048801546002890154600093929161397a91615a0b565b6139849190615a0b565b61398e9190615a0b565b9050803410156139e05760405162461bcd60e51b815260206004820152601160248201527f6d73672e76616c756520746f6f206c6f77000000000000000000000000000000604482015260640161092c565b505b60005b600a870154811015613b5657600087600a018281548110613a0857613a08615965565b6000918252602082200154600b8a0180546001600160a01b0390921693509084908110613a3757613a37615965565b906000526020600020015490506000896009018481548110613a5b57613a5b615965565b60009182526020808320908204015460ff601f9092166101000a90041691508a81836002811115613a8e57613a8e615d53565b6002811115613a9f57613a9f615d53565b8152602080820192909252604090810160009081206001600160a01b0388168252835281812086825290925281209150826002811115613ae157613ae1615d53565b03613afa57613af584828c8c8c8c8c61429c565b613b47565b6002826002811115613b0e57613b0e615d53565b03613b1e57613af584828c6143eb565b6001826002811115613b3257613b32615d53565b03613b4757613b478484838d8d8d8d8d614568565b505050508060010190506139e5565b50505050505050565b613b6882613322565b15613bb55760405162461bcd60e51b815260206004820152601a60248201527f63726561746547616d652d3e416c726561647920657869737473000000000000604482015260640161092c565b81600003613c055760405162461bcd60e51b815260206004820152601260248201527f63726561746547616d652d3e67616d6549640000000000000000000000000000604482015260640161092c565b613c0f82826148a7565b7faa1f1fd6916372407d8e1fff30618f7864d63b564f087227812164c61d47c7498054600080516020615e7883398151915291600191600090613c53908490615a0b565b90915550506002810154604080516020810186905290810191909152600080516020615e78833981519152606082015260800160408051601f1981840301815291815281516020928301206000958652929091529092206007019190915550565b613cd860405180606001604052806000815260200160008152602001600081525090565b613cfc60405180606001604052806000815260200160008152602001600081525090565b613d0584614c16565b60208201526000805b6002828460200151613d209190615d1e565b613d2a9190615d69565b613d349082615a0b565b905081613d4081615b28565b925050858110613d0e57858114613dbf5760405162461bcd60e51b815260206004820152603460248201527f717561647261746963566f74696e674572726f723a20766f746543726564697460448201527f73206d75737420626520695e3220736572696573000000000000000000000000606482015260840161092c565b60408301829052818511613e3d576040805162461bcd60e51b81526020600482015260248101919091527f717561647261746963566f74696e674572726f723a204d696e696d756d20566f60448201527f74696e6720706f736974696f6e732061626f7665206d696e20706c6179657273606482015260840161092c565b50509283525090919050565b816008015482600701548360060154613e629190615a0b565b10613eaf5760405162461bcd60e51b815260206004820152601c60248201527f4e6f7420656e6f7567682062616c616e636520746f20726566756e6400000000604482015260640161092c565b613ebd82308384858661382f565b60018260060160008282546123279190615a0b565b6000828152600080516020615e7883398151915260208190526040909120600801613efc84613322565b613f485760405162461bcd60e51b815260206004820152601360248201527f67616d6520646f6573206e6f7420657869737400000000000000000000000000604482015260640161092c565b6001600160a01b03831660009081526001830160205260409020548414613fb15760405162461bcd60e51b815260206004820152600f60248201527f4e6f7420696e207468652067616d650000000000000000000000000000000000604482015260640161092c565b600481015460ff161580613fd45750600481015460ff6101009091041615156001145b6140205760405162461bcd60e51b815260206004820152601960248201527f43616e6e6f74206c65617665206f6e6365207374617274656400000000000000604482015260640161092c565b6001600160a01b038316600090815260018301602052604081205561357b6005820184614d7c565b6040517fb5674c680000000000000000000000000000000000000000000000000000000081526001600160a01b038481166004830152602482018490526001604483015282919082169063b5674c6890606401613644565b6000818152600080516020615e788339815191526020819052604082206008018383036140cf576140cf615d78565b600481015460ff1615156001146140e8576140e8615d78565b60018101546000858152602084905260409020546141069190615a0b565b42116119d8575060009392505050565b60005b61412582600501612330565b8110156117bd57600061413b6005840183614172565b6001600160a01b031660009081526007840160209081526040808320805460ff19169055600b860190915281205550600101614119565b60006108b68383614d91565b60008181526001830160205260408120546141c557508154600181810184556000848152602080822090930184905584548482528286019093526040902091909155610aa9565b506000610aa9565b600080807f7fffffffffffffffffffffffffffffff5d576e7357a4501ddfe92f46681b20a08411156142085750600091506003905082614292565b604080516000808252602082018084528a905260ff891692820192909252606081018790526080810186905260019060a0016020604051602081039080840390855afa15801561425c573d6000803e3d6000fd5b5050604051601f1901519150506001600160a01b03811661428857506000925060019150829050614292565b9250600091508190505b9450945094915050565b6142af8786838960020160010154614dbb565b6142c28786848960040160010154614dbb565b6142d58786868960060160010154614dbb565b6142e88786858960080160010154614dbb565b60018601548790801580159061430757506001600160a01b0387163014155b156143e0576040517f70a082310000000000000000000000000000000000000000000000000000000081526001600160a01b0388811660048301528291908416906370a0823190602401602060405180830381865afa15801561436e573d6000803e3d6000fd5b505050506040513d601f19601f820116820180604052508101906143929190615d8e565b10156143e05760405162461bcd60e51b815260206004820152601760248201527f4e6f7420656e6f75676820657263323020746f6b656e73000000000000000000604482015260640161092c565b505050505050505050565b6003820154839015801561440157506005830154155b801561440f57506007830154155b801561441d57506009830154155b6144695760405162461bcd60e51b815260206004820152601e60248201527f455243373231207472616e7366657273206e6f7420737570706f727465640000604482015260640161092c565b60018301541580159061448557506001600160a01b0382163014155b15612096576040517f70a082310000000000000000000000000000000000000000000000000000000081526001600160a01b038381166004830152600091908316906370a0823190602401602060405180830381865afa1580156144ed573d6000803e3d6000fd5b505050506040513d601f19601f820116820180604052508101906145119190615d8e565b600185015490915081101561357b5760405162461bcd60e51b815260206004820152601960248201527f4e6f7420656e6f756768204552433732312062616c616e636500000000000000604482015260640161092c565b600186015488908015614655576040517efdd58e0000000000000000000000000000000000000000000000000000000081526001600160a01b038881166004830152602482018b90526000919084169062fdd58e90604401602060405180830381865afa1580156145dd573d6000803e3d6000fd5b505050506040513d601f19601f820116820180604052508101906146019190615d8e565b9050818110156146535760405162461bcd60e51b815260206004820152601c60248201527f455243313135352062616c616e6365206973206e6f742076616c696400000000604482015260640161092c565b505b50600787015480156146ce57816001600160a01b031663f242432a88888c858d6006016000016040518663ffffffff1660e01b815260040161469b959493929190615da7565b600060405180830381600087803b1580156146b557600080fd5b505af11580156146c9573d6000803e3d6000fd5b505050505b506009870154801561474757816001600160a01b031663f242432a88878c858d6008016000016040518663ffffffff1660e01b8152600401614714959493929190615da7565b600060405180830381600087803b15801561472e57600080fd5b505af1158015614742573d6000803e3d6000fd5b505050505b5060058701548015614855576001600160a01b0384166147e8576040517ff5298aca0000000000000000000000000000000000000000000000000000000081526001600160a01b038881166004830152602482018b90526044820183905283169063f5298aca90606401600060405180830381600087803b1580156147cb57600080fd5b505af11580156147df573d6000803e3d6000fd5b50505050614855565b816001600160a01b031663f242432a88868c858d6004016000016040518663ffffffff1660e01b8152600401614822959493929190615da7565b600060405180830381600087803b15801561483c57600080fd5b505af1158015614850573d6000803e3d6000fd5b505050505b506003870154801561489b57816001600160a01b031663f242432a88858c858d6002016000016040518663ffffffff1660e01b8152600401612b9b959493929190615da7565b50505050505050505050565b6000828152600080516020615e78833981519152602081905260408220835191929091900361493f576040516320ddb3bf60e11b815260206004820152602260248201527f4c69625442473a3a696e69742d3e73657474696e67732e74696d65506572547560448201527f726e000000000000000000000000000000000000000000000000000000000000606482015260840161092c565b82602001516000036149ba576040516320ddb3bf60e11b815260206004820152602360248201527f4c69625442473a3a696e69742d3e73657474696e67732e6d6178506c6179657260448201527f436e740000000000000000000000000000000000000000000000000000000000606482015260840161092c565b6001836040015111614a35576040516320ddb3bf60e11b815260206004820152602360248201527f4c69625442473a3a696e69742d3e73657474696e67732e6d696e506c6179657260448201527f436e740000000000000000000000000000000000000000000000000000000000606482015260840161092c565b8260800151600003614a8a576040516320ddb3bf60e11b815260206004820152601f60248201527f4c69625442473a3a696e69742d3e73657474696e67732e6d61785475726e7300604482015260640161092c565b8260600151600003614adf576040516320ddb3bf60e11b815260206004820152601860248201527f4c69625442473a3a696e69742d3e74696d65546f4a6f696e0000000000000000604482015260640161092c565b8260200151816002015410614b37576040516320ddb3bf60e11b815260206004820152601a60248201527f4c69625442473a3a696e69742d3e6d6178506c61796572436e74000000000000604482015260640161092c565b60c08301516001600160a01b0316614b92576040516320ddb3bf60e11b815260206004820152601860248201527f4c69625442473a3a696e69742d3e67616d654d61737465720000000000000000604482015260640161092c565b506000928352602090815260409283902082518155908201516001820155918101516002830155606081015160038301556080810151600483015560a0810151600583015560c081015160068301805473ffffffffffffffffffffffffffffffffffffffff19166001600160a01b0390921691909117905560e00151600790910155565b600060018211614c24575090565b8160017001000000000000000000000000000000008210614c4a5760809190911c9060401b5b680100000000000000008210614c655760409190911c9060201b5b6401000000008210614c7c5760209190911c9060101b5b620100008210614c915760109190911c9060081b5b6101008210614ca55760089190911c9060041b5b60108210614cb85760049190911c9060021b5b60048210614cc45760011b5b600302600190811c90818581614cdc57614cdc615b42565b048201901c90506001818581614cf457614cf4615b42565b048201901c90506001818581614d0c57614d0c615b42565b048201901c90506001818581614d2457614d24615b42565b048201901c90506001818581614d3c57614d3c615b42565b048201901c90506001818581614d5457614d54615b42565b048201901c9050614d73818581614d6d57614d6d615b42565b04821190565b90039392505050565b60006108b6836001600160a01b038416615021565b6000826000018281548110614da857614da8615965565b9060005260206000200154905092915050565b83811561357b57306001600160a01b03851603614eec576001600160a01b03831615614e74576040517fa9059cbb0000000000000000000000000000000000000000000000000000000081526001600160a01b0384811660048301526024820184905282169063a9059cbb906044015b6020604051808303816000875af1158015614e4a573d6000803e3d6000fd5b505050506040513d601f19601f82011682018060405250810190614e6e9190615d31565b5061357b565b6040517f42966c68000000000000000000000000000000000000000000000000000000008152600481018390526001600160a01b038216906342966c6890602401600060405180830381600087803b158015614ecf57600080fd5b505af1158015614ee3573d6000803e3d6000fd5b5050505061357b565b6001600160a01b03831615614f38576040516323b872dd60e01b81526001600160a01b0385811660048301528481166024830152604482018490528216906323b872dd90606401614e2b565b6040516323b872dd60e01b81526001600160a01b038581166004830152306024830152604482018490528216906323b872dd906064016020604051808303816000875af1158015614f8d573d6000803e3d6000fd5b505050506040513d601f19601f82011682018060405250810190614fb19190615d31565b506040517f42966c68000000000000000000000000000000000000000000000000000000008152600481018390526001600160a01b038216906342966c6890602401600060405180830381600087803b15801561500d57600080fd5b505af11580156143e0573d6000803e3d6000fd5b6000818152600183016020526040812054801561510a576000615045600183615d1e565b855490915060009061505990600190615d1e565b90508082146150be57600086600001828154811061507957615079615965565b906000526020600020015490508087600001848154811061509c5761509c615965565b6000918252602080832090910192909255918252600188019052604090208390555b85548690806150cf576150cf615e61565b600190038181906000526020600020016000905590558560010160008681526020019081526020016000206000905560019350505050610aa9565b6000915050610aa9565b5092915050565b60405180604001604052806151586040518060a0016040528060008152602001600081526020016000815260200160008152602001600081525090565b8152602001606081525090565b508054600082559060005260206000209081019061158291906151a4565b50805460008255601f01602090049060005260206000209081019061158291905b5b8082111561205157600081556001016151a5565b6000602082840312156151cb57600080fd5b5035919050565b600081518084526020840193506020830160005b8281101561520d5781516001600160a01b03168652602095860195909101906001016151e6565b5093949350505050565b60408152600061522a60408301856151d2565b828103602084015280845180835260208301915060208601925060005b81811015615265578351835260209384019390920191600101615247565b50909695505050505050565b80356001600160a01b038116811461528857600080fd5b919050565b60008083601f84011261529f57600080fd5b50813567ffffffffffffffff8111156152b757600080fd5b6020830191508360208285010111156152cf57600080fd5b9250929050565b6000806000806000608086880312156152ee57600080fd5b6152f786615271565b945061530560208701615271565b935060408601359250606086013567ffffffffffffffff81111561532857600080fd5b6153348882890161528d565b969995985093965092949392505050565b600081518084526020840193506020830160005b8281101561520d5781511515865260209586019590910190600101615359565b60408152600061538c6040830185615345565b90508260208301529392505050565b80356001600160801b038116811461528857600080fd5b6000602082840312156153c457600080fd5b6108b68261539b565b634e487b7160e01b600052604160045260246000fd5b604051610140810167ffffffffffffffff81118282101715615407576154076153cd565b60405290565b60008067ffffffffffffffff841115615428576154286153cd565b50604051601f19601f85018116603f0116810181811067ffffffffffffffff82111715615457576154576153cd565b60405283815290508082840185101561546f57600080fd5b83836020830137600060208583010152509392505050565b600082601f83011261549857600080fd5b6108b68383356020850161540d565b600080600080600060a086880312156154bf57600080fd5b85359450602086013567ffffffffffffffff8111156154dd57600080fd5b8601601f810188136154ee57600080fd5b6154fd8882356020840161540d565b9450506040860135925060608601359150608086013567ffffffffffffffff81111561552857600080fd5b61553488828901615487565b9150509295509295909350565b80356bffffffffffffffffffffffff8116811461528857600080fd5b60006020828403121561556f57600080fd5b813567ffffffffffffffff81111561558657600080fd5b8201610140818503121561559957600080fd5b6155a16153e3565b8135815260208083013590820152604080830135908201526155c560608301615541565b6060820152608082810135908201526155e060a08301615271565b60a08201526155f160c0830161539b565b60c082015261560260e0830161539b565b60e0820152615614610100830161539b565b61010082015261012082013567ffffffffffffffff81111561563557600080fd5b61564186828501615487565b61012083015250949350505050565b6020815260006108b660208301846151d2565b6000806040838503121561567657600080fd5b50508035926020909101359150565b60006101a0820190508251825260208301511515602083015260408301518051604084015260208101516156c960608501826bffffffffffffffffffffffff169052565b5060408101516001600160a01b03811660808501525060608101516001600160a01b03811660a08501525060808101516001600160a01b03811660c08501525060a081015160e084015260c08101516001600160a01b0381166101008501525060e08101516001600160a01b038116610120850152506101008101516001600160a01b038116610140850152506101208101516001600160a01b0381166101608501525061014001516001600160a01b038116610180840152615114565b6000806040838503121561579a57600080fd5b823591506157aa60208401615271565b90509250929050565b60008083601f8401126157c557600080fd5b50813567ffffffffffffffff8111156157dd57600080fd5b6020830191508360208260051b85010111156152cf57600080fd5b60008060008060008060008060a0898b03121561581457600080fd5b61581d89615271565b975061582b60208a01615271565b9650604089013567ffffffffffffffff81111561584757600080fd5b6158538b828c016157b3565b909750955050606089013567ffffffffffffffff81111561587357600080fd5b61587f8b828c016157b3565b909550935050608089013567ffffffffffffffff81111561589f57600080fd5b6158ab8b828c0161528d565b999c989b5096995094979396929594505050565b6000602082840312156158d157600080fd5b6108b682615271565b6020815260006108b66020830184615345565b60008060008060008060a0878903121561590657600080fd5b61590f87615271565b955061591d60208801615271565b94506040870135935060608701359250608087013567ffffffffffffffff81111561594757600080fd5b61595389828a0161528d565b979a9699509497509295939492505050565b634e487b7160e01b600052603260045260246000fd5b60005b8381101561599657818101518382015260200161597e565b50506000910152565b600082516159b181846020870161597b565b9190910192915050565b82815260406020820152600082518060408401526159e081606085016020870161597b565b601f01601f1916919091016060019392505050565b634e487b7160e01b600052601160045260246000fd5b80820180821115610aa957610aa96159f5565b6001815b6001841115615a5957808504811115615a3d57615a3d6159f5565b6001841615615a4b57908102905b60019390931c928002615a22565b935093915050565b600082615a7057506001610aa9565b81615a7d57506000610aa9565b8160018114615a935760028114615a9d57615ab9565b6001915050610aa9565b60ff841115615aae57615aae6159f5565b50506001821b610aa9565b5060208310610133831016604e8410600b8410161715615adc575081810a610aa9565b615ae96000198484615a1e565b8060001904821115615afd57615afd6159f5565b029392505050565b60006108b68383615a61565b8082028115828204841417610aa957610aa96159f5565b60006000198203615b3b57615b3b6159f5565b5060010190565b634e487b7160e01b600052601260045260246000fd5b60006bffffffffffffffffffffffff831680615b7657615b76615b42565b806bffffffffffffffffffffffff84160691505092915050565b60006001600160801b03831680615ba957615ba9615b42565b806001600160801b0384160691505092915050565b600181811c90821680615bd257607f821691505b602082108103615bf257634e487b7160e01b600052602260045260246000fd5b50919050565b601f821115610b9757806000526020600020601f840160051c81016020851015615c1f5750805b601f840160051c820191505b8181101561357b5760008155600101615c2b565b815167ffffffffffffffff811115615c5957615c596153cd565b615c6d81615c678454615bbe565b84615bf8565b6020601f821160018114615ca15760008315615c895750848201515b600019600385901b1c1916600184901b17845561357b565b600084815260208120601f198516915b82811015615cd15787850151825560209485019460019092019101615cb1565b5084821015615cef5786840151600019600387901b60f8161c191681555b50505050600190811b01905550565b8181036000831280158383131683831282161715615114576151146159f5565b81810381811115610aa957610aa96159f5565b600060208284031215615d4357600080fd5b815180151581146108b657600080fd5b634e487b7160e01b600052602160045260246000fd5b60006108b660ff841683615a61565b634e487b7160e01b600052600160045260246000fd5b600060208284031215615da057600080fd5b5051919050565b6001600160a01b03861681526001600160a01b038516602082015283604082015282606082015260a060808201526000808354615de381615bbe565b8060a08601526001821660008114615e025760018114615e1e57615e52565b60ff19831660c087015260c082151560051b8701019350615e52565b86600052602060002060005b83811015615e4957815488820160c00152600190910190602001615e2a565b870160c0019450505b50919998505050505050505050565b634e487b7160e01b600052603160045260246000fdfeaa1f1fd6916372407d8e1fff30618f7864d63b564f087227812164c61d47c747a26469706673582212202babdc5c1cea3ac96907eb3bec40f37264a659e1781b9a9a81cc3b37e057b1e364736f6c634300081c0033",
  "devdoc": {
    "author": "Peeramid Labs, 2024",
    "details": "Implements core game functionality, ERC token receivers, and reentrancy protection",
    "errors": {
      "ECDSAInvalidSignature()": [
        {
          "details": "The signature derives the `address(0)`."
        }
      ],
      "ECDSAInvalidSignatureLength(uint256)": [
        {
          "details": "The signature has an invalid length."
        }
      ],
      "ECDSAInvalidSignatureS(bytes32)": [
        {
          "details": "The signature has an S value that is in the upper half order."
        }
      ]
    },
    "kind": "dev",
    "methods": {
      "canEndTurn(uint256)": {
        "details": "Returns whether the turn can be ended early for the game with the specified ID",
        "params": {
          "gameId": "The ID of the game"
        },
        "returns": {
          "_0": "bool Whether the turn can be ended early"
        }
      },
      "canStartGame(uint256)": {
        "details": "Returns whether the game with the specified ID can be started early",
        "params": {
          "gameId": "The ID of the game"
        },
        "returns": {
          "_0": "bool Whether the game can be started early"
        }
      },
      "cancelGame(uint256)": {
        "custom:security": "nonReentrant",
        "details": "Cancels a game with the provided game ID. `gameId` is the ID of the game.",
        "params": {
          "gameId": "The ID of the game."
        }
      },
      "createGame((uint256,uint256,uint256,uint96,uint256,address,uint128,uint128,uint128,string))": {
        "custom:security": "nonReentrant",
        "details": "External function to create a new game",
        "params": {
          "params": "Input parameters for creating a new game"
        }
      },
      "estimateGamePrice(uint128)": {
        "details": "Estimates the price of a game with the specified minimum game time",
        "params": {
          "minGameTime": "The minimum game time"
        },
        "returns": {
          "_0": "uint256 The estimated price of the game"
        }
      },
      "gameCreator(uint256)": {
        "details": "Returns the creator of the game with the specified ID",
        "params": {
          "gameId": "The ID of the game"
        },
        "returns": {
          "_0": "address The creator of the game"
        }
      },
      "gameWinner(uint256)": {
        "details": "Returns the winner of the game with the specified ID",
        "params": {
          "gameId": "The ID of the game"
        },
        "returns": {
          "_0": "address The winner of the game"
        }
      },
      "getContractState()": {
        "details": "Returns the current state of the contract",
        "returns": {
          "_0": "LibRankify.InstanceState The current state of the contract"
        }
      },
      "getGM(uint256)": {
        "details": "Returns the game master of the game with the specified ID",
        "params": {
          "gameId": "The ID of the game"
        },
        "returns": {
          "_0": "address The game master of the game"
        }
      },
      "getGameRank(uint256)": {
        "details": "Returns the rank of the game with the specified ID",
        "params": {
          "gameId": "The ID of the game"
        },
        "returns": {
          "_0": "uint256 The rank of the game"
        }
      },
      "getPlayerVotedArray(uint256)": {
        "details": "Returns the voted array for the game with the specified ID",
        "params": {
          "gameId": "The ID of the game"
        },
        "returns": {
          "_0": "bool[] The voted array"
        }
      },
      "getPlayers(uint256)": {
        "details": "Returns the players in the game with the specified ID",
        "params": {
          "gameId": "The ID of the game"
        },
        "returns": {
          "_0": "address[] The players in the game"
        }
      },
      "getPlayersGame(address)": {
        "details": "Returns the game ID of the game that the specified player is in",
        "params": {
          "player": "The address of the player"
        },
        "returns": {
          "_0": "uint256 The ID of the game"
        }
      },
      "getPlayersMoved(uint256)": {
        "details": "Returns the players who have moved in the game with the specified ID",
        "params": {
          "gameId": "The ID of the game"
        },
        "returns": {
          "_0": "bool[] The players who have moved",
          "_1": "uint256 The number of players who have moved"
        }
      },
      "getScores(uint256)": {
        "details": "Returns the scores of the game with the specified ID",
        "params": {
          "gameId": "The ID of the game"
        },
        "returns": {
          "_0": "address[] The players in the game",
          "_1": "uint256[] The scores of the players"
        }
      },
      "getTurn(uint256)": {
        "details": "Returns the current turn of the game with the specified ID",
        "params": {
          "gameId": "The ID of the game"
        },
        "returns": {
          "_0": "uint256 The current turn of the game"
        }
      },
      "isGameOver(uint256)": {
        "details": "Returns whether the game with the specified ID is over",
        "params": {
          "gameId": "The ID of the game"
        },
        "returns": {
          "_0": "bool Whether the game is over"
        }
      },
      "isLastTurn(uint256)": {
        "details": "Returns whether the game with the specified ID is in the last turn",
        "params": {
          "gameId": "The ID of the game"
        },
        "returns": {
          "_0": "bool Whether the game is in the last turn"
        }
      },
      "isOvertime(uint256)": {
        "details": "Returns whether the game with the specified ID is in overtime",
        "params": {
          "gameId": "The ID of the game"
        },
        "returns": {
          "_0": "bool Whether the game is in overtime"
        }
      },
      "isPlayerTurnComplete(uint256,address)": {
        "details": "Returns whether the player has completed their turn in the game with the specified ID",
        "params": {
          "gameId": "The ID of the game",
          "player": "The address of the player"
        },
        "returns": {
          "_0": "bool Whether the player has completed their turn"
        }
      },
      "isRegistrationOpen(uint256)": {
        "details": "Returns whether registration is open for the game with the specified ID",
        "params": {
          "gameId": "The ID of the game"
        },
        "returns": {
          "_0": "bool Whether registration is open"
        }
      },
      "joinGame(uint256,bytes,bytes32,uint256,string)": {
        "custom:security": "nonReentrant",
        "details": "Allows a player to join a game with the provided game ID. `gameId` is the ID of the game.",
        "params": {
          "deadline": "The deadline for the player to sign the gmCommitment.",
          "gameId": "The ID of the game.",
          "gameMasterSignature": "The ECDSA signature of the game master.",
          "gmCommitment": "The gmCommitment to the player signed by the game master."
        }
      },
      "leaveGame(uint256)": {
        "custom:security": "nonReentrant",
        "details": "Allows a player to leave a game with the provided game ID. `gameId` is the ID of the game.",
        "params": {
          "gameId": "The ID of the game."
        }
      },
      "openRegistration(uint256)": {
        "details": "Opens registration for a game with the provided game ID. `gameId` is the ID of the game.",
        "params": {
          "gameId": "The ID of the game."
        }
      },
      "startGame(uint256,uint256)": {
        "details": "Starts a game with the provided game ID early. `gameId` is the ID of the game.",
        "params": {
          "gameId": "The ID of the game.",
          "permutationCommitment": "The commitment to the permutation issued by the game master."
        }
      }
    },
    "title": "RankifyInstanceMainFacet",
    "version": 1
  },
  "userdoc": {
    "kind": "user",
    "methods": {
      "cancelGame(uint256)": {
        "notice": "This function:         - Calls the `enforceIsGameCreator` function with `msg.sender`.         - Cancels the game.         - Emits a _GameClosed_ event."
      },
      "createGame((uint256,uint256,uint256,uint96,uint256,address,uint128,uint128,uint128,string))": {
        "notice": "This function:         - Validates the contract is initialized         - Processes input parameters         - Creates a new game with specified settings"
      },
      "joinGame(uint256,bytes,bytes32,uint256,string)": {
        "notice": "This function:         - Calls the `joinGame` function with `msg.sender`.         - Calls the `fund` function with `bytes32(gameId)`.         - Emits a _PlayerJoined_ event."
      },
      "leaveGame(uint256)": {
        "notice": "This function:         - Calls the `quitGame` function with `msg.sender`, `true`, and `onPlayerQuit`."
      },
      "openRegistration(uint256)": {
        "notice": "This function:         - Calls the `enforceIsGameCreator` function with `msg.sender`.         - Calls the `enforceIsPreRegistrationStage` function.         - Calls the `openRegistration` function.         - Emits a _RegistrationOpen_ event."
      },
      "startGame(uint256,uint256)": {
        "notice": "This function:         - Calls the `enforceGameExists` function.         - Calls the `startGameEarly` function.         - Emits a _GameStarted_ event."
      }
    },
    "notice": "Main facet for the Rankify protocol that handles game creation and management",
    "version": 1
  },
  "storageLayout": {
    "storage": [],
    "types": null
  }
}