{
  "address": "0x5061A1F6Ae20C0413515727Bd7BAa1c8e1C5E8d3",
  "abi": [
    {
      "inputs": [],
      "name": "InvalidInitialization",
      "type": "error"
    },
    {
      "inputs": [],
      "name": "NotInitializing",
      "type": "error"
    },
    {
      "anonymous": false,
      "inputs": [
        {
          "indexed": false,
          "internalType": "uint64",
          "name": "version",
          "type": "uint64"
        }
      ],
      "name": "Initialized",
      "type": "event"
    },
    {
      "inputs": [
        {
          "internalType": "string",
          "name": "name",
          "type": "string"
        },
        {
          "internalType": "string",
          "name": "version",
          "type": "string"
        },
        {
          "components": [
            {
              "internalType": "address",
              "name": "rewardToken",
              "type": "address"
            },
            {
              "internalType": "uint256",
              "name": "principalCost",
              "type": "uint256"
            },
            {
              "internalType": "uint96",
              "name": "principalTimeConstant",
              "type": "uint96"
            },
            {
              "internalType": "uint256",
              "name": "minimumParticipantsInCircle",
              "type": "uint256"
            },
            {
              "internalType": "address",
              "name": "paymentToken",
              "type": "address"
            },
            {
              "internalType": "address",
              "name": "beneficiary",
              "type": "address"
            },
            {
              "internalType": "address",
              "name": "derivedToken",
              "type": "address"
            },
            {
              "internalType": "address",
              "name": "proposalIntegrityVerifier",
              "type": "address"
            },
            {
              "internalType": "address",
              "name": "poseidon5",
              "type": "address"
            },
            {
              "internalType": "address",
              "name": "poseidon6",
              "type": "address"
            },
            {
              "internalType": "address",
              "name": "poseidon2",
              "type": "address"
            }
          ],
          "internalType": "struct RankifyInstanceInit.contractInitializer",
          "name": "initData",
          "type": "tuple"
        }
      ],
      "name": "init",
      "outputs": [],
      "stateMutability": "nonpayable",
      "type": "function"
    }
  ],
  "transactionHash": "0x06a3fe83ce4ea9871d152e949dfe664667884f366d4da4f59e1a57a11d7b1eea",
  "args": [],
  "numDeployments": 1,
  "solcInputHash": "7cb61b925576ad752230b5d72c5ec3e2",
  "bytecode": "0x6080604052348015600f57600080fd5b50610ce68061001f6000396000f3fe608060405234801561001057600080fd5b506004361061002b5760003560e01c80635f741df614610030575b600080fd5b61004361003e3660046109c9565b610045565b005b7ff0c57e16840df040f15088dc2f81fe391c3923bec73e23a9662efc9c229c6a00805468010000000000000000810460ff16159067ffffffffffffffff166000811580156100905750825b905060008267ffffffffffffffff1660011480156100ad5750303b155b9050811580156100bb575080155b156100f2576040517ff92ee8a900000000000000000000000000000000000000000000000000000000815260040160405180910390fd5b84547fffffffffffffffffffffffffffffffffffffffffffffffff0000000000000000166001178555831561013d57845468ff00000000000000001916680100000000000000001785555b7fc8fcad8db84d3cc18b4c41d551ea0ee66dd599cde068d998e57d5e09332c131f60209081527f699d9daa71b280d05a152715774afa0a81a312594b2d731d6b0b2552b7d6f69f8054600160ff1991821681179092557ff97e938d8af42f52387bb74b8b526fda8f184cc2aa534340a8d75a88fbecc77580548216831790557f65d510a5d8f7ef134ec444f7f34ee808c8eeb5177cdfd16be0c40fe1ab43369580548216831790557f7f5828d0000000000000000000000000000000000000000000000000000000006000527f5622121b47b8cd0120c4efe45dd5483242f54a3d49bd7679be565d47694918c3805490911690911790558851898201208851898301207fe5b6a7afa77789577f2802f0da58895f660e5798c5c11b2ea18b0a53bd65d3aa8290557fe5b6a7afa77789577f2802f0da58895f660e5798c5c11b2ea18b0a53bd65d3ab819055467fe5b6a7afa77789577f2802f0da58895f660e5798c5c11b2ea18b0a53bd65d3a8819055604080517f8b73c3c69bb8fe3d512ecc4cf759cc79239f7b179b0ffacaa9a75d522b39400f8187018190528183018690526060820185905260808201939093523060a08083018290528351808403909101815260c090920190925280519501949094207fe5b6a7afa77789577f2802f0da58895f660e5798c5c11b2ea18b0a53bd65d3a79081557fe5b6a7afa77789577f2802f0da58895f660e5798c5c11b2ea18b0a53bd65d3a980547fffffffffffffffffffffffff0000000000000000000000000000000000000000169095179094557fe5b6a7afa77789577f2802f0da58895f660e5798c5c11b2ea18b0a53bd65d3ac8190557fc8fcad8db84d3cc18b4c41d551ea0ee66dd599cde068d998e57d5e09332c131c937fe5b6a7afa77789577f2802f0da58895f660e5798c5c11b2ea18b0a53bd65d3ae6103f08e82610bc8565b50600681016103ff8d82610bc8565b5060208b01517fa12d076190200dcdcbe467d038e4860de98e28ac6ff33e86413a723b4ebb26c090815560408c015160808d015173ffffffffffffffffffffffffffffffffffffffff9081166c0100000000000000000000000081026bffffffffffffffffffffffff909316929092177fa12d076190200dcdcbe467d038e4860de98e28ac6ff33e86413a723b4ebb26c1558d517fa12d076190200dcdcbe467d038e4860de98e28ac6ff33e86413a723b4ebb26c280549183167fffffffffffffffffffffffff000000000000000000000000000000000000000092831617905560a08f01517fa12d076190200dcdcbe467d038e4860de98e28ac6ff33e86413a723b4ebb26c3805491841691831691909117905560608f01517fa12d076190200dcdcbe467d038e4860de98e28ac6ff33e86413a723b4ebb26c45560c08f01517fa12d076190200dcdcbe467d038e4860de98e28ac6ff33e86413a723b4ebb26c5805491841691831691909117905560e08f01517fa12d076190200dcdcbe467d038e4860de98e28ac6ff33e86413a723b4ebb26c680549184169183169190911790556101008f01517fa12d076190200dcdcbe467d038e4860de98e28ac6ff33e86413a723b4ebb26c780549184169183169190911790556101208f01517fa12d076190200dcdcbe467d038e4860de98e28ac6ff33e86413a723b4ebb26c880549184169183169190911790556101408f01517fa12d076190200dcdcbe467d038e4860de98e28ac6ff33e86413a723b4ebb26c980549190931691161790557fa12d076190200dcdcbe467d038e4860de98e28ac6ff33e86413a723b4ebb26be906106cc576040517f08c379a000000000000000000000000000000000000000000000000000000000815260206004820181905260248201527f696e697469616c697a65722e7061796d656e74546f6b656e206e6f742073657460448201526064015b60405180910390fd5b8c516040517f01ffc9a70000000000000000000000000000000000000000000000000000000081527fc79b8b5f00000000000000000000000000000000000000000000000000000000600482015273ffffffffffffffffffffffffffffffffffffffff8216906301ffc9a790602401602060405180830381865afa158015610758573d6000803e3d6000fd5b505050506040513d601f19601f8201168201806040525081019061077c9190610c87565b61082e576040517f08c379a000000000000000000000000000000000000000000000000000000000815260206004820152604960248201527f52616e6b696679496e7374616e63652d3e696e69743a2072616e6b20746f6b6560448201527f6e206164647265737320646f6573206e6f7420737570706f72742052616e6b2060648201527f696e746572666163650000000000000000000000000000000000000000000000608482015260a4016106c3565b506001908101805460ff191690911790555050871593506108929250505057845468ff000000000000000019168555604051600181527fc7f505b2f371ae2175ee4913f4499e1f2633a7b5936321eed1cdaeb6115181d29060200160405180910390a15b5050505050505050565b7f4e487b7100000000000000000000000000000000000000000000000000000000600052604160045260246000fd5b604051610160810167ffffffffffffffff811182821017156108ef576108ef61089c565b60405290565b600082601f83011261090657600080fd5b813567ffffffffffffffff8111156109205761092061089c565b604051601f8201601f19908116603f0116810167ffffffffffffffff8111828210171561094f5761094f61089c565b60405281815283820160200185101561096757600080fd5b816020850160208301376000918101602001919091529392505050565b803573ffffffffffffffffffffffffffffffffffffffff811681146109a857600080fd5b919050565b80356bffffffffffffffffffffffff811681146109a857600080fd5b60008060008385036101a08112156109e057600080fd5b843567ffffffffffffffff8111156109f757600080fd5b610a03878288016108f5565b945050602085013567ffffffffffffffff811115610a2057600080fd5b610a2c878288016108f5565b9350506101607fffffffffffffffffffffffffffffffffffffffffffffffffffffffffffffffc082011215610a6057600080fd5b50610a696108cb565b610a7560408601610984565b815260608501356020820152610a8d608086016109ad565b604082015260a08501356060820152610aa860c08601610984565b6080820152610ab960e08601610984565b60a0820152610acb6101008601610984565b60c0820152610add6101208601610984565b60e0820152610aef6101408601610984565b610100820152610b026101608601610984565b610120820152610b156101808601610984565b610140820152809150509250925092565b600181811c90821680610b3a57607f821691505b602082108103610b73577f4e487b7100000000000000000000000000000000000000000000000000000000600052602260045260246000fd5b50919050565b601f821115610bc357806000526020600020601f840160051c81016020851015610ba05750805b601f840160051c820191505b81811015610bc05760008155600101610bac565b50505b505050565b815167ffffffffffffffff811115610be257610be261089c565b610bf681610bf08454610b26565b84610b79565b6020601f821160018114610c2a5760008315610c125750848201515b600019600385901b1c1916600184901b178455610bc0565b600084815260208120601f198516915b82811015610c5a5787850151825560209485019460019092019101610c3a565b5084821015610c785786840151600019600387901b60f8161c191681555b50505050600190811b01905550565b600060208284031215610c9957600080fd5b81518015158114610ca957600080fd5b939250505056fea2646970667358221220e991c81ee73e17f090face744cc72a0f90c332ba99673d5ec45a15ce08276a3764736f6c634300081c0033",
  "devdoc": {
    "errors": {
      "InvalidInitialization()": [
        {
          "details": "The contract is already initialized."
        }
      ],
      "NotInitializing()": [
        {
          "details": "The contract is not initializing."
        }
      ]
    },
    "events": {
      "Initialized(uint64)": {
        "details": "Triggered when the contract has been initialized or reinitialized."
      }
    },
    "kind": "dev",
    "methods": {},
    "version": 1
  },
  "userdoc": {
    "kind": "user",
    "methods": {},
    "version": 1
  },
  "storageLayout": {
    "storage": [],
    "types": null
  }
}