{
  "address": "0x6B14b731ecC6b540ecbda65FEa9c96423CE78f5B",
  "abi": [
    {
      "inputs": [],
      "stateMutability": "nonpayable",
      "type": "constructor"
    },
    {
      "inputs": [
        {
          "internalType": "address",
          "name": "distributor",
          "type": "address"
        },
        {
          "internalType": "bytes4",
          "name": "interfaceId",
          "type": "bytes4"
        },
        {
          "internalType": "string",
          "name": "interfaceName",
          "type": "string"
        }
      ],
      "name": "ERC165CheckFailed",
      "type": "error"
    },
    {
      "inputs": [],
      "name": "InvalidInitialization",
      "type": "error"
    },
    {
      "inputs": [],
      "name": "NotInitializing",
      "type": "error"
    },
    {
      "inputs": [
        {
          "internalType": "address",
          "name": "sender",
          "type": "address"
        },
        {
          "internalType": "address",
          "name": "target",
          "type": "address"
        }
      ],
      "name": "OnlyTargetAllowed",
      "type": "error"
    },
    {
      "inputs": [
        {
          "internalType": "address",
          "name": "sender",
          "type": "address"
        },
        {
          "internalType": "bytes4",
          "name": "selector",
          "type": "bytes4"
        }
      ],
      "name": "disallowedAddress",
      "type": "error"
    },
    {
      "anonymous": false,
      "inputs": [
        {
          "indexed": false,
          "internalType": "uint64",
          "name": "version",
          "type": "uint64"
        }
      ],
      "name": "Initialized",
      "type": "event"
    },
    {
      "inputs": [
        {
          "internalType": "bytes",
          "name": "",
          "type": "bytes"
        },
        {
          "internalType": "bytes4",
          "name": "selector",
          "type": "bytes4"
        },
        {
          "internalType": "address",
          "name": "sender",
          "type": "address"
        },
        {
          "internalType": "uint256",
          "name": "value",
          "type": "uint256"
        },
        {
          "internalType": "bytes",
          "name": "data",
          "type": "bytes"
        },
        {
          "internalType": "bytes",
          "name": "beforeCallResult",
          "type": "bytes"
        }
      ],
      "name": "afterCall",
      "outputs": [],
      "stateMutability": "nonpayable",
      "type": "function"
    },
    {
      "inputs": [
        {
          "internalType": "bytes",
          "name": "",
          "type": "bytes"
        },
        {
          "internalType": "bytes4",
          "name": "selector",
          "type": "bytes4"
        },
        {
          "internalType": "address",
          "name": "sender",
          "type": "address"
        },
        {
          "internalType": "uint256",
          "name": "value",
          "type": "uint256"
        },
        {
          "internalType": "bytes",
          "name": "data",
          "type": "bytes"
        }
      ],
      "name": "beforeCall",
      "outputs": [
        {
          "internalType": "bytes",
          "name": "",
          "type": "bytes"
        }
      ],
      "stateMutability": "nonpayable",
      "type": "function"
    },
    {
      "inputs": [
        {
          "components": [
            {
              "internalType": "bytes4",
              "name": "selector",
              "type": "bytes4"
            },
            {
              "internalType": "address[]",
              "name": "disallowedAddresses",
              "type": "address[]"
            },
            {
              "internalType": "bool",
              "name": "distributionComponentsOnly",
              "type": "bool"
            }
          ],
          "internalType": "struct SimpleAccessManager.SimpleAccessManagerInitializer[]",
          "name": "methodSettings",
          "type": "tuple[]"
        },
        {
          "internalType": "address",
          "name": "target",
          "type": "address"
        },
        {
          "internalType": "contract IDistributor",
          "name": "distributor",
          "type": "address"
        }
      ],
      "name": "initialize",
      "outputs": [],
      "stateMutability": "nonpayable",
      "type": "function"
    },
    {
      "inputs": [
        {
          "internalType": "bytes4",
          "name": "interfaceId",
          "type": "bytes4"
        }
      ],
      "name": "supportsInterface",
      "outputs": [
        {
          "internalType": "bool",
          "name": "",
          "type": "bool"
        }
      ],
      "stateMutability": "view",
      "type": "function"
    }
  ],
  "transactionHash": "0x0bc38ea79c7bfc5baf86000a73da7a96b512c9e6d840f78470f28bc11ee65a24",
  "args": [],
  "numDeployments": 1,
  "solcInputHash": "1b9e844d30db1fb497c1cae6af1f768c",
  "bytecode": "0x6080604052348015600f57600080fd5b506016601a565b60ca565b7ff0c57e16840df040f15088dc2f81fe391c3923bec73e23a9662efc9c229c6a00805468010000000000000000900460ff161560695760405163f92ee8a960e01b815260040160405180910390fd5b80546001600160401b039081161460c75780546001600160401b0319166001600160401b0390811782556040519081527fc7f505b2f371ae2175ee4913f4499e1f2633a7b5936321eed1cdaeb6115181d29060200160405180910390a15b50565b61102b806100d96000396000f3fe608060405234801561001057600080fd5b506004361061004c5760003560e01c806301ffc9a7146100515780634440d2451461007957806390c2e49414610099578063c3e9576a146100ae575b600080fd5b61006461005f3660046109cb565b6100c1565b60405190151581526020015b60405180910390f35b61008c610087366004610b10565b610111565b6040516100709190610bf6565b6100ac6100a7366004610c3d565b61031a565b005b6100ac6100bc366004610dd7565b610768565b60006001600160e01b031982167f87a9852f00000000000000000000000000000000000000000000000000000000148061010b57506301ffc9a760e01b6001600160e01b03198316145b92915050565b7f883917585a083a085656d3e7588abb3fd0316b525e5500c800c1ce22110dfab5546060907f883917585a083a085656d3e7588abb3fd0316b525e5500c800c1ce22110dfab4906001600160a01b031633146101b55760018101546040517f1b2c4f3c0000000000000000000000000000000000000000000000000000000081523360048201526001600160a01b0390911660248201526044015b60405180910390fd5b6001600160e01b031986166000908152602082815260408083206001600160a01b038916845260010190915290205460ff1615610239576040517f02d54ec00000000000000000000000000000000000000000000000000000000081526001600160a01b03861660048201526001600160e01b0319871660248201526044016101ac565b6001600160e01b0319861660009081526020829052604090205460ff16156102ff576002810154604080513360208201526001600160a01b0390921691634440d2459101604051602081830303815290604052888888886040518663ffffffff1660e01b81526004016102b0959493929190610e97565b6000604051808303816000875af11580156102cf573d6000803e3d6000fd5b505050506040513d6000823e601f3d908101601f191682016040526102f79190810190610eed565b915050610311565b50506040805160208101909152600081525b95945050505050565b7ff0c57e16840df040f15088dc2f81fe391c3923bec73e23a9662efc9c229c6a00805468010000000000000000810460ff16159067ffffffffffffffff166000811580156103655750825b905060008267ffffffffffffffff1660011480156103825750303b155b905081158015610390575080155b156103c7576040517ff92ee8a900000000000000000000000000000000000000000000000000000000815260040160405180910390fd5b84547fffffffffffffffffffffffffffffffffffffffffffffffff0000000000000000166001178555831561041257845468ff00000000000000001916680100000000000000001785555b7f883917585a083a085656d3e7588abb3fd0316b525e5500c800c1ce22110dfab680546001600160a01b038881167fffffffffffffffffffffffff0000000000000000000000000000000000000000928316179092557f883917585a083a085656d3e7588abb3fd0316b525e5500c800c1ce22110dfab58054928a16929091169190911790557f883917585a083a085656d3e7588abb3fd0316b525e5500c800c1ce22110dfab46104e3877f6aadae34000000000000000000000000000000000000000000000000000000006108b9565b61057e576040517ff2775efe0000000000000000000000000000000000000000000000000000000081526001600160a01b03881660048201527f6aadae3400000000000000000000000000000000000000000000000000000000602482015260606044820152600c60648201527f494469737472696275746f720000000000000000000000000000000000000000608482015260a4016101ac565b885160005b81811015610710578a818151811061059d5761059d610f5b565b6020026020010151604001518360000160008d84815181106105c1576105c1610f5b565b602090810291909101810151516001600160e01b03191682528101919091526040016000908120805460ff1916921515929092179091558b518c908390811061060c5761060c610f5b565b60200260200101516020015151905060005b818110156107065760018560000160008f868151811061064057610640610f5b565b6020026020010151600001517bffffffffffffffffffffffffffffffffffffffffffffffffffffffff19167bffffffffffffffffffffffffffffffffffffffffffffffffffffffff1916815260200190815260200160002060010160008f86815181106106af576106af610f5b565b60200260200101516020015184815181106106cc576106cc610f5b565b6020908102919091018101516001600160a01b03168252810191909152604001600020805460ff191691151591909117905560010161061e565b5050600101610583565b505050831561075e57845468ff000000000000000019168555604051600181527fc7f505b2f371ae2175ee4913f4499e1f2633a7b5936321eed1cdaeb6115181d29060200160405180910390a15b5050505050505050565b7f883917585a083a085656d3e7588abb3fd0316b525e5500c800c1ce22110dfab5547f883917585a083a085656d3e7588abb3fd0316b525e5500c800c1ce22110dfab4906001600160a01b031633146108045760018101546040517f1b2c4f3c0000000000000000000000000000000000000000000000000000000081523360048201526001600160a01b0390911660248201526044016101ac565b6001600160e01b0319861660009081526020829052604090205460ff16156108b0576002810154604080513360208201526001600160a01b039092169163c3e9576a910160405160208183030381529060405288888888886040518763ffffffff1660e01b815260040161087d96959493929190610f8a565b600060405180830381600087803b15801561089757600080fd5b505af11580156108ab573d6000803e3d6000fd5b505050505b50505050505050565b60006108c4836108dc565b80156108d557506108d5838361090f565b9392505050565b60006108ef826301ffc9a760e01b61090f565b801561010b5750610908826001600160e01b031961090f565b1592915050565b6040516001600160e01b031982166024820152600090819060440160408051601f19818403018152919052602080820180517bffffffffffffffffffffffffffffffffffffffffffffffffffffffff166301ffc9a760e01b178152825192935060009283928392909183918a617530fa92503d91506000519050828015610997575060208210155b80156109a35750600081115b979650505050505050565b80356001600160e01b0319811681146109c657600080fd5b919050565b6000602082840312156109dd57600080fd5b6108d5826109ae565b7f4e487b7100000000000000000000000000000000000000000000000000000000600052604160045260246000fd5b6040516060810167ffffffffffffffff81118282101715610a3857610a386109e6565b60405290565b604051601f8201601f1916810167ffffffffffffffff81118282101715610a6757610a676109e6565b604052919050565b600067ffffffffffffffff821115610a8957610a896109e6565b50601f01601f191660200190565b600082601f830112610aa857600080fd5b8135610abb610ab682610a6f565b610a3e565b818152846020838601011115610ad057600080fd5b816020850160208301376000918101602001919091529392505050565b6001600160a01b0381168114610b0257600080fd5b50565b80356109c681610aed565b600080600080600060a08688031215610b2857600080fd5b853567ffffffffffffffff811115610b3f57600080fd5b610b4b88828901610a97565b955050610b5a602087016109ae565b93506040860135610b6a81610aed565b925060608601359150608086013567ffffffffffffffff811115610b8d57600080fd5b610b9988828901610a97565b9150509295509295909350565b60005b83811015610bc1578181015183820152602001610ba9565b50506000910152565b60008151808452610be2816020860160208601610ba6565b601f01601f19169290920160200192915050565b6020815260006108d56020830184610bca565b600067ffffffffffffffff821115610c2357610c236109e6565b5060051b60200190565b803580151581146109c657600080fd5b600080600060608486031215610c5257600080fd5b833567ffffffffffffffff811115610c6957600080fd5b8401601f81018613610c7a57600080fd5b8035610c88610ab682610c09565b8082825260208201915060208360051b850101925088831115610caa57600080fd5b602084015b83811015610dad57803567ffffffffffffffff811115610cce57600080fd5b85016060818c03601f19011215610ce457600080fd5b610cec610a15565b610cf8602083016109ae565b8152604082013567ffffffffffffffff811115610d1457600080fd5b82016020810190603f018d13610d2957600080fd5b8035610d37610ab682610c09565b8082825260208201915060208360051b85010192508f831115610d5957600080fd5b6020840193505b82841015610d84578335610d7381610aed565b825260209384019390910190610d60565b602085015250610d9991505060608301610c2d565b604082015284525060209283019201610caf565b509550610dc09250505060208501610b05565b9150610dce60408501610b05565b90509250925092565b60008060008060008060c08789031215610df057600080fd5b863567ffffffffffffffff811115610e0757600080fd5b610e1389828a01610a97565b965050610e22602088016109ae565b94506040870135610e3281610aed565b935060608701359250608087013567ffffffffffffffff811115610e5557600080fd5b610e6189828a01610a97565b92505060a087013567ffffffffffffffff811115610e7e57600080fd5b610e8a89828a01610a97565b9150509295509295509295565b60a081526000610eaa60a0830188610bca565b6001600160e01b0319871660208401526001600160a01b03861660408401528460608401528281036080840152610ee18185610bca565b98975050505050505050565b600060208284031215610eff57600080fd5b815167ffffffffffffffff811115610f1657600080fd5b8201601f81018413610f2757600080fd5b8051610f35610ab682610a6f565b818152856020838501011115610f4a57600080fd5b610311826020830160208601610ba6565b7f4e487b7100000000000000000000000000000000000000000000000000000000600052603260045260246000fd5b60c081526000610f9d60c0830189610bca565b6001600160e01b0319881660208401526001600160a01b03871660408401528560608401528281036080840152610fd48186610bca565b905082810360a0840152610fe88185610bca565b999850505050505050505056fea2646970667358221220f06dfdde276fd2114ec2b0eb4447e82fca7b5ad76cfc68d2b06a211006b416e164736f6c634300081c0033",
  "devdoc": {
    "errors": {
      "InvalidInitialization()": [
        {
          "details": "The contract is already initialized."
        }
      ],
      "NotInitializing()": [
        {
          "details": "The contract is not initializing."
        }
      ]
    },
    "events": {
      "Initialized(uint64)": {
        "details": "Triggered when the contract has been initialized or reinitialized."
      }
    },
    "kind": "dev",
    "methods": {
      "supportsInterface(bytes4)": {
        "details": "See {IERC165-supportsInterface}."
      }
    },
    "version": 1
  },
  "userdoc": {
    "kind": "user",
    "methods": {},
    "version": 1
  },
  "storageLayout": {
    "storage": [],
    "types": null
  }
}