{
  "address": "0x67c36Ad3F6049E28BcEc1789b642fB413532cd65",
  "abi": [
    {
      "inputs": [
        {
          "internalType": "bool",
          "name": "isTest",
          "type": "bool"
        }
      ],
      "stateMutability": "nonpayable",
      "type": "constructor"
    },
    {
      "inputs": [],
      "name": "EnforcedPause",
      "type": "error"
    },
    {
      "inputs": [],
      "name": "ExpectedPause",
      "type": "error"
    },
    {
      "inputs": [],
      "name": "InvalidInitialization",
      "type": "error"
    },
    {
      "inputs": [
        {
          "internalType": "bool",
          "name": "recordFound",
          "type": "bool"
        },
        {
          "internalType": "uint256",
          "name": "validUtil",
          "type": "uint256"
        }
      ],
      "name": "InvalidSender",
      "type": "error"
    },
    {
      "inputs": [],
      "name": "NotInitializing",
      "type": "error"
    },
    {
      "inputs": [],
      "name": "ReentrancyGuardReentrantCall",
      "type": "error"
    },
    {
      "inputs": [
        {
          "internalType": "string",
          "name": "str",
          "type": "string"
        }
      ],
      "name": "StringTooLong",
      "type": "error"
    },
    {
      "anonymous": false,
      "inputs": [
        {
          "indexed": true,
          "internalType": "address",
          "name": "user",
          "type": "address"
        },
        {
          "indexed": false,
          "internalType": "uint256",
          "name": "amount",
          "type": "uint256"
        }
      ],
      "name": "Claimed",
      "type": "event"
    },
    {
      "anonymous": false,
      "inputs": [
        {
          "indexed": false,
          "internalType": "uint64",
          "name": "version",
          "type": "uint64"
        }
      ],
      "name": "Initialized",
      "type": "event"
    },
    {
      "anonymous": false,
      "inputs": [
        {
          "indexed": true,
          "internalType": "address",
          "name": "user",
          "type": "address"
        }
      ],
      "name": "OnboardingBonusClaimed",
      "type": "event"
    },
    {
      "anonymous": false,
      "inputs": [
        {
          "indexed": false,
          "internalType": "address",
          "name": "account",
          "type": "address"
        }
      ],
      "name": "Paused",
      "type": "event"
    },
    {
      "anonymous": false,
      "inputs": [
        {
          "indexed": true,
          "internalType": "uint256",
          "name": "lifeTimeScore",
          "type": "uint256"
        },
        {
          "indexed": true,
          "internalType": "uint256",
          "name": "proposedTimes",
          "type": "uint256"
        },
        {
          "indexed": true,
          "internalType": "uint256",
          "name": "repostedTimes",
          "type": "uint256"
        }
      ],
      "name": "ProposalLifetimeScore",
      "type": "event"
    },
    {
      "anonymous": false,
      "inputs": [
        {
          "indexed": true,
          "internalType": "uint256",
          "name": "dailyScore",
          "type": "uint256"
        },
        {
          "indexed": true,
          "internalType": "uint256",
          "name": "day",
          "type": "uint256"
        },
        {
          "indexed": true,
          "internalType": "address",
          "name": "proposer",
          "type": "address"
        },
        {
          "indexed": false,
          "internalType": "bytes32",
          "name": "proposal",
          "type": "bytes32"
        }
      ],
      "name": "ProposalScoreUpdatedByAddress",
      "type": "event"
    },
    {
      "anonymous": false,
      "inputs": [
        {
          "indexed": true,
          "internalType": "uint256",
          "name": "dailyScore",
          "type": "uint256"
        },
        {
          "indexed": true,
          "internalType": "uint256",
          "name": "day",
          "type": "uint256"
        },
        {
          "indexed": true,
          "internalType": "bytes32",
          "name": "proposal",
          "type": "bytes32"
        },
        {
          "indexed": false,
          "internalType": "address",
          "name": "proposer",
          "type": "address"
        }
      ],
      "name": "ProposalScoreUpdatedByProposal",
      "type": "event"
    },
    {
      "anonymous": false,
      "inputs": [
        {
          "indexed": false,
          "internalType": "bytes32",
          "name": "proposalHash",
          "type": "bytes32"
        },
        {
          "indexed": false,
          "internalType": "uint256",
          "name": "newTimesProposed",
          "type": "uint256"
        }
      ],
      "name": "ProposedTime",
      "type": "event"
    },
    {
      "anonymous": false,
      "inputs": [
        {
          "indexed": true,
          "internalType": "address",
          "name": "proposer",
          "type": "address"
        },
        {
          "indexed": true,
          "internalType": "uint256",
          "name": "day",
          "type": "uint256"
        },
        {
          "indexed": true,
          "internalType": "bytes32",
          "name": "proposal",
          "type": "bytes32"
        },
        {
          "indexed": false,
          "internalType": "string",
          "name": "proposalText",
          "type": "string"
        },
        {
          "indexed": false,
          "internalType": "uint256",
          "name": "scoreWhenProposed",
          "type": "uint256"
        }
      ],
      "name": "ProposingByAddress",
      "type": "event"
    },
    {
      "anonymous": false,
      "inputs": [
        {
          "indexed": true,
          "internalType": "address",
          "name": "reposter",
          "type": "address"
        },
        {
          "indexed": true,
          "internalType": "uint256",
          "name": "day",
          "type": "uint256"
        },
        {
          "indexed": true,
          "internalType": "bytes32",
          "name": "proposal",
          "type": "bytes32"
        },
        {
          "indexed": false,
          "internalType": "address",
          "name": "proposer",
          "type": "address"
        },
        {
          "indexed": false,
          "internalType": "string",
          "name": "proposalText",
          "type": "string"
        }
      ],
      "name": "RepostByProposer",
      "type": "event"
    },
    {
      "anonymous": false,
      "inputs": [
        {
          "indexed": true,
          "internalType": "address",
          "name": "proposer",
          "type": "address"
        },
        {
          "indexed": true,
          "internalType": "uint256",
          "name": "day",
          "type": "uint256"
        },
        {
          "indexed": true,
          "internalType": "bytes32",
          "name": "proposal",
          "type": "bytes32"
        },
        {
          "indexed": false,
          "internalType": "address",
          "name": "reposter",
          "type": "address"
        },
        {
          "indexed": false,
          "internalType": "string",
          "name": "proposalText",
          "type": "string"
        }
      ],
      "name": "RepostByReposter",
      "type": "event"
    },
    {
      "anonymous": false,
      "inputs": [
        {
          "indexed": false,
          "internalType": "address",
          "name": "account",
          "type": "address"
        }
      ],
      "name": "Unpaused",
      "type": "event"
    },
    {
      "anonymous": false,
      "inputs": [
        {
          "indexed": true,
          "internalType": "address",
          "name": "participant",
          "type": "address"
        },
        {
          "indexed": true,
          "internalType": "uint256",
          "name": "day",
          "type": "uint256"
        },
        {
          "indexed": true,
          "internalType": "bytes32",
          "name": "proposal",
          "type": "bytes32"
        },
        {
          "indexed": false,
          "internalType": "uint256",
          "name": "amount",
          "type": "uint256"
        }
      ],
      "name": "VotingByAddress",
      "type": "event"
    },
    {
      "inputs": [
        {
          "internalType": "string",
          "name": "data",
          "type": "string"
        }
      ],
      "name": "claim",
      "outputs": [],
      "stateMutability": "nonpayable",
      "type": "function"
    },
    {
      "inputs": [
        {
          "internalType": "address",
          "name": "user",
          "type": "address"
        }
      ],
      "name": "claimOnboardingBonus",
      "outputs": [],
      "stateMutability": "nonpayable",
      "type": "function"
    },
    {
      "inputs": [],
      "name": "currentDay",
      "outputs": [
        {
          "internalType": "uint256",
          "name": "",
          "type": "uint256"
        }
      ],
      "stateMutability": "view",
      "type": "function"
    },
    {
      "inputs": [],
      "name": "getCurrentDay",
      "outputs": [
        {
          "internalType": "uint256",
          "name": "",
          "type": "uint256"
        }
      ],
      "stateMutability": "view",
      "type": "function"
    },
    {
      "inputs": [
        {
          "internalType": "bytes32",
          "name": "hash",
          "type": "bytes32"
        },
        {
          "internalType": "uint256",
          "name": "day",
          "type": "uint256"
        }
      ],
      "name": "getProposalDailyScore",
      "outputs": [
        {
          "components": [
            {
              "internalType": "bytes32",
              "name": "proposal",
              "type": "bytes32"
            },
            {
              "internalType": "uint256",
              "name": "score",
              "type": "uint256"
            },
            {
              "internalType": "address",
              "name": "proposer",
              "type": "address"
            },
            {
              "internalType": "bool",
              "name": "exists",
              "type": "bool"
            }
          ],
          "internalType": "struct LibUBI.DailyProposal",
          "name": "",
          "type": "tuple"
        }
      ],
      "stateMutability": "view",
      "type": "function"
    },
    {
      "inputs": [
        {
          "internalType": "uint256",
          "name": "day",
          "type": "uint256"
        }
      ],
      "name": "getProposalsCnt",
      "outputs": [
        {
          "internalType": "uint256",
          "name": "",
          "type": "uint256"
        }
      ],
      "stateMutability": "view",
      "type": "function"
    },
    {
      "inputs": [
        {
          "internalType": "string",
          "name": "text",
          "type": "string"
        }
      ],
      "name": "getShortStringBytes32",
      "outputs": [
        {
          "internalType": "bytes32",
          "name": "",
          "type": "bytes32"
        }
      ],
      "stateMutability": "pure",
      "type": "function"
    },
    {
      "inputs": [],
      "name": "getUBIParams",
      "outputs": [
        {
          "internalType": "uint256",
          "name": "dailyClaimAmount",
          "type": "uint256"
        },
        {
          "internalType": "uint256",
          "name": "dailySupportAmount",
          "type": "uint256"
        },
        {
          "internalType": "bytes32",
          "name": "domainName",
          "type": "bytes32"
        }
      ],
      "stateMutability": "view",
      "type": "function"
    },
    {
      "inputs": [
        {
          "internalType": "address",
          "name": "user",
          "type": "address"
        }
      ],
      "name": "getUserState",
      "outputs": [
        {
          "internalType": "bool",
          "name": "claimedToday",
          "type": "bool"
        },
        {
          "internalType": "uint256",
          "name": "supportSpent",
          "type": "uint256"
        }
      ],
      "stateMutability": "view",
      "type": "function"
    },
    {
      "inputs": [
        {
          "internalType": "contract IMultipass",
          "name": "_multipass",
          "type": "address"
        },
        {
          "internalType": "contract DistributableGovernanceERC20",
          "name": "_token",
          "type": "address"
        },
        {
          "internalType": "address",
          "name": "_pauser",
          "type": "address"
        },
        {
          "internalType": "uint256",
          "name": "dailyClaim",
          "type": "uint256"
        },
        {
          "internalType": "uint256",
          "name": "dailySupport",
          "type": "uint256"
        },
        {
          "internalType": "bytes32",
          "name": "domainName",
          "type": "bytes32"
        }
      ],
      "name": "initialize",
      "outputs": [],
      "stateMutability": "nonpayable",
      "type": "function"
    },
    {
      "inputs": [
        {
          "internalType": "address",
          "name": "user",
          "type": "address"
        }
      ],
      "name": "lastClaimedAt",
      "outputs": [
        {
          "internalType": "uint256",
          "name": "",
          "type": "uint256"
        }
      ],
      "stateMutability": "view",
      "type": "function"
    },
    {
      "inputs": [],
      "name": "multipass",
      "outputs": [
        {
          "internalType": "contract IMultipass",
          "name": "",
          "type": "address"
        }
      ],
      "stateMutability": "view",
      "type": "function"
    },
    {
      "inputs": [
        {
          "internalType": "address",
          "name": "user",
          "type": "address"
        }
      ],
      "name": "onboardingBonusClaimed",
      "outputs": [
        {
          "internalType": "bool",
          "name": "",
          "type": "bool"
        }
      ],
      "stateMutability": "view",
      "type": "function"
    },
    {
      "inputs": [],
      "name": "pause",
      "outputs": [],
      "stateMutability": "nonpayable",
      "type": "function"
    },
    {
      "inputs": [],
      "name": "paused",
      "outputs": [
        {
          "internalType": "bool",
          "name": "",
          "type": "bool"
        }
      ],
      "stateMutability": "view",
      "type": "function"
    },
    {
      "inputs": [],
      "name": "pauser",
      "outputs": [
        {
          "internalType": "address",
          "name": "",
          "type": "address"
        }
      ],
      "stateMutability": "view",
      "type": "function"
    },
    {
      "inputs": [
        {
          "internalType": "bytes32",
          "name": "proposal",
          "type": "bytes32"
        }
      ],
      "name": "proposalLifetimeStats",
      "outputs": [
        {
          "components": [
            {
              "internalType": "uint256",
              "name": "aggregateScore",
              "type": "uint256"
            },
            {
              "internalType": "uint256",
              "name": "proposedTimes",
              "type": "uint256"
            },
            {
              "internalType": "uint256",
              "name": "repostedTimes",
              "type": "uint256"
            }
          ],
          "internalType": "struct LibUBI.ProposalGlobalStats",
          "name": "",
          "type": "tuple"
        }
      ],
      "stateMutability": "view",
      "type": "function"
    },
    {
      "inputs": [
        {
          "components": [
            {
              "internalType": "bytes32",
              "name": "proposal",
              "type": "bytes32"
            },
            {
              "internalType": "uint256",
              "name": "amount",
              "type": "uint256"
            }
          ],
          "internalType": "struct LibUBI.VoteElement[]",
          "name": "votes",
          "type": "tuple[]"
        }
      ],
      "name": "support",
      "outputs": [],
      "stateMutability": "nonpayable",
      "type": "function"
    },
    {
      "inputs": [],
      "name": "token",
      "outputs": [
        {
          "internalType": "contract DistributableGovernanceERC20",
          "name": "",
          "type": "address"
        }
      ],
      "stateMutability": "view",
      "type": "function"
    },
    {
      "inputs": [],
      "name": "unpause",
      "outputs": [],
      "stateMutability": "nonpayable",
      "type": "function"
    }
  ],
  "transactionHash": "0xe8774c9e4a8cc3d85856a27b1db66d55eadd6838823ea92c578f1de45faac684",
  "args": [
    true
  ],
  "numDeployments": 1,
  "solcInputHash": "2051e66cf752885c15496c1854c9fb70",
  "bytecode": "0x60803461012357601f611b9738819003918201601f19168301916001600160401b038311848410176101285780849260209460405283398101031261012357518015908115036101235761005d575b604051611a58908161013f8239f35b7ff0c57e16840df040f15088dc2f81fe391c3923bec73e23a9662efc9c229c6a005460ff8160401c16610112576002600160401b03196001600160401b038216016100a9575b5061004e565b6001600160401b0319166001600160401b039081177ff0c57e16840df040f15088dc2f81fe391c3923bec73e23a9662efc9c229c6a00556040519081527fc7f505b2f371ae2175ee4913f4499e1f2633a7b5936321eed1cdaeb6115181d290602090a1386100a3565b63f92ee8a960e01b60005260046000fd5b600080fd5b634e487b7160e01b600052604160045260246000fdfe6080604052600436101561001257600080fd5b6000803560e01c806326a40c99146115405780633cee06c3146113195780633e6968b614610fc35780633f4ba83a1461128a578063416ae7681461120757806354abb58a1461101157806356b79ea314610fc85780635c9302c914610fc35780635c975abb14610f935780638456cb5914610f0757806398a2d6b914610e985780639fd0506d14610e73578063a7cfe7a614610e46578063a9c264e014610e08578063b002722f14610d4c578063b55b2efb14610d16578063d4568df5146106ee578063f3366d691461066d578063f3fe12c91461012b5763fc0c546a146100f957600080fd5b3461012857806003193601126101285760206001600160a01b03600161011d6118ea565b015416604051908152f35b80fd5b50346101285761013a3661164b565b61014261192e565b61014a61196a565b6101526118ea565b906101a860e060028401546040519061016a826115bf565b815233602082015285604082015285606082015285608082015260018060a01b03855416604051808095819463898c2bd7871b8352600483016117a4565b03915afa9081156106625784908592610630575b506105398351116105e157806101dd9281926105d3575b60a00151916117e0565b620151804204906005830160018060a01b033316600052806020528260406000205410156105965760018060a01b033316600052602052816040600020558051602082012091829160078501828752806020526040872084885260205260ff600260408920015460a01c166000146103eb578287528060205260408720848852602052838360018060a01b03600260408b200154167f4c76a4f086ce6ad5c2806980ff454f7d1afede1a44d2b294392a4e71caadb824604051806102a3883395836118c5565b0390a4828752602052604086208387526020527f4e81fd66d0ec8e06c97c262bbed3b74e87b36ddfdb6e7241d96042f9748428226102f860018060a01b03600260408a200154169260405191829133836118c5565b0390a482526008810160205260026040832001805490600182018092116103d757555b81600360018060a01b03600184015416920191825490803b156103d3576040516340c10f1960e01b8152336004820152602481019290925282908290604490829084905af180156103c8576103af575b5050546040519081527fd8138f8a3f377c5259ca548e70e4c2de94f129f5a11036a15b69513cba2b426a60203392a260016000805160206119e38339815191525580f35b816103b991611629565b6103c457813861036b565b5080fd5b6040513d84823e3d90fd5b8280fd5b634e487b7160e01b84526011600452602484fd5b90927fc5d2460186f7233c927e7db2dcc703c0e500b653ca82273b7bfad8045d85a4700361041d575b5050505061031b565b604051610429816115f1565b8481526020808201888152336040808501918252600160608601818152888d52878652828d208b8e528652828d2096518755935186820155915160029095018054935160ff60a01b90151560a01b166001600160a01b039096166001600160a81b031990941693909317949094179091558489529290528620018054600019811461058257600101905560088401918386528260205260408620549084875283602052600160408820018054906001820180921161056e57927f70cba775c3e76796edd86bb83706d1b2a6c2e2a1cde87642779e63fd4395fb08879592937fff8f48938b27e9c7e8f75224660ff75ffaa4271a3596186ee2e2595eb188e5ef9894604098965561054188519189835289830190611884565b9260208201528033930390a48186526020526001828620015482519182526020820152a138808080610414565b634e487b7160e01b89526011600452602489fd5b634e487b7160e01b87526011600452602487fd5b60405162461bcd60e51b8152602060048201526015602482015274416c726561647920636c61696d656420746f64617960581b6044820152606490fd5b60a0810151421092506101d3565b60405162461bcd60e51b815260206004820152602160248201527f4d617820446174612073697a6520313333372c207573652049504653206c696e6044820152606b60f81b6064820152608490fd5b9050610654915060e03d60e01161065b575b61064c8183611629565b8101906116ff565b90386101bc565b503d610642565b6040513d86823e3d90fd5b5034610128576020366003190112610128576040816060928280516106918161160d565b828152826020820152015260086106a66118ea565b016004358252602052206040516106bc8161160d565b815491828252604060026001830154926020850193845201549201918252604051928352516020830152516040820152f35b5034610128576020366003190112610128576004359067ffffffffffffffff8211610128573660238301121561012857816004013567ffffffffffffffff8111610d02576040519261074660208360051b0185611629565b8184526024602085019260061b82010190368211610cfe57602401915b818310610ca65750505061077561192e565b61077d61196a565b6107856118ea565b906107db60e060028401546040519061079d826115bf565b815233602082015283604082015283606082015283608082015260018060a01b03855416604051808095819463898c2bd7871b8352600483016117a4565b03915afa80156103c8579061080a9183908490610c85575b8180935092610c77575b60a00151949594916117e0565b600683019262015180420460001981018181119260088101926004820192909160078101919060010133885b8a51811015610c615760208160051b8c01015198610c4d57838a528460205260408a2089518b5260205260ff600260408c20015460a01c1615610c0957838a528460205260408a2089518b5260205260018060a01b03600260408c2001541698602081016108a781518a5411611802565b338b14610bc45761271081511015610b8c5761090a60408f8e82916108cd86518061184e565b8d8352816020526108ed848085206000908d825260205220918254611877565b90558c82526020522060009087825260205220548a541015611802565b845460405163313ce56760e01b81526001600160a01b0390911690602081600481855afa8015610b7f578e90610b43575b8351915060ff16604d8111610b2f579061095891600a0a9061184e565b90803b15610b2b576040516340c10f1960e01b81526001600160a01b038e166004820152602481019290925290939291908d908590604490829084905af18015610b2057908d9291610b01575b6001945081518a82516040519081527fe959d0da61f641f723d10c9564245d9409e6b4d308c1eb503edd266d2dea97e660203392a48051825184528c6020526109f360408520918254611877565b905551878352886020526040832082518452602052610a19856040852001918254611877565b90558682528760205260408220815183526020528b89856040852001547f7f609bde9e2a7dd1f0b887321f3041731906aeb5e74c719a16357e7353ccda3760208551604051908152a4819b87835288602052604083208251845260205289856040852001547f611af4e078582cb9a805b9277e41cbaa600643e0b482a5f80bf376fdb776634b6020855194604051908152a4805182528a6020526040822054815183528b60205284604084200154915183528b6020527fce25b112175752394b3713f253322b38de22bd433eb737b87d3f8024d841aaac60026040852001549380a401610836565b9190929381610b0f91611629565b610b1c5782918c916109a5565b8b80fd5b6040513d8f823e3d90fd5b8d80fd5b634e487b7160e01b8f52601160045260248ffd5b506020813d8211610b77575b81610b5c60209383611629565b81010312610b2b575160ff81168103610b2b5760ff9061093b565b3d9150610b4f565b8e604051903d90823e3d90fd5b60405162461bcd60e51b815260206004820152601060248201526f616d6f756e7420746f6f206c6172676560801b6044820152606490fd5b60405162461bcd60e51b815260206004820152601760248201527f43616e6e6f7420737570706f727420796f757273656c660000000000000000006044820152606490fd5b606460405162461bcd60e51b815260206004820152602060248201527f50726f706f73616c206973206e6f7420696e206461696c79206d656e75203a286044820152fd5b634e487b7160e01b8a52601160045260248afd5b8960016000805160206119e38339815191525580f35b60a0810151421092506107fd565b5050610c9f9060e03d60e01161065b5761064c8183611629565b81906107f3565b604083360312610cfe576040516040810181811067ffffffffffffffff821117610cea57916020916040938452853581528286013583820152815201920191610763565b634e487b7160e01b86526041600452602486fd5b8380fd5b634e487b7160e01b82526041600452602482fd5b503461012857602036600319011261012857600160406020926007610d396118ea565b0160043582528452200154604051908152f35b50346101285760403660031901126101285760408160809260608351610d71816115f1565b828152826020820152828582015201526007610d8b6118ea565b01602435825260205281812060043582526020522060405190610dad826115f1565b80549182815260026001830154926020830193845201549160ff6060604084019360018060a01b0386168552019360a01c161515835260405193845251602084015260018060a01b0390511660408301525115156060820152f35b50346101285780600319360112610128576060610e236118ea565b600381015490600260048201549101549060405192835260208301526040820152f35b503461012857806003193601126101285760206001600160a01b03610e696118ea565b5416604051908152f35b503461012857806003193601126101285760206001600160a01b03600a61011d6118ea565b503461012857610ea73661164b565b601f815111610ede576020915081815191015190828110610ecc575b60405191178152f35b9060001982840360031b1b1690610ec3565b60405163305a27a960e01b815260206004820152908190610f03906024830190611884565b0390fd5b5034610128578060031936011261012857610f376001600160a01b03600a610f2d6118ea565b01541633146116c4565b610f3f61196a565b600160ff196000805160206119c38339815191525416176000805160206119c3833981519152557f62e78cea01bee320cd4e420270b5ea74000d11b0c9f74754ebdbfc544b05a2586020604051338152a180f35b5034610128578060031936011261012857602060ff6000805160206119c383398151915254166040519015158152f35b61159e565b503461012857602036600319011261012857610fe2611583565b600b610fec6118ea565b019060018060a01b0316600052602052602060ff604060002054166040519015158152f35b50346101285760203660031901126101285761102b611583565b9061103461192e565b61103c6118ea565b6001600160a01b0383168252600b8101602081905260408320549093919060ff166111d05760028101549360405194611074866115bf565b85526110c160e060018060a01b0385169687602082015286604082015286606082015286608082015260018060a01b03855416604051808095819463898c2bd7871b8352600483016117a4565b03915afa80156111c557906110ec91869087906111a4575b81809350926105d35760a00151916117e0565b84845260205260408320600160ff19825416179055600360018060a01b0360018301541691015491813b15610cfe576040516340c10f1960e01b81526001600160a01b03919091166004820152602481019290925282908290604490829084905af180156103c857611194575b50907f51ebc001e19b1bc932ea2179173f6ef1ebc237ace6a7170e36bacf02212c6a3e8280a260016000805160206119e38339815191525580f35b8161119e91611629565b38611159565b50506111be9060e03d60e01161065b5761064c8183611629565b81906110d9565b6040513d87823e3d90fd5b60405162461bcd60e51b815260206004820152600f60248201526e185b1c9958591e4818db185a5b5959608a1b6044820152606490fd5b503461012857602036600319011261012857604090611224611583565b61122c6118ea565b6001600160a01b0382168352600581016020528383205462015180420492916006918403611283576001935b8552016020528383209060018060a01b03168352602052828220549083519250151582526020820152f35b8493611258565b50346101285780600319360112610128576112b06001600160a01b03600a610f2d6118ea565b6000805160206119c38339815191525460ff81161561130a5760ff19166000805160206119c3833981519152557f5db9ee0a495bf2e6ff9c91a7834c1ba4fdd244a5e8aa4e537bd38aeae4b073aa6020604051338152a180f35b638dfc202b60e01b8252600482fd5b50346101285760c0366003190112610128576004356001600160a01b03811681036103c457602435906001600160a01b03821682036103d3576044356001600160a01b0381168103610cfe57600080516020611a03833981519152549260ff8460401c16159367ffffffffffffffff811680159081611538575b600114908161152e575b159081611525575b506115165767ffffffffffffffff198116600117600080516020611a0383398151915255846114e9575b506113d86118ea565b80546001600160a01b03199081166001600160a01b03958616178255600182018054821693861693909317909255600a81018054909216929093169190911790556064356003820155608435600482015560a43560029091015561143a611994565b611442611994565b60016000805160206119e38339815191525561145c611994565b611464611994565b60ff196000805160206119c383398151915254166000805160206119c38339815191525561148f5780f35b68ff000000000000000019600080516020611a038339815191525416600080516020611a03833981519152557fc7f505b2f371ae2175ee4913f4499e1f2633a7b5936321eed1cdaeb6115181d2602060405160018152a180f35b68ffffffffffffffffff19166801000000000000000117600080516020611a0383398151915255386113cf565b63f92ee8a960e01b8652600486fd5b905015386113a5565b303b15915061139d565b869150611393565b503461012857602036600319011261012857604060209161155f611583565b60056115696118ea565b6001600160a01b0390921683520183522054604051908152f35b600435906001600160a01b038216820361159957565b600080fd5b34611599576000366003190112611599576020620151804204604051908152f35b60a0810190811067ffffffffffffffff8211176115db57604052565b634e487b7160e01b600052604160045260246000fd5b6080810190811067ffffffffffffffff8211176115db57604052565b6060810190811067ffffffffffffffff8211176115db57604052565b90601f8019910116810190811067ffffffffffffffff8211176115db57604052565b60206003198201126115995760043567ffffffffffffffff811161159957816023820112156115995780600401359067ffffffffffffffff82116115db57604051926116a1601f8401601f191660200185611629565b828452602483830101116115995781600092602460209301838601378301015290565b156116cb57565b60405162461bcd60e51b815260206004820152600c60248201526b3737ba1030903830bab9b2b960a11b6044820152606490fd5b809291039160e0831261159957805180151581036115995760c09093601f190112611599576040519060c0820182811067ffffffffffffffff8211176115db5760405260208101516001600160a01b038116810361159957825260408101516020830152606081015160408301526080810151906bffffffffffffffffffffffff821682036115995760c091606084015260a08101516080840152015160a082015290565b91909160808060a08301948051845260018060a01b03602082015116602085015260408101516040850152606081015160608501520151910152565b156117e9575050565b63de3c15a160e01b600052151560045260245260446000fd5b1561180957565b60405162461bcd60e51b815260206004820152601c60248201527f4461696c7920737570706f7274206c696d6974206578636565646564000000006044820152606490fd5b8181029291811591840414171561186157565b634e487b7160e01b600052601160045260246000fd5b9190820180921161186157565b919082519283825260005b8481106118b0575050826000602080949584010152601f8019910116010190565b8060208092840101518282860101520161188f565b6001600160a01b0390911681526040602082018190526118e792910190611884565b90565b604051602081017fedb2a94c935fa763a80e7c08a5742571d586145226dc0ba76b996f4f27c409da815260208252611923604083611629565b9051902060ff191690565b60026000805160206119e383398151915254146119595760026000805160206119e383398151915255565b633ee5aeb560e01b60005260046000fd5b60ff6000805160206119c3833981519152541661198357565b63d93c066560e01b60005260046000fd5b60ff600080516020611a038339815191525460401c16156119b157565b631afcd79f60e31b60005260046000fdfecd5ed15c6e187e77e9aee88184c21f4f2182ab5827cb3b7e07fbedcd63f033009b779b17422d0df92223018b32b4d1fa46e071723d6817e2486d003becc55f00f0c57e16840df040f15088dc2f81fe391c3923bec73e23a9662efc9c229c6a00a2646970667358221220338aef2debfd2223b6b63888b313d18b72bc8afd046b30a59cf0834c512960ec64736f6c634300081c0033",
  "devdoc": {
    "author": "Peeramid Labs",
    "errors": {
      "EnforcedPause()": [
        {
          "details": "The operation failed because the contract is paused."
        }
      ],
      "ExpectedPause()": [
        {
          "details": "The operation failed because the contract is not paused."
        }
      ],
      "InvalidInitialization()": [
        {
          "details": "The contract is already initialized."
        }
      ],
      "InvalidSender(bool,uint256)": [
        {
          "params": {
            "recordFound": "Whether a Multipass record was found for the sender.",
            "validUtil": "The timestamp until which the sender's Multipass record is valid."
          }
        }
      ],
      "NotInitializing()": [
        {
          "details": "The contract is not initializing."
        }
      ],
      "ReentrancyGuardReentrantCall()": [
        {
          "details": "Unauthorized reentrant call."
        }
      ]
    },
    "events": {
      "Claimed(address,uint256)": {
        "params": {
          "amount": "The amount of tokens claimed.",
          "user": "The address of the user who claimed."
        }
      },
      "Initialized(uint64)": {
        "details": "Triggered when the contract has been initialized or reinitialized."
      },
      "Paused(address)": {
        "details": "Emitted when the pause is triggered by `account`."
      },
      "ProposalLifetimeScore(uint256,uint256,uint256)": {
        "params": {
          "lifeTimeScore": "The new aggregate lifetime score of the proposal.",
          "proposedTimes": "The total number of times the proposal has been submitted.",
          "repostedTimes": "The total number of times the proposal has been reposted."
        }
      },
      "ProposalScoreUpdatedByAddress(uint256,uint256,address,bytes32)": {
        "params": {
          "dailyScore": "The new daily score of the proposal.",
          "day": "The day the score was updated.",
          "proposal": "The hash of the proposal.",
          "proposer": "The address of the proposal's creator."
        }
      },
      "ProposalScoreUpdatedByProposal(uint256,uint256,bytes32,address)": {
        "params": {
          "dailyScore": "The new daily score of the proposal.",
          "day": "The day the score was updated.",
          "proposal": "The hash of the proposal.",
          "proposer": "The address of the proposal's creator."
        }
      },
      "ProposedTime(bytes32,uint256)": {
        "params": {
          "newTimesProposed": "The new total count of times this proposal has been made.",
          "proposalHash": "The hash of the proposal."
        }
      },
      "ProposingByAddress(address,uint256,bytes32,string,uint256)": {
        "params": {
          "day": "Day number when the proposal was created",
          "proposal": "Hash of the proposal",
          "proposalText": "Full text of the proposal",
          "proposer": "Address of the proposal creator"
        }
      },
      "RepostByProposer(address,uint256,bytes32,address,string)": {
        "params": {
          "day": "The day of the repost.",
          "proposal": "The hash of the proposal.",
          "proposalText": "The text of the proposal.",
          "proposer": "The original proposer's address.",
          "reposter": "The address of the user who reposted."
        }
      },
      "RepostByReposter(address,uint256,bytes32,address,string)": {
        "params": {
          "day": "The day of the repost.",
          "proposal": "The hash of the proposal.",
          "proposalText": "The text of the proposal.",
          "proposer": "The original proposer's address.",
          "reposter": "The address of the user who reposted."
        }
      },
      "Unpaused(address)": {
        "details": "Emitted when the pause is lifted by `account`."
      },
      "VotingByAddress(address,uint256,bytes32,uint256)": {
        "params": {
          "amount": "Amount of voting power allocated",
          "day": "Day number when the vote was cast",
          "participant": "Address of the voter",
          "proposal": "Hash of the proposal being voted on"
        }
      }
    },
    "kind": "dev",
    "methods": {
      "claim(string)": {
        "details": "A user must have a valid Multipass record to call this function. They can only claim once per day. If `data` is provided, it's treated as a proposal. If the proposal is new for the day, it's created. If it's a duplicate of an existing proposal for the day, it's counted as a repost. Claiming also resets the user's daily support allowance.",
        "params": {
          "data": "The proposal text. If empty, no proposal is submitted."
        }
      },
      "claimOnboardingBonus(address)": {
        "details": "The onboarding bonus is a one-time reward for new users. The bonus is claimed by calling this function. The bonus is added to the user's balance. The bonus is only claimable once.",
        "params": {
          "user": "The address of the user claiming the bonus."
        }
      },
      "constructor": {
        "details": "Intentionally empty as initialization happens in initialize()"
      },
      "currentDay()": {
        "details": "The day is calculated as `block.timestamp / 1 days`.",
        "returns": {
          "_0": "The current day number."
        }
      },
      "getCurrentDay()": {
        "returns": {
          "_0": "The current day number."
        }
      },
      "getProposalDailyScore(bytes32,uint256)": {
        "params": {
          "day": "The day to query.",
          "hash": "The hash of the proposal."
        },
        "returns": {
          "_0": "A `DailyProposal` struct with the proposal's daily information."
        }
      },
      "getProposalsCnt(uint256)": {
        "params": {
          "day": "The day to query."
        },
        "returns": {
          "_0": "The count of proposals for that day."
        }
      },
      "getUBIParams()": {
        "returns": {
          "dailyClaimAmount": "The amount of tokens for a daily claim.",
          "dailySupportAmount": "The amount of support points available daily.",
          "domainName": "The Multipass domain name."
        }
      },
      "getUserState(address)": {
        "params": {
          "user": "The address of the user to query."
        },
        "returns": {
          "claimedToday": "A boolean indicating if the user has claimed today.",
          "supportSpent": "The amount of support points the user has spent today."
        }
      },
      "initialize(address,address,address,uint256,uint256,bytes32)": {
        "details": "This function is called once to set up the contract's initial state. It sets the Multipass contract instance, the governance token, the pauser address, and the daily claim/support amounts.",
        "params": {
          "_multipass": "The address of the Multipass contract.",
          "_pauser": "The address that has permission to pause and unpause the contract.",
          "_token": "The address of the DistributableGovernanceERC20 token contract.",
          "dailyClaim": "The amount of tokens users can claim daily.",
          "dailySupport": "The amount of support points users can allocate daily.",
          "domainName": "The Multipass domain name for identity verification."
        }
      },
      "lastClaimedAt(address)": {
        "params": {
          "user": "The address of the user to query."
        },
        "returns": {
          "_0": "The day number of the last claim. Returns 0 if never claimed."
        }
      },
      "multipass()": {
        "returns": {
          "_0": "The `IMultipass` contract instance used for identity checks."
        }
      },
      "pause()": {
        "details": "Can only be called by the WorldMultiSig contract"
      },
      "paused()": {
        "details": "Returns true if the contract is paused, and false otherwise."
      },
      "pauser()": {
        "returns": {
          "_0": "The address with pausing/unpausing permissions."
        }
      },
      "proposalLifetimeStats(bytes32)": {
        "params": {
          "proposal": "Hash of the proposal to query"
        },
        "returns": {
          "_0": "uint256 Current score/votes for the proposal"
        }
      },
      "support((bytes32,uint256)[])": {
        "details": "This function implements a quadratic voting mechanism where the cost to support is the square of the amount. A user must have claimed their tokens for the current day before they can support proposals. The total support spent cannot exceed the `dailySupportAmount`. Users cannot support their own proposals.",
        "params": {
          "votes": "An array of `VoteElement` structs, each containing a proposal hash and the amount of support."
        }
      },
      "token()": {
        "returns": {
          "_0": "The `DistributableGovernanceERC20` token contract used for UBI."
        }
      },
      "unpause()": {
        "details": "Can only be called by the WorldMultiSig contract"
      }
    },
    "title": "Universal Basic Income (UBI) Contract",
    "version": 1
  },
  "userdoc": {
    "errors": {
      "InvalidSender(bool,uint256)": [
        {
          "notice": "Error thrown when a user without a valid Multipass record tries to interact with the contract."
        }
      ]
    },
    "events": {
      "Claimed(address,uint256)": {
        "notice": "Event emitted when a user successfully claims their daily tokens."
      },
      "ProposalLifetimeScore(uint256,uint256,uint256)": {
        "notice": "Event emitted when a proposal's lifetime statistics are updated."
      },
      "ProposalScoreUpdatedByAddress(uint256,uint256,address,bytes32)": {
        "notice": "Event emitted when a proposal's daily score is updated, indexed by proposer."
      },
      "ProposalScoreUpdatedByProposal(uint256,uint256,bytes32,address)": {
        "notice": "Event emitted when a proposal's daily score is updated, indexed by proposal hash."
      },
      "ProposedTime(bytes32,uint256)": {
        "notice": "Event emitted when a proposal is made, indicating how many times it has been proposed."
      },
      "ProposingByAddress(address,uint256,bytes32,string,uint256)": {
        "notice": "Event for tracking proposals by address"
      },
      "RepostByProposer(address,uint256,bytes32,address,string)": {
        "notice": "Event emitted when a user reposts an existing proposal, indexed by original proposer."
      },
      "RepostByReposter(address,uint256,bytes32,address,string)": {
        "notice": "Event emitted when a user reposts an existing proposal, indexed by reposter."
      },
      "VotingByAddress(address,uint256,bytes32,uint256)": {
        "notice": "Event emitted when a user votes on proposals"
      }
    },
    "kind": "user",
    "methods": {
      "claim(string)": {
        "notice": "Allows a user to claim their daily tokens and optionally submit a proposal."
      },
      "claimOnboardingBonus(address)": {
        "notice": "Allows a user to claim their onboarding bonus."
      },
      "constructor": {
        "notice": "Constructor"
      },
      "currentDay()": {
        "notice": "Calculates the current day based on the block timestamp."
      },
      "getCurrentDay()": {
        "notice": "An alias for `currentDay()`."
      },
      "getProposalDailyScore(bytes32,uint256)": {
        "notice": "Gets the details of a proposal for a specific day."
      },
      "getProposalsCnt(uint256)": {
        "notice": "Gets the total number of unique proposals for a specific day."
      },
      "getUBIParams()": {
        "notice": "Retrieves the main parameters of the UBI system."
      },
      "getUserState(address)": {
        "notice": "Gets the current daily state for a user."
      },
      "initialize(address,address,address,uint256,uint256,bytes32)": {
        "notice": "Initializes the UBI contract."
      },
      "lastClaimedAt(address)": {
        "notice": "Gets the day a user last claimed their tokens."
      },
      "multipass()": {
        "notice": "Gets the Multipass contract instance."
      },
      "pause()": {
        "notice": "Pauses all contract functions with the whenNotPaused modifier"
      },
      "pauser()": {
        "notice": "Gets the address of the pauser."
      },
      "proposalLifetimeStats(bytes32)": {
        "notice": "Gets the total score for a proposal"
      },
      "support((bytes32,uint256)[])": {
        "notice": "Allows a user to support one or more proposals from the previous day."
      },
      "token()": {
        "notice": "Gets the governance token contract instance."
      },
      "unpause()": {
        "notice": "Pauses all contract functions with the whenNotPaused modifier"
      }
    },
    "notice": "This contract manages a UBI system where users can claim daily tokens and support proposals. It integrates with Multipass for identity verification and uses an ERC20 token for distribution. Users can claim a fixed amount of tokens daily. After claiming, they can also propose ideas or support existing ones from the previous day using a quadratic voting mechanism. The contract is upgradeable and pausable.",
    "version": 1
  },
  "storageLayout": {
    "storage": [],
    "types": null
  }
}